
Rx.elf:     file format elf32-littlearm

Sections:
Idx Name          Size      VMA       LMA       File off  Algn
  0 .isr_vector   00000188  08000000  08000000  00010000  2**0
                  CONTENTS, ALLOC, LOAD, READONLY, DATA
  1 .text         000031c8  08000188  08000188  00010188  2**2
                  CONTENTS, ALLOC, LOAD, READONLY, CODE
  2 .rodata       00000010  08003350  08003350  00013350  2**2
                  CONTENTS, ALLOC, LOAD, READONLY, DATA
  3 .ARM.extab    00000000  08003360  08003360  0002000c  2**0
                  CONTENTS
  4 .ARM          00000008  08003360  08003360  00013360  2**2
                  CONTENTS, ALLOC, LOAD, READONLY, DATA
  5 .preinit_array 00000000  08003368  08003368  0002000c  2**0
                  CONTENTS, ALLOC, LOAD, DATA
  6 .init_array   00000004  08003368  08003368  00013368  2**2
                  CONTENTS, ALLOC, LOAD, DATA
  7 .fini_array   00000004  0800336c  0800336c  0001336c  2**2
                  CONTENTS, ALLOC, LOAD, DATA
  8 .data         0000000c  20000000  08003370  00020000  2**2
                  CONTENTS, ALLOC, LOAD, DATA
  9 .ccmram       00000000  10000000  10000000  0002000c  2**0
                  CONTENTS
 10 .bss          000000c4  2000000c  2000000c  0002000c  2**2
                  ALLOC
 11 ._user_heap_stack 00000600  200000d0  200000d0  0002000c  2**0
                  ALLOC
 12 .ARM.attributes 00000030  00000000  00000000  0002000c  2**0
                  CONTENTS, READONLY
 13 .debug_info   00007fb1  00000000  00000000  0002003c  2**0
                  CONTENTS, READONLY, DEBUGGING, OCTETS
 14 .debug_abbrev 000015aa  00000000  00000000  00027fed  2**0
                  CONTENTS, READONLY, DEBUGGING, OCTETS
 15 .debug_aranges 00000760  00000000  00000000  00029598  2**3
                  CONTENTS, READONLY, DEBUGGING, OCTETS
 16 .debug_ranges 000006b8  00000000  00000000  00029cf8  2**3
                  CONTENTS, READONLY, DEBUGGING, OCTETS
 17 .debug_macro  00020491  00000000  00000000  0002a3b0  2**0
                  CONTENTS, READONLY, DEBUGGING, OCTETS
 18 .debug_line   00007b79  00000000  00000000  0004a841  2**0
                  CONTENTS, READONLY, DEBUGGING, OCTETS
 19 .debug_str    000c45e3  00000000  00000000  000523ba  2**0
                  CONTENTS, READONLY, DEBUGGING, OCTETS
 20 .comment      00000050  00000000  00000000  0011699d  2**0
                  CONTENTS, READONLY
 21 .debug_frame  00001da0  00000000  00000000  001169f0  2**2
                  CONTENTS, READONLY, DEBUGGING, OCTETS

Disassembly of section .text:

08000188 <__do_global_dtors_aux>:
 8000188:	b510      	push	{r4, lr}
 800018a:	4c05      	ldr	r4, [pc, #20]	; (80001a0 <__do_global_dtors_aux+0x18>)
 800018c:	7823      	ldrb	r3, [r4, #0]
 800018e:	b933      	cbnz	r3, 800019e <__do_global_dtors_aux+0x16>
 8000190:	4b04      	ldr	r3, [pc, #16]	; (80001a4 <__do_global_dtors_aux+0x1c>)
 8000192:	b113      	cbz	r3, 800019a <__do_global_dtors_aux+0x12>
 8000194:	4804      	ldr	r0, [pc, #16]	; (80001a8 <__do_global_dtors_aux+0x20>)
 8000196:	f3af 8000 	nop.w
 800019a:	2301      	movs	r3, #1
 800019c:	7023      	strb	r3, [r4, #0]
 800019e:	bd10      	pop	{r4, pc}
 80001a0:	2000000c 	.word	0x2000000c
 80001a4:	00000000 	.word	0x00000000
 80001a8:	08003338 	.word	0x08003338

080001ac <frame_dummy>:
 80001ac:	b508      	push	{r3, lr}
 80001ae:	4b03      	ldr	r3, [pc, #12]	; (80001bc <frame_dummy+0x10>)
 80001b0:	b11b      	cbz	r3, 80001ba <frame_dummy+0xe>
 80001b2:	4903      	ldr	r1, [pc, #12]	; (80001c0 <frame_dummy+0x14>)
 80001b4:	4803      	ldr	r0, [pc, #12]	; (80001c4 <frame_dummy+0x18>)
 80001b6:	f3af 8000 	nop.w
 80001ba:	bd08      	pop	{r3, pc}
 80001bc:	00000000 	.word	0x00000000
 80001c0:	20000010 	.word	0x20000010
 80001c4:	08003338 	.word	0x08003338

080001c8 <__aeabi_uldivmod>:
 80001c8:	b953      	cbnz	r3, 80001e0 <__aeabi_uldivmod+0x18>
 80001ca:	b94a      	cbnz	r2, 80001e0 <__aeabi_uldivmod+0x18>
 80001cc:	2900      	cmp	r1, #0
 80001ce:	bf08      	it	eq
 80001d0:	2800      	cmpeq	r0, #0
 80001d2:	bf1c      	itt	ne
 80001d4:	f04f 31ff 	movne.w	r1, #4294967295	; 0xffffffff
 80001d8:	f04f 30ff 	movne.w	r0, #4294967295	; 0xffffffff
 80001dc:	f000 b974 	b.w	80004c8 <__aeabi_idiv0>
 80001e0:	f1ad 0c08 	sub.w	ip, sp, #8
 80001e4:	e96d ce04 	strd	ip, lr, [sp, #-16]!
 80001e8:	f000 f806 	bl	80001f8 <__udivmoddi4>
 80001ec:	f8dd e004 	ldr.w	lr, [sp, #4]
 80001f0:	e9dd 2302 	ldrd	r2, r3, [sp, #8]
 80001f4:	b004      	add	sp, #16
 80001f6:	4770      	bx	lr

080001f8 <__udivmoddi4>:
 80001f8:	e92d 47f0 	stmdb	sp!, {r4, r5, r6, r7, r8, r9, sl, lr}
 80001fc:	9d08      	ldr	r5, [sp, #32]
 80001fe:	4604      	mov	r4, r0
 8000200:	468e      	mov	lr, r1
 8000202:	2b00      	cmp	r3, #0
 8000204:	d14d      	bne.n	80002a2 <__udivmoddi4+0xaa>
 8000206:	428a      	cmp	r2, r1
 8000208:	4694      	mov	ip, r2
 800020a:	d969      	bls.n	80002e0 <__udivmoddi4+0xe8>
 800020c:	fab2 f282 	clz	r2, r2
 8000210:	b152      	cbz	r2, 8000228 <__udivmoddi4+0x30>
 8000212:	fa01 f302 	lsl.w	r3, r1, r2
 8000216:	f1c2 0120 	rsb	r1, r2, #32
 800021a:	fa20 f101 	lsr.w	r1, r0, r1
 800021e:	fa0c fc02 	lsl.w	ip, ip, r2
 8000222:	ea41 0e03 	orr.w	lr, r1, r3
 8000226:	4094      	lsls	r4, r2
 8000228:	ea4f 481c 	mov.w	r8, ip, lsr #16
 800022c:	0c21      	lsrs	r1, r4, #16
 800022e:	fbbe f6f8 	udiv	r6, lr, r8
 8000232:	fa1f f78c 	uxth.w	r7, ip
 8000236:	fb08 e316 	mls	r3, r8, r6, lr
 800023a:	ea41 4303 	orr.w	r3, r1, r3, lsl #16
 800023e:	fb06 f107 	mul.w	r1, r6, r7
 8000242:	4299      	cmp	r1, r3
 8000244:	d90a      	bls.n	800025c <__udivmoddi4+0x64>
 8000246:	eb1c 0303 	adds.w	r3, ip, r3
 800024a:	f106 30ff 	add.w	r0, r6, #4294967295	; 0xffffffff
 800024e:	f080 811f 	bcs.w	8000490 <__udivmoddi4+0x298>
 8000252:	4299      	cmp	r1, r3
 8000254:	f240 811c 	bls.w	8000490 <__udivmoddi4+0x298>
 8000258:	3e02      	subs	r6, #2
 800025a:	4463      	add	r3, ip
 800025c:	1a5b      	subs	r3, r3, r1
 800025e:	b2a4      	uxth	r4, r4
 8000260:	fbb3 f0f8 	udiv	r0, r3, r8
 8000264:	fb08 3310 	mls	r3, r8, r0, r3
 8000268:	ea44 4403 	orr.w	r4, r4, r3, lsl #16
 800026c:	fb00 f707 	mul.w	r7, r0, r7
 8000270:	42a7      	cmp	r7, r4
 8000272:	d90a      	bls.n	800028a <__udivmoddi4+0x92>
 8000274:	eb1c 0404 	adds.w	r4, ip, r4
 8000278:	f100 33ff 	add.w	r3, r0, #4294967295	; 0xffffffff
 800027c:	f080 810a 	bcs.w	8000494 <__udivmoddi4+0x29c>
 8000280:	42a7      	cmp	r7, r4
 8000282:	f240 8107 	bls.w	8000494 <__udivmoddi4+0x29c>
 8000286:	4464      	add	r4, ip
 8000288:	3802      	subs	r0, #2
 800028a:	ea40 4006 	orr.w	r0, r0, r6, lsl #16
 800028e:	1be4      	subs	r4, r4, r7
 8000290:	2600      	movs	r6, #0
 8000292:	b11d      	cbz	r5, 800029c <__udivmoddi4+0xa4>
 8000294:	40d4      	lsrs	r4, r2
 8000296:	2300      	movs	r3, #0
 8000298:	e9c5 4300 	strd	r4, r3, [r5]
 800029c:	4631      	mov	r1, r6
 800029e:	e8bd 87f0 	ldmia.w	sp!, {r4, r5, r6, r7, r8, r9, sl, pc}
 80002a2:	428b      	cmp	r3, r1
 80002a4:	d909      	bls.n	80002ba <__udivmoddi4+0xc2>
 80002a6:	2d00      	cmp	r5, #0
 80002a8:	f000 80ef 	beq.w	800048a <__udivmoddi4+0x292>
 80002ac:	2600      	movs	r6, #0
 80002ae:	e9c5 0100 	strd	r0, r1, [r5]
 80002b2:	4630      	mov	r0, r6
 80002b4:	4631      	mov	r1, r6
 80002b6:	e8bd 87f0 	ldmia.w	sp!, {r4, r5, r6, r7, r8, r9, sl, pc}
 80002ba:	fab3 f683 	clz	r6, r3
 80002be:	2e00      	cmp	r6, #0
 80002c0:	d14a      	bne.n	8000358 <__udivmoddi4+0x160>
 80002c2:	428b      	cmp	r3, r1
 80002c4:	d302      	bcc.n	80002cc <__udivmoddi4+0xd4>
 80002c6:	4282      	cmp	r2, r0
 80002c8:	f200 80f9 	bhi.w	80004be <__udivmoddi4+0x2c6>
 80002cc:	1a84      	subs	r4, r0, r2
 80002ce:	eb61 0303 	sbc.w	r3, r1, r3
 80002d2:	2001      	movs	r0, #1
 80002d4:	469e      	mov	lr, r3
 80002d6:	2d00      	cmp	r5, #0
 80002d8:	d0e0      	beq.n	800029c <__udivmoddi4+0xa4>
 80002da:	e9c5 4e00 	strd	r4, lr, [r5]
 80002de:	e7dd      	b.n	800029c <__udivmoddi4+0xa4>
 80002e0:	b902      	cbnz	r2, 80002e4 <__udivmoddi4+0xec>
 80002e2:	deff      	udf	#255	; 0xff
 80002e4:	fab2 f282 	clz	r2, r2
 80002e8:	2a00      	cmp	r2, #0
 80002ea:	f040 8092 	bne.w	8000412 <__udivmoddi4+0x21a>
 80002ee:	eba1 010c 	sub.w	r1, r1, ip
 80002f2:	ea4f 471c 	mov.w	r7, ip, lsr #16
 80002f6:	fa1f fe8c 	uxth.w	lr, ip
 80002fa:	2601      	movs	r6, #1
 80002fc:	0c20      	lsrs	r0, r4, #16
 80002fe:	fbb1 f3f7 	udiv	r3, r1, r7
 8000302:	fb07 1113 	mls	r1, r7, r3, r1
 8000306:	ea40 4101 	orr.w	r1, r0, r1, lsl #16
 800030a:	fb0e f003 	mul.w	r0, lr, r3
 800030e:	4288      	cmp	r0, r1
 8000310:	d908      	bls.n	8000324 <__udivmoddi4+0x12c>
 8000312:	eb1c 0101 	adds.w	r1, ip, r1
 8000316:	f103 38ff 	add.w	r8, r3, #4294967295	; 0xffffffff
 800031a:	d202      	bcs.n	8000322 <__udivmoddi4+0x12a>
 800031c:	4288      	cmp	r0, r1
 800031e:	f200 80cb 	bhi.w	80004b8 <__udivmoddi4+0x2c0>
 8000322:	4643      	mov	r3, r8
 8000324:	1a09      	subs	r1, r1, r0
 8000326:	b2a4      	uxth	r4, r4
 8000328:	fbb1 f0f7 	udiv	r0, r1, r7
 800032c:	fb07 1110 	mls	r1, r7, r0, r1
 8000330:	ea44 4401 	orr.w	r4, r4, r1, lsl #16
 8000334:	fb0e fe00 	mul.w	lr, lr, r0
 8000338:	45a6      	cmp	lr, r4
 800033a:	d908      	bls.n	800034e <__udivmoddi4+0x156>
 800033c:	eb1c 0404 	adds.w	r4, ip, r4
 8000340:	f100 31ff 	add.w	r1, r0, #4294967295	; 0xffffffff
 8000344:	d202      	bcs.n	800034c <__udivmoddi4+0x154>
 8000346:	45a6      	cmp	lr, r4
 8000348:	f200 80bb 	bhi.w	80004c2 <__udivmoddi4+0x2ca>
 800034c:	4608      	mov	r0, r1
 800034e:	eba4 040e 	sub.w	r4, r4, lr
 8000352:	ea40 4003 	orr.w	r0, r0, r3, lsl #16
 8000356:	e79c      	b.n	8000292 <__udivmoddi4+0x9a>
 8000358:	f1c6 0720 	rsb	r7, r6, #32
 800035c:	40b3      	lsls	r3, r6
 800035e:	fa22 fc07 	lsr.w	ip, r2, r7
 8000362:	ea4c 0c03 	orr.w	ip, ip, r3
 8000366:	fa20 f407 	lsr.w	r4, r0, r7
 800036a:	fa01 f306 	lsl.w	r3, r1, r6
 800036e:	431c      	orrs	r4, r3
 8000370:	40f9      	lsrs	r1, r7
 8000372:	ea4f 491c 	mov.w	r9, ip, lsr #16
 8000376:	fa00 f306 	lsl.w	r3, r0, r6
 800037a:	fbb1 f8f9 	udiv	r8, r1, r9
 800037e:	0c20      	lsrs	r0, r4, #16
 8000380:	fa1f fe8c 	uxth.w	lr, ip
 8000384:	fb09 1118 	mls	r1, r9, r8, r1
 8000388:	ea40 4101 	orr.w	r1, r0, r1, lsl #16
 800038c:	fb08 f00e 	mul.w	r0, r8, lr
 8000390:	4288      	cmp	r0, r1
 8000392:	fa02 f206 	lsl.w	r2, r2, r6
 8000396:	d90b      	bls.n	80003b0 <__udivmoddi4+0x1b8>
 8000398:	eb1c 0101 	adds.w	r1, ip, r1
 800039c:	f108 3aff 	add.w	sl, r8, #4294967295	; 0xffffffff
 80003a0:	f080 8088 	bcs.w	80004b4 <__udivmoddi4+0x2bc>
 80003a4:	4288      	cmp	r0, r1
 80003a6:	f240 8085 	bls.w	80004b4 <__udivmoddi4+0x2bc>
 80003aa:	f1a8 0802 	sub.w	r8, r8, #2
 80003ae:	4461      	add	r1, ip
 80003b0:	1a09      	subs	r1, r1, r0
 80003b2:	b2a4      	uxth	r4, r4
 80003b4:	fbb1 f0f9 	udiv	r0, r1, r9
 80003b8:	fb09 1110 	mls	r1, r9, r0, r1
 80003bc:	ea44 4101 	orr.w	r1, r4, r1, lsl #16
 80003c0:	fb00 fe0e 	mul.w	lr, r0, lr
 80003c4:	458e      	cmp	lr, r1
 80003c6:	d908      	bls.n	80003da <__udivmoddi4+0x1e2>
 80003c8:	eb1c 0101 	adds.w	r1, ip, r1
 80003cc:	f100 34ff 	add.w	r4, r0, #4294967295	; 0xffffffff
 80003d0:	d26c      	bcs.n	80004ac <__udivmoddi4+0x2b4>
 80003d2:	458e      	cmp	lr, r1
 80003d4:	d96a      	bls.n	80004ac <__udivmoddi4+0x2b4>
 80003d6:	3802      	subs	r0, #2
 80003d8:	4461      	add	r1, ip
 80003da:	ea40 4008 	orr.w	r0, r0, r8, lsl #16
 80003de:	fba0 9402 	umull	r9, r4, r0, r2
 80003e2:	eba1 010e 	sub.w	r1, r1, lr
 80003e6:	42a1      	cmp	r1, r4
 80003e8:	46c8      	mov	r8, r9
 80003ea:	46a6      	mov	lr, r4
 80003ec:	d356      	bcc.n	800049c <__udivmoddi4+0x2a4>
 80003ee:	d053      	beq.n	8000498 <__udivmoddi4+0x2a0>
 80003f0:	b15d      	cbz	r5, 800040a <__udivmoddi4+0x212>
 80003f2:	ebb3 0208 	subs.w	r2, r3, r8
 80003f6:	eb61 010e 	sbc.w	r1, r1, lr
 80003fa:	fa01 f707 	lsl.w	r7, r1, r7
 80003fe:	fa22 f306 	lsr.w	r3, r2, r6
 8000402:	40f1      	lsrs	r1, r6
 8000404:	431f      	orrs	r7, r3
 8000406:	e9c5 7100 	strd	r7, r1, [r5]
 800040a:	2600      	movs	r6, #0
 800040c:	4631      	mov	r1, r6
 800040e:	e8bd 87f0 	ldmia.w	sp!, {r4, r5, r6, r7, r8, r9, sl, pc}
 8000412:	f1c2 0320 	rsb	r3, r2, #32
 8000416:	40d8      	lsrs	r0, r3
 8000418:	fa0c fc02 	lsl.w	ip, ip, r2
 800041c:	fa21 f303 	lsr.w	r3, r1, r3
 8000420:	4091      	lsls	r1, r2
 8000422:	4301      	orrs	r1, r0
 8000424:	ea4f 471c 	mov.w	r7, ip, lsr #16
 8000428:	fa1f fe8c 	uxth.w	lr, ip
 800042c:	fbb3 f0f7 	udiv	r0, r3, r7
 8000430:	fb07 3610 	mls	r6, r7, r0, r3
 8000434:	0c0b      	lsrs	r3, r1, #16
 8000436:	ea43 4306 	orr.w	r3, r3, r6, lsl #16
 800043a:	fb00 f60e 	mul.w	r6, r0, lr
 800043e:	429e      	cmp	r6, r3
 8000440:	fa04 f402 	lsl.w	r4, r4, r2
 8000444:	d908      	bls.n	8000458 <__udivmoddi4+0x260>
 8000446:	eb1c 0303 	adds.w	r3, ip, r3
 800044a:	f100 38ff 	add.w	r8, r0, #4294967295	; 0xffffffff
 800044e:	d22f      	bcs.n	80004b0 <__udivmoddi4+0x2b8>
 8000450:	429e      	cmp	r6, r3
 8000452:	d92d      	bls.n	80004b0 <__udivmoddi4+0x2b8>
 8000454:	3802      	subs	r0, #2
 8000456:	4463      	add	r3, ip
 8000458:	1b9b      	subs	r3, r3, r6
 800045a:	b289      	uxth	r1, r1
 800045c:	fbb3 f6f7 	udiv	r6, r3, r7
 8000460:	fb07 3316 	mls	r3, r7, r6, r3
 8000464:	ea41 4103 	orr.w	r1, r1, r3, lsl #16
 8000468:	fb06 f30e 	mul.w	r3, r6, lr
 800046c:	428b      	cmp	r3, r1
 800046e:	d908      	bls.n	8000482 <__udivmoddi4+0x28a>
 8000470:	eb1c 0101 	adds.w	r1, ip, r1
 8000474:	f106 38ff 	add.w	r8, r6, #4294967295	; 0xffffffff
 8000478:	d216      	bcs.n	80004a8 <__udivmoddi4+0x2b0>
 800047a:	428b      	cmp	r3, r1
 800047c:	d914      	bls.n	80004a8 <__udivmoddi4+0x2b0>
 800047e:	3e02      	subs	r6, #2
 8000480:	4461      	add	r1, ip
 8000482:	1ac9      	subs	r1, r1, r3
 8000484:	ea46 4600 	orr.w	r6, r6, r0, lsl #16
 8000488:	e738      	b.n	80002fc <__udivmoddi4+0x104>
 800048a:	462e      	mov	r6, r5
 800048c:	4628      	mov	r0, r5
 800048e:	e705      	b.n	800029c <__udivmoddi4+0xa4>
 8000490:	4606      	mov	r6, r0
 8000492:	e6e3      	b.n	800025c <__udivmoddi4+0x64>
 8000494:	4618      	mov	r0, r3
 8000496:	e6f8      	b.n	800028a <__udivmoddi4+0x92>
 8000498:	454b      	cmp	r3, r9
 800049a:	d2a9      	bcs.n	80003f0 <__udivmoddi4+0x1f8>
 800049c:	ebb9 0802 	subs.w	r8, r9, r2
 80004a0:	eb64 0e0c 	sbc.w	lr, r4, ip
 80004a4:	3801      	subs	r0, #1
 80004a6:	e7a3      	b.n	80003f0 <__udivmoddi4+0x1f8>
 80004a8:	4646      	mov	r6, r8
 80004aa:	e7ea      	b.n	8000482 <__udivmoddi4+0x28a>
 80004ac:	4620      	mov	r0, r4
 80004ae:	e794      	b.n	80003da <__udivmoddi4+0x1e2>
 80004b0:	4640      	mov	r0, r8
 80004b2:	e7d1      	b.n	8000458 <__udivmoddi4+0x260>
 80004b4:	46d0      	mov	r8, sl
 80004b6:	e77b      	b.n	80003b0 <__udivmoddi4+0x1b8>
 80004b8:	3b02      	subs	r3, #2
 80004ba:	4461      	add	r1, ip
 80004bc:	e732      	b.n	8000324 <__udivmoddi4+0x12c>
 80004be:	4630      	mov	r0, r6
 80004c0:	e709      	b.n	80002d6 <__udivmoddi4+0xde>
 80004c2:	4464      	add	r4, ip
 80004c4:	3802      	subs	r0, #2
 80004c6:	e742      	b.n	800034e <__udivmoddi4+0x156>

080004c8 <__aeabi_idiv0>:
 80004c8:	4770      	bx	lr
 80004ca:	bf00      	nop

080004cc <HAL_CAN_RxFifo0MsgPendingCallback>:
CAN_RxHeaderTypeDef RxHeader;
uint8_t RxData[5];



void HAL_CAN_RxFifo0MsgPendingCallback(CAN_HandleTypeDef *hcan){
 80004cc:	b580      	push	{r7, lr}
 80004ce:	b082      	sub	sp, #8
 80004d0:	af00      	add	r7, sp, #0
 80004d2:	6078      	str	r0, [r7, #4]

//	HAL_GPIO_WritePin(GPIOD, GPIO_PIN_15, GPIO_PIN_SET); // blue
	HAL_CAN_GetRxMessage(&hcan1, CAN_RX_FIFO0, &RxHeader, RxData);
 80004d4:	4b04      	ldr	r3, [pc, #16]	; (80004e8 <HAL_CAN_RxFifo0MsgPendingCallback+0x1c>)
 80004d6:	4a05      	ldr	r2, [pc, #20]	; (80004ec <HAL_CAN_RxFifo0MsgPendingCallback+0x20>)
 80004d8:	2100      	movs	r1, #0
 80004da:	4805      	ldr	r0, [pc, #20]	; (80004f0 <HAL_CAN_RxFifo0MsgPendingCallback+0x24>)
 80004dc:	f000 fec4 	bl	8001268 <HAL_CAN_GetRxMessage>
}
 80004e0:	bf00      	nop
 80004e2:	3708      	adds	r7, #8
 80004e4:	46bd      	mov	sp, r7
 80004e6:	bd80      	pop	{r7, pc}
 80004e8:	200000c4 	.word	0x200000c4
 80004ec:	200000a8 	.word	0x200000a8
 80004f0:	20000028 	.word	0x20000028

080004f4 <SPI_Write>:

void SPI_Write(uint8_t reg, uint8_t *data, uint8_t size) {
 80004f4:	b580      	push	{r7, lr}
 80004f6:	b082      	sub	sp, #8
 80004f8:	af00      	add	r7, sp, #0
 80004fa:	4603      	mov	r3, r0
 80004fc:	6039      	str	r1, [r7, #0]
 80004fe:	71fb      	strb	r3, [r7, #7]
 8000500:	4613      	mov	r3, r2
 8000502:	71bb      	strb	r3, [r7, #6]
	// Enable CS (PE3=0)
	HAL_GPIO_WritePin(GPIOE, GPIO_PIN_3, GPIO_PIN_RESET);
 8000504:	2200      	movs	r2, #0
 8000506:	2108      	movs	r1, #8
 8000508:	480d      	ldr	r0, [pc, #52]	; (8000540 <SPI_Write+0x4c>)
 800050a:	f001 fcc3 	bl	8001e94 <HAL_GPIO_WritePin>
	// Send register (internal) address
	HAL_SPI_Transmit(&hspi1, &reg, 1, HAL_MAX_DELAY);
 800050e:	1df9      	adds	r1, r7, #7
 8000510:	f04f 33ff 	mov.w	r3, #4294967295	; 0xffffffff
 8000514:	2201      	movs	r2, #1
 8000516:	480b      	ldr	r0, [pc, #44]	; (8000544 <SPI_Write+0x50>)
 8000518:	f002 f9c3 	bl	80028a2 <HAL_SPI_Transmit>
	// Send data of given size
	HAL_SPI_Transmit(&hspi1, data, size, HAL_MAX_DELAY);
 800051c:	79bb      	ldrb	r3, [r7, #6]
 800051e:	b29a      	uxth	r2, r3
 8000520:	f04f 33ff 	mov.w	r3, #4294967295	; 0xffffffff
 8000524:	6839      	ldr	r1, [r7, #0]
 8000526:	4807      	ldr	r0, [pc, #28]	; (8000544 <SPI_Write+0x50>)
 8000528:	f002 f9bb 	bl	80028a2 <HAL_SPI_Transmit>
	// Disable CS (PE3=1)
	HAL_GPIO_WritePin(GPIOE, GPIO_PIN_3, GPIO_PIN_SET);
 800052c:	2201      	movs	r2, #1
 800052e:	2108      	movs	r1, #8
 8000530:	4803      	ldr	r0, [pc, #12]	; (8000540 <SPI_Write+0x4c>)
 8000532:	f001 fcaf 	bl	8001e94 <HAL_GPIO_WritePin>
}
 8000536:	bf00      	nop
 8000538:	3708      	adds	r7, #8
 800053a:	46bd      	mov	sp, r7
 800053c:	bd80      	pop	{r7, pc}
 800053e:	bf00      	nop
 8000540:	40021000 	.word	0x40021000
 8000544:	20000050 	.word	0x20000050

08000548 <SPI_Read>:

void SPI_Read(uint8_t reg, uint8_t *data, int size) {
 8000548:	b580      	push	{r7, lr}
 800054a:	b084      	sub	sp, #16
 800054c:	af00      	add	r7, sp, #0
 800054e:	4603      	mov	r3, r0
 8000550:	60b9      	str	r1, [r7, #8]
 8000552:	607a      	str	r2, [r7, #4]
 8000554:	73fb      	strb	r3, [r7, #15]
	// Enable CS (PE3=0)
	HAL_GPIO_WritePin(GPIOE, GPIO_PIN_3, GPIO_PIN_RESET);
 8000556:	2200      	movs	r2, #0
 8000558:	2108      	movs	r1, #8
 800055a:	4810      	ldr	r0, [pc, #64]	; (800059c <SPI_Read+0x54>)
 800055c:	f001 fc9a 	bl	8001e94 <HAL_GPIO_WritePin>
	// Send register (internal) address (msb=1 for read op with LIS3DSH)
	reg |= BV(7);
 8000560:	7bfb      	ldrb	r3, [r7, #15]
 8000562:	f063 037f 	orn	r3, r3, #127	; 0x7f
 8000566:	b2db      	uxtb	r3, r3
 8000568:	73fb      	strb	r3, [r7, #15]
	HAL_SPI_Transmit(&hspi1, &reg, 1, HAL_MAX_DELAY);
 800056a:	f107 010f 	add.w	r1, r7, #15
 800056e:	f04f 33ff 	mov.w	r3, #4294967295	; 0xffffffff
 8000572:	2201      	movs	r2, #1
 8000574:	480a      	ldr	r0, [pc, #40]	; (80005a0 <SPI_Read+0x58>)
 8000576:	f002 f994 	bl	80028a2 <HAL_SPI_Transmit>
	// Receive data of given size
	HAL_SPI_Receive(&hspi1, data, size, HAL_MAX_DELAY);
 800057a:	687b      	ldr	r3, [r7, #4]
 800057c:	b29a      	uxth	r2, r3
 800057e:	f04f 33ff 	mov.w	r3, #4294967295	; 0xffffffff
 8000582:	68b9      	ldr	r1, [r7, #8]
 8000584:	4806      	ldr	r0, [pc, #24]	; (80005a0 <SPI_Read+0x58>)
 8000586:	f002 fac8 	bl	8002b1a <HAL_SPI_Receive>
	// Disable CS (PE3=1)
	HAL_GPIO_WritePin(GPIOE, GPIO_PIN_3, GPIO_PIN_SET);
 800058a:	2201      	movs	r2, #1
 800058c:	2108      	movs	r1, #8
 800058e:	4803      	ldr	r0, [pc, #12]	; (800059c <SPI_Read+0x54>)
 8000590:	f001 fc80 	bl	8001e94 <HAL_GPIO_WritePin>
}
 8000594:	bf00      	nop
 8000596:	3710      	adds	r7, #16
 8000598:	46bd      	mov	sp, r7
 800059a:	bd80      	pop	{r7, pc}
 800059c:	40021000 	.word	0x40021000
 80005a0:	20000050 	.word	0x20000050

080005a4 <LIS3DSH_Init>:

void LIS3DSH_Init(void) {
 80005a4:	b580      	push	{r7, lr}
 80005a6:	b082      	sub	sp, #8
 80005a8:	af00      	add	r7, sp, #0
	// cr4 = odr = 25 hz, xen, yen, zen
	uint8_t val = LIS3DSH_CR4_ODR_25HZ | LIS3DSH_CR4_XEN | LIS3DSH_CR4_YEN | LIS3DSH_CR4_ZEN;
 80005aa:	2347      	movs	r3, #71	; 0x47
 80005ac:	71fb      	strb	r3, [r7, #7]
	SPI_Write(LIS3DSH_CONTROL_REG4_ADDR, &val, 1);
 80005ae:	1dfb      	adds	r3, r7, #7
 80005b0:	2201      	movs	r2, #1
 80005b2:	4619      	mov	r1, r3
 80005b4:	2020      	movs	r0, #32
 80005b6:	f7ff ff9d 	bl	80004f4 <SPI_Write>
}
 80005ba:	bf00      	nop
 80005bc:	3708      	adds	r7, #8
 80005be:	46bd      	mov	sp, r7
 80005c0:	bd80      	pop	{r7, pc}

080005c2 <LIS3DSH_WaitForDataAvail>:

void LIS3DSH_WaitForDataAvail(void) {
 80005c2:	b580      	push	{r7, lr}
 80005c4:	b082      	sub	sp, #8
 80005c6:	af00      	add	r7, sp, #0
	uint8_t val;
	// wait while status regr xda, yda and zda bits are zero
	do {
		SPI_Read(LIS3DSH_STATUS_REG_ADDR, &val, 1);
 80005c8:	1dfb      	adds	r3, r7, #7
 80005ca:	2201      	movs	r2, #1
 80005cc:	4619      	mov	r1, r3
 80005ce:	2027      	movs	r0, #39	; 0x27
 80005d0:	f7ff ffba 	bl	8000548 <SPI_Read>
	} while( (val & LIS3DSH_SR_XYZ_MSK) == 0);
 80005d4:	79fb      	ldrb	r3, [r7, #7]
 80005d6:	f003 0307 	and.w	r3, r3, #7
 80005da:	2b00      	cmp	r3, #0
 80005dc:	d0f4      	beq.n	80005c8 <LIS3DSH_WaitForDataAvail+0x6>
}
 80005de:	bf00      	nop
 80005e0:	bf00      	nop
 80005e2:	3708      	adds	r7, #8
 80005e4:	46bd      	mov	sp, r7
 80005e6:	bd80      	pop	{r7, pc}

080005e8 <LIS3DSH_ReadData>:

void LIS3DSH_ReadData(LIS3DSH_Data *data) {
 80005e8:	b580      	push	{r7, lr}
 80005ea:	b084      	sub	sp, #16
 80005ec:	af00      	add	r7, sp, #0
 80005ee:	6078      	str	r0, [r7, #4]
	uint8_t buf[2];
	// read xl and xh readings and convert to x 16-bit reading
	SPI_Read(LIS3DSH_OUT_XL_ADDR, buf, 2);
 80005f0:	f107 030c 	add.w	r3, r7, #12
 80005f4:	2202      	movs	r2, #2
 80005f6:	4619      	mov	r1, r3
 80005f8:	2028      	movs	r0, #40	; 0x28
 80005fa:	f7ff ffa5 	bl	8000548 <SPI_Read>
	data->x = (((uint16_t)buf[1]) << 8) | buf[0];
 80005fe:	7b7b      	ldrb	r3, [r7, #13]
 8000600:	021b      	lsls	r3, r3, #8
 8000602:	b21a      	sxth	r2, r3
 8000604:	7b3b      	ldrb	r3, [r7, #12]
 8000606:	b21b      	sxth	r3, r3
 8000608:	4313      	orrs	r3, r2
 800060a:	b21a      	sxth	r2, r3
 800060c:	687b      	ldr	r3, [r7, #4]
 800060e:	801a      	strh	r2, [r3, #0]

	// read yl and yh readings and convert to y 16-bit reading
	SPI_Read(LIS3DSH_OUT_YL_ADDR, buf, 2);
 8000610:	f107 030c 	add.w	r3, r7, #12
 8000614:	2202      	movs	r2, #2
 8000616:	4619      	mov	r1, r3
 8000618:	202a      	movs	r0, #42	; 0x2a
 800061a:	f7ff ff95 	bl	8000548 <SPI_Read>
	data->y = (((uint16_t)buf[1]) << 8) | buf[0];
 800061e:	7b7b      	ldrb	r3, [r7, #13]
 8000620:	021b      	lsls	r3, r3, #8
 8000622:	b21a      	sxth	r2, r3
 8000624:	7b3b      	ldrb	r3, [r7, #12]
 8000626:	b21b      	sxth	r3, r3
 8000628:	4313      	orrs	r3, r2
 800062a:	b21a      	sxth	r2, r3
 800062c:	687b      	ldr	r3, [r7, #4]
 800062e:	805a      	strh	r2, [r3, #2]

	// read zl and zh readings and convert to z 16-bit reading
	SPI_Read(LIS3DSH_OUT_ZL_ADDR, buf, 2);
 8000630:	f107 030c 	add.w	r3, r7, #12
 8000634:	2202      	movs	r2, #2
 8000636:	4619      	mov	r1, r3
 8000638:	202c      	movs	r0, #44	; 0x2c
 800063a:	f7ff ff85 	bl	8000548 <SPI_Read>
	data->z = (((uint16_t)buf[1]) << 8) | buf[0];
 800063e:	7b7b      	ldrb	r3, [r7, #13]
 8000640:	021b      	lsls	r3, r3, #8
 8000642:	b21a      	sxth	r2, r3
 8000644:	7b3b      	ldrb	r3, [r7, #12]
 8000646:	b21b      	sxth	r3, r3
 8000648:	4313      	orrs	r3, r2
 800064a:	b21a      	sxth	r2, r3
 800064c:	687b      	ldr	r3, [r7, #4]
 800064e:	809a      	strh	r2, [r3, #4]
}
 8000650:	bf00      	nop
 8000652:	3710      	adds	r7, #16
 8000654:	46bd      	mov	sp, r7
 8000656:	bd80      	pop	{r7, pc}

08000658 <main>:
/**
  * @brief  The application entry point.
  * @retval int
  */
int main(void)
{
 8000658:	b580      	push	{r7, lr}
 800065a:	b08a      	sub	sp, #40	; 0x28
 800065c:	af00      	add	r7, sp, #0
  /* USER CODE END 1 */

  /* MCU Configuration--------------------------------------------------------*/

  /* Reset of all peripherals, Initializes the Flash interface and the Systick. */
  HAL_Init();
 800065e:	f000 fb4d 	bl	8000cfc <HAL_Init>
  /* USER CODE BEGIN Init */

  /* USER CODE END Init */

  /* Configure the system clock */
  SystemClock_Config();
 8000662:	f000 f889 	bl	8000778 <SystemClock_Config>
  /* USER CODE BEGIN SysInit */

  /* USER CODE END SysInit */

  /* Initialize all configured peripherals */
  MX_GPIO_Init();
 8000666:	f000 f97b 	bl	8000960 <MX_GPIO_Init>
  MX_CAN1_Init();
 800066a:	f000 f8ef 	bl	800084c <MX_CAN1_Init>
  MX_SPI1_Init();
 800066e:	f000 f941 	bl	80008f4 <MX_SPI1_Init>

  /* USER CODE BEGIN 2 */

  LIS3DSH_Init(); // initialize LIS3DSH
 8000672:	f7ff ff97 	bl	80005a4 <LIS3DSH_Init>

  HAL_CAN_Start(&hcan1);
 8000676:	483b      	ldr	r0, [pc, #236]	; (8000764 <main+0x10c>)
 8000678:	f000 fdb2 	bl	80011e0 <HAL_CAN_Start>
  HAL_CAN_ActivateNotification(&hcan1, CAN_IT_RX_FIFO0_MSG_PENDING);
 800067c:	2102      	movs	r1, #2
 800067e:	4839      	ldr	r0, [pc, #228]	; (8000764 <main+0x10c>)
 8000680:	f000 ff04 	bl	800148c <HAL_CAN_ActivateNotification>
  HAL_Delay(100);
 8000684:	2064      	movs	r0, #100	; 0x64
 8000686:	f000 fbab 	bl	8000de0 <HAL_Delay>
  HAL_Delay(100);
 800068a:	2064      	movs	r0, #100	; 0x64
 800068c:	f000 fba8 	bl	8000de0 <HAL_Delay>

  /* Infinite loop */
  /* USER CODE BEGIN WHILE */
  while (1)
  {
	  	  if(RxData[0] == 'I'){
 8000690:	4b35      	ldr	r3, [pc, #212]	; (8000768 <main+0x110>)
 8000692:	781b      	ldrb	r3, [r3, #0]
 8000694:	2b49      	cmp	r3, #73	; 0x49
 8000696:	d105      	bne.n	80006a4 <main+0x4c>
	  		  HAL_GPIO_WritePin(GPIOD, GPIO_PIN_12, GPIO_PIN_SET);	//yellow
 8000698:	2201      	movs	r2, #1
 800069a:	f44f 5180 	mov.w	r1, #4096	; 0x1000
 800069e:	4833      	ldr	r0, [pc, #204]	; (800076c <main+0x114>)
 80006a0:	f001 fbf8 	bl	8001e94 <HAL_GPIO_WritePin>
//	  		  HAL_Delay(100);
//	  		  HAL_GPIO_WritePin(GPIOD, GPIO_PIN_12, GPIO_PIN_RESET);

	  	  }
	  	if(RxData[0] == 'X'){
 80006a4:	4b30      	ldr	r3, [pc, #192]	; (8000768 <main+0x110>)
 80006a6:	781b      	ldrb	r3, [r3, #0]
 80006a8:	2b58      	cmp	r3, #88	; 0x58
 80006aa:	d105      	bne.n	80006b8 <main+0x60>
	  		  		  HAL_GPIO_WritePin(GPIOD, GPIO_PIN_12, GPIO_PIN_RESET);	//yellow
 80006ac:	2200      	movs	r2, #0
 80006ae:	f44f 5180 	mov.w	r1, #4096	; 0x1000
 80006b2:	482e      	ldr	r0, [pc, #184]	; (800076c <main+0x114>)
 80006b4:	f001 fbee 	bl	8001e94 <HAL_GPIO_WritePin>
	  	//	  		  HAL_Delay(100);
	  	//	  		  HAL_GPIO_WritePin(GPIOD, GPIO_PIN_12, GPIO_PIN_RESET);

	  	}

	  	  if(RxData[1] == 'A'){
 80006b8:	4b2b      	ldr	r3, [pc, #172]	; (8000768 <main+0x110>)
 80006ba:	785b      	ldrb	r3, [r3, #1]
 80006bc:	2b41      	cmp	r3, #65	; 0x41
 80006be:	d105      	bne.n	80006cc <main+0x74>
	  		  HAL_GPIO_WritePin(GPIOD, GPIO_PIN_13, GPIO_PIN_SET);	//orange
 80006c0:	2201      	movs	r2, #1
 80006c2:	f44f 5100 	mov.w	r1, #8192	; 0x2000
 80006c6:	4829      	ldr	r0, [pc, #164]	; (800076c <main+0x114>)
 80006c8:	f001 fbe4 	bl	8001e94 <HAL_GPIO_WritePin>
//	  		  HAL_Delay(100);
//	  		  HAL_GPIO_WritePin(GPIOD, GPIO_PIN_13, GPIO_PIN_RESET);
	  	  }
	  	if(RxData[1] == 'Y'){
 80006cc:	4b26      	ldr	r3, [pc, #152]	; (8000768 <main+0x110>)
 80006ce:	785b      	ldrb	r3, [r3, #1]
 80006d0:	2b59      	cmp	r3, #89	; 0x59
 80006d2:	d105      	bne.n	80006e0 <main+0x88>
	  		  		  		  HAL_GPIO_WritePin(GPIOD, GPIO_PIN_13, GPIO_PIN_RESET);	//yellow
 80006d4:	2200      	movs	r2, #0
 80006d6:	f44f 5100 	mov.w	r1, #8192	; 0x2000
 80006da:	4824      	ldr	r0, [pc, #144]	; (800076c <main+0x114>)
 80006dc:	f001 fbda 	bl	8001e94 <HAL_GPIO_WritePin>
	  		  	//	  		  HAL_GPIO_WritePin(GPIOD, GPIO_PIN_12, GPIO_PIN_RESET);

	  		  	}


	  	  if(RxData[2] == 'F'){
 80006e0:	4b21      	ldr	r3, [pc, #132]	; (8000768 <main+0x110>)
 80006e2:	789b      	ldrb	r3, [r3, #2]
 80006e4:	2b46      	cmp	r3, #70	; 0x46
 80006e6:	d105      	bne.n	80006f4 <main+0x9c>
	  		  HAL_GPIO_WritePin(GPIOD, GPIO_PIN_14, GPIO_PIN_SET);	//red
 80006e8:	2201      	movs	r2, #1
 80006ea:	f44f 4180 	mov.w	r1, #16384	; 0x4000
 80006ee:	481f      	ldr	r0, [pc, #124]	; (800076c <main+0x114>)
 80006f0:	f001 fbd0 	bl	8001e94 <HAL_GPIO_WritePin>
//	  		  HAL_Delay(100);
//	  		  HAL_GPIO_WritePin(GPIOD, GPIO_PIN_14, GPIO_PIN_RESET);

	  	  }

	  	if(RxData[2] == 'Z'){
 80006f4:	4b1c      	ldr	r3, [pc, #112]	; (8000768 <main+0x110>)
 80006f6:	789b      	ldrb	r3, [r3, #2]
 80006f8:	2b5a      	cmp	r3, #90	; 0x5a
 80006fa:	d105      	bne.n	8000708 <main+0xb0>
	  		  		  		  HAL_GPIO_WritePin(GPIOD, GPIO_PIN_14, GPIO_PIN_RESET);	//yellow
 80006fc:	2200      	movs	r2, #0
 80006fe:	f44f 4180 	mov.w	r1, #16384	; 0x4000
 8000702:	481a      	ldr	r0, [pc, #104]	; (800076c <main+0x114>)
 8000704:	f001 fbc6 	bl	8001e94 <HAL_GPIO_WritePin>
	  		  	//	  		  HAL_Delay(100);
	  		  	//	  		  HAL_GPIO_WritePin(GPIOD, GPIO_PIN_12, GPIO_PIN_RESET);

	  		  	}

	  	memset(RxData,0,sizeof(RxData));
 8000708:	2205      	movs	r2, #5
 800070a:	2100      	movs	r1, #0
 800070c:	4816      	ldr	r0, [pc, #88]	; (8000768 <main+0x110>)
 800070e:	f002 fe0b 	bl	8003328 <memset>

	  		char str[32];
	  		  LIS3DSH_Data data;
	  		  LIS3DSH_WaitForDataAvail(); // wait for x, y or z reading to change
 8000712:	f7ff ff56 	bl	80005c2 <LIS3DSH_WaitForDataAvail>
	  		  LIS3DSH_ReadData(&data); // get accel reading
 8000716:	f107 0320 	add.w	r3, r7, #32
 800071a:	4618      	mov	r0, r3
 800071c:	f7ff ff64 	bl	80005e8 <LIS3DSH_ReadData>
	  		  if(data.x > 5000 || data.x < -5000 || data.y > 5000 || data.y < -5000 )
 8000720:	f9b7 3020 	ldrsh.w	r3, [r7, #32]
 8000724:	f241 3288 	movw	r2, #5000	; 0x1388
 8000728:	4293      	cmp	r3, r2
 800072a:	dc0f      	bgt.n	800074c <main+0xf4>
 800072c:	f9b7 3020 	ldrsh.w	r3, [r7, #32]
 8000730:	4a0f      	ldr	r2, [pc, #60]	; (8000770 <main+0x118>)
 8000732:	4293      	cmp	r3, r2
 8000734:	db0a      	blt.n	800074c <main+0xf4>
 8000736:	f9b7 3022 	ldrsh.w	r3, [r7, #34]	; 0x22
 800073a:	f241 3288 	movw	r2, #5000	; 0x1388
 800073e:	4293      	cmp	r3, r2
 8000740:	dc04      	bgt.n	800074c <main+0xf4>
 8000742:	f9b7 3022 	ldrsh.w	r3, [r7, #34]	; 0x22
 8000746:	4a0a      	ldr	r2, [pc, #40]	; (8000770 <main+0x118>)
 8000748:	4293      	cmp	r3, r2
 800074a:	da05      	bge.n	8000758 <main+0x100>
	  		  {
	  			  HAL_GPIO_WritePin(GPIOA, GPIO_PIN_1, GPIO_PIN_SET);
 800074c:	2201      	movs	r2, #1
 800074e:	2102      	movs	r1, #2
 8000750:	4808      	ldr	r0, [pc, #32]	; (8000774 <main+0x11c>)
 8000752:	f001 fb9f 	bl	8001e94 <HAL_GPIO_WritePin>
 8000756:	e004      	b.n	8000762 <main+0x10a>
	  		  }
	  		  else
	  			HAL_GPIO_WritePin(GPIOA, GPIO_PIN_1, GPIO_PIN_RESET);
 8000758:	2200      	movs	r2, #0
 800075a:	2102      	movs	r1, #2
 800075c:	4805      	ldr	r0, [pc, #20]	; (8000774 <main+0x11c>)
 800075e:	f001 fb99 	bl	8001e94 <HAL_GPIO_WritePin>
  {
 8000762:	e795      	b.n	8000690 <main+0x38>
 8000764:	20000028 	.word	0x20000028
 8000768:	200000c4 	.word	0x200000c4
 800076c:	40020c00 	.word	0x40020c00
 8000770:	ffffec78 	.word	0xffffec78
 8000774:	40020000 	.word	0x40020000

08000778 <SystemClock_Config>:
/**
  * @brief System Clock Configuration
  * @retval None
  */
void SystemClock_Config(void)
{
 8000778:	b580      	push	{r7, lr}
 800077a:	b094      	sub	sp, #80	; 0x50
 800077c:	af00      	add	r7, sp, #0
  RCC_OscInitTypeDef RCC_OscInitStruct = {0};
 800077e:	f107 0320 	add.w	r3, r7, #32
 8000782:	2230      	movs	r2, #48	; 0x30
 8000784:	2100      	movs	r1, #0
 8000786:	4618      	mov	r0, r3
 8000788:	f002 fdce 	bl	8003328 <memset>
  RCC_ClkInitTypeDef RCC_ClkInitStruct = {0};
 800078c:	f107 030c 	add.w	r3, r7, #12
 8000790:	2200      	movs	r2, #0
 8000792:	601a      	str	r2, [r3, #0]
 8000794:	605a      	str	r2, [r3, #4]
 8000796:	609a      	str	r2, [r3, #8]
 8000798:	60da      	str	r2, [r3, #12]
 800079a:	611a      	str	r2, [r3, #16]

  /** Configure the main internal regulator output voltage
  */
  __HAL_RCC_PWR_CLK_ENABLE();
 800079c:	2300      	movs	r3, #0
 800079e:	60bb      	str	r3, [r7, #8]
 80007a0:	4b28      	ldr	r3, [pc, #160]	; (8000844 <SystemClock_Config+0xcc>)
 80007a2:	6c1b      	ldr	r3, [r3, #64]	; 0x40
 80007a4:	4a27      	ldr	r2, [pc, #156]	; (8000844 <SystemClock_Config+0xcc>)
 80007a6:	f043 5380 	orr.w	r3, r3, #268435456	; 0x10000000
 80007aa:	6413      	str	r3, [r2, #64]	; 0x40
 80007ac:	4b25      	ldr	r3, [pc, #148]	; (8000844 <SystemClock_Config+0xcc>)
 80007ae:	6c1b      	ldr	r3, [r3, #64]	; 0x40
 80007b0:	f003 5380 	and.w	r3, r3, #268435456	; 0x10000000
 80007b4:	60bb      	str	r3, [r7, #8]
 80007b6:	68bb      	ldr	r3, [r7, #8]
  __HAL_PWR_VOLTAGESCALING_CONFIG(PWR_REGULATOR_VOLTAGE_SCALE1);
 80007b8:	2300      	movs	r3, #0
 80007ba:	607b      	str	r3, [r7, #4]
 80007bc:	4b22      	ldr	r3, [pc, #136]	; (8000848 <SystemClock_Config+0xd0>)
 80007be:	681b      	ldr	r3, [r3, #0]
 80007c0:	4a21      	ldr	r2, [pc, #132]	; (8000848 <SystemClock_Config+0xd0>)
 80007c2:	f443 4380 	orr.w	r3, r3, #16384	; 0x4000
 80007c6:	6013      	str	r3, [r2, #0]
 80007c8:	4b1f      	ldr	r3, [pc, #124]	; (8000848 <SystemClock_Config+0xd0>)
 80007ca:	681b      	ldr	r3, [r3, #0]
 80007cc:	f403 4380 	and.w	r3, r3, #16384	; 0x4000
 80007d0:	607b      	str	r3, [r7, #4]
 80007d2:	687b      	ldr	r3, [r7, #4]

  /** Initializes the RCC Oscillators according to the specified parameters
  * in the RCC_OscInitTypeDef structure.
  */
  RCC_OscInitStruct.OscillatorType = RCC_OSCILLATORTYPE_HSE;
 80007d4:	2301      	movs	r3, #1
 80007d6:	623b      	str	r3, [r7, #32]
  RCC_OscInitStruct.HSEState = RCC_HSE_ON;
 80007d8:	f44f 3380 	mov.w	r3, #65536	; 0x10000
 80007dc:	627b      	str	r3, [r7, #36]	; 0x24
  RCC_OscInitStruct.PLL.PLLState = RCC_PLL_ON;
 80007de:	2302      	movs	r3, #2
 80007e0:	63bb      	str	r3, [r7, #56]	; 0x38
  RCC_OscInitStruct.PLL.PLLSource = RCC_PLLSOURCE_HSE;
 80007e2:	f44f 0380 	mov.w	r3, #4194304	; 0x400000
 80007e6:	63fb      	str	r3, [r7, #60]	; 0x3c
  RCC_OscInitStruct.PLL.PLLM = 4;
 80007e8:	2304      	movs	r3, #4
 80007ea:	643b      	str	r3, [r7, #64]	; 0x40
  RCC_OscInitStruct.PLL.PLLN = 72;
 80007ec:	2348      	movs	r3, #72	; 0x48
 80007ee:	647b      	str	r3, [r7, #68]	; 0x44
  RCC_OscInitStruct.PLL.PLLP = RCC_PLLP_DIV2;
 80007f0:	2302      	movs	r3, #2
 80007f2:	64bb      	str	r3, [r7, #72]	; 0x48
  RCC_OscInitStruct.PLL.PLLQ = 7;
 80007f4:	2307      	movs	r3, #7
 80007f6:	64fb      	str	r3, [r7, #76]	; 0x4c
  if (HAL_RCC_OscConfig(&RCC_OscInitStruct) != HAL_OK)
 80007f8:	f107 0320 	add.w	r3, r7, #32
 80007fc:	4618      	mov	r0, r3
 80007fe:	f001 fb63 	bl	8001ec8 <HAL_RCC_OscConfig>
 8000802:	4603      	mov	r3, r0
 8000804:	2b00      	cmp	r3, #0
 8000806:	d001      	beq.n	800080c <SystemClock_Config+0x94>
  {
    Error_Handler();
 8000808:	f000 f942 	bl	8000a90 <Error_Handler>
  }

  /** Initializes the CPU, AHB and APB buses clocks
  */
  RCC_ClkInitStruct.ClockType = RCC_CLOCKTYPE_HCLK|RCC_CLOCKTYPE_SYSCLK
 800080c:	230f      	movs	r3, #15
 800080e:	60fb      	str	r3, [r7, #12]
                              |RCC_CLOCKTYPE_PCLK1|RCC_CLOCKTYPE_PCLK2;
  RCC_ClkInitStruct.SYSCLKSource = RCC_SYSCLKSOURCE_PLLCLK;
 8000810:	2302      	movs	r3, #2
 8000812:	613b      	str	r3, [r7, #16]
  RCC_ClkInitStruct.AHBCLKDivider = RCC_SYSCLK_DIV1;
 8000814:	2300      	movs	r3, #0
 8000816:	617b      	str	r3, [r7, #20]
  RCC_ClkInitStruct.APB1CLKDivider = RCC_HCLK_DIV2;
 8000818:	f44f 5380 	mov.w	r3, #4096	; 0x1000
 800081c:	61bb      	str	r3, [r7, #24]
  RCC_ClkInitStruct.APB2CLKDivider = RCC_HCLK_DIV2;
 800081e:	f44f 5380 	mov.w	r3, #4096	; 0x1000
 8000822:	61fb      	str	r3, [r7, #28]

  if (HAL_RCC_ClockConfig(&RCC_ClkInitStruct, FLASH_LATENCY_2) != HAL_OK)
 8000824:	f107 030c 	add.w	r3, r7, #12
 8000828:	2102      	movs	r1, #2
 800082a:	4618      	mov	r0, r3
 800082c:	f001 fdc4 	bl	80023b8 <HAL_RCC_ClockConfig>
 8000830:	4603      	mov	r3, r0
 8000832:	2b00      	cmp	r3, #0
 8000834:	d001      	beq.n	800083a <SystemClock_Config+0xc2>
  {
    Error_Handler();
 8000836:	f000 f92b 	bl	8000a90 <Error_Handler>
  }
}
 800083a:	bf00      	nop
 800083c:	3750      	adds	r7, #80	; 0x50
 800083e:	46bd      	mov	sp, r7
 8000840:	bd80      	pop	{r7, pc}
 8000842:	bf00      	nop
 8000844:	40023800 	.word	0x40023800
 8000848:	40007000 	.word	0x40007000

0800084c <MX_CAN1_Init>:
  * @brief CAN1 Initialization Function
  * @param None
  * @retval None
  */
static void MX_CAN1_Init(void)
{
 800084c:	b580      	push	{r7, lr}
 800084e:	b08a      	sub	sp, #40	; 0x28
 8000850:	af00      	add	r7, sp, #0
  /* USER CODE END CAN1_Init 0 */

  /* USER CODE BEGIN CAN1_Init 1 */

  /* USER CODE END CAN1_Init 1 */
  hcan1.Instance = CAN1;
 8000852:	4b26      	ldr	r3, [pc, #152]	; (80008ec <MX_CAN1_Init+0xa0>)
 8000854:	4a26      	ldr	r2, [pc, #152]	; (80008f0 <MX_CAN1_Init+0xa4>)
 8000856:	601a      	str	r2, [r3, #0]
  hcan1.Init.Prescaler = 18;
 8000858:	4b24      	ldr	r3, [pc, #144]	; (80008ec <MX_CAN1_Init+0xa0>)
 800085a:	2212      	movs	r2, #18
 800085c:	605a      	str	r2, [r3, #4]
  hcan1.Init.Mode = CAN_MODE_NORMAL;
 800085e:	4b23      	ldr	r3, [pc, #140]	; (80008ec <MX_CAN1_Init+0xa0>)
 8000860:	2200      	movs	r2, #0
 8000862:	609a      	str	r2, [r3, #8]
  hcan1.Init.SyncJumpWidth = CAN_SJW_1TQ;
 8000864:	4b21      	ldr	r3, [pc, #132]	; (80008ec <MX_CAN1_Init+0xa0>)
 8000866:	2200      	movs	r2, #0
 8000868:	60da      	str	r2, [r3, #12]
  hcan1.Init.TimeSeg1 = CAN_BS1_2TQ;
 800086a:	4b20      	ldr	r3, [pc, #128]	; (80008ec <MX_CAN1_Init+0xa0>)
 800086c:	f44f 3280 	mov.w	r2, #65536	; 0x10000
 8000870:	611a      	str	r2, [r3, #16]
  hcan1.Init.TimeSeg2 = CAN_BS2_1TQ;
 8000872:	4b1e      	ldr	r3, [pc, #120]	; (80008ec <MX_CAN1_Init+0xa0>)
 8000874:	2200      	movs	r2, #0
 8000876:	615a      	str	r2, [r3, #20]
  hcan1.Init.TimeTriggeredMode = DISABLE;
 8000878:	4b1c      	ldr	r3, [pc, #112]	; (80008ec <MX_CAN1_Init+0xa0>)
 800087a:	2200      	movs	r2, #0
 800087c:	761a      	strb	r2, [r3, #24]
  hcan1.Init.AutoBusOff = DISABLE;
 800087e:	4b1b      	ldr	r3, [pc, #108]	; (80008ec <MX_CAN1_Init+0xa0>)
 8000880:	2200      	movs	r2, #0
 8000882:	765a      	strb	r2, [r3, #25]
  hcan1.Init.AutoWakeUp = DISABLE;
 8000884:	4b19      	ldr	r3, [pc, #100]	; (80008ec <MX_CAN1_Init+0xa0>)
 8000886:	2200      	movs	r2, #0
 8000888:	769a      	strb	r2, [r3, #26]
  hcan1.Init.AutoRetransmission = DISABLE;
 800088a:	4b18      	ldr	r3, [pc, #96]	; (80008ec <MX_CAN1_Init+0xa0>)
 800088c:	2200      	movs	r2, #0
 800088e:	76da      	strb	r2, [r3, #27]
  hcan1.Init.ReceiveFifoLocked = DISABLE;
 8000890:	4b16      	ldr	r3, [pc, #88]	; (80008ec <MX_CAN1_Init+0xa0>)
 8000892:	2200      	movs	r2, #0
 8000894:	771a      	strb	r2, [r3, #28]
  hcan1.Init.TransmitFifoPriority = DISABLE;
 8000896:	4b15      	ldr	r3, [pc, #84]	; (80008ec <MX_CAN1_Init+0xa0>)
 8000898:	2200      	movs	r2, #0
 800089a:	775a      	strb	r2, [r3, #29]
  if (HAL_CAN_Init(&hcan1) != HAL_OK)
 800089c:	4813      	ldr	r0, [pc, #76]	; (80008ec <MX_CAN1_Init+0xa0>)
 800089e:	f000 fac3 	bl	8000e28 <HAL_CAN_Init>
 80008a2:	4603      	mov	r3, r0
 80008a4:	2b00      	cmp	r3, #0
 80008a6:	d001      	beq.n	80008ac <MX_CAN1_Init+0x60>
  {
    Error_Handler();
 80008a8:	f000 f8f2 	bl	8000a90 <Error_Handler>
  }
  /* USER CODE BEGIN CAN1_Init 2 */
  CAN_FilterTypeDef canFilterConfig;
  canFilterConfig.FilterActivation=CAN_FILTER_ENABLE;
 80008ac:	2301      	movs	r3, #1
 80008ae:	623b      	str	r3, [r7, #32]
  canFilterConfig.SlaveStartFilterBank=14;
 80008b0:	230e      	movs	r3, #14
 80008b2:	627b      	str	r3, [r7, #36]	; 0x24
  canFilterConfig.FilterBank=2;
 80008b4:	2302      	movs	r3, #2
 80008b6:	617b      	str	r3, [r7, #20]
  canFilterConfig.FilterFIFOAssignment=CAN_RX_FIFO0;
 80008b8:	2300      	movs	r3, #0
 80008ba:	613b      	str	r3, [r7, #16]
  canFilterConfig.FilterScale=CAN_FILTERSCALE_32BIT;
 80008bc:	2301      	movs	r3, #1
 80008be:	61fb      	str	r3, [r7, #28]
  canFilterConfig.FilterMode=CAN_FILTERMODE_IDMASK;
 80008c0:	2300      	movs	r3, #0
 80008c2:	61bb      	str	r3, [r7, #24]
  canFilterConfig.FilterMaskIdLow=0x0000;
 80008c4:	2300      	movs	r3, #0
 80008c6:	60fb      	str	r3, [r7, #12]
  canFilterConfig.FilterMaskIdHigh=0xFF00;
 80008c8:	f44f 437f 	mov.w	r3, #65280	; 0xff00
 80008cc:	60bb      	str	r3, [r7, #8]
  canFilterConfig.FilterIdLow=0x0000;
 80008ce:	2300      	movs	r3, #0
 80008d0:	607b      	str	r3, [r7, #4]
  canFilterConfig.FilterIdHigh=0x1500;
 80008d2:	f44f 53a8 	mov.w	r3, #5376	; 0x1500
 80008d6:	603b      	str	r3, [r7, #0]
  HAL_CAN_ConfigFilter(&hcan1, &canFilterConfig);
 80008d8:	463b      	mov	r3, r7
 80008da:	4619      	mov	r1, r3
 80008dc:	4803      	ldr	r0, [pc, #12]	; (80008ec <MX_CAN1_Init+0xa0>)
 80008de:	f000 fb9f 	bl	8001020 <HAL_CAN_ConfigFilter>
  /* USER CODE END CAN1_Init 2 */

}
 80008e2:	bf00      	nop
 80008e4:	3728      	adds	r7, #40	; 0x28
 80008e6:	46bd      	mov	sp, r7
 80008e8:	bd80      	pop	{r7, pc}
 80008ea:	bf00      	nop
 80008ec:	20000028 	.word	0x20000028
 80008f0:	40006400 	.word	0x40006400

080008f4 <MX_SPI1_Init>:
  * @brief SPI1 Initialization Function
  * @param None
  * @retval None
  */
static void MX_SPI1_Init(void)
{
 80008f4:	b580      	push	{r7, lr}
 80008f6:	af00      	add	r7, sp, #0

  /* USER CODE BEGIN SPI1_Init 1 */

  /* USER CODE END SPI1_Init 1 */
  /* SPI1 parameter configuration*/
  hspi1.Instance = SPI1;
 80008f8:	4b17      	ldr	r3, [pc, #92]	; (8000958 <MX_SPI1_Init+0x64>)
 80008fa:	4a18      	ldr	r2, [pc, #96]	; (800095c <MX_SPI1_Init+0x68>)
 80008fc:	601a      	str	r2, [r3, #0]
  hspi1.Init.Mode = SPI_MODE_MASTER;
 80008fe:	4b16      	ldr	r3, [pc, #88]	; (8000958 <MX_SPI1_Init+0x64>)
 8000900:	f44f 7282 	mov.w	r2, #260	; 0x104
 8000904:	605a      	str	r2, [r3, #4]
  hspi1.Init.Direction = SPI_DIRECTION_2LINES;
 8000906:	4b14      	ldr	r3, [pc, #80]	; (8000958 <MX_SPI1_Init+0x64>)
 8000908:	2200      	movs	r2, #0
 800090a:	609a      	str	r2, [r3, #8]
  hspi1.Init.DataSize = SPI_DATASIZE_8BIT;
 800090c:	4b12      	ldr	r3, [pc, #72]	; (8000958 <MX_SPI1_Init+0x64>)
 800090e:	2200      	movs	r2, #0
 8000910:	60da      	str	r2, [r3, #12]
  hspi1.Init.CLKPolarity = SPI_POLARITY_LOW;
 8000912:	4b11      	ldr	r3, [pc, #68]	; (8000958 <MX_SPI1_Init+0x64>)
 8000914:	2200      	movs	r2, #0
 8000916:	611a      	str	r2, [r3, #16]
  hspi1.Init.CLKPhase = SPI_PHASE_1EDGE;
 8000918:	4b0f      	ldr	r3, [pc, #60]	; (8000958 <MX_SPI1_Init+0x64>)
 800091a:	2200      	movs	r2, #0
 800091c:	615a      	str	r2, [r3, #20]
  hspi1.Init.NSS = SPI_NSS_SOFT;
 800091e:	4b0e      	ldr	r3, [pc, #56]	; (8000958 <MX_SPI1_Init+0x64>)
 8000920:	f44f 7200 	mov.w	r2, #512	; 0x200
 8000924:	619a      	str	r2, [r3, #24]
  hspi1.Init.BaudRatePrescaler = SPI_BAUDRATEPRESCALER_32;
 8000926:	4b0c      	ldr	r3, [pc, #48]	; (8000958 <MX_SPI1_Init+0x64>)
 8000928:	2220      	movs	r2, #32
 800092a:	61da      	str	r2, [r3, #28]
  hspi1.Init.FirstBit = SPI_FIRSTBIT_MSB;
 800092c:	4b0a      	ldr	r3, [pc, #40]	; (8000958 <MX_SPI1_Init+0x64>)
 800092e:	2200      	movs	r2, #0
 8000930:	621a      	str	r2, [r3, #32]
  hspi1.Init.TIMode = SPI_TIMODE_DISABLE;
 8000932:	4b09      	ldr	r3, [pc, #36]	; (8000958 <MX_SPI1_Init+0x64>)
 8000934:	2200      	movs	r2, #0
 8000936:	625a      	str	r2, [r3, #36]	; 0x24
  hspi1.Init.CRCCalculation = SPI_CRCCALCULATION_DISABLE;
 8000938:	4b07      	ldr	r3, [pc, #28]	; (8000958 <MX_SPI1_Init+0x64>)
 800093a:	2200      	movs	r2, #0
 800093c:	629a      	str	r2, [r3, #40]	; 0x28
  hspi1.Init.CRCPolynomial = 10;
 800093e:	4b06      	ldr	r3, [pc, #24]	; (8000958 <MX_SPI1_Init+0x64>)
 8000940:	220a      	movs	r2, #10
 8000942:	62da      	str	r2, [r3, #44]	; 0x2c
  if (HAL_SPI_Init(&hspi1) != HAL_OK)
 8000944:	4804      	ldr	r0, [pc, #16]	; (8000958 <MX_SPI1_Init+0x64>)
 8000946:	f001 ff23 	bl	8002790 <HAL_SPI_Init>
 800094a:	4603      	mov	r3, r0
 800094c:	2b00      	cmp	r3, #0
 800094e:	d001      	beq.n	8000954 <MX_SPI1_Init+0x60>
  {
    Error_Handler();
 8000950:	f000 f89e 	bl	8000a90 <Error_Handler>
  }
  /* USER CODE BEGIN SPI1_Init 2 */

  /* USER CODE END SPI1_Init 2 */

}
 8000954:	bf00      	nop
 8000956:	bd80      	pop	{r7, pc}
 8000958:	20000050 	.word	0x20000050
 800095c:	40013000 	.word	0x40013000

08000960 <MX_GPIO_Init>:
  * @brief GPIO Initialization Function
  * @param None
  * @retval None
  */
static void MX_GPIO_Init(void)
{
 8000960:	b580      	push	{r7, lr}
 8000962:	b08a      	sub	sp, #40	; 0x28
 8000964:	af00      	add	r7, sp, #0
  GPIO_InitTypeDef GPIO_InitStruct = {0};
 8000966:	f107 0314 	add.w	r3, r7, #20
 800096a:	2200      	movs	r2, #0
 800096c:	601a      	str	r2, [r3, #0]
 800096e:	605a      	str	r2, [r3, #4]
 8000970:	609a      	str	r2, [r3, #8]
 8000972:	60da      	str	r2, [r3, #12]
 8000974:	611a      	str	r2, [r3, #16]
/* USER CODE BEGIN MX_GPIO_Init_1 */
/* USER CODE END MX_GPIO_Init_1 */

  /* GPIO Ports Clock Enable */
  __HAL_RCC_GPIOE_CLK_ENABLE();
 8000976:	2300      	movs	r3, #0
 8000978:	613b      	str	r3, [r7, #16]
 800097a:	4b41      	ldr	r3, [pc, #260]	; (8000a80 <MX_GPIO_Init+0x120>)
 800097c:	6b1b      	ldr	r3, [r3, #48]	; 0x30
 800097e:	4a40      	ldr	r2, [pc, #256]	; (8000a80 <MX_GPIO_Init+0x120>)
 8000980:	f043 0310 	orr.w	r3, r3, #16
 8000984:	6313      	str	r3, [r2, #48]	; 0x30
 8000986:	4b3e      	ldr	r3, [pc, #248]	; (8000a80 <MX_GPIO_Init+0x120>)
 8000988:	6b1b      	ldr	r3, [r3, #48]	; 0x30
 800098a:	f003 0310 	and.w	r3, r3, #16
 800098e:	613b      	str	r3, [r7, #16]
 8000990:	693b      	ldr	r3, [r7, #16]
  __HAL_RCC_GPIOH_CLK_ENABLE();
 8000992:	2300      	movs	r3, #0
 8000994:	60fb      	str	r3, [r7, #12]
 8000996:	4b3a      	ldr	r3, [pc, #232]	; (8000a80 <MX_GPIO_Init+0x120>)
 8000998:	6b1b      	ldr	r3, [r3, #48]	; 0x30
 800099a:	4a39      	ldr	r2, [pc, #228]	; (8000a80 <MX_GPIO_Init+0x120>)
 800099c:	f043 0380 	orr.w	r3, r3, #128	; 0x80
 80009a0:	6313      	str	r3, [r2, #48]	; 0x30
 80009a2:	4b37      	ldr	r3, [pc, #220]	; (8000a80 <MX_GPIO_Init+0x120>)
 80009a4:	6b1b      	ldr	r3, [r3, #48]	; 0x30
 80009a6:	f003 0380 	and.w	r3, r3, #128	; 0x80
 80009aa:	60fb      	str	r3, [r7, #12]
 80009ac:	68fb      	ldr	r3, [r7, #12]
  __HAL_RCC_GPIOA_CLK_ENABLE();
 80009ae:	2300      	movs	r3, #0
 80009b0:	60bb      	str	r3, [r7, #8]
 80009b2:	4b33      	ldr	r3, [pc, #204]	; (8000a80 <MX_GPIO_Init+0x120>)
 80009b4:	6b1b      	ldr	r3, [r3, #48]	; 0x30
 80009b6:	4a32      	ldr	r2, [pc, #200]	; (8000a80 <MX_GPIO_Init+0x120>)
 80009b8:	f043 0301 	orr.w	r3, r3, #1
 80009bc:	6313      	str	r3, [r2, #48]	; 0x30
 80009be:	4b30      	ldr	r3, [pc, #192]	; (8000a80 <MX_GPIO_Init+0x120>)
 80009c0:	6b1b      	ldr	r3, [r3, #48]	; 0x30
 80009c2:	f003 0301 	and.w	r3, r3, #1
 80009c6:	60bb      	str	r3, [r7, #8]
 80009c8:	68bb      	ldr	r3, [r7, #8]
  __HAL_RCC_GPIOD_CLK_ENABLE();
 80009ca:	2300      	movs	r3, #0
 80009cc:	607b      	str	r3, [r7, #4]
 80009ce:	4b2c      	ldr	r3, [pc, #176]	; (8000a80 <MX_GPIO_Init+0x120>)
 80009d0:	6b1b      	ldr	r3, [r3, #48]	; 0x30
 80009d2:	4a2b      	ldr	r2, [pc, #172]	; (8000a80 <MX_GPIO_Init+0x120>)
 80009d4:	f043 0308 	orr.w	r3, r3, #8
 80009d8:	6313      	str	r3, [r2, #48]	; 0x30
 80009da:	4b29      	ldr	r3, [pc, #164]	; (8000a80 <MX_GPIO_Init+0x120>)
 80009dc:	6b1b      	ldr	r3, [r3, #48]	; 0x30
 80009de:	f003 0308 	and.w	r3, r3, #8
 80009e2:	607b      	str	r3, [r7, #4]
 80009e4:	687b      	ldr	r3, [r7, #4]
  __HAL_RCC_GPIOB_CLK_ENABLE();
 80009e6:	2300      	movs	r3, #0
 80009e8:	603b      	str	r3, [r7, #0]
 80009ea:	4b25      	ldr	r3, [pc, #148]	; (8000a80 <MX_GPIO_Init+0x120>)
 80009ec:	6b1b      	ldr	r3, [r3, #48]	; 0x30
 80009ee:	4a24      	ldr	r2, [pc, #144]	; (8000a80 <MX_GPIO_Init+0x120>)
 80009f0:	f043 0302 	orr.w	r3, r3, #2
 80009f4:	6313      	str	r3, [r2, #48]	; 0x30
 80009f6:	4b22      	ldr	r3, [pc, #136]	; (8000a80 <MX_GPIO_Init+0x120>)
 80009f8:	6b1b      	ldr	r3, [r3, #48]	; 0x30
 80009fa:	f003 0302 	and.w	r3, r3, #2
 80009fe:	603b      	str	r3, [r7, #0]
 8000a00:	683b      	ldr	r3, [r7, #0]

  /*Configure GPIO pin Output Level */
  HAL_GPIO_WritePin(GPIOE, GPIO_PIN_3, GPIO_PIN_RESET);
 8000a02:	2200      	movs	r2, #0
 8000a04:	2108      	movs	r1, #8
 8000a06:	481f      	ldr	r0, [pc, #124]	; (8000a84 <MX_GPIO_Init+0x124>)
 8000a08:	f001 fa44 	bl	8001e94 <HAL_GPIO_WritePin>

  /*Configure GPIO pin Output Level */
  HAL_GPIO_WritePin(GPIOA, GPIO_PIN_1, GPIO_PIN_RESET);
 8000a0c:	2200      	movs	r2, #0
 8000a0e:	2102      	movs	r1, #2
 8000a10:	481d      	ldr	r0, [pc, #116]	; (8000a88 <MX_GPIO_Init+0x128>)
 8000a12:	f001 fa3f 	bl	8001e94 <HAL_GPIO_WritePin>

  /*Configure GPIO pin Output Level */
  HAL_GPIO_WritePin(GPIOD, GPIO_PIN_12|GPIO_PIN_13|GPIO_PIN_14|GPIO_PIN_15, GPIO_PIN_RESET);
 8000a16:	2200      	movs	r2, #0
 8000a18:	f44f 4170 	mov.w	r1, #61440	; 0xf000
 8000a1c:	481b      	ldr	r0, [pc, #108]	; (8000a8c <MX_GPIO_Init+0x12c>)
 8000a1e:	f001 fa39 	bl	8001e94 <HAL_GPIO_WritePin>

  /*Configure GPIO pin : PE3 */
  GPIO_InitStruct.Pin = GPIO_PIN_3;
 8000a22:	2308      	movs	r3, #8
 8000a24:	617b      	str	r3, [r7, #20]
  GPIO_InitStruct.Mode = GPIO_MODE_OUTPUT_PP;
 8000a26:	2301      	movs	r3, #1
 8000a28:	61bb      	str	r3, [r7, #24]
  GPIO_InitStruct.Pull = GPIO_NOPULL;
 8000a2a:	2300      	movs	r3, #0
 8000a2c:	61fb      	str	r3, [r7, #28]
  GPIO_InitStruct.Speed = GPIO_SPEED_FREQ_LOW;
 8000a2e:	2300      	movs	r3, #0
 8000a30:	623b      	str	r3, [r7, #32]
  HAL_GPIO_Init(GPIOE, &GPIO_InitStruct);
 8000a32:	f107 0314 	add.w	r3, r7, #20
 8000a36:	4619      	mov	r1, r3
 8000a38:	4812      	ldr	r0, [pc, #72]	; (8000a84 <MX_GPIO_Init+0x124>)
 8000a3a:	f001 f88f 	bl	8001b5c <HAL_GPIO_Init>

  /*Configure GPIO pin : PA1 */
  GPIO_InitStruct.Pin = GPIO_PIN_1;
 8000a3e:	2302      	movs	r3, #2
 8000a40:	617b      	str	r3, [r7, #20]
  GPIO_InitStruct.Mode = GPIO_MODE_OUTPUT_PP;
 8000a42:	2301      	movs	r3, #1
 8000a44:	61bb      	str	r3, [r7, #24]
  GPIO_InitStruct.Pull = GPIO_NOPULL;
 8000a46:	2300      	movs	r3, #0
 8000a48:	61fb      	str	r3, [r7, #28]
  GPIO_InitStruct.Speed = GPIO_SPEED_FREQ_LOW;
 8000a4a:	2300      	movs	r3, #0
 8000a4c:	623b      	str	r3, [r7, #32]
  HAL_GPIO_Init(GPIOA, &GPIO_InitStruct);
 8000a4e:	f107 0314 	add.w	r3, r7, #20
 8000a52:	4619      	mov	r1, r3
 8000a54:	480c      	ldr	r0, [pc, #48]	; (8000a88 <MX_GPIO_Init+0x128>)
 8000a56:	f001 f881 	bl	8001b5c <HAL_GPIO_Init>

  /*Configure GPIO pins : PD12 PD13 PD14 PD15 */
  GPIO_InitStruct.Pin = GPIO_PIN_12|GPIO_PIN_13|GPIO_PIN_14|GPIO_PIN_15;
 8000a5a:	f44f 4370 	mov.w	r3, #61440	; 0xf000
 8000a5e:	617b      	str	r3, [r7, #20]
  GPIO_InitStruct.Mode = GPIO_MODE_OUTPUT_PP;
 8000a60:	2301      	movs	r3, #1
 8000a62:	61bb      	str	r3, [r7, #24]
  GPIO_InitStruct.Pull = GPIO_NOPULL;
 8000a64:	2300      	movs	r3, #0
 8000a66:	61fb      	str	r3, [r7, #28]
  GPIO_InitStruct.Speed = GPIO_SPEED_FREQ_LOW;
 8000a68:	2300      	movs	r3, #0
 8000a6a:	623b      	str	r3, [r7, #32]
  HAL_GPIO_Init(GPIOD, &GPIO_InitStruct);
 8000a6c:	f107 0314 	add.w	r3, r7, #20
 8000a70:	4619      	mov	r1, r3
 8000a72:	4806      	ldr	r0, [pc, #24]	; (8000a8c <MX_GPIO_Init+0x12c>)
 8000a74:	f001 f872 	bl	8001b5c <HAL_GPIO_Init>

/* USER CODE BEGIN MX_GPIO_Init_2 */
/* USER CODE END MX_GPIO_Init_2 */
}
 8000a78:	bf00      	nop
 8000a7a:	3728      	adds	r7, #40	; 0x28
 8000a7c:	46bd      	mov	sp, r7
 8000a7e:	bd80      	pop	{r7, pc}
 8000a80:	40023800 	.word	0x40023800
 8000a84:	40021000 	.word	0x40021000
 8000a88:	40020000 	.word	0x40020000
 8000a8c:	40020c00 	.word	0x40020c00

08000a90 <Error_Handler>:
/**
  * @brief  This function is executed in case of error occurrence.
  * @retval None
  */
void Error_Handler(void)
{
 8000a90:	b480      	push	{r7}
 8000a92:	af00      	add	r7, sp, #0
  \details Disables IRQ interrupts by setting the I-bit in the CPSR.
           Can only be executed in Privileged modes.
 */
__STATIC_FORCEINLINE void __disable_irq(void)
{
  __ASM volatile ("cpsid i" : : : "memory");
 8000a94:	b672      	cpsid	i
}
 8000a96:	bf00      	nop
  /* USER CODE BEGIN Error_Handler_Debug */
  /* User can add his own implementation to report the HAL error return state */
  __disable_irq();
  while (1)
 8000a98:	e7fe      	b.n	8000a98 <Error_Handler+0x8>
	...

08000a9c <HAL_MspInit>:
/* USER CODE END 0 */
/**
  * Initializes the Global MSP.
  */
void HAL_MspInit(void)
{
 8000a9c:	b580      	push	{r7, lr}
 8000a9e:	b082      	sub	sp, #8
 8000aa0:	af00      	add	r7, sp, #0
  /* USER CODE BEGIN MspInit 0 */

  /* USER CODE END MspInit 0 */

  __HAL_RCC_SYSCFG_CLK_ENABLE();
 8000aa2:	2300      	movs	r3, #0
 8000aa4:	607b      	str	r3, [r7, #4]
 8000aa6:	4b10      	ldr	r3, [pc, #64]	; (8000ae8 <HAL_MspInit+0x4c>)
 8000aa8:	6c5b      	ldr	r3, [r3, #68]	; 0x44
 8000aaa:	4a0f      	ldr	r2, [pc, #60]	; (8000ae8 <HAL_MspInit+0x4c>)
 8000aac:	f443 4380 	orr.w	r3, r3, #16384	; 0x4000
 8000ab0:	6453      	str	r3, [r2, #68]	; 0x44
 8000ab2:	4b0d      	ldr	r3, [pc, #52]	; (8000ae8 <HAL_MspInit+0x4c>)
 8000ab4:	6c5b      	ldr	r3, [r3, #68]	; 0x44
 8000ab6:	f403 4380 	and.w	r3, r3, #16384	; 0x4000
 8000aba:	607b      	str	r3, [r7, #4]
 8000abc:	687b      	ldr	r3, [r7, #4]
  __HAL_RCC_PWR_CLK_ENABLE();
 8000abe:	2300      	movs	r3, #0
 8000ac0:	603b      	str	r3, [r7, #0]
 8000ac2:	4b09      	ldr	r3, [pc, #36]	; (8000ae8 <HAL_MspInit+0x4c>)
 8000ac4:	6c1b      	ldr	r3, [r3, #64]	; 0x40
 8000ac6:	4a08      	ldr	r2, [pc, #32]	; (8000ae8 <HAL_MspInit+0x4c>)
 8000ac8:	f043 5380 	orr.w	r3, r3, #268435456	; 0x10000000
 8000acc:	6413      	str	r3, [r2, #64]	; 0x40
 8000ace:	4b06      	ldr	r3, [pc, #24]	; (8000ae8 <HAL_MspInit+0x4c>)
 8000ad0:	6c1b      	ldr	r3, [r3, #64]	; 0x40
 8000ad2:	f003 5380 	and.w	r3, r3, #268435456	; 0x10000000
 8000ad6:	603b      	str	r3, [r7, #0]
 8000ad8:	683b      	ldr	r3, [r7, #0]

  HAL_NVIC_SetPriorityGrouping(NVIC_PRIORITYGROUP_0);
 8000ada:	2007      	movs	r0, #7
 8000adc:	f000 fffc 	bl	8001ad8 <HAL_NVIC_SetPriorityGrouping>
  /* System interrupt init*/

  /* USER CODE BEGIN MspInit 1 */

  /* USER CODE END MspInit 1 */
}
 8000ae0:	bf00      	nop
 8000ae2:	3708      	adds	r7, #8
 8000ae4:	46bd      	mov	sp, r7
 8000ae6:	bd80      	pop	{r7, pc}
 8000ae8:	40023800 	.word	0x40023800

08000aec <HAL_CAN_MspInit>:
* This function configures the hardware resources used in this example
* @param hcan: CAN handle pointer
* @retval None
*/
void HAL_CAN_MspInit(CAN_HandleTypeDef* hcan)
{
 8000aec:	b580      	push	{r7, lr}
 8000aee:	b08a      	sub	sp, #40	; 0x28
 8000af0:	af00      	add	r7, sp, #0
 8000af2:	6078      	str	r0, [r7, #4]
  GPIO_InitTypeDef GPIO_InitStruct = {0};
 8000af4:	f107 0314 	add.w	r3, r7, #20
 8000af8:	2200      	movs	r2, #0
 8000afa:	601a      	str	r2, [r3, #0]
 8000afc:	605a      	str	r2, [r3, #4]
 8000afe:	609a      	str	r2, [r3, #8]
 8000b00:	60da      	str	r2, [r3, #12]
 8000b02:	611a      	str	r2, [r3, #16]
  if(hcan->Instance==CAN1)
 8000b04:	687b      	ldr	r3, [r7, #4]
 8000b06:	681b      	ldr	r3, [r3, #0]
 8000b08:	4a1d      	ldr	r2, [pc, #116]	; (8000b80 <HAL_CAN_MspInit+0x94>)
 8000b0a:	4293      	cmp	r3, r2
 8000b0c:	d134      	bne.n	8000b78 <HAL_CAN_MspInit+0x8c>
  {
  /* USER CODE BEGIN CAN1_MspInit 0 */

  /* USER CODE END CAN1_MspInit 0 */
    /* Peripheral clock enable */
    __HAL_RCC_CAN1_CLK_ENABLE();
 8000b0e:	2300      	movs	r3, #0
 8000b10:	613b      	str	r3, [r7, #16]
 8000b12:	4b1c      	ldr	r3, [pc, #112]	; (8000b84 <HAL_CAN_MspInit+0x98>)
 8000b14:	6c1b      	ldr	r3, [r3, #64]	; 0x40
 8000b16:	4a1b      	ldr	r2, [pc, #108]	; (8000b84 <HAL_CAN_MspInit+0x98>)
 8000b18:	f043 7300 	orr.w	r3, r3, #33554432	; 0x2000000
 8000b1c:	6413      	str	r3, [r2, #64]	; 0x40
 8000b1e:	4b19      	ldr	r3, [pc, #100]	; (8000b84 <HAL_CAN_MspInit+0x98>)
 8000b20:	6c1b      	ldr	r3, [r3, #64]	; 0x40
 8000b22:	f003 7300 	and.w	r3, r3, #33554432	; 0x2000000
 8000b26:	613b      	str	r3, [r7, #16]
 8000b28:	693b      	ldr	r3, [r7, #16]

    __HAL_RCC_GPIOB_CLK_ENABLE();
 8000b2a:	2300      	movs	r3, #0
 8000b2c:	60fb      	str	r3, [r7, #12]
 8000b2e:	4b15      	ldr	r3, [pc, #84]	; (8000b84 <HAL_CAN_MspInit+0x98>)
 8000b30:	6b1b      	ldr	r3, [r3, #48]	; 0x30
 8000b32:	4a14      	ldr	r2, [pc, #80]	; (8000b84 <HAL_CAN_MspInit+0x98>)
 8000b34:	f043 0302 	orr.w	r3, r3, #2
 8000b38:	6313      	str	r3, [r2, #48]	; 0x30
 8000b3a:	4b12      	ldr	r3, [pc, #72]	; (8000b84 <HAL_CAN_MspInit+0x98>)
 8000b3c:	6b1b      	ldr	r3, [r3, #48]	; 0x30
 8000b3e:	f003 0302 	and.w	r3, r3, #2
 8000b42:	60fb      	str	r3, [r7, #12]
 8000b44:	68fb      	ldr	r3, [r7, #12]
    /**CAN1 GPIO Configuration
    PB8     ------> CAN1_RX
    PB9     ------> CAN1_TX
    */
    GPIO_InitStruct.Pin = GPIO_PIN_8|GPIO_PIN_9;
 8000b46:	f44f 7340 	mov.w	r3, #768	; 0x300
 8000b4a:	617b      	str	r3, [r7, #20]
    GPIO_InitStruct.Mode = GPIO_MODE_AF_PP;
 8000b4c:	2302      	movs	r3, #2
 8000b4e:	61bb      	str	r3, [r7, #24]
    GPIO_InitStruct.Pull = GPIO_NOPULL;
 8000b50:	2300      	movs	r3, #0
 8000b52:	61fb      	str	r3, [r7, #28]
    GPIO_InitStruct.Speed = GPIO_SPEED_FREQ_VERY_HIGH;
 8000b54:	2303      	movs	r3, #3
 8000b56:	623b      	str	r3, [r7, #32]
    GPIO_InitStruct.Alternate = GPIO_AF9_CAN1;
 8000b58:	2309      	movs	r3, #9
 8000b5a:	627b      	str	r3, [r7, #36]	; 0x24
    HAL_GPIO_Init(GPIOB, &GPIO_InitStruct);
 8000b5c:	f107 0314 	add.w	r3, r7, #20
 8000b60:	4619      	mov	r1, r3
 8000b62:	4809      	ldr	r0, [pc, #36]	; (8000b88 <HAL_CAN_MspInit+0x9c>)
 8000b64:	f000 fffa 	bl	8001b5c <HAL_GPIO_Init>

    /* CAN1 interrupt Init */
    HAL_NVIC_SetPriority(CAN1_RX0_IRQn, 0, 0);
 8000b68:	2200      	movs	r2, #0
 8000b6a:	2100      	movs	r1, #0
 8000b6c:	2014      	movs	r0, #20
 8000b6e:	f000 ffbe 	bl	8001aee <HAL_NVIC_SetPriority>
    HAL_NVIC_EnableIRQ(CAN1_RX0_IRQn);
 8000b72:	2014      	movs	r0, #20
 8000b74:	f000 ffd7 	bl	8001b26 <HAL_NVIC_EnableIRQ>
  /* USER CODE BEGIN CAN1_MspInit 1 */

  /* USER CODE END CAN1_MspInit 1 */
  }

}
 8000b78:	bf00      	nop
 8000b7a:	3728      	adds	r7, #40	; 0x28
 8000b7c:	46bd      	mov	sp, r7
 8000b7e:	bd80      	pop	{r7, pc}
 8000b80:	40006400 	.word	0x40006400
 8000b84:	40023800 	.word	0x40023800
 8000b88:	40020400 	.word	0x40020400

08000b8c <HAL_SPI_MspInit>:
* This function configures the hardware resources used in this example
* @param hspi: SPI handle pointer
* @retval None
*/
void HAL_SPI_MspInit(SPI_HandleTypeDef* hspi)
{
 8000b8c:	b580      	push	{r7, lr}
 8000b8e:	b08a      	sub	sp, #40	; 0x28
 8000b90:	af00      	add	r7, sp, #0
 8000b92:	6078      	str	r0, [r7, #4]
  GPIO_InitTypeDef GPIO_InitStruct = {0};
 8000b94:	f107 0314 	add.w	r3, r7, #20
 8000b98:	2200      	movs	r2, #0
 8000b9a:	601a      	str	r2, [r3, #0]
 8000b9c:	605a      	str	r2, [r3, #4]
 8000b9e:	609a      	str	r2, [r3, #8]
 8000ba0:	60da      	str	r2, [r3, #12]
 8000ba2:	611a      	str	r2, [r3, #16]
  if(hspi->Instance==SPI1)
 8000ba4:	687b      	ldr	r3, [r7, #4]
 8000ba6:	681b      	ldr	r3, [r3, #0]
 8000ba8:	4a19      	ldr	r2, [pc, #100]	; (8000c10 <HAL_SPI_MspInit+0x84>)
 8000baa:	4293      	cmp	r3, r2
 8000bac:	d12b      	bne.n	8000c06 <HAL_SPI_MspInit+0x7a>
  {
  /* USER CODE BEGIN SPI1_MspInit 0 */

  /* USER CODE END SPI1_MspInit 0 */
    /* Peripheral clock enable */
    __HAL_RCC_SPI1_CLK_ENABLE();
 8000bae:	2300      	movs	r3, #0
 8000bb0:	613b      	str	r3, [r7, #16]
 8000bb2:	4b18      	ldr	r3, [pc, #96]	; (8000c14 <HAL_SPI_MspInit+0x88>)
 8000bb4:	6c5b      	ldr	r3, [r3, #68]	; 0x44
 8000bb6:	4a17      	ldr	r2, [pc, #92]	; (8000c14 <HAL_SPI_MspInit+0x88>)
 8000bb8:	f443 5380 	orr.w	r3, r3, #4096	; 0x1000
 8000bbc:	6453      	str	r3, [r2, #68]	; 0x44
 8000bbe:	4b15      	ldr	r3, [pc, #84]	; (8000c14 <HAL_SPI_MspInit+0x88>)
 8000bc0:	6c5b      	ldr	r3, [r3, #68]	; 0x44
 8000bc2:	f403 5380 	and.w	r3, r3, #4096	; 0x1000
 8000bc6:	613b      	str	r3, [r7, #16]
 8000bc8:	693b      	ldr	r3, [r7, #16]

    __HAL_RCC_GPIOA_CLK_ENABLE();
 8000bca:	2300      	movs	r3, #0
 8000bcc:	60fb      	str	r3, [r7, #12]
 8000bce:	4b11      	ldr	r3, [pc, #68]	; (8000c14 <HAL_SPI_MspInit+0x88>)
 8000bd0:	6b1b      	ldr	r3, [r3, #48]	; 0x30
 8000bd2:	4a10      	ldr	r2, [pc, #64]	; (8000c14 <HAL_SPI_MspInit+0x88>)
 8000bd4:	f043 0301 	orr.w	r3, r3, #1
 8000bd8:	6313      	str	r3, [r2, #48]	; 0x30
 8000bda:	4b0e      	ldr	r3, [pc, #56]	; (8000c14 <HAL_SPI_MspInit+0x88>)
 8000bdc:	6b1b      	ldr	r3, [r3, #48]	; 0x30
 8000bde:	f003 0301 	and.w	r3, r3, #1
 8000be2:	60fb      	str	r3, [r7, #12]
 8000be4:	68fb      	ldr	r3, [r7, #12]
    /**SPI1 GPIO Configuration
    PA5     ------> SPI1_SCK
    PA6     ------> SPI1_MISO
    PA7     ------> SPI1_MOSI
    */
    GPIO_InitStruct.Pin = GPIO_PIN_5|GPIO_PIN_6|GPIO_PIN_7;
 8000be6:	23e0      	movs	r3, #224	; 0xe0
 8000be8:	617b      	str	r3, [r7, #20]
    GPIO_InitStruct.Mode = GPIO_MODE_AF_PP;
 8000bea:	2302      	movs	r3, #2
 8000bec:	61bb      	str	r3, [r7, #24]
    GPIO_InitStruct.Pull = GPIO_NOPULL;
 8000bee:	2300      	movs	r3, #0
 8000bf0:	61fb      	str	r3, [r7, #28]
    GPIO_InitStruct.Speed = GPIO_SPEED_FREQ_VERY_HIGH;
 8000bf2:	2303      	movs	r3, #3
 8000bf4:	623b      	str	r3, [r7, #32]
    GPIO_InitStruct.Alternate = GPIO_AF5_SPI1;
 8000bf6:	2305      	movs	r3, #5
 8000bf8:	627b      	str	r3, [r7, #36]	; 0x24
    HAL_GPIO_Init(GPIOA, &GPIO_InitStruct);
 8000bfa:	f107 0314 	add.w	r3, r7, #20
 8000bfe:	4619      	mov	r1, r3
 8000c00:	4805      	ldr	r0, [pc, #20]	; (8000c18 <HAL_SPI_MspInit+0x8c>)
 8000c02:	f000 ffab 	bl	8001b5c <HAL_GPIO_Init>
  /* USER CODE BEGIN SPI1_MspInit 1 */

  /* USER CODE END SPI1_MspInit 1 */
  }

}
 8000c06:	bf00      	nop
 8000c08:	3728      	adds	r7, #40	; 0x28
 8000c0a:	46bd      	mov	sp, r7
 8000c0c:	bd80      	pop	{r7, pc}
 8000c0e:	bf00      	nop
 8000c10:	40013000 	.word	0x40013000
 8000c14:	40023800 	.word	0x40023800
 8000c18:	40020000 	.word	0x40020000

08000c1c <NMI_Handler>:
/******************************************************************************/
/**
  * @brief This function handles Non maskable interrupt.
  */
void NMI_Handler(void)
{
 8000c1c:	b480      	push	{r7}
 8000c1e:	af00      	add	r7, sp, #0
  /* USER CODE BEGIN NonMaskableInt_IRQn 0 */

  /* USER CODE END NonMaskableInt_IRQn 0 */
  /* USER CODE BEGIN NonMaskableInt_IRQn 1 */
  while (1)
 8000c20:	e7fe      	b.n	8000c20 <NMI_Handler+0x4>

08000c22 <HardFault_Handler>:

/**
  * @brief This function handles Hard fault interrupt.
  */
void HardFault_Handler(void)
{
 8000c22:	b480      	push	{r7}
 8000c24:	af00      	add	r7, sp, #0
  /* USER CODE BEGIN HardFault_IRQn 0 */

  /* USER CODE END HardFault_IRQn 0 */
  while (1)
 8000c26:	e7fe      	b.n	8000c26 <HardFault_Handler+0x4>

08000c28 <MemManage_Handler>:

/**
  * @brief This function handles Memory management fault.
  */
void MemManage_Handler(void)
{
 8000c28:	b480      	push	{r7}
 8000c2a:	af00      	add	r7, sp, #0
  /* USER CODE BEGIN MemoryManagement_IRQn 0 */

  /* USER CODE END MemoryManagement_IRQn 0 */
  while (1)
 8000c2c:	e7fe      	b.n	8000c2c <MemManage_Handler+0x4>

08000c2e <BusFault_Handler>:

/**
  * @brief This function handles Pre-fetch fault, memory access fault.
  */
void BusFault_Handler(void)
{
 8000c2e:	b480      	push	{r7}
 8000c30:	af00      	add	r7, sp, #0
  /* USER CODE BEGIN BusFault_IRQn 0 */

  /* USER CODE END BusFault_IRQn 0 */
  while (1)
 8000c32:	e7fe      	b.n	8000c32 <BusFault_Handler+0x4>

08000c34 <UsageFault_Handler>:

/**
  * @brief This function handles Undefined instruction or illegal state.
  */
void UsageFault_Handler(void)
{
 8000c34:	b480      	push	{r7}
 8000c36:	af00      	add	r7, sp, #0
  /* USER CODE BEGIN UsageFault_IRQn 0 */

  /* USER CODE END UsageFault_IRQn 0 */
  while (1)
 8000c38:	e7fe      	b.n	8000c38 <UsageFault_Handler+0x4>

08000c3a <SVC_Handler>:

/**
  * @brief This function handles System service call via SWI instruction.
  */
void SVC_Handler(void)
{
 8000c3a:	b480      	push	{r7}
 8000c3c:	af00      	add	r7, sp, #0

  /* USER CODE END SVCall_IRQn 0 */
  /* USER CODE BEGIN SVCall_IRQn 1 */

  /* USER CODE END SVCall_IRQn 1 */
}
 8000c3e:	bf00      	nop
 8000c40:	46bd      	mov	sp, r7
 8000c42:	f85d 7b04 	ldr.w	r7, [sp], #4
 8000c46:	4770      	bx	lr

08000c48 <DebugMon_Handler>:

/**
  * @brief This function handles Debug monitor.
  */
void DebugMon_Handler(void)
{
 8000c48:	b480      	push	{r7}
 8000c4a:	af00      	add	r7, sp, #0

  /* USER CODE END DebugMonitor_IRQn 0 */
  /* USER CODE BEGIN DebugMonitor_IRQn 1 */

  /* USER CODE END DebugMonitor_IRQn 1 */
}
 8000c4c:	bf00      	nop
 8000c4e:	46bd      	mov	sp, r7
 8000c50:	f85d 7b04 	ldr.w	r7, [sp], #4
 8000c54:	4770      	bx	lr

08000c56 <PendSV_Handler>:

/**
  * @brief This function handles Pendable request for system service.
  */
void PendSV_Handler(void)
{
 8000c56:	b480      	push	{r7}
 8000c58:	af00      	add	r7, sp, #0

  /* USER CODE END PendSV_IRQn 0 */
  /* USER CODE BEGIN PendSV_IRQn 1 */

  /* USER CODE END PendSV_IRQn 1 */
}
 8000c5a:	bf00      	nop
 8000c5c:	46bd      	mov	sp, r7
 8000c5e:	f85d 7b04 	ldr.w	r7, [sp], #4
 8000c62:	4770      	bx	lr

08000c64 <SysTick_Handler>:

/**
  * @brief This function handles System tick timer.
  */
void SysTick_Handler(void)
{
 8000c64:	b580      	push	{r7, lr}
 8000c66:	af00      	add	r7, sp, #0
  /* USER CODE BEGIN SysTick_IRQn 0 */

  /* USER CODE END SysTick_IRQn 0 */
  HAL_IncTick();
 8000c68:	f000 f89a 	bl	8000da0 <HAL_IncTick>
  /* USER CODE BEGIN SysTick_IRQn 1 */

  /* USER CODE END SysTick_IRQn 1 */
}
 8000c6c:	bf00      	nop
 8000c6e:	bd80      	pop	{r7, pc}

08000c70 <CAN1_RX0_IRQHandler>:

/**
  * @brief This function handles CAN1 RX0 interrupts.
  */
void CAN1_RX0_IRQHandler(void)
{
 8000c70:	b580      	push	{r7, lr}
 8000c72:	af00      	add	r7, sp, #0
  /* USER CODE BEGIN CAN1_RX0_IRQn 0 */

  /* USER CODE END CAN1_RX0_IRQn 0 */
  HAL_CAN_IRQHandler(&hcan1);
 8000c74:	4802      	ldr	r0, [pc, #8]	; (8000c80 <CAN1_RX0_IRQHandler+0x10>)
 8000c76:	f000 fc2f 	bl	80014d8 <HAL_CAN_IRQHandler>
  /* USER CODE BEGIN CAN1_RX0_IRQn 1 */

  /* USER CODE END CAN1_RX0_IRQn 1 */
}
 8000c7a:	bf00      	nop
 8000c7c:	bd80      	pop	{r7, pc}
 8000c7e:	bf00      	nop
 8000c80:	20000028 	.word	0x20000028

08000c84 <SystemInit>:
  *         configuration.
  * @param  None
  * @retval None
  */
void SystemInit(void)
{
 8000c84:	b480      	push	{r7}
 8000c86:	af00      	add	r7, sp, #0
  /* FPU settings ------------------------------------------------------------*/
  #if (__FPU_PRESENT == 1) && (__FPU_USED == 1)
    SCB->CPACR |= ((3UL << 10*2)|(3UL << 11*2));  /* set CP10 and CP11 Full Access */
 8000c88:	4b06      	ldr	r3, [pc, #24]	; (8000ca4 <SystemInit+0x20>)
 8000c8a:	f8d3 3088 	ldr.w	r3, [r3, #136]	; 0x88
 8000c8e:	4a05      	ldr	r2, [pc, #20]	; (8000ca4 <SystemInit+0x20>)
 8000c90:	f443 0370 	orr.w	r3, r3, #15728640	; 0xf00000
 8000c94:	f8c2 3088 	str.w	r3, [r2, #136]	; 0x88

  /* Configure the Vector Table location -------------------------------------*/
#if defined(USER_VECT_TAB_ADDRESS)
  SCB->VTOR = VECT_TAB_BASE_ADDRESS | VECT_TAB_OFFSET; /* Vector Table Relocation in Internal SRAM */
#endif /* USER_VECT_TAB_ADDRESS */
}
 8000c98:	bf00      	nop
 8000c9a:	46bd      	mov	sp, r7
 8000c9c:	f85d 7b04 	ldr.w	r7, [sp], #4
 8000ca0:	4770      	bx	lr
 8000ca2:	bf00      	nop
 8000ca4:	e000ed00 	.word	0xe000ed00

08000ca8 <Reset_Handler>:

    .section  .text.Reset_Handler
  .weak  Reset_Handler
  .type  Reset_Handler, %function
Reset_Handler:  
  ldr   sp, =_estack     /* set stack pointer */
 8000ca8:	f8df d034 	ldr.w	sp, [pc, #52]	; 8000ce0 <LoopFillZerobss+0x12>

/* Copy the data segment initializers from flash to SRAM */  
  ldr r0, =_sdata
 8000cac:	480d      	ldr	r0, [pc, #52]	; (8000ce4 <LoopFillZerobss+0x16>)
  ldr r1, =_edata
 8000cae:	490e      	ldr	r1, [pc, #56]	; (8000ce8 <LoopFillZerobss+0x1a>)
  ldr r2, =_sidata
 8000cb0:	4a0e      	ldr	r2, [pc, #56]	; (8000cec <LoopFillZerobss+0x1e>)
  movs r3, #0
 8000cb2:	2300      	movs	r3, #0
  b LoopCopyDataInit
 8000cb4:	e002      	b.n	8000cbc <LoopCopyDataInit>

08000cb6 <CopyDataInit>:

CopyDataInit:
  ldr r4, [r2, r3]
 8000cb6:	58d4      	ldr	r4, [r2, r3]
  str r4, [r0, r3]
 8000cb8:	50c4      	str	r4, [r0, r3]
  adds r3, r3, #4
 8000cba:	3304      	adds	r3, #4

08000cbc <LoopCopyDataInit>:

LoopCopyDataInit:
  adds r4, r0, r3
 8000cbc:	18c4      	adds	r4, r0, r3
  cmp r4, r1
 8000cbe:	428c      	cmp	r4, r1
  bcc CopyDataInit
 8000cc0:	d3f9      	bcc.n	8000cb6 <CopyDataInit>
  
/* Zero fill the bss segment. */
  ldr r2, =_sbss
 8000cc2:	4a0b      	ldr	r2, [pc, #44]	; (8000cf0 <LoopFillZerobss+0x22>)
  ldr r4, =_ebss
 8000cc4:	4c0b      	ldr	r4, [pc, #44]	; (8000cf4 <LoopFillZerobss+0x26>)
  movs r3, #0
 8000cc6:	2300      	movs	r3, #0
  b LoopFillZerobss
 8000cc8:	e001      	b.n	8000cce <LoopFillZerobss>

08000cca <FillZerobss>:

FillZerobss:
  str  r3, [r2]
 8000cca:	6013      	str	r3, [r2, #0]
  adds r2, r2, #4
 8000ccc:	3204      	adds	r2, #4

08000cce <LoopFillZerobss>:

LoopFillZerobss:
  cmp r2, r4
 8000cce:	42a2      	cmp	r2, r4
  bcc FillZerobss
 8000cd0:	d3fb      	bcc.n	8000cca <FillZerobss>

/* Call the clock system initialization function.*/
  bl  SystemInit   
 8000cd2:	f7ff ffd7 	bl	8000c84 <SystemInit>
/* Call static constructors */
    bl __libc_init_array
 8000cd6:	f002 fb03 	bl	80032e0 <__libc_init_array>
/* Call the application's entry point.*/
  bl  main
 8000cda:	f7ff fcbd 	bl	8000658 <main>
  bx  lr    
 8000cde:	4770      	bx	lr
  ldr   sp, =_estack     /* set stack pointer */
 8000ce0:	20020000 	.word	0x20020000
  ldr r0, =_sdata
 8000ce4:	20000000 	.word	0x20000000
  ldr r1, =_edata
 8000ce8:	2000000c 	.word	0x2000000c
  ldr r2, =_sidata
 8000cec:	08003370 	.word	0x08003370
  ldr r2, =_sbss
 8000cf0:	2000000c 	.word	0x2000000c
  ldr r4, =_ebss
 8000cf4:	200000d0 	.word	0x200000d0

08000cf8 <ADC_IRQHandler>:
 * @retval None       
*/
    .section  .text.Default_Handler,"ax",%progbits
Default_Handler:
Infinite_Loop:
  b  Infinite_Loop
 8000cf8:	e7fe      	b.n	8000cf8 <ADC_IRQHandler>
	...

08000cfc <HAL_Init>:
  *         need to ensure that the SysTick time base is always set to 1 millisecond
  *         to have correct HAL operation.
  * @retval HAL status
  */
HAL_StatusTypeDef HAL_Init(void)
{
 8000cfc:	b580      	push	{r7, lr}
 8000cfe:	af00      	add	r7, sp, #0
  /* Configure Flash prefetch, Instruction cache, Data cache */ 
#if (INSTRUCTION_CACHE_ENABLE != 0U)
  __HAL_FLASH_INSTRUCTION_CACHE_ENABLE();
 8000d00:	4b0e      	ldr	r3, [pc, #56]	; (8000d3c <HAL_Init+0x40>)
 8000d02:	681b      	ldr	r3, [r3, #0]
 8000d04:	4a0d      	ldr	r2, [pc, #52]	; (8000d3c <HAL_Init+0x40>)
 8000d06:	f443 7300 	orr.w	r3, r3, #512	; 0x200
 8000d0a:	6013      	str	r3, [r2, #0]
#endif /* INSTRUCTION_CACHE_ENABLE */

#if (DATA_CACHE_ENABLE != 0U)
  __HAL_FLASH_DATA_CACHE_ENABLE();
 8000d0c:	4b0b      	ldr	r3, [pc, #44]	; (8000d3c <HAL_Init+0x40>)
 8000d0e:	681b      	ldr	r3, [r3, #0]
 8000d10:	4a0a      	ldr	r2, [pc, #40]	; (8000d3c <HAL_Init+0x40>)
 8000d12:	f443 6380 	orr.w	r3, r3, #1024	; 0x400
 8000d16:	6013      	str	r3, [r2, #0]
#endif /* DATA_CACHE_ENABLE */

#if (PREFETCH_ENABLE != 0U)
  __HAL_FLASH_PREFETCH_BUFFER_ENABLE();
 8000d18:	4b08      	ldr	r3, [pc, #32]	; (8000d3c <HAL_Init+0x40>)
 8000d1a:	681b      	ldr	r3, [r3, #0]
 8000d1c:	4a07      	ldr	r2, [pc, #28]	; (8000d3c <HAL_Init+0x40>)
 8000d1e:	f443 7380 	orr.w	r3, r3, #256	; 0x100
 8000d22:	6013      	str	r3, [r2, #0]
#endif /* PREFETCH_ENABLE */

  /* Set Interrupt Group Priority */
  HAL_NVIC_SetPriorityGrouping(NVIC_PRIORITYGROUP_4);
 8000d24:	2003      	movs	r0, #3
 8000d26:	f000 fed7 	bl	8001ad8 <HAL_NVIC_SetPriorityGrouping>

  /* Use systick as time base source and configure 1ms tick (default clock after Reset is HSI) */
  HAL_InitTick(TICK_INT_PRIORITY);
 8000d2a:	2000      	movs	r0, #0
 8000d2c:	f000 f808 	bl	8000d40 <HAL_InitTick>

  /* Init the low level hardware */
  HAL_MspInit();
 8000d30:	f7ff feb4 	bl	8000a9c <HAL_MspInit>

  /* Return function status */
  return HAL_OK;
 8000d34:	2300      	movs	r3, #0
}
 8000d36:	4618      	mov	r0, r3
 8000d38:	bd80      	pop	{r7, pc}
 8000d3a:	bf00      	nop
 8000d3c:	40023c00 	.word	0x40023c00

08000d40 <HAL_InitTick>:
  *       implementation  in user file.
  * @param TickPriority Tick interrupt priority.
  * @retval HAL status
  */
__weak HAL_StatusTypeDef HAL_InitTick(uint32_t TickPriority)
{
 8000d40:	b580      	push	{r7, lr}
 8000d42:	b082      	sub	sp, #8
 8000d44:	af00      	add	r7, sp, #0
 8000d46:	6078      	str	r0, [r7, #4]
  /* Configure the SysTick to have interrupt in 1ms time basis*/
  if (HAL_SYSTICK_Config(SystemCoreClock / (1000U / uwTickFreq)) > 0U)
 8000d48:	4b12      	ldr	r3, [pc, #72]	; (8000d94 <HAL_InitTick+0x54>)
 8000d4a:	681a      	ldr	r2, [r3, #0]
 8000d4c:	4b12      	ldr	r3, [pc, #72]	; (8000d98 <HAL_InitTick+0x58>)
 8000d4e:	781b      	ldrb	r3, [r3, #0]
 8000d50:	4619      	mov	r1, r3
 8000d52:	f44f 737a 	mov.w	r3, #1000	; 0x3e8
 8000d56:	fbb3 f3f1 	udiv	r3, r3, r1
 8000d5a:	fbb2 f3f3 	udiv	r3, r2, r3
 8000d5e:	4618      	mov	r0, r3
 8000d60:	f000 feef 	bl	8001b42 <HAL_SYSTICK_Config>
 8000d64:	4603      	mov	r3, r0
 8000d66:	2b00      	cmp	r3, #0
 8000d68:	d001      	beq.n	8000d6e <HAL_InitTick+0x2e>
  {
    return HAL_ERROR;
 8000d6a:	2301      	movs	r3, #1
 8000d6c:	e00e      	b.n	8000d8c <HAL_InitTick+0x4c>
  }

  /* Configure the SysTick IRQ priority */
  if (TickPriority < (1UL << __NVIC_PRIO_BITS))
 8000d6e:	687b      	ldr	r3, [r7, #4]
 8000d70:	2b0f      	cmp	r3, #15
 8000d72:	d80a      	bhi.n	8000d8a <HAL_InitTick+0x4a>
  {
    HAL_NVIC_SetPriority(SysTick_IRQn, TickPriority, 0U);
 8000d74:	2200      	movs	r2, #0
 8000d76:	6879      	ldr	r1, [r7, #4]
 8000d78:	f04f 30ff 	mov.w	r0, #4294967295	; 0xffffffff
 8000d7c:	f000 feb7 	bl	8001aee <HAL_NVIC_SetPriority>
    uwTickPrio = TickPriority;
 8000d80:	4a06      	ldr	r2, [pc, #24]	; (8000d9c <HAL_InitTick+0x5c>)
 8000d82:	687b      	ldr	r3, [r7, #4]
 8000d84:	6013      	str	r3, [r2, #0]
  {
    return HAL_ERROR;
  }

  /* Return function status */
  return HAL_OK;
 8000d86:	2300      	movs	r3, #0
 8000d88:	e000      	b.n	8000d8c <HAL_InitTick+0x4c>
    return HAL_ERROR;
 8000d8a:	2301      	movs	r3, #1
}
 8000d8c:	4618      	mov	r0, r3
 8000d8e:	3708      	adds	r7, #8
 8000d90:	46bd      	mov	sp, r7
 8000d92:	bd80      	pop	{r7, pc}
 8000d94:	20000000 	.word	0x20000000
 8000d98:	20000008 	.word	0x20000008
 8000d9c:	20000004 	.word	0x20000004

08000da0 <HAL_IncTick>:
 * @note This function is declared as __weak to be overwritten in case of other 
  *      implementations in user file.
  * @retval None
  */
__weak void HAL_IncTick(void)
{
 8000da0:	b480      	push	{r7}
 8000da2:	af00      	add	r7, sp, #0
  uwTick += uwTickFreq;
 8000da4:	4b06      	ldr	r3, [pc, #24]	; (8000dc0 <HAL_IncTick+0x20>)
 8000da6:	781b      	ldrb	r3, [r3, #0]
 8000da8:	461a      	mov	r2, r3
 8000daa:	4b06      	ldr	r3, [pc, #24]	; (8000dc4 <HAL_IncTick+0x24>)
 8000dac:	681b      	ldr	r3, [r3, #0]
 8000dae:	4413      	add	r3, r2
 8000db0:	4a04      	ldr	r2, [pc, #16]	; (8000dc4 <HAL_IncTick+0x24>)
 8000db2:	6013      	str	r3, [r2, #0]
}
 8000db4:	bf00      	nop
 8000db6:	46bd      	mov	sp, r7
 8000db8:	f85d 7b04 	ldr.w	r7, [sp], #4
 8000dbc:	4770      	bx	lr
 8000dbe:	bf00      	nop
 8000dc0:	20000008 	.word	0x20000008
 8000dc4:	200000cc 	.word	0x200000cc

08000dc8 <HAL_GetTick>:
  * @note This function is declared as __weak to be overwritten in case of other 
  *       implementations in user file.
  * @retval tick value
  */
__weak uint32_t HAL_GetTick(void)
{
 8000dc8:	b480      	push	{r7}
 8000dca:	af00      	add	r7, sp, #0
  return uwTick;
 8000dcc:	4b03      	ldr	r3, [pc, #12]	; (8000ddc <HAL_GetTick+0x14>)
 8000dce:	681b      	ldr	r3, [r3, #0]
}
 8000dd0:	4618      	mov	r0, r3
 8000dd2:	46bd      	mov	sp, r7
 8000dd4:	f85d 7b04 	ldr.w	r7, [sp], #4
 8000dd8:	4770      	bx	lr
 8000dda:	bf00      	nop
 8000ddc:	200000cc 	.word	0x200000cc

08000de0 <HAL_Delay>:
  *       implementations in user file.
  * @param Delay specifies the delay time length, in milliseconds.
  * @retval None
  */
__weak void HAL_Delay(uint32_t Delay)
{
 8000de0:	b580      	push	{r7, lr}
 8000de2:	b084      	sub	sp, #16
 8000de4:	af00      	add	r7, sp, #0
 8000de6:	6078      	str	r0, [r7, #4]
  uint32_t tickstart = HAL_GetTick();
 8000de8:	f7ff ffee 	bl	8000dc8 <HAL_GetTick>
 8000dec:	60b8      	str	r0, [r7, #8]
  uint32_t wait = Delay;
 8000dee:	687b      	ldr	r3, [r7, #4]
 8000df0:	60fb      	str	r3, [r7, #12]

  /* Add a freq to guarantee minimum wait */
  if (wait < HAL_MAX_DELAY)
 8000df2:	68fb      	ldr	r3, [r7, #12]
 8000df4:	f1b3 3fff 	cmp.w	r3, #4294967295	; 0xffffffff
 8000df8:	d005      	beq.n	8000e06 <HAL_Delay+0x26>
  {
    wait += (uint32_t)(uwTickFreq);
 8000dfa:	4b0a      	ldr	r3, [pc, #40]	; (8000e24 <HAL_Delay+0x44>)
 8000dfc:	781b      	ldrb	r3, [r3, #0]
 8000dfe:	461a      	mov	r2, r3
 8000e00:	68fb      	ldr	r3, [r7, #12]
 8000e02:	4413      	add	r3, r2
 8000e04:	60fb      	str	r3, [r7, #12]
  }

  while((HAL_GetTick() - tickstart) < wait)
 8000e06:	bf00      	nop
 8000e08:	f7ff ffde 	bl	8000dc8 <HAL_GetTick>
 8000e0c:	4602      	mov	r2, r0
 8000e0e:	68bb      	ldr	r3, [r7, #8]
 8000e10:	1ad3      	subs	r3, r2, r3
 8000e12:	68fa      	ldr	r2, [r7, #12]
 8000e14:	429a      	cmp	r2, r3
 8000e16:	d8f7      	bhi.n	8000e08 <HAL_Delay+0x28>
  {
  }
}
 8000e18:	bf00      	nop
 8000e1a:	bf00      	nop
 8000e1c:	3710      	adds	r7, #16
 8000e1e:	46bd      	mov	sp, r7
 8000e20:	bd80      	pop	{r7, pc}
 8000e22:	bf00      	nop
 8000e24:	20000008 	.word	0x20000008

08000e28 <HAL_CAN_Init>:
  * @param  hcan pointer to a CAN_HandleTypeDef structure that contains
  *         the configuration information for the specified CAN.
  * @retval HAL status
  */
HAL_StatusTypeDef HAL_CAN_Init(CAN_HandleTypeDef *hcan)
{
 8000e28:	b580      	push	{r7, lr}
 8000e2a:	b084      	sub	sp, #16
 8000e2c:	af00      	add	r7, sp, #0
 8000e2e:	6078      	str	r0, [r7, #4]
  uint32_t tickstart;

  /* Check CAN handle */
  if (hcan == NULL)
 8000e30:	687b      	ldr	r3, [r7, #4]
 8000e32:	2b00      	cmp	r3, #0
 8000e34:	d101      	bne.n	8000e3a <HAL_CAN_Init+0x12>
  {
    return HAL_ERROR;
 8000e36:	2301      	movs	r3, #1
 8000e38:	e0ed      	b.n	8001016 <HAL_CAN_Init+0x1ee>
    /* Init the low level hardware: CLOCK, NVIC */
    hcan->MspInitCallback(hcan);
  }

#else
  if (hcan->State == HAL_CAN_STATE_RESET)
 8000e3a:	687b      	ldr	r3, [r7, #4]
 8000e3c:	f893 3020 	ldrb.w	r3, [r3, #32]
 8000e40:	b2db      	uxtb	r3, r3
 8000e42:	2b00      	cmp	r3, #0
 8000e44:	d102      	bne.n	8000e4c <HAL_CAN_Init+0x24>
  {
    /* Init the low level hardware: CLOCK, NVIC */
    HAL_CAN_MspInit(hcan);
 8000e46:	6878      	ldr	r0, [r7, #4]
 8000e48:	f7ff fe50 	bl	8000aec <HAL_CAN_MspInit>
  }
#endif /* (USE_HAL_CAN_REGISTER_CALLBACKS) */

  /* Request initialisation */
  SET_BIT(hcan->Instance->MCR, CAN_MCR_INRQ);
 8000e4c:	687b      	ldr	r3, [r7, #4]
 8000e4e:	681b      	ldr	r3, [r3, #0]
 8000e50:	681a      	ldr	r2, [r3, #0]
 8000e52:	687b      	ldr	r3, [r7, #4]
 8000e54:	681b      	ldr	r3, [r3, #0]
 8000e56:	f042 0201 	orr.w	r2, r2, #1
 8000e5a:	601a      	str	r2, [r3, #0]

  /* Get tick */
  tickstart = HAL_GetTick();
 8000e5c:	f7ff ffb4 	bl	8000dc8 <HAL_GetTick>
 8000e60:	60f8      	str	r0, [r7, #12]

  /* Wait initialisation acknowledge */
  while ((hcan->Instance->MSR & CAN_MSR_INAK) == 0U)
 8000e62:	e012      	b.n	8000e8a <HAL_CAN_Init+0x62>
  {
    if ((HAL_GetTick() - tickstart) > CAN_TIMEOUT_VALUE)
 8000e64:	f7ff ffb0 	bl	8000dc8 <HAL_GetTick>
 8000e68:	4602      	mov	r2, r0
 8000e6a:	68fb      	ldr	r3, [r7, #12]
 8000e6c:	1ad3      	subs	r3, r2, r3
 8000e6e:	2b0a      	cmp	r3, #10
 8000e70:	d90b      	bls.n	8000e8a <HAL_CAN_Init+0x62>
    {
      /* Update error code */
      hcan->ErrorCode |= HAL_CAN_ERROR_TIMEOUT;
 8000e72:	687b      	ldr	r3, [r7, #4]
 8000e74:	6a5b      	ldr	r3, [r3, #36]	; 0x24
 8000e76:	f443 3200 	orr.w	r2, r3, #131072	; 0x20000
 8000e7a:	687b      	ldr	r3, [r7, #4]
 8000e7c:	625a      	str	r2, [r3, #36]	; 0x24

      /* Change CAN state */
      hcan->State = HAL_CAN_STATE_ERROR;
 8000e7e:	687b      	ldr	r3, [r7, #4]
 8000e80:	2205      	movs	r2, #5
 8000e82:	f883 2020 	strb.w	r2, [r3, #32]

      return HAL_ERROR;
 8000e86:	2301      	movs	r3, #1
 8000e88:	e0c5      	b.n	8001016 <HAL_CAN_Init+0x1ee>
  while ((hcan->Instance->MSR & CAN_MSR_INAK) == 0U)
 8000e8a:	687b      	ldr	r3, [r7, #4]
 8000e8c:	681b      	ldr	r3, [r3, #0]
 8000e8e:	685b      	ldr	r3, [r3, #4]
 8000e90:	f003 0301 	and.w	r3, r3, #1
 8000e94:	2b00      	cmp	r3, #0
 8000e96:	d0e5      	beq.n	8000e64 <HAL_CAN_Init+0x3c>
    }
  }

  /* Exit from sleep mode */
  CLEAR_BIT(hcan->Instance->MCR, CAN_MCR_SLEEP);
 8000e98:	687b      	ldr	r3, [r7, #4]
 8000e9a:	681b      	ldr	r3, [r3, #0]
 8000e9c:	681a      	ldr	r2, [r3, #0]
 8000e9e:	687b      	ldr	r3, [r7, #4]
 8000ea0:	681b      	ldr	r3, [r3, #0]
 8000ea2:	f022 0202 	bic.w	r2, r2, #2
 8000ea6:	601a      	str	r2, [r3, #0]

  /* Get tick */
  tickstart = HAL_GetTick();
 8000ea8:	f7ff ff8e 	bl	8000dc8 <HAL_GetTick>
 8000eac:	60f8      	str	r0, [r7, #12]

  /* Check Sleep mode leave acknowledge */
  while ((hcan->Instance->MSR & CAN_MSR_SLAK) != 0U)
 8000eae:	e012      	b.n	8000ed6 <HAL_CAN_Init+0xae>
  {
    if ((HAL_GetTick() - tickstart) > CAN_TIMEOUT_VALUE)
 8000eb0:	f7ff ff8a 	bl	8000dc8 <HAL_GetTick>
 8000eb4:	4602      	mov	r2, r0
 8000eb6:	68fb      	ldr	r3, [r7, #12]
 8000eb8:	1ad3      	subs	r3, r2, r3
 8000eba:	2b0a      	cmp	r3, #10
 8000ebc:	d90b      	bls.n	8000ed6 <HAL_CAN_Init+0xae>
    {
      /* Update error code */
      hcan->ErrorCode |= HAL_CAN_ERROR_TIMEOUT;
 8000ebe:	687b      	ldr	r3, [r7, #4]
 8000ec0:	6a5b      	ldr	r3, [r3, #36]	; 0x24
 8000ec2:	f443 3200 	orr.w	r2, r3, #131072	; 0x20000
 8000ec6:	687b      	ldr	r3, [r7, #4]
 8000ec8:	625a      	str	r2, [r3, #36]	; 0x24

      /* Change CAN state */
      hcan->State = HAL_CAN_STATE_ERROR;
 8000eca:	687b      	ldr	r3, [r7, #4]
 8000ecc:	2205      	movs	r2, #5
 8000ece:	f883 2020 	strb.w	r2, [r3, #32]

      return HAL_ERROR;
 8000ed2:	2301      	movs	r3, #1
 8000ed4:	e09f      	b.n	8001016 <HAL_CAN_Init+0x1ee>
  while ((hcan->Instance->MSR & CAN_MSR_SLAK) != 0U)
 8000ed6:	687b      	ldr	r3, [r7, #4]
 8000ed8:	681b      	ldr	r3, [r3, #0]
 8000eda:	685b      	ldr	r3, [r3, #4]
 8000edc:	f003 0302 	and.w	r3, r3, #2
 8000ee0:	2b00      	cmp	r3, #0
 8000ee2:	d1e5      	bne.n	8000eb0 <HAL_CAN_Init+0x88>
    }
  }

  /* Set the time triggered communication mode */
  if (hcan->Init.TimeTriggeredMode == ENABLE)
 8000ee4:	687b      	ldr	r3, [r7, #4]
 8000ee6:	7e1b      	ldrb	r3, [r3, #24]
 8000ee8:	2b01      	cmp	r3, #1
 8000eea:	d108      	bne.n	8000efe <HAL_CAN_Init+0xd6>
  {
    SET_BIT(hcan->Instance->MCR, CAN_MCR_TTCM);
 8000eec:	687b      	ldr	r3, [r7, #4]
 8000eee:	681b      	ldr	r3, [r3, #0]
 8000ef0:	681a      	ldr	r2, [r3, #0]
 8000ef2:	687b      	ldr	r3, [r7, #4]
 8000ef4:	681b      	ldr	r3, [r3, #0]
 8000ef6:	f042 0280 	orr.w	r2, r2, #128	; 0x80
 8000efa:	601a      	str	r2, [r3, #0]
 8000efc:	e007      	b.n	8000f0e <HAL_CAN_Init+0xe6>
  }
  else
  {
    CLEAR_BIT(hcan->Instance->MCR, CAN_MCR_TTCM);
 8000efe:	687b      	ldr	r3, [r7, #4]
 8000f00:	681b      	ldr	r3, [r3, #0]
 8000f02:	681a      	ldr	r2, [r3, #0]
 8000f04:	687b      	ldr	r3, [r7, #4]
 8000f06:	681b      	ldr	r3, [r3, #0]
 8000f08:	f022 0280 	bic.w	r2, r2, #128	; 0x80
 8000f0c:	601a      	str	r2, [r3, #0]
  }

  /* Set the automatic bus-off management */
  if (hcan->Init.AutoBusOff == ENABLE)
 8000f0e:	687b      	ldr	r3, [r7, #4]
 8000f10:	7e5b      	ldrb	r3, [r3, #25]
 8000f12:	2b01      	cmp	r3, #1
 8000f14:	d108      	bne.n	8000f28 <HAL_CAN_Init+0x100>
  {
    SET_BIT(hcan->Instance->MCR, CAN_MCR_ABOM);
 8000f16:	687b      	ldr	r3, [r7, #4]
 8000f18:	681b      	ldr	r3, [r3, #0]
 8000f1a:	681a      	ldr	r2, [r3, #0]
 8000f1c:	687b      	ldr	r3, [r7, #4]
 8000f1e:	681b      	ldr	r3, [r3, #0]
 8000f20:	f042 0240 	orr.w	r2, r2, #64	; 0x40
 8000f24:	601a      	str	r2, [r3, #0]
 8000f26:	e007      	b.n	8000f38 <HAL_CAN_Init+0x110>
  }
  else
  {
    CLEAR_BIT(hcan->Instance->MCR, CAN_MCR_ABOM);
 8000f28:	687b      	ldr	r3, [r7, #4]
 8000f2a:	681b      	ldr	r3, [r3, #0]
 8000f2c:	681a      	ldr	r2, [r3, #0]
 8000f2e:	687b      	ldr	r3, [r7, #4]
 8000f30:	681b      	ldr	r3, [r3, #0]
 8000f32:	f022 0240 	bic.w	r2, r2, #64	; 0x40
 8000f36:	601a      	str	r2, [r3, #0]
  }

  /* Set the automatic wake-up mode */
  if (hcan->Init.AutoWakeUp == ENABLE)
 8000f38:	687b      	ldr	r3, [r7, #4]
 8000f3a:	7e9b      	ldrb	r3, [r3, #26]
 8000f3c:	2b01      	cmp	r3, #1
 8000f3e:	d108      	bne.n	8000f52 <HAL_CAN_Init+0x12a>
  {
    SET_BIT(hcan->Instance->MCR, CAN_MCR_AWUM);
 8000f40:	687b      	ldr	r3, [r7, #4]
 8000f42:	681b      	ldr	r3, [r3, #0]
 8000f44:	681a      	ldr	r2, [r3, #0]
 8000f46:	687b      	ldr	r3, [r7, #4]
 8000f48:	681b      	ldr	r3, [r3, #0]
 8000f4a:	f042 0220 	orr.w	r2, r2, #32
 8000f4e:	601a      	str	r2, [r3, #0]
 8000f50:	e007      	b.n	8000f62 <HAL_CAN_Init+0x13a>
  }
  else
  {
    CLEAR_BIT(hcan->Instance->MCR, CAN_MCR_AWUM);
 8000f52:	687b      	ldr	r3, [r7, #4]
 8000f54:	681b      	ldr	r3, [r3, #0]
 8000f56:	681a      	ldr	r2, [r3, #0]
 8000f58:	687b      	ldr	r3, [r7, #4]
 8000f5a:	681b      	ldr	r3, [r3, #0]
 8000f5c:	f022 0220 	bic.w	r2, r2, #32
 8000f60:	601a      	str	r2, [r3, #0]
  }

  /* Set the automatic retransmission */
  if (hcan->Init.AutoRetransmission == ENABLE)
 8000f62:	687b      	ldr	r3, [r7, #4]
 8000f64:	7edb      	ldrb	r3, [r3, #27]
 8000f66:	2b01      	cmp	r3, #1
 8000f68:	d108      	bne.n	8000f7c <HAL_CAN_Init+0x154>
  {
    CLEAR_BIT(hcan->Instance->MCR, CAN_MCR_NART);
 8000f6a:	687b      	ldr	r3, [r7, #4]
 8000f6c:	681b      	ldr	r3, [r3, #0]
 8000f6e:	681a      	ldr	r2, [r3, #0]
 8000f70:	687b      	ldr	r3, [r7, #4]
 8000f72:	681b      	ldr	r3, [r3, #0]
 8000f74:	f022 0210 	bic.w	r2, r2, #16
 8000f78:	601a      	str	r2, [r3, #0]
 8000f7a:	e007      	b.n	8000f8c <HAL_CAN_Init+0x164>
  }
  else
  {
    SET_BIT(hcan->Instance->MCR, CAN_MCR_NART);
 8000f7c:	687b      	ldr	r3, [r7, #4]
 8000f7e:	681b      	ldr	r3, [r3, #0]
 8000f80:	681a      	ldr	r2, [r3, #0]
 8000f82:	687b      	ldr	r3, [r7, #4]
 8000f84:	681b      	ldr	r3, [r3, #0]
 8000f86:	f042 0210 	orr.w	r2, r2, #16
 8000f8a:	601a      	str	r2, [r3, #0]
  }

  /* Set the receive FIFO locked mode */
  if (hcan->Init.ReceiveFifoLocked == ENABLE)
 8000f8c:	687b      	ldr	r3, [r7, #4]
 8000f8e:	7f1b      	ldrb	r3, [r3, #28]
 8000f90:	2b01      	cmp	r3, #1
 8000f92:	d108      	bne.n	8000fa6 <HAL_CAN_Init+0x17e>
  {
    SET_BIT(hcan->Instance->MCR, CAN_MCR_RFLM);
 8000f94:	687b      	ldr	r3, [r7, #4]
 8000f96:	681b      	ldr	r3, [r3, #0]
 8000f98:	681a      	ldr	r2, [r3, #0]
 8000f9a:	687b      	ldr	r3, [r7, #4]
 8000f9c:	681b      	ldr	r3, [r3, #0]
 8000f9e:	f042 0208 	orr.w	r2, r2, #8
 8000fa2:	601a      	str	r2, [r3, #0]
 8000fa4:	e007      	b.n	8000fb6 <HAL_CAN_Init+0x18e>
  }
  else
  {
    CLEAR_BIT(hcan->Instance->MCR, CAN_MCR_RFLM);
 8000fa6:	687b      	ldr	r3, [r7, #4]
 8000fa8:	681b      	ldr	r3, [r3, #0]
 8000faa:	681a      	ldr	r2, [r3, #0]
 8000fac:	687b      	ldr	r3, [r7, #4]
 8000fae:	681b      	ldr	r3, [r3, #0]
 8000fb0:	f022 0208 	bic.w	r2, r2, #8
 8000fb4:	601a      	str	r2, [r3, #0]
  }

  /* Set the transmit FIFO priority */
  if (hcan->Init.TransmitFifoPriority == ENABLE)
 8000fb6:	687b      	ldr	r3, [r7, #4]
 8000fb8:	7f5b      	ldrb	r3, [r3, #29]
 8000fba:	2b01      	cmp	r3, #1
 8000fbc:	d108      	bne.n	8000fd0 <HAL_CAN_Init+0x1a8>
  {
    SET_BIT(hcan->Instance->MCR, CAN_MCR_TXFP);
 8000fbe:	687b      	ldr	r3, [r7, #4]
 8000fc0:	681b      	ldr	r3, [r3, #0]
 8000fc2:	681a      	ldr	r2, [r3, #0]
 8000fc4:	687b      	ldr	r3, [r7, #4]
 8000fc6:	681b      	ldr	r3, [r3, #0]
 8000fc8:	f042 0204 	orr.w	r2, r2, #4
 8000fcc:	601a      	str	r2, [r3, #0]
 8000fce:	e007      	b.n	8000fe0 <HAL_CAN_Init+0x1b8>
  }
  else
  {
    CLEAR_BIT(hcan->Instance->MCR, CAN_MCR_TXFP);
 8000fd0:	687b      	ldr	r3, [r7, #4]
 8000fd2:	681b      	ldr	r3, [r3, #0]
 8000fd4:	681a      	ldr	r2, [r3, #0]
 8000fd6:	687b      	ldr	r3, [r7, #4]
 8000fd8:	681b      	ldr	r3, [r3, #0]
 8000fda:	f022 0204 	bic.w	r2, r2, #4
 8000fde:	601a      	str	r2, [r3, #0]
  }

  /* Set the bit timing register */
  WRITE_REG(hcan->Instance->BTR, (uint32_t)(hcan->Init.Mode           |
 8000fe0:	687b      	ldr	r3, [r7, #4]
 8000fe2:	689a      	ldr	r2, [r3, #8]
 8000fe4:	687b      	ldr	r3, [r7, #4]
 8000fe6:	68db      	ldr	r3, [r3, #12]
 8000fe8:	431a      	orrs	r2, r3
 8000fea:	687b      	ldr	r3, [r7, #4]
 8000fec:	691b      	ldr	r3, [r3, #16]
 8000fee:	431a      	orrs	r2, r3
 8000ff0:	687b      	ldr	r3, [r7, #4]
 8000ff2:	695b      	ldr	r3, [r3, #20]
 8000ff4:	ea42 0103 	orr.w	r1, r2, r3
 8000ff8:	687b      	ldr	r3, [r7, #4]
 8000ffa:	685b      	ldr	r3, [r3, #4]
 8000ffc:	1e5a      	subs	r2, r3, #1
 8000ffe:	687b      	ldr	r3, [r7, #4]
 8001000:	681b      	ldr	r3, [r3, #0]
 8001002:	430a      	orrs	r2, r1
 8001004:	61da      	str	r2, [r3, #28]
                                            hcan->Init.TimeSeg1       |
                                            hcan->Init.TimeSeg2       |
                                            (hcan->Init.Prescaler - 1U)));

  /* Initialize the error code */
  hcan->ErrorCode = HAL_CAN_ERROR_NONE;
 8001006:	687b      	ldr	r3, [r7, #4]
 8001008:	2200      	movs	r2, #0
 800100a:	625a      	str	r2, [r3, #36]	; 0x24

  /* Initialize the CAN state */
  hcan->State = HAL_CAN_STATE_READY;
 800100c:	687b      	ldr	r3, [r7, #4]
 800100e:	2201      	movs	r2, #1
 8001010:	f883 2020 	strb.w	r2, [r3, #32]

  /* Return function status */
  return HAL_OK;
 8001014:	2300      	movs	r3, #0
}
 8001016:	4618      	mov	r0, r3
 8001018:	3710      	adds	r7, #16
 800101a:	46bd      	mov	sp, r7
 800101c:	bd80      	pop	{r7, pc}
	...

08001020 <HAL_CAN_ConfigFilter>:
  * @param  sFilterConfig pointer to a CAN_FilterTypeDef structure that
  *         contains the filter configuration information.
  * @retval None
  */
HAL_StatusTypeDef HAL_CAN_ConfigFilter(CAN_HandleTypeDef *hcan, CAN_FilterTypeDef *sFilterConfig)
{
 8001020:	b480      	push	{r7}
 8001022:	b087      	sub	sp, #28
 8001024:	af00      	add	r7, sp, #0
 8001026:	6078      	str	r0, [r7, #4]
 8001028:	6039      	str	r1, [r7, #0]
  uint32_t filternbrbitpos;
  CAN_TypeDef *can_ip = hcan->Instance;
 800102a:	687b      	ldr	r3, [r7, #4]
 800102c:	681b      	ldr	r3, [r3, #0]
 800102e:	617b      	str	r3, [r7, #20]
  HAL_CAN_StateTypeDef state = hcan->State;
 8001030:	687b      	ldr	r3, [r7, #4]
 8001032:	f893 3020 	ldrb.w	r3, [r3, #32]
 8001036:	74fb      	strb	r3, [r7, #19]

  if ((state == HAL_CAN_STATE_READY) ||
 8001038:	7cfb      	ldrb	r3, [r7, #19]
 800103a:	2b01      	cmp	r3, #1
 800103c:	d003      	beq.n	8001046 <HAL_CAN_ConfigFilter+0x26>
 800103e:	7cfb      	ldrb	r3, [r7, #19]
 8001040:	2b02      	cmp	r3, #2
 8001042:	f040 80be 	bne.w	80011c2 <HAL_CAN_ConfigFilter+0x1a2>
      assert_param(IS_CAN_FILTER_BANK_DUAL(sFilterConfig->SlaveStartFilterBank));
    }
#elif defined(CAN2)
    /* CAN1 and CAN2 are dual instances with 28 common filters banks */
    /* Select master instance to access the filter banks */
    can_ip = CAN1;
 8001046:	4b65      	ldr	r3, [pc, #404]	; (80011dc <HAL_CAN_ConfigFilter+0x1bc>)
 8001048:	617b      	str	r3, [r7, #20]
    /* Check the parameters */
    assert_param(IS_CAN_FILTER_BANK_SINGLE(sFilterConfig->FilterBank));
#endif

    /* Initialisation mode for the filter */
    SET_BIT(can_ip->FMR, CAN_FMR_FINIT);
 800104a:	697b      	ldr	r3, [r7, #20]
 800104c:	f8d3 3200 	ldr.w	r3, [r3, #512]	; 0x200
 8001050:	f043 0201 	orr.w	r2, r3, #1
 8001054:	697b      	ldr	r3, [r7, #20]
 8001056:	f8c3 2200 	str.w	r2, [r3, #512]	; 0x200
      SET_BIT(can_ip->FMR, sFilterConfig->SlaveStartFilterBank << CAN_FMR_CAN2SB_Pos);
    }

#elif defined(CAN2)
    /* Select the start filter number of CAN2 slave instance */
    CLEAR_BIT(can_ip->FMR, CAN_FMR_CAN2SB);
 800105a:	697b      	ldr	r3, [r7, #20]
 800105c:	f8d3 3200 	ldr.w	r3, [r3, #512]	; 0x200
 8001060:	f423 527c 	bic.w	r2, r3, #16128	; 0x3f00
 8001064:	697b      	ldr	r3, [r7, #20]
 8001066:	f8c3 2200 	str.w	r2, [r3, #512]	; 0x200
    SET_BIT(can_ip->FMR, sFilterConfig->SlaveStartFilterBank << CAN_FMR_CAN2SB_Pos);
 800106a:	697b      	ldr	r3, [r7, #20]
 800106c:	f8d3 2200 	ldr.w	r2, [r3, #512]	; 0x200
 8001070:	683b      	ldr	r3, [r7, #0]
 8001072:	6a5b      	ldr	r3, [r3, #36]	; 0x24
 8001074:	021b      	lsls	r3, r3, #8
 8001076:	431a      	orrs	r2, r3
 8001078:	697b      	ldr	r3, [r7, #20]
 800107a:	f8c3 2200 	str.w	r2, [r3, #512]	; 0x200

#endif
    /* Convert filter number into bit position */
    filternbrbitpos = (uint32_t)1 << (sFilterConfig->FilterBank & 0x1FU);
 800107e:	683b      	ldr	r3, [r7, #0]
 8001080:	695b      	ldr	r3, [r3, #20]
 8001082:	f003 031f 	and.w	r3, r3, #31
 8001086:	2201      	movs	r2, #1
 8001088:	fa02 f303 	lsl.w	r3, r2, r3
 800108c:	60fb      	str	r3, [r7, #12]

    /* Filter Deactivation */
    CLEAR_BIT(can_ip->FA1R, filternbrbitpos);
 800108e:	697b      	ldr	r3, [r7, #20]
 8001090:	f8d3 221c 	ldr.w	r2, [r3, #540]	; 0x21c
 8001094:	68fb      	ldr	r3, [r7, #12]
 8001096:	43db      	mvns	r3, r3
 8001098:	401a      	ands	r2, r3
 800109a:	697b      	ldr	r3, [r7, #20]
 800109c:	f8c3 221c 	str.w	r2, [r3, #540]	; 0x21c

    /* Filter Scale */
    if (sFilterConfig->FilterScale == CAN_FILTERSCALE_16BIT)
 80010a0:	683b      	ldr	r3, [r7, #0]
 80010a2:	69db      	ldr	r3, [r3, #28]
 80010a4:	2b00      	cmp	r3, #0
 80010a6:	d123      	bne.n	80010f0 <HAL_CAN_ConfigFilter+0xd0>
    {
      /* 16-bit scale for the filter */
      CLEAR_BIT(can_ip->FS1R, filternbrbitpos);
 80010a8:	697b      	ldr	r3, [r7, #20]
 80010aa:	f8d3 220c 	ldr.w	r2, [r3, #524]	; 0x20c
 80010ae:	68fb      	ldr	r3, [r7, #12]
 80010b0:	43db      	mvns	r3, r3
 80010b2:	401a      	ands	r2, r3
 80010b4:	697b      	ldr	r3, [r7, #20]
 80010b6:	f8c3 220c 	str.w	r2, [r3, #524]	; 0x20c

      /* First 16-bit identifier and First 16-bit mask */
      /* Or First 16-bit identifier and Second 16-bit identifier */
      can_ip->sFilterRegister[sFilterConfig->FilterBank].FR1 =
        ((0x0000FFFFU & (uint32_t)sFilterConfig->FilterMaskIdLow) << 16U) |
 80010ba:	683b      	ldr	r3, [r7, #0]
 80010bc:	68db      	ldr	r3, [r3, #12]
 80010be:	0419      	lsls	r1, r3, #16
        (0x0000FFFFU & (uint32_t)sFilterConfig->FilterIdLow);
 80010c0:	683b      	ldr	r3, [r7, #0]
 80010c2:	685b      	ldr	r3, [r3, #4]
 80010c4:	b29b      	uxth	r3, r3
      can_ip->sFilterRegister[sFilterConfig->FilterBank].FR1 =
 80010c6:	683a      	ldr	r2, [r7, #0]
 80010c8:	6952      	ldr	r2, [r2, #20]
        ((0x0000FFFFU & (uint32_t)sFilterConfig->FilterMaskIdLow) << 16U) |
 80010ca:	4319      	orrs	r1, r3
      can_ip->sFilterRegister[sFilterConfig->FilterBank].FR1 =
 80010cc:	697b      	ldr	r3, [r7, #20]
 80010ce:	3248      	adds	r2, #72	; 0x48
 80010d0:	f843 1032 	str.w	r1, [r3, r2, lsl #3]

      /* Second 16-bit identifier and Second 16-bit mask */
      /* Or Third 16-bit identifier and Fourth 16-bit identifier */
      can_ip->sFilterRegister[sFilterConfig->FilterBank].FR2 =
        ((0x0000FFFFU & (uint32_t)sFilterConfig->FilterMaskIdHigh) << 16U) |
 80010d4:	683b      	ldr	r3, [r7, #0]
 80010d6:	689b      	ldr	r3, [r3, #8]
 80010d8:	0419      	lsls	r1, r3, #16
        (0x0000FFFFU & (uint32_t)sFilterConfig->FilterIdHigh);
 80010da:	683b      	ldr	r3, [r7, #0]
 80010dc:	681b      	ldr	r3, [r3, #0]
 80010de:	b29a      	uxth	r2, r3
      can_ip->sFilterRegister[sFilterConfig->FilterBank].FR2 =
 80010e0:	683b      	ldr	r3, [r7, #0]
 80010e2:	695b      	ldr	r3, [r3, #20]
        ((0x0000FFFFU & (uint32_t)sFilterConfig->FilterMaskIdHigh) << 16U) |
 80010e4:	430a      	orrs	r2, r1
      can_ip->sFilterRegister[sFilterConfig->FilterBank].FR2 =
 80010e6:	6979      	ldr	r1, [r7, #20]
 80010e8:	3348      	adds	r3, #72	; 0x48
 80010ea:	00db      	lsls	r3, r3, #3
 80010ec:	440b      	add	r3, r1
 80010ee:	605a      	str	r2, [r3, #4]
    }

    if (sFilterConfig->FilterScale == CAN_FILTERSCALE_32BIT)
 80010f0:	683b      	ldr	r3, [r7, #0]
 80010f2:	69db      	ldr	r3, [r3, #28]
 80010f4:	2b01      	cmp	r3, #1
 80010f6:	d122      	bne.n	800113e <HAL_CAN_ConfigFilter+0x11e>
    {
      /* 32-bit scale for the filter */
      SET_BIT(can_ip->FS1R, filternbrbitpos);
 80010f8:	697b      	ldr	r3, [r7, #20]
 80010fa:	f8d3 220c 	ldr.w	r2, [r3, #524]	; 0x20c
 80010fe:	68fb      	ldr	r3, [r7, #12]
 8001100:	431a      	orrs	r2, r3
 8001102:	697b      	ldr	r3, [r7, #20]
 8001104:	f8c3 220c 	str.w	r2, [r3, #524]	; 0x20c

      /* 32-bit identifier or First 32-bit identifier */
      can_ip->sFilterRegister[sFilterConfig->FilterBank].FR1 =
        ((0x0000FFFFU & (uint32_t)sFilterConfig->FilterIdHigh) << 16U) |
 8001108:	683b      	ldr	r3, [r7, #0]
 800110a:	681b      	ldr	r3, [r3, #0]
 800110c:	0419      	lsls	r1, r3, #16
        (0x0000FFFFU & (uint32_t)sFilterConfig->FilterIdLow);
 800110e:	683b      	ldr	r3, [r7, #0]
 8001110:	685b      	ldr	r3, [r3, #4]
 8001112:	b29b      	uxth	r3, r3
      can_ip->sFilterRegister[sFilterConfig->FilterBank].FR1 =
 8001114:	683a      	ldr	r2, [r7, #0]
 8001116:	6952      	ldr	r2, [r2, #20]
        ((0x0000FFFFU & (uint32_t)sFilterConfig->FilterIdHigh) << 16U) |
 8001118:	4319      	orrs	r1, r3
      can_ip->sFilterRegister[sFilterConfig->FilterBank].FR1 =
 800111a:	697b      	ldr	r3, [r7, #20]
 800111c:	3248      	adds	r2, #72	; 0x48
 800111e:	f843 1032 	str.w	r1, [r3, r2, lsl #3]

      /* 32-bit mask or Second 32-bit identifier */
      can_ip->sFilterRegister[sFilterConfig->FilterBank].FR2 =
        ((0x0000FFFFU & (uint32_t)sFilterConfig->FilterMaskIdHigh) << 16U) |
 8001122:	683b      	ldr	r3, [r7, #0]
 8001124:	689b      	ldr	r3, [r3, #8]
 8001126:	0419      	lsls	r1, r3, #16
        (0x0000FFFFU & (uint32_t)sFilterConfig->FilterMaskIdLow);
 8001128:	683b      	ldr	r3, [r7, #0]
 800112a:	68db      	ldr	r3, [r3, #12]
 800112c:	b29a      	uxth	r2, r3
      can_ip->sFilterRegister[sFilterConfig->FilterBank].FR2 =
 800112e:	683b      	ldr	r3, [r7, #0]
 8001130:	695b      	ldr	r3, [r3, #20]
        ((0x0000FFFFU & (uint32_t)sFilterConfig->FilterMaskIdHigh) << 16U) |
 8001132:	430a      	orrs	r2, r1
      can_ip->sFilterRegister[sFilterConfig->FilterBank].FR2 =
 8001134:	6979      	ldr	r1, [r7, #20]
 8001136:	3348      	adds	r3, #72	; 0x48
 8001138:	00db      	lsls	r3, r3, #3
 800113a:	440b      	add	r3, r1
 800113c:	605a      	str	r2, [r3, #4]
    }

    /* Filter Mode */
    if (sFilterConfig->FilterMode == CAN_FILTERMODE_IDMASK)
 800113e:	683b      	ldr	r3, [r7, #0]
 8001140:	699b      	ldr	r3, [r3, #24]
 8001142:	2b00      	cmp	r3, #0
 8001144:	d109      	bne.n	800115a <HAL_CAN_ConfigFilter+0x13a>
    {
      /* Id/Mask mode for the filter*/
      CLEAR_BIT(can_ip->FM1R, filternbrbitpos);
 8001146:	697b      	ldr	r3, [r7, #20]
 8001148:	f8d3 2204 	ldr.w	r2, [r3, #516]	; 0x204
 800114c:	68fb      	ldr	r3, [r7, #12]
 800114e:	43db      	mvns	r3, r3
 8001150:	401a      	ands	r2, r3
 8001152:	697b      	ldr	r3, [r7, #20]
 8001154:	f8c3 2204 	str.w	r2, [r3, #516]	; 0x204
 8001158:	e007      	b.n	800116a <HAL_CAN_ConfigFilter+0x14a>
    }
    else /* CAN_FilterInitStruct->CAN_FilterMode == CAN_FilterMode_IdList */
    {
      /* Identifier list mode for the filter*/
      SET_BIT(can_ip->FM1R, filternbrbitpos);
 800115a:	697b      	ldr	r3, [r7, #20]
 800115c:	f8d3 2204 	ldr.w	r2, [r3, #516]	; 0x204
 8001160:	68fb      	ldr	r3, [r7, #12]
 8001162:	431a      	orrs	r2, r3
 8001164:	697b      	ldr	r3, [r7, #20]
 8001166:	f8c3 2204 	str.w	r2, [r3, #516]	; 0x204
    }

    /* Filter FIFO assignment */
    if (sFilterConfig->FilterFIFOAssignment == CAN_FILTER_FIFO0)
 800116a:	683b      	ldr	r3, [r7, #0]
 800116c:	691b      	ldr	r3, [r3, #16]
 800116e:	2b00      	cmp	r3, #0
 8001170:	d109      	bne.n	8001186 <HAL_CAN_ConfigFilter+0x166>
    {
      /* FIFO 0 assignation for the filter */
      CLEAR_BIT(can_ip->FFA1R, filternbrbitpos);
 8001172:	697b      	ldr	r3, [r7, #20]
 8001174:	f8d3 2214 	ldr.w	r2, [r3, #532]	; 0x214
 8001178:	68fb      	ldr	r3, [r7, #12]
 800117a:	43db      	mvns	r3, r3
 800117c:	401a      	ands	r2, r3
 800117e:	697b      	ldr	r3, [r7, #20]
 8001180:	f8c3 2214 	str.w	r2, [r3, #532]	; 0x214
 8001184:	e007      	b.n	8001196 <HAL_CAN_ConfigFilter+0x176>
    }
    else
    {
      /* FIFO 1 assignation for the filter */
      SET_BIT(can_ip->FFA1R, filternbrbitpos);
 8001186:	697b      	ldr	r3, [r7, #20]
 8001188:	f8d3 2214 	ldr.w	r2, [r3, #532]	; 0x214
 800118c:	68fb      	ldr	r3, [r7, #12]
 800118e:	431a      	orrs	r2, r3
 8001190:	697b      	ldr	r3, [r7, #20]
 8001192:	f8c3 2214 	str.w	r2, [r3, #532]	; 0x214
    }

    /* Filter activation */
    if (sFilterConfig->FilterActivation == CAN_FILTER_ENABLE)
 8001196:	683b      	ldr	r3, [r7, #0]
 8001198:	6a1b      	ldr	r3, [r3, #32]
 800119a:	2b01      	cmp	r3, #1
 800119c:	d107      	bne.n	80011ae <HAL_CAN_ConfigFilter+0x18e>
    {
      SET_BIT(can_ip->FA1R, filternbrbitpos);
 800119e:	697b      	ldr	r3, [r7, #20]
 80011a0:	f8d3 221c 	ldr.w	r2, [r3, #540]	; 0x21c
 80011a4:	68fb      	ldr	r3, [r7, #12]
 80011a6:	431a      	orrs	r2, r3
 80011a8:	697b      	ldr	r3, [r7, #20]
 80011aa:	f8c3 221c 	str.w	r2, [r3, #540]	; 0x21c
    }

    /* Leave the initialisation mode for the filter */
    CLEAR_BIT(can_ip->FMR, CAN_FMR_FINIT);
 80011ae:	697b      	ldr	r3, [r7, #20]
 80011b0:	f8d3 3200 	ldr.w	r3, [r3, #512]	; 0x200
 80011b4:	f023 0201 	bic.w	r2, r3, #1
 80011b8:	697b      	ldr	r3, [r7, #20]
 80011ba:	f8c3 2200 	str.w	r2, [r3, #512]	; 0x200

    /* Return function status */
    return HAL_OK;
 80011be:	2300      	movs	r3, #0
 80011c0:	e006      	b.n	80011d0 <HAL_CAN_ConfigFilter+0x1b0>
  }
  else
  {
    /* Update error code */
    hcan->ErrorCode |= HAL_CAN_ERROR_NOT_INITIALIZED;
 80011c2:	687b      	ldr	r3, [r7, #4]
 80011c4:	6a5b      	ldr	r3, [r3, #36]	; 0x24
 80011c6:	f443 2280 	orr.w	r2, r3, #262144	; 0x40000
 80011ca:	687b      	ldr	r3, [r7, #4]
 80011cc:	625a      	str	r2, [r3, #36]	; 0x24

    return HAL_ERROR;
 80011ce:	2301      	movs	r3, #1
  }
}
 80011d0:	4618      	mov	r0, r3
 80011d2:	371c      	adds	r7, #28
 80011d4:	46bd      	mov	sp, r7
 80011d6:	f85d 7b04 	ldr.w	r7, [sp], #4
 80011da:	4770      	bx	lr
 80011dc:	40006400 	.word	0x40006400

080011e0 <HAL_CAN_Start>:
  * @param  hcan pointer to an CAN_HandleTypeDef structure that contains
  *         the configuration information for the specified CAN.
  * @retval HAL status
  */
HAL_StatusTypeDef HAL_CAN_Start(CAN_HandleTypeDef *hcan)
{
 80011e0:	b580      	push	{r7, lr}
 80011e2:	b084      	sub	sp, #16
 80011e4:	af00      	add	r7, sp, #0
 80011e6:	6078      	str	r0, [r7, #4]
  uint32_t tickstart;

  if (hcan->State == HAL_CAN_STATE_READY)
 80011e8:	687b      	ldr	r3, [r7, #4]
 80011ea:	f893 3020 	ldrb.w	r3, [r3, #32]
 80011ee:	b2db      	uxtb	r3, r3
 80011f0:	2b01      	cmp	r3, #1
 80011f2:	d12e      	bne.n	8001252 <HAL_CAN_Start+0x72>
  {
    /* Change CAN peripheral state */
    hcan->State = HAL_CAN_STATE_LISTENING;
 80011f4:	687b      	ldr	r3, [r7, #4]
 80011f6:	2202      	movs	r2, #2
 80011f8:	f883 2020 	strb.w	r2, [r3, #32]

    /* Request leave initialisation */
    CLEAR_BIT(hcan->Instance->MCR, CAN_MCR_INRQ);
 80011fc:	687b      	ldr	r3, [r7, #4]
 80011fe:	681b      	ldr	r3, [r3, #0]
 8001200:	681a      	ldr	r2, [r3, #0]
 8001202:	687b      	ldr	r3, [r7, #4]
 8001204:	681b      	ldr	r3, [r3, #0]
 8001206:	f022 0201 	bic.w	r2, r2, #1
 800120a:	601a      	str	r2, [r3, #0]

    /* Get tick */
    tickstart = HAL_GetTick();
 800120c:	f7ff fddc 	bl	8000dc8 <HAL_GetTick>
 8001210:	60f8      	str	r0, [r7, #12]

    /* Wait the acknowledge */
    while ((hcan->Instance->MSR & CAN_MSR_INAK) != 0U)
 8001212:	e012      	b.n	800123a <HAL_CAN_Start+0x5a>
    {
      /* Check for the Timeout */
      if ((HAL_GetTick() - tickstart) > CAN_TIMEOUT_VALUE)
 8001214:	f7ff fdd8 	bl	8000dc8 <HAL_GetTick>
 8001218:	4602      	mov	r2, r0
 800121a:	68fb      	ldr	r3, [r7, #12]
 800121c:	1ad3      	subs	r3, r2, r3
 800121e:	2b0a      	cmp	r3, #10
 8001220:	d90b      	bls.n	800123a <HAL_CAN_Start+0x5a>
      {
        /* Update error code */
        hcan->ErrorCode |= HAL_CAN_ERROR_TIMEOUT;
 8001222:	687b      	ldr	r3, [r7, #4]
 8001224:	6a5b      	ldr	r3, [r3, #36]	; 0x24
 8001226:	f443 3200 	orr.w	r2, r3, #131072	; 0x20000
 800122a:	687b      	ldr	r3, [r7, #4]
 800122c:	625a      	str	r2, [r3, #36]	; 0x24

        /* Change CAN state */
        hcan->State = HAL_CAN_STATE_ERROR;
 800122e:	687b      	ldr	r3, [r7, #4]
 8001230:	2205      	movs	r2, #5
 8001232:	f883 2020 	strb.w	r2, [r3, #32]

        return HAL_ERROR;
 8001236:	2301      	movs	r3, #1
 8001238:	e012      	b.n	8001260 <HAL_CAN_Start+0x80>
    while ((hcan->Instance->MSR & CAN_MSR_INAK) != 0U)
 800123a:	687b      	ldr	r3, [r7, #4]
 800123c:	681b      	ldr	r3, [r3, #0]
 800123e:	685b      	ldr	r3, [r3, #4]
 8001240:	f003 0301 	and.w	r3, r3, #1
 8001244:	2b00      	cmp	r3, #0
 8001246:	d1e5      	bne.n	8001214 <HAL_CAN_Start+0x34>
      }
    }

    /* Reset the CAN ErrorCode */
    hcan->ErrorCode = HAL_CAN_ERROR_NONE;
 8001248:	687b      	ldr	r3, [r7, #4]
 800124a:	2200      	movs	r2, #0
 800124c:	625a      	str	r2, [r3, #36]	; 0x24

    /* Return function status */
    return HAL_OK;
 800124e:	2300      	movs	r3, #0
 8001250:	e006      	b.n	8001260 <HAL_CAN_Start+0x80>
  }
  else
  {
    /* Update error code */
    hcan->ErrorCode |= HAL_CAN_ERROR_NOT_READY;
 8001252:	687b      	ldr	r3, [r7, #4]
 8001254:	6a5b      	ldr	r3, [r3, #36]	; 0x24
 8001256:	f443 2200 	orr.w	r2, r3, #524288	; 0x80000
 800125a:	687b      	ldr	r3, [r7, #4]
 800125c:	625a      	str	r2, [r3, #36]	; 0x24

    return HAL_ERROR;
 800125e:	2301      	movs	r3, #1
  }
}
 8001260:	4618      	mov	r0, r3
 8001262:	3710      	adds	r7, #16
 8001264:	46bd      	mov	sp, r7
 8001266:	bd80      	pop	{r7, pc}

08001268 <HAL_CAN_GetRxMessage>:
  *         of the Rx frame will be stored.
  * @param  aData array where the payload of the Rx frame will be stored.
  * @retval HAL status
  */
HAL_StatusTypeDef HAL_CAN_GetRxMessage(CAN_HandleTypeDef *hcan, uint32_t RxFifo, CAN_RxHeaderTypeDef *pHeader, uint8_t aData[])
{
 8001268:	b480      	push	{r7}
 800126a:	b087      	sub	sp, #28
 800126c:	af00      	add	r7, sp, #0
 800126e:	60f8      	str	r0, [r7, #12]
 8001270:	60b9      	str	r1, [r7, #8]
 8001272:	607a      	str	r2, [r7, #4]
 8001274:	603b      	str	r3, [r7, #0]
  HAL_CAN_StateTypeDef state = hcan->State;
 8001276:	68fb      	ldr	r3, [r7, #12]
 8001278:	f893 3020 	ldrb.w	r3, [r3, #32]
 800127c:	75fb      	strb	r3, [r7, #23]

  assert_param(IS_CAN_RX_FIFO(RxFifo));

  if ((state == HAL_CAN_STATE_READY) ||
 800127e:	7dfb      	ldrb	r3, [r7, #23]
 8001280:	2b01      	cmp	r3, #1
 8001282:	d003      	beq.n	800128c <HAL_CAN_GetRxMessage+0x24>
 8001284:	7dfb      	ldrb	r3, [r7, #23]
 8001286:	2b02      	cmp	r3, #2
 8001288:	f040 80f3 	bne.w	8001472 <HAL_CAN_GetRxMessage+0x20a>
      (state == HAL_CAN_STATE_LISTENING))
  {
    /* Check the Rx FIFO */
    if (RxFifo == CAN_RX_FIFO0) /* Rx element is assigned to Rx FIFO 0 */
 800128c:	68bb      	ldr	r3, [r7, #8]
 800128e:	2b00      	cmp	r3, #0
 8001290:	d10e      	bne.n	80012b0 <HAL_CAN_GetRxMessage+0x48>
    {
      /* Check that the Rx FIFO 0 is not empty */
      if ((hcan->Instance->RF0R & CAN_RF0R_FMP0) == 0U)
 8001292:	68fb      	ldr	r3, [r7, #12]
 8001294:	681b      	ldr	r3, [r3, #0]
 8001296:	68db      	ldr	r3, [r3, #12]
 8001298:	f003 0303 	and.w	r3, r3, #3
 800129c:	2b00      	cmp	r3, #0
 800129e:	d116      	bne.n	80012ce <HAL_CAN_GetRxMessage+0x66>
      {
        /* Update error code */
        hcan->ErrorCode |= HAL_CAN_ERROR_PARAM;
 80012a0:	68fb      	ldr	r3, [r7, #12]
 80012a2:	6a5b      	ldr	r3, [r3, #36]	; 0x24
 80012a4:	f443 1200 	orr.w	r2, r3, #2097152	; 0x200000
 80012a8:	68fb      	ldr	r3, [r7, #12]
 80012aa:	625a      	str	r2, [r3, #36]	; 0x24

        return HAL_ERROR;
 80012ac:	2301      	movs	r3, #1
 80012ae:	e0e7      	b.n	8001480 <HAL_CAN_GetRxMessage+0x218>
      }
    }
    else /* Rx element is assigned to Rx FIFO 1 */
    {
      /* Check that the Rx FIFO 1 is not empty */
      if ((hcan->Instance->RF1R & CAN_RF1R_FMP1) == 0U)
 80012b0:	68fb      	ldr	r3, [r7, #12]
 80012b2:	681b      	ldr	r3, [r3, #0]
 80012b4:	691b      	ldr	r3, [r3, #16]
 80012b6:	f003 0303 	and.w	r3, r3, #3
 80012ba:	2b00      	cmp	r3, #0
 80012bc:	d107      	bne.n	80012ce <HAL_CAN_GetRxMessage+0x66>
      {
        /* Update error code */
        hcan->ErrorCode |= HAL_CAN_ERROR_PARAM;
 80012be:	68fb      	ldr	r3, [r7, #12]
 80012c0:	6a5b      	ldr	r3, [r3, #36]	; 0x24
 80012c2:	f443 1200 	orr.w	r2, r3, #2097152	; 0x200000
 80012c6:	68fb      	ldr	r3, [r7, #12]
 80012c8:	625a      	str	r2, [r3, #36]	; 0x24

        return HAL_ERROR;
 80012ca:	2301      	movs	r3, #1
 80012cc:	e0d8      	b.n	8001480 <HAL_CAN_GetRxMessage+0x218>
      }
    }

    /* Get the header */
    pHeader->IDE = CAN_RI0R_IDE & hcan->Instance->sFIFOMailBox[RxFifo].RIR;
 80012ce:	68fb      	ldr	r3, [r7, #12]
 80012d0:	681a      	ldr	r2, [r3, #0]
 80012d2:	68bb      	ldr	r3, [r7, #8]
 80012d4:	331b      	adds	r3, #27
 80012d6:	011b      	lsls	r3, r3, #4
 80012d8:	4413      	add	r3, r2
 80012da:	681b      	ldr	r3, [r3, #0]
 80012dc:	f003 0204 	and.w	r2, r3, #4
 80012e0:	687b      	ldr	r3, [r7, #4]
 80012e2:	609a      	str	r2, [r3, #8]
    if (pHeader->IDE == CAN_ID_STD)
 80012e4:	687b      	ldr	r3, [r7, #4]
 80012e6:	689b      	ldr	r3, [r3, #8]
 80012e8:	2b00      	cmp	r3, #0
 80012ea:	d10c      	bne.n	8001306 <HAL_CAN_GetRxMessage+0x9e>
    {
      pHeader->StdId = (CAN_RI0R_STID & hcan->Instance->sFIFOMailBox[RxFifo].RIR) >> CAN_TI0R_STID_Pos;
 80012ec:	68fb      	ldr	r3, [r7, #12]
 80012ee:	681a      	ldr	r2, [r3, #0]
 80012f0:	68bb      	ldr	r3, [r7, #8]
 80012f2:	331b      	adds	r3, #27
 80012f4:	011b      	lsls	r3, r3, #4
 80012f6:	4413      	add	r3, r2
 80012f8:	681b      	ldr	r3, [r3, #0]
 80012fa:	0d5b      	lsrs	r3, r3, #21
 80012fc:	f3c3 020a 	ubfx	r2, r3, #0, #11
 8001300:	687b      	ldr	r3, [r7, #4]
 8001302:	601a      	str	r2, [r3, #0]
 8001304:	e00b      	b.n	800131e <HAL_CAN_GetRxMessage+0xb6>
    }
    else
    {
      pHeader->ExtId = ((CAN_RI0R_EXID | CAN_RI0R_STID) & hcan->Instance->sFIFOMailBox[RxFifo].RIR) >> CAN_RI0R_EXID_Pos;
 8001306:	68fb      	ldr	r3, [r7, #12]
 8001308:	681a      	ldr	r2, [r3, #0]
 800130a:	68bb      	ldr	r3, [r7, #8]
 800130c:	331b      	adds	r3, #27
 800130e:	011b      	lsls	r3, r3, #4
 8001310:	4413      	add	r3, r2
 8001312:	681b      	ldr	r3, [r3, #0]
 8001314:	08db      	lsrs	r3, r3, #3
 8001316:	f023 4260 	bic.w	r2, r3, #3758096384	; 0xe0000000
 800131a:	687b      	ldr	r3, [r7, #4]
 800131c:	605a      	str	r2, [r3, #4]
    }
    pHeader->RTR = (CAN_RI0R_RTR & hcan->Instance->sFIFOMailBox[RxFifo].RIR);
 800131e:	68fb      	ldr	r3, [r7, #12]
 8001320:	681a      	ldr	r2, [r3, #0]
 8001322:	68bb      	ldr	r3, [r7, #8]
 8001324:	331b      	adds	r3, #27
 8001326:	011b      	lsls	r3, r3, #4
 8001328:	4413      	add	r3, r2
 800132a:	681b      	ldr	r3, [r3, #0]
 800132c:	f003 0202 	and.w	r2, r3, #2
 8001330:	687b      	ldr	r3, [r7, #4]
 8001332:	60da      	str	r2, [r3, #12]
    pHeader->DLC = (CAN_RDT0R_DLC & hcan->Instance->sFIFOMailBox[RxFifo].RDTR) >> CAN_RDT0R_DLC_Pos;
 8001334:	68fb      	ldr	r3, [r7, #12]
 8001336:	681a      	ldr	r2, [r3, #0]
 8001338:	68bb      	ldr	r3, [r7, #8]
 800133a:	331b      	adds	r3, #27
 800133c:	011b      	lsls	r3, r3, #4
 800133e:	4413      	add	r3, r2
 8001340:	3304      	adds	r3, #4
 8001342:	681b      	ldr	r3, [r3, #0]
 8001344:	f003 020f 	and.w	r2, r3, #15
 8001348:	687b      	ldr	r3, [r7, #4]
 800134a:	611a      	str	r2, [r3, #16]
    pHeader->FilterMatchIndex = (CAN_RDT0R_FMI & hcan->Instance->sFIFOMailBox[RxFifo].RDTR) >> CAN_RDT0R_FMI_Pos;
 800134c:	68fb      	ldr	r3, [r7, #12]
 800134e:	681a      	ldr	r2, [r3, #0]
 8001350:	68bb      	ldr	r3, [r7, #8]
 8001352:	331b      	adds	r3, #27
 8001354:	011b      	lsls	r3, r3, #4
 8001356:	4413      	add	r3, r2
 8001358:	3304      	adds	r3, #4
 800135a:	681b      	ldr	r3, [r3, #0]
 800135c:	0a1b      	lsrs	r3, r3, #8
 800135e:	b2da      	uxtb	r2, r3
 8001360:	687b      	ldr	r3, [r7, #4]
 8001362:	619a      	str	r2, [r3, #24]
    pHeader->Timestamp = (CAN_RDT0R_TIME & hcan->Instance->sFIFOMailBox[RxFifo].RDTR) >> CAN_RDT0R_TIME_Pos;
 8001364:	68fb      	ldr	r3, [r7, #12]
 8001366:	681a      	ldr	r2, [r3, #0]
 8001368:	68bb      	ldr	r3, [r7, #8]
 800136a:	331b      	adds	r3, #27
 800136c:	011b      	lsls	r3, r3, #4
 800136e:	4413      	add	r3, r2
 8001370:	3304      	adds	r3, #4
 8001372:	681b      	ldr	r3, [r3, #0]
 8001374:	0c1b      	lsrs	r3, r3, #16
 8001376:	b29a      	uxth	r2, r3
 8001378:	687b      	ldr	r3, [r7, #4]
 800137a:	615a      	str	r2, [r3, #20]

    /* Get the data */
    aData[0] = (uint8_t)((CAN_RDL0R_DATA0 & hcan->Instance->sFIFOMailBox[RxFifo].RDLR) >> CAN_RDL0R_DATA0_Pos);
 800137c:	68fb      	ldr	r3, [r7, #12]
 800137e:	681a      	ldr	r2, [r3, #0]
 8001380:	68bb      	ldr	r3, [r7, #8]
 8001382:	011b      	lsls	r3, r3, #4
 8001384:	4413      	add	r3, r2
 8001386:	f503 73dc 	add.w	r3, r3, #440	; 0x1b8
 800138a:	681b      	ldr	r3, [r3, #0]
 800138c:	b2da      	uxtb	r2, r3
 800138e:	683b      	ldr	r3, [r7, #0]
 8001390:	701a      	strb	r2, [r3, #0]
    aData[1] = (uint8_t)((CAN_RDL0R_DATA1 & hcan->Instance->sFIFOMailBox[RxFifo].RDLR) >> CAN_RDL0R_DATA1_Pos);
 8001392:	68fb      	ldr	r3, [r7, #12]
 8001394:	681a      	ldr	r2, [r3, #0]
 8001396:	68bb      	ldr	r3, [r7, #8]
 8001398:	011b      	lsls	r3, r3, #4
 800139a:	4413      	add	r3, r2
 800139c:	f503 73dc 	add.w	r3, r3, #440	; 0x1b8
 80013a0:	681b      	ldr	r3, [r3, #0]
 80013a2:	0a1a      	lsrs	r2, r3, #8
 80013a4:	683b      	ldr	r3, [r7, #0]
 80013a6:	3301      	adds	r3, #1
 80013a8:	b2d2      	uxtb	r2, r2
 80013aa:	701a      	strb	r2, [r3, #0]
    aData[2] = (uint8_t)((CAN_RDL0R_DATA2 & hcan->Instance->sFIFOMailBox[RxFifo].RDLR) >> CAN_RDL0R_DATA2_Pos);
 80013ac:	68fb      	ldr	r3, [r7, #12]
 80013ae:	681a      	ldr	r2, [r3, #0]
 80013b0:	68bb      	ldr	r3, [r7, #8]
 80013b2:	011b      	lsls	r3, r3, #4
 80013b4:	4413      	add	r3, r2
 80013b6:	f503 73dc 	add.w	r3, r3, #440	; 0x1b8
 80013ba:	681b      	ldr	r3, [r3, #0]
 80013bc:	0c1a      	lsrs	r2, r3, #16
 80013be:	683b      	ldr	r3, [r7, #0]
 80013c0:	3302      	adds	r3, #2
 80013c2:	b2d2      	uxtb	r2, r2
 80013c4:	701a      	strb	r2, [r3, #0]
    aData[3] = (uint8_t)((CAN_RDL0R_DATA3 & hcan->Instance->sFIFOMailBox[RxFifo].RDLR) >> CAN_RDL0R_DATA3_Pos);
 80013c6:	68fb      	ldr	r3, [r7, #12]
 80013c8:	681a      	ldr	r2, [r3, #0]
 80013ca:	68bb      	ldr	r3, [r7, #8]
 80013cc:	011b      	lsls	r3, r3, #4
 80013ce:	4413      	add	r3, r2
 80013d0:	f503 73dc 	add.w	r3, r3, #440	; 0x1b8
 80013d4:	681b      	ldr	r3, [r3, #0]
 80013d6:	0e1a      	lsrs	r2, r3, #24
 80013d8:	683b      	ldr	r3, [r7, #0]
 80013da:	3303      	adds	r3, #3
 80013dc:	b2d2      	uxtb	r2, r2
 80013de:	701a      	strb	r2, [r3, #0]
    aData[4] = (uint8_t)((CAN_RDH0R_DATA4 & hcan->Instance->sFIFOMailBox[RxFifo].RDHR) >> CAN_RDH0R_DATA4_Pos);
 80013e0:	68fb      	ldr	r3, [r7, #12]
 80013e2:	681a      	ldr	r2, [r3, #0]
 80013e4:	68bb      	ldr	r3, [r7, #8]
 80013e6:	011b      	lsls	r3, r3, #4
 80013e8:	4413      	add	r3, r2
 80013ea:	f503 73de 	add.w	r3, r3, #444	; 0x1bc
 80013ee:	681a      	ldr	r2, [r3, #0]
 80013f0:	683b      	ldr	r3, [r7, #0]
 80013f2:	3304      	adds	r3, #4
 80013f4:	b2d2      	uxtb	r2, r2
 80013f6:	701a      	strb	r2, [r3, #0]
    aData[5] = (uint8_t)((CAN_RDH0R_DATA5 & hcan->Instance->sFIFOMailBox[RxFifo].RDHR) >> CAN_RDH0R_DATA5_Pos);
 80013f8:	68fb      	ldr	r3, [r7, #12]
 80013fa:	681a      	ldr	r2, [r3, #0]
 80013fc:	68bb      	ldr	r3, [r7, #8]
 80013fe:	011b      	lsls	r3, r3, #4
 8001400:	4413      	add	r3, r2
 8001402:	f503 73de 	add.w	r3, r3, #444	; 0x1bc
 8001406:	681b      	ldr	r3, [r3, #0]
 8001408:	0a1a      	lsrs	r2, r3, #8
 800140a:	683b      	ldr	r3, [r7, #0]
 800140c:	3305      	adds	r3, #5
 800140e:	b2d2      	uxtb	r2, r2
 8001410:	701a      	strb	r2, [r3, #0]
    aData[6] = (uint8_t)((CAN_RDH0R_DATA6 & hcan->Instance->sFIFOMailBox[RxFifo].RDHR) >> CAN_RDH0R_DATA6_Pos);
 8001412:	68fb      	ldr	r3, [r7, #12]
 8001414:	681a      	ldr	r2, [r3, #0]
 8001416:	68bb      	ldr	r3, [r7, #8]
 8001418:	011b      	lsls	r3, r3, #4
 800141a:	4413      	add	r3, r2
 800141c:	f503 73de 	add.w	r3, r3, #444	; 0x1bc
 8001420:	681b      	ldr	r3, [r3, #0]
 8001422:	0c1a      	lsrs	r2, r3, #16
 8001424:	683b      	ldr	r3, [r7, #0]
 8001426:	3306      	adds	r3, #6
 8001428:	b2d2      	uxtb	r2, r2
 800142a:	701a      	strb	r2, [r3, #0]
    aData[7] = (uint8_t)((CAN_RDH0R_DATA7 & hcan->Instance->sFIFOMailBox[RxFifo].RDHR) >> CAN_RDH0R_DATA7_Pos);
 800142c:	68fb      	ldr	r3, [r7, #12]
 800142e:	681a      	ldr	r2, [r3, #0]
 8001430:	68bb      	ldr	r3, [r7, #8]
 8001432:	011b      	lsls	r3, r3, #4
 8001434:	4413      	add	r3, r2
 8001436:	f503 73de 	add.w	r3, r3, #444	; 0x1bc
 800143a:	681b      	ldr	r3, [r3, #0]
 800143c:	0e1a      	lsrs	r2, r3, #24
 800143e:	683b      	ldr	r3, [r7, #0]
 8001440:	3307      	adds	r3, #7
 8001442:	b2d2      	uxtb	r2, r2
 8001444:	701a      	strb	r2, [r3, #0]

    /* Release the FIFO */
    if (RxFifo == CAN_RX_FIFO0) /* Rx element is assigned to Rx FIFO 0 */
 8001446:	68bb      	ldr	r3, [r7, #8]
 8001448:	2b00      	cmp	r3, #0
 800144a:	d108      	bne.n	800145e <HAL_CAN_GetRxMessage+0x1f6>
    {
      /* Release RX FIFO 0 */
      SET_BIT(hcan->Instance->RF0R, CAN_RF0R_RFOM0);
 800144c:	68fb      	ldr	r3, [r7, #12]
 800144e:	681b      	ldr	r3, [r3, #0]
 8001450:	68da      	ldr	r2, [r3, #12]
 8001452:	68fb      	ldr	r3, [r7, #12]
 8001454:	681b      	ldr	r3, [r3, #0]
 8001456:	f042 0220 	orr.w	r2, r2, #32
 800145a:	60da      	str	r2, [r3, #12]
 800145c:	e007      	b.n	800146e <HAL_CAN_GetRxMessage+0x206>
    }
    else /* Rx element is assigned to Rx FIFO 1 */
    {
      /* Release RX FIFO 1 */
      SET_BIT(hcan->Instance->RF1R, CAN_RF1R_RFOM1);
 800145e:	68fb      	ldr	r3, [r7, #12]
 8001460:	681b      	ldr	r3, [r3, #0]
 8001462:	691a      	ldr	r2, [r3, #16]
 8001464:	68fb      	ldr	r3, [r7, #12]
 8001466:	681b      	ldr	r3, [r3, #0]
 8001468:	f042 0220 	orr.w	r2, r2, #32
 800146c:	611a      	str	r2, [r3, #16]
    }

    /* Return function status */
    return HAL_OK;
 800146e:	2300      	movs	r3, #0
 8001470:	e006      	b.n	8001480 <HAL_CAN_GetRxMessage+0x218>
  }
  else
  {
    /* Update error code */
    hcan->ErrorCode |= HAL_CAN_ERROR_NOT_INITIALIZED;
 8001472:	68fb      	ldr	r3, [r7, #12]
 8001474:	6a5b      	ldr	r3, [r3, #36]	; 0x24
 8001476:	f443 2280 	orr.w	r2, r3, #262144	; 0x40000
 800147a:	68fb      	ldr	r3, [r7, #12]
 800147c:	625a      	str	r2, [r3, #36]	; 0x24

    return HAL_ERROR;
 800147e:	2301      	movs	r3, #1
  }
}
 8001480:	4618      	mov	r0, r3
 8001482:	371c      	adds	r7, #28
 8001484:	46bd      	mov	sp, r7
 8001486:	f85d 7b04 	ldr.w	r7, [sp], #4
 800148a:	4770      	bx	lr

0800148c <HAL_CAN_ActivateNotification>:
  * @param  ActiveITs indicates which interrupts will be enabled.
  *         This parameter can be any combination of @arg CAN_Interrupts.
  * @retval HAL status
  */
HAL_StatusTypeDef HAL_CAN_ActivateNotification(CAN_HandleTypeDef *hcan, uint32_t ActiveITs)
{
 800148c:	b480      	push	{r7}
 800148e:	b085      	sub	sp, #20
 8001490:	af00      	add	r7, sp, #0
 8001492:	6078      	str	r0, [r7, #4]
 8001494:	6039      	str	r1, [r7, #0]
  HAL_CAN_StateTypeDef state = hcan->State;
 8001496:	687b      	ldr	r3, [r7, #4]
 8001498:	f893 3020 	ldrb.w	r3, [r3, #32]
 800149c:	73fb      	strb	r3, [r7, #15]

  /* Check function parameters */
  assert_param(IS_CAN_IT(ActiveITs));

  if ((state == HAL_CAN_STATE_READY) ||
 800149e:	7bfb      	ldrb	r3, [r7, #15]
 80014a0:	2b01      	cmp	r3, #1
 80014a2:	d002      	beq.n	80014aa <HAL_CAN_ActivateNotification+0x1e>
 80014a4:	7bfb      	ldrb	r3, [r7, #15]
 80014a6:	2b02      	cmp	r3, #2
 80014a8:	d109      	bne.n	80014be <HAL_CAN_ActivateNotification+0x32>
      (state == HAL_CAN_STATE_LISTENING))
  {
    /* Enable the selected interrupts */
    __HAL_CAN_ENABLE_IT(hcan, ActiveITs);
 80014aa:	687b      	ldr	r3, [r7, #4]
 80014ac:	681b      	ldr	r3, [r3, #0]
 80014ae:	6959      	ldr	r1, [r3, #20]
 80014b0:	687b      	ldr	r3, [r7, #4]
 80014b2:	681b      	ldr	r3, [r3, #0]
 80014b4:	683a      	ldr	r2, [r7, #0]
 80014b6:	430a      	orrs	r2, r1
 80014b8:	615a      	str	r2, [r3, #20]

    /* Return function status */
    return HAL_OK;
 80014ba:	2300      	movs	r3, #0
 80014bc:	e006      	b.n	80014cc <HAL_CAN_ActivateNotification+0x40>
  }
  else
  {
    /* Update error code */
    hcan->ErrorCode |= HAL_CAN_ERROR_NOT_INITIALIZED;
 80014be:	687b      	ldr	r3, [r7, #4]
 80014c0:	6a5b      	ldr	r3, [r3, #36]	; 0x24
 80014c2:	f443 2280 	orr.w	r2, r3, #262144	; 0x40000
 80014c6:	687b      	ldr	r3, [r7, #4]
 80014c8:	625a      	str	r2, [r3, #36]	; 0x24

    return HAL_ERROR;
 80014ca:	2301      	movs	r3, #1
  }
}
 80014cc:	4618      	mov	r0, r3
 80014ce:	3714      	adds	r7, #20
 80014d0:	46bd      	mov	sp, r7
 80014d2:	f85d 7b04 	ldr.w	r7, [sp], #4
 80014d6:	4770      	bx	lr

080014d8 <HAL_CAN_IRQHandler>:
  * @param  hcan pointer to a CAN_HandleTypeDef structure that contains
  *         the configuration information for the specified CAN.
  * @retval None
  */
void HAL_CAN_IRQHandler(CAN_HandleTypeDef *hcan)
{
 80014d8:	b580      	push	{r7, lr}
 80014da:	b08a      	sub	sp, #40	; 0x28
 80014dc:	af00      	add	r7, sp, #0
 80014de:	6078      	str	r0, [r7, #4]
  uint32_t errorcode = HAL_CAN_ERROR_NONE;
 80014e0:	2300      	movs	r3, #0
 80014e2:	627b      	str	r3, [r7, #36]	; 0x24
  uint32_t interrupts = READ_REG(hcan->Instance->IER);
 80014e4:	687b      	ldr	r3, [r7, #4]
 80014e6:	681b      	ldr	r3, [r3, #0]
 80014e8:	695b      	ldr	r3, [r3, #20]
 80014ea:	623b      	str	r3, [r7, #32]
  uint32_t msrflags = READ_REG(hcan->Instance->MSR);
 80014ec:	687b      	ldr	r3, [r7, #4]
 80014ee:	681b      	ldr	r3, [r3, #0]
 80014f0:	685b      	ldr	r3, [r3, #4]
 80014f2:	61fb      	str	r3, [r7, #28]
  uint32_t tsrflags = READ_REG(hcan->Instance->TSR);
 80014f4:	687b      	ldr	r3, [r7, #4]
 80014f6:	681b      	ldr	r3, [r3, #0]
 80014f8:	689b      	ldr	r3, [r3, #8]
 80014fa:	61bb      	str	r3, [r7, #24]
  uint32_t rf0rflags = READ_REG(hcan->Instance->RF0R);
 80014fc:	687b      	ldr	r3, [r7, #4]
 80014fe:	681b      	ldr	r3, [r3, #0]
 8001500:	68db      	ldr	r3, [r3, #12]
 8001502:	617b      	str	r3, [r7, #20]
  uint32_t rf1rflags = READ_REG(hcan->Instance->RF1R);
 8001504:	687b      	ldr	r3, [r7, #4]
 8001506:	681b      	ldr	r3, [r3, #0]
 8001508:	691b      	ldr	r3, [r3, #16]
 800150a:	613b      	str	r3, [r7, #16]
  uint32_t esrflags = READ_REG(hcan->Instance->ESR);
 800150c:	687b      	ldr	r3, [r7, #4]
 800150e:	681b      	ldr	r3, [r3, #0]
 8001510:	699b      	ldr	r3, [r3, #24]
 8001512:	60fb      	str	r3, [r7, #12]

  /* Transmit Mailbox empty interrupt management *****************************/
  if ((interrupts & CAN_IT_TX_MAILBOX_EMPTY) != 0U)
 8001514:	6a3b      	ldr	r3, [r7, #32]
 8001516:	f003 0301 	and.w	r3, r3, #1
 800151a:	2b00      	cmp	r3, #0
 800151c:	d07c      	beq.n	8001618 <HAL_CAN_IRQHandler+0x140>
  {
    /* Transmit Mailbox 0 management *****************************************/
    if ((tsrflags & CAN_TSR_RQCP0) != 0U)
 800151e:	69bb      	ldr	r3, [r7, #24]
 8001520:	f003 0301 	and.w	r3, r3, #1
 8001524:	2b00      	cmp	r3, #0
 8001526:	d023      	beq.n	8001570 <HAL_CAN_IRQHandler+0x98>
    {
      /* Clear the Transmission Complete flag (and TXOK0,ALST0,TERR0 bits) */
      __HAL_CAN_CLEAR_FLAG(hcan, CAN_FLAG_RQCP0);
 8001528:	687b      	ldr	r3, [r7, #4]
 800152a:	681b      	ldr	r3, [r3, #0]
 800152c:	2201      	movs	r2, #1
 800152e:	609a      	str	r2, [r3, #8]

      if ((tsrflags & CAN_TSR_TXOK0) != 0U)
 8001530:	69bb      	ldr	r3, [r7, #24]
 8001532:	f003 0302 	and.w	r3, r3, #2
 8001536:	2b00      	cmp	r3, #0
 8001538:	d003      	beq.n	8001542 <HAL_CAN_IRQHandler+0x6a>
#if USE_HAL_CAN_REGISTER_CALLBACKS == 1
        /* Call registered callback*/
        hcan->TxMailbox0CompleteCallback(hcan);
#else
        /* Call weak (surcharged) callback */
        HAL_CAN_TxMailbox0CompleteCallback(hcan);
 800153a:	6878      	ldr	r0, [r7, #4]
 800153c:	f000 f983 	bl	8001846 <HAL_CAN_TxMailbox0CompleteCallback>
 8001540:	e016      	b.n	8001570 <HAL_CAN_IRQHandler+0x98>
#endif /* USE_HAL_CAN_REGISTER_CALLBACKS */
      }
      else
      {
        if ((tsrflags & CAN_TSR_ALST0) != 0U)
 8001542:	69bb      	ldr	r3, [r7, #24]
 8001544:	f003 0304 	and.w	r3, r3, #4
 8001548:	2b00      	cmp	r3, #0
 800154a:	d004      	beq.n	8001556 <HAL_CAN_IRQHandler+0x7e>
        {
          /* Update error code */
          errorcode |= HAL_CAN_ERROR_TX_ALST0;
 800154c:	6a7b      	ldr	r3, [r7, #36]	; 0x24
 800154e:	f443 6300 	orr.w	r3, r3, #2048	; 0x800
 8001552:	627b      	str	r3, [r7, #36]	; 0x24
 8001554:	e00c      	b.n	8001570 <HAL_CAN_IRQHandler+0x98>
        }
        else if ((tsrflags & CAN_TSR_TERR0) != 0U)
 8001556:	69bb      	ldr	r3, [r7, #24]
 8001558:	f003 0308 	and.w	r3, r3, #8
 800155c:	2b00      	cmp	r3, #0
 800155e:	d004      	beq.n	800156a <HAL_CAN_IRQHandler+0x92>
        {
          /* Update error code */
          errorcode |= HAL_CAN_ERROR_TX_TERR0;
 8001560:	6a7b      	ldr	r3, [r7, #36]	; 0x24
 8001562:	f443 5380 	orr.w	r3, r3, #4096	; 0x1000
 8001566:	627b      	str	r3, [r7, #36]	; 0x24
 8001568:	e002      	b.n	8001570 <HAL_CAN_IRQHandler+0x98>
#if USE_HAL_CAN_REGISTER_CALLBACKS == 1
          /* Call registered callback*/
          hcan->TxMailbox0AbortCallback(hcan);
#else
          /* Call weak (surcharged) callback */
          HAL_CAN_TxMailbox0AbortCallback(hcan);
 800156a:	6878      	ldr	r0, [r7, #4]
 800156c:	f000 f989 	bl	8001882 <HAL_CAN_TxMailbox0AbortCallback>
        }
      }
    }

    /* Transmit Mailbox 1 management *****************************************/
    if ((tsrflags & CAN_TSR_RQCP1) != 0U)
 8001570:	69bb      	ldr	r3, [r7, #24]
 8001572:	f403 7380 	and.w	r3, r3, #256	; 0x100
 8001576:	2b00      	cmp	r3, #0
 8001578:	d024      	beq.n	80015c4 <HAL_CAN_IRQHandler+0xec>
    {
      /* Clear the Transmission Complete flag (and TXOK1,ALST1,TERR1 bits) */
      __HAL_CAN_CLEAR_FLAG(hcan, CAN_FLAG_RQCP1);
 800157a:	687b      	ldr	r3, [r7, #4]
 800157c:	681b      	ldr	r3, [r3, #0]
 800157e:	f44f 7280 	mov.w	r2, #256	; 0x100
 8001582:	609a      	str	r2, [r3, #8]

      if ((tsrflags & CAN_TSR_TXOK1) != 0U)
 8001584:	69bb      	ldr	r3, [r7, #24]
 8001586:	f403 7300 	and.w	r3, r3, #512	; 0x200
 800158a:	2b00      	cmp	r3, #0
 800158c:	d003      	beq.n	8001596 <HAL_CAN_IRQHandler+0xbe>
#if USE_HAL_CAN_REGISTER_CALLBACKS == 1
        /* Call registered callback*/
        hcan->TxMailbox1CompleteCallback(hcan);
#else
        /* Call weak (surcharged) callback */
        HAL_CAN_TxMailbox1CompleteCallback(hcan);
 800158e:	6878      	ldr	r0, [r7, #4]
 8001590:	f000 f963 	bl	800185a <HAL_CAN_TxMailbox1CompleteCallback>
 8001594:	e016      	b.n	80015c4 <HAL_CAN_IRQHandler+0xec>
#endif /* USE_HAL_CAN_REGISTER_CALLBACKS */
      }
      else
      {
        if ((tsrflags & CAN_TSR_ALST1) != 0U)
 8001596:	69bb      	ldr	r3, [r7, #24]
 8001598:	f403 6380 	and.w	r3, r3, #1024	; 0x400
 800159c:	2b00      	cmp	r3, #0
 800159e:	d004      	beq.n	80015aa <HAL_CAN_IRQHandler+0xd2>
        {
          /* Update error code */
          errorcode |= HAL_CAN_ERROR_TX_ALST1;
 80015a0:	6a7b      	ldr	r3, [r7, #36]	; 0x24
 80015a2:	f443 5300 	orr.w	r3, r3, #8192	; 0x2000
 80015a6:	627b      	str	r3, [r7, #36]	; 0x24
 80015a8:	e00c      	b.n	80015c4 <HAL_CAN_IRQHandler+0xec>
        }
        else if ((tsrflags & CAN_TSR_TERR1) != 0U)
 80015aa:	69bb      	ldr	r3, [r7, #24]
 80015ac:	f403 6300 	and.w	r3, r3, #2048	; 0x800
 80015b0:	2b00      	cmp	r3, #0
 80015b2:	d004      	beq.n	80015be <HAL_CAN_IRQHandler+0xe6>
        {
          /* Update error code */
          errorcode |= HAL_CAN_ERROR_TX_TERR1;
 80015b4:	6a7b      	ldr	r3, [r7, #36]	; 0x24
 80015b6:	f443 4380 	orr.w	r3, r3, #16384	; 0x4000
 80015ba:	627b      	str	r3, [r7, #36]	; 0x24
 80015bc:	e002      	b.n	80015c4 <HAL_CAN_IRQHandler+0xec>
#if USE_HAL_CAN_REGISTER_CALLBACKS == 1
          /* Call registered callback*/
          hcan->TxMailbox1AbortCallback(hcan);
#else
          /* Call weak (surcharged) callback */
          HAL_CAN_TxMailbox1AbortCallback(hcan);
 80015be:	6878      	ldr	r0, [r7, #4]
 80015c0:	f000 f969 	bl	8001896 <HAL_CAN_TxMailbox1AbortCallback>
        }
      }
    }

    /* Transmit Mailbox 2 management *****************************************/
    if ((tsrflags & CAN_TSR_RQCP2) != 0U)
 80015c4:	69bb      	ldr	r3, [r7, #24]
 80015c6:	f403 3380 	and.w	r3, r3, #65536	; 0x10000
 80015ca:	2b00      	cmp	r3, #0
 80015cc:	d024      	beq.n	8001618 <HAL_CAN_IRQHandler+0x140>
    {
      /* Clear the Transmission Complete flag (and TXOK2,ALST2,TERR2 bits) */
      __HAL_CAN_CLEAR_FLAG(hcan, CAN_FLAG_RQCP2);
 80015ce:	687b      	ldr	r3, [r7, #4]
 80015d0:	681b      	ldr	r3, [r3, #0]
 80015d2:	f44f 3280 	mov.w	r2, #65536	; 0x10000
 80015d6:	609a      	str	r2, [r3, #8]

      if ((tsrflags & CAN_TSR_TXOK2) != 0U)
 80015d8:	69bb      	ldr	r3, [r7, #24]
 80015da:	f403 3300 	and.w	r3, r3, #131072	; 0x20000
 80015de:	2b00      	cmp	r3, #0
 80015e0:	d003      	beq.n	80015ea <HAL_CAN_IRQHandler+0x112>
#if USE_HAL_CAN_REGISTER_CALLBACKS == 1
        /* Call registered callback*/
        hcan->TxMailbox2CompleteCallback(hcan);
#else
        /* Call weak (surcharged) callback */
        HAL_CAN_TxMailbox2CompleteCallback(hcan);
 80015e2:	6878      	ldr	r0, [r7, #4]
 80015e4:	f000 f943 	bl	800186e <HAL_CAN_TxMailbox2CompleteCallback>
 80015e8:	e016      	b.n	8001618 <HAL_CAN_IRQHandler+0x140>
#endif /* USE_HAL_CAN_REGISTER_CALLBACKS */
      }
      else
      {
        if ((tsrflags & CAN_TSR_ALST2) != 0U)
 80015ea:	69bb      	ldr	r3, [r7, #24]
 80015ec:	f403 2380 	and.w	r3, r3, #262144	; 0x40000
 80015f0:	2b00      	cmp	r3, #0
 80015f2:	d004      	beq.n	80015fe <HAL_CAN_IRQHandler+0x126>
        {
          /* Update error code */
          errorcode |= HAL_CAN_ERROR_TX_ALST2;
 80015f4:	6a7b      	ldr	r3, [r7, #36]	; 0x24
 80015f6:	f443 4300 	orr.w	r3, r3, #32768	; 0x8000
 80015fa:	627b      	str	r3, [r7, #36]	; 0x24
 80015fc:	e00c      	b.n	8001618 <HAL_CAN_IRQHandler+0x140>
        }
        else if ((tsrflags & CAN_TSR_TERR2) != 0U)
 80015fe:	69bb      	ldr	r3, [r7, #24]
 8001600:	f403 2300 	and.w	r3, r3, #524288	; 0x80000
 8001604:	2b00      	cmp	r3, #0
 8001606:	d004      	beq.n	8001612 <HAL_CAN_IRQHandler+0x13a>
        {
          /* Update error code */
          errorcode |= HAL_CAN_ERROR_TX_TERR2;
 8001608:	6a7b      	ldr	r3, [r7, #36]	; 0x24
 800160a:	f443 3380 	orr.w	r3, r3, #65536	; 0x10000
 800160e:	627b      	str	r3, [r7, #36]	; 0x24
 8001610:	e002      	b.n	8001618 <HAL_CAN_IRQHandler+0x140>
#if USE_HAL_CAN_REGISTER_CALLBACKS == 1
          /* Call registered callback*/
          hcan->TxMailbox2AbortCallback(hcan);
#else
          /* Call weak (surcharged) callback */
          HAL_CAN_TxMailbox2AbortCallback(hcan);
 8001612:	6878      	ldr	r0, [r7, #4]
 8001614:	f000 f949 	bl	80018aa <HAL_CAN_TxMailbox2AbortCallback>
      }
    }
  }

  /* Receive FIFO 0 overrun interrupt management *****************************/
  if ((interrupts & CAN_IT_RX_FIFO0_OVERRUN) != 0U)
 8001618:	6a3b      	ldr	r3, [r7, #32]
 800161a:	f003 0308 	and.w	r3, r3, #8
 800161e:	2b00      	cmp	r3, #0
 8001620:	d00c      	beq.n	800163c <HAL_CAN_IRQHandler+0x164>
  {
    if ((rf0rflags & CAN_RF0R_FOVR0) != 0U)
 8001622:	697b      	ldr	r3, [r7, #20]
 8001624:	f003 0310 	and.w	r3, r3, #16
 8001628:	2b00      	cmp	r3, #0
 800162a:	d007      	beq.n	800163c <HAL_CAN_IRQHandler+0x164>
    {
      /* Set CAN error code to Rx Fifo 0 overrun error */
      errorcode |= HAL_CAN_ERROR_RX_FOV0;
 800162c:	6a7b      	ldr	r3, [r7, #36]	; 0x24
 800162e:	f443 7300 	orr.w	r3, r3, #512	; 0x200
 8001632:	627b      	str	r3, [r7, #36]	; 0x24

      /* Clear FIFO0 Overrun Flag */
      __HAL_CAN_CLEAR_FLAG(hcan, CAN_FLAG_FOV0);
 8001634:	687b      	ldr	r3, [r7, #4]
 8001636:	681b      	ldr	r3, [r3, #0]
 8001638:	2210      	movs	r2, #16
 800163a:	60da      	str	r2, [r3, #12]
    }
  }

  /* Receive FIFO 0 full interrupt management ********************************/
  if ((interrupts & CAN_IT_RX_FIFO0_FULL) != 0U)
 800163c:	6a3b      	ldr	r3, [r7, #32]
 800163e:	f003 0304 	and.w	r3, r3, #4
 8001642:	2b00      	cmp	r3, #0
 8001644:	d00b      	beq.n	800165e <HAL_CAN_IRQHandler+0x186>
  {
    if ((rf0rflags & CAN_RF0R_FULL0) != 0U)
 8001646:	697b      	ldr	r3, [r7, #20]
 8001648:	f003 0308 	and.w	r3, r3, #8
 800164c:	2b00      	cmp	r3, #0
 800164e:	d006      	beq.n	800165e <HAL_CAN_IRQHandler+0x186>
    {
      /* Clear FIFO 0 full Flag */
      __HAL_CAN_CLEAR_FLAG(hcan, CAN_FLAG_FF0);
 8001650:	687b      	ldr	r3, [r7, #4]
 8001652:	681b      	ldr	r3, [r3, #0]
 8001654:	2208      	movs	r2, #8
 8001656:	60da      	str	r2, [r3, #12]
#if USE_HAL_CAN_REGISTER_CALLBACKS == 1
      /* Call registered callback*/
      hcan->RxFifo0FullCallback(hcan);
#else
      /* Call weak (surcharged) callback */
      HAL_CAN_RxFifo0FullCallback(hcan);
 8001658:	6878      	ldr	r0, [r7, #4]
 800165a:	f000 f930 	bl	80018be <HAL_CAN_RxFifo0FullCallback>
#endif /* USE_HAL_CAN_REGISTER_CALLBACKS */
    }
  }

  /* Receive FIFO 0 message pending interrupt management *********************/
  if ((interrupts & CAN_IT_RX_FIFO0_MSG_PENDING) != 0U)
 800165e:	6a3b      	ldr	r3, [r7, #32]
 8001660:	f003 0302 	and.w	r3, r3, #2
 8001664:	2b00      	cmp	r3, #0
 8001666:	d009      	beq.n	800167c <HAL_CAN_IRQHandler+0x1a4>
  {
    /* Check if message is still pending */
    if ((hcan->Instance->RF0R & CAN_RF0R_FMP0) != 0U)
 8001668:	687b      	ldr	r3, [r7, #4]
 800166a:	681b      	ldr	r3, [r3, #0]
 800166c:	68db      	ldr	r3, [r3, #12]
 800166e:	f003 0303 	and.w	r3, r3, #3
 8001672:	2b00      	cmp	r3, #0
 8001674:	d002      	beq.n	800167c <HAL_CAN_IRQHandler+0x1a4>
#if USE_HAL_CAN_REGISTER_CALLBACKS == 1
      /* Call registered callback*/
      hcan->RxFifo0MsgPendingCallback(hcan);
#else
      /* Call weak (surcharged) callback */
      HAL_CAN_RxFifo0MsgPendingCallback(hcan);
 8001676:	6878      	ldr	r0, [r7, #4]
 8001678:	f7fe ff28 	bl	80004cc <HAL_CAN_RxFifo0MsgPendingCallback>
#endif /* USE_HAL_CAN_REGISTER_CALLBACKS */
    }
  }

  /* Receive FIFO 1 overrun interrupt management *****************************/
  if ((interrupts & CAN_IT_RX_FIFO1_OVERRUN) != 0U)
 800167c:	6a3b      	ldr	r3, [r7, #32]
 800167e:	f003 0340 	and.w	r3, r3, #64	; 0x40
 8001682:	2b00      	cmp	r3, #0
 8001684:	d00c      	beq.n	80016a0 <HAL_CAN_IRQHandler+0x1c8>
  {
    if ((rf1rflags & CAN_RF1R_FOVR1) != 0U)
 8001686:	693b      	ldr	r3, [r7, #16]
 8001688:	f003 0310 	and.w	r3, r3, #16
 800168c:	2b00      	cmp	r3, #0
 800168e:	d007      	beq.n	80016a0 <HAL_CAN_IRQHandler+0x1c8>
    {
      /* Set CAN error code to Rx Fifo 1 overrun error */
      errorcode |= HAL_CAN_ERROR_RX_FOV1;
 8001690:	6a7b      	ldr	r3, [r7, #36]	; 0x24
 8001692:	f443 6380 	orr.w	r3, r3, #1024	; 0x400
 8001696:	627b      	str	r3, [r7, #36]	; 0x24

      /* Clear FIFO1 Overrun Flag */
      __HAL_CAN_CLEAR_FLAG(hcan, CAN_FLAG_FOV1);
 8001698:	687b      	ldr	r3, [r7, #4]
 800169a:	681b      	ldr	r3, [r3, #0]
 800169c:	2210      	movs	r2, #16
 800169e:	611a      	str	r2, [r3, #16]
    }
  }

  /* Receive FIFO 1 full interrupt management ********************************/
  if ((interrupts & CAN_IT_RX_FIFO1_FULL) != 0U)
 80016a0:	6a3b      	ldr	r3, [r7, #32]
 80016a2:	f003 0320 	and.w	r3, r3, #32
 80016a6:	2b00      	cmp	r3, #0
 80016a8:	d00b      	beq.n	80016c2 <HAL_CAN_IRQHandler+0x1ea>
  {
    if ((rf1rflags & CAN_RF1R_FULL1) != 0U)
 80016aa:	693b      	ldr	r3, [r7, #16]
 80016ac:	f003 0308 	and.w	r3, r3, #8
 80016b0:	2b00      	cmp	r3, #0
 80016b2:	d006      	beq.n	80016c2 <HAL_CAN_IRQHandler+0x1ea>
    {
      /* Clear FIFO 1 full Flag */
      __HAL_CAN_CLEAR_FLAG(hcan, CAN_FLAG_FF1);
 80016b4:	687b      	ldr	r3, [r7, #4]
 80016b6:	681b      	ldr	r3, [r3, #0]
 80016b8:	2208      	movs	r2, #8
 80016ba:	611a      	str	r2, [r3, #16]
#if USE_HAL_CAN_REGISTER_CALLBACKS == 1
      /* Call registered callback*/
      hcan->RxFifo1FullCallback(hcan);
#else
      /* Call weak (surcharged) callback */
      HAL_CAN_RxFifo1FullCallback(hcan);
 80016bc:	6878      	ldr	r0, [r7, #4]
 80016be:	f000 f912 	bl	80018e6 <HAL_CAN_RxFifo1FullCallback>
#endif /* USE_HAL_CAN_REGISTER_CALLBACKS */
    }
  }

  /* Receive FIFO 1 message pending interrupt management *********************/
  if ((interrupts & CAN_IT_RX_FIFO1_MSG_PENDING) != 0U)
 80016c2:	6a3b      	ldr	r3, [r7, #32]
 80016c4:	f003 0310 	and.w	r3, r3, #16
 80016c8:	2b00      	cmp	r3, #0
 80016ca:	d009      	beq.n	80016e0 <HAL_CAN_IRQHandler+0x208>
  {
    /* Check if message is still pending */
    if ((hcan->Instance->RF1R & CAN_RF1R_FMP1) != 0U)
 80016cc:	687b      	ldr	r3, [r7, #4]
 80016ce:	681b      	ldr	r3, [r3, #0]
 80016d0:	691b      	ldr	r3, [r3, #16]
 80016d2:	f003 0303 	and.w	r3, r3, #3
 80016d6:	2b00      	cmp	r3, #0
 80016d8:	d002      	beq.n	80016e0 <HAL_CAN_IRQHandler+0x208>
#if USE_HAL_CAN_REGISTER_CALLBACKS == 1
      /* Call registered callback*/
      hcan->RxFifo1MsgPendingCallback(hcan);
#else
      /* Call weak (surcharged) callback */
      HAL_CAN_RxFifo1MsgPendingCallback(hcan);
 80016da:	6878      	ldr	r0, [r7, #4]
 80016dc:	f000 f8f9 	bl	80018d2 <HAL_CAN_RxFifo1MsgPendingCallback>
#endif /* USE_HAL_CAN_REGISTER_CALLBACKS */
    }
  }

  /* Sleep interrupt management *********************************************/
  if ((interrupts & CAN_IT_SLEEP_ACK) != 0U)
 80016e0:	6a3b      	ldr	r3, [r7, #32]
 80016e2:	f403 3300 	and.w	r3, r3, #131072	; 0x20000
 80016e6:	2b00      	cmp	r3, #0
 80016e8:	d00b      	beq.n	8001702 <HAL_CAN_IRQHandler+0x22a>
  {
    if ((msrflags & CAN_MSR_SLAKI) != 0U)
 80016ea:	69fb      	ldr	r3, [r7, #28]
 80016ec:	f003 0310 	and.w	r3, r3, #16
 80016f0:	2b00      	cmp	r3, #0
 80016f2:	d006      	beq.n	8001702 <HAL_CAN_IRQHandler+0x22a>
    {
      /* Clear Sleep interrupt Flag */
      __HAL_CAN_CLEAR_FLAG(hcan, CAN_FLAG_SLAKI);
 80016f4:	687b      	ldr	r3, [r7, #4]
 80016f6:	681b      	ldr	r3, [r3, #0]
 80016f8:	2210      	movs	r2, #16
 80016fa:	605a      	str	r2, [r3, #4]
#if USE_HAL_CAN_REGISTER_CALLBACKS == 1
      /* Call registered callback*/
      hcan->SleepCallback(hcan);
#else
      /* Call weak (surcharged) callback */
      HAL_CAN_SleepCallback(hcan);
 80016fc:	6878      	ldr	r0, [r7, #4]
 80016fe:	f000 f8fc 	bl	80018fa <HAL_CAN_SleepCallback>
#endif /* USE_HAL_CAN_REGISTER_CALLBACKS */
    }
  }

  /* WakeUp interrupt management *********************************************/
  if ((interrupts & CAN_IT_WAKEUP) != 0U)
 8001702:	6a3b      	ldr	r3, [r7, #32]
 8001704:	f403 3380 	and.w	r3, r3, #65536	; 0x10000
 8001708:	2b00      	cmp	r3, #0
 800170a:	d00b      	beq.n	8001724 <HAL_CAN_IRQHandler+0x24c>
  {
    if ((msrflags & CAN_MSR_WKUI) != 0U)
 800170c:	69fb      	ldr	r3, [r7, #28]
 800170e:	f003 0308 	and.w	r3, r3, #8
 8001712:	2b00      	cmp	r3, #0
 8001714:	d006      	beq.n	8001724 <HAL_CAN_IRQHandler+0x24c>
    {
      /* Clear WakeUp Flag */
      __HAL_CAN_CLEAR_FLAG(hcan, CAN_FLAG_WKU);
 8001716:	687b      	ldr	r3, [r7, #4]
 8001718:	681b      	ldr	r3, [r3, #0]
 800171a:	2208      	movs	r2, #8
 800171c:	605a      	str	r2, [r3, #4]
#if USE_HAL_CAN_REGISTER_CALLBACKS == 1
      /* Call registered callback*/
      hcan->WakeUpFromRxMsgCallback(hcan);
#else
      /* Call weak (surcharged) callback */
      HAL_CAN_WakeUpFromRxMsgCallback(hcan);
 800171e:	6878      	ldr	r0, [r7, #4]
 8001720:	f000 f8f5 	bl	800190e <HAL_CAN_WakeUpFromRxMsgCallback>
#endif /* USE_HAL_CAN_REGISTER_CALLBACKS */
    }
  }

  /* Error interrupts management *********************************************/
  if ((interrupts & CAN_IT_ERROR) != 0U)
 8001724:	6a3b      	ldr	r3, [r7, #32]
 8001726:	f403 4300 	and.w	r3, r3, #32768	; 0x8000
 800172a:	2b00      	cmp	r3, #0
 800172c:	d07b      	beq.n	8001826 <HAL_CAN_IRQHandler+0x34e>
  {
    if ((msrflags & CAN_MSR_ERRI) != 0U)
 800172e:	69fb      	ldr	r3, [r7, #28]
 8001730:	f003 0304 	and.w	r3, r3, #4
 8001734:	2b00      	cmp	r3, #0
 8001736:	d072      	beq.n	800181e <HAL_CAN_IRQHandler+0x346>
    {
      /* Check Error Warning Flag */
      if (((interrupts & CAN_IT_ERROR_WARNING) != 0U) &&
 8001738:	6a3b      	ldr	r3, [r7, #32]
 800173a:	f403 7380 	and.w	r3, r3, #256	; 0x100
 800173e:	2b00      	cmp	r3, #0
 8001740:	d008      	beq.n	8001754 <HAL_CAN_IRQHandler+0x27c>
          ((esrflags & CAN_ESR_EWGF) != 0U))
 8001742:	68fb      	ldr	r3, [r7, #12]
 8001744:	f003 0301 	and.w	r3, r3, #1
      if (((interrupts & CAN_IT_ERROR_WARNING) != 0U) &&
 8001748:	2b00      	cmp	r3, #0
 800174a:	d003      	beq.n	8001754 <HAL_CAN_IRQHandler+0x27c>
      {
        /* Set CAN error code to Error Warning */
        errorcode |= HAL_CAN_ERROR_EWG;
 800174c:	6a7b      	ldr	r3, [r7, #36]	; 0x24
 800174e:	f043 0301 	orr.w	r3, r3, #1
 8001752:	627b      	str	r3, [r7, #36]	; 0x24

        /* No need for clear of Error Warning Flag as read-only */
      }

      /* Check Error Passive Flag */
      if (((interrupts & CAN_IT_ERROR_PASSIVE) != 0U) &&
 8001754:	6a3b      	ldr	r3, [r7, #32]
 8001756:	f403 7300 	and.w	r3, r3, #512	; 0x200
 800175a:	2b00      	cmp	r3, #0
 800175c:	d008      	beq.n	8001770 <HAL_CAN_IRQHandler+0x298>
          ((esrflags & CAN_ESR_EPVF) != 0U))
 800175e:	68fb      	ldr	r3, [r7, #12]
 8001760:	f003 0302 	and.w	r3, r3, #2
      if (((interrupts & CAN_IT_ERROR_PASSIVE) != 0U) &&
 8001764:	2b00      	cmp	r3, #0
 8001766:	d003      	beq.n	8001770 <HAL_CAN_IRQHandler+0x298>
      {
        /* Set CAN error code to Error Passive */
        errorcode |= HAL_CAN_ERROR_EPV;
 8001768:	6a7b      	ldr	r3, [r7, #36]	; 0x24
 800176a:	f043 0302 	orr.w	r3, r3, #2
 800176e:	627b      	str	r3, [r7, #36]	; 0x24

        /* No need for clear of Error Passive Flag as read-only */
      }

      /* Check Bus-off Flag */
      if (((interrupts & CAN_IT_BUSOFF) != 0U) &&
 8001770:	6a3b      	ldr	r3, [r7, #32]
 8001772:	f403 6380 	and.w	r3, r3, #1024	; 0x400
 8001776:	2b00      	cmp	r3, #0
 8001778:	d008      	beq.n	800178c <HAL_CAN_IRQHandler+0x2b4>
          ((esrflags & CAN_ESR_BOFF) != 0U))
 800177a:	68fb      	ldr	r3, [r7, #12]
 800177c:	f003 0304 	and.w	r3, r3, #4
      if (((interrupts & CAN_IT_BUSOFF) != 0U) &&
 8001780:	2b00      	cmp	r3, #0
 8001782:	d003      	beq.n	800178c <HAL_CAN_IRQHandler+0x2b4>
      {
        /* Set CAN error code to Bus-Off */
        errorcode |= HAL_CAN_ERROR_BOF;
 8001784:	6a7b      	ldr	r3, [r7, #36]	; 0x24
 8001786:	f043 0304 	orr.w	r3, r3, #4
 800178a:	627b      	str	r3, [r7, #36]	; 0x24

        /* No need for clear of Error Bus-Off as read-only */
      }

      /* Check Last Error Code Flag */
      if (((interrupts & CAN_IT_LAST_ERROR_CODE) != 0U) &&
 800178c:	6a3b      	ldr	r3, [r7, #32]
 800178e:	f403 6300 	and.w	r3, r3, #2048	; 0x800
 8001792:	2b00      	cmp	r3, #0
 8001794:	d043      	beq.n	800181e <HAL_CAN_IRQHandler+0x346>
          ((esrflags & CAN_ESR_LEC) != 0U))
 8001796:	68fb      	ldr	r3, [r7, #12]
 8001798:	f003 0370 	and.w	r3, r3, #112	; 0x70
      if (((interrupts & CAN_IT_LAST_ERROR_CODE) != 0U) &&
 800179c:	2b00      	cmp	r3, #0
 800179e:	d03e      	beq.n	800181e <HAL_CAN_IRQHandler+0x346>
      {
        switch (esrflags & CAN_ESR_LEC)
 80017a0:	68fb      	ldr	r3, [r7, #12]
 80017a2:	f003 0370 	and.w	r3, r3, #112	; 0x70
 80017a6:	2b60      	cmp	r3, #96	; 0x60
 80017a8:	d02b      	beq.n	8001802 <HAL_CAN_IRQHandler+0x32a>
 80017aa:	2b60      	cmp	r3, #96	; 0x60
 80017ac:	d82e      	bhi.n	800180c <HAL_CAN_IRQHandler+0x334>
 80017ae:	2b50      	cmp	r3, #80	; 0x50
 80017b0:	d022      	beq.n	80017f8 <HAL_CAN_IRQHandler+0x320>
 80017b2:	2b50      	cmp	r3, #80	; 0x50
 80017b4:	d82a      	bhi.n	800180c <HAL_CAN_IRQHandler+0x334>
 80017b6:	2b40      	cmp	r3, #64	; 0x40
 80017b8:	d019      	beq.n	80017ee <HAL_CAN_IRQHandler+0x316>
 80017ba:	2b40      	cmp	r3, #64	; 0x40
 80017bc:	d826      	bhi.n	800180c <HAL_CAN_IRQHandler+0x334>
 80017be:	2b30      	cmp	r3, #48	; 0x30
 80017c0:	d010      	beq.n	80017e4 <HAL_CAN_IRQHandler+0x30c>
 80017c2:	2b30      	cmp	r3, #48	; 0x30
 80017c4:	d822      	bhi.n	800180c <HAL_CAN_IRQHandler+0x334>
 80017c6:	2b10      	cmp	r3, #16
 80017c8:	d002      	beq.n	80017d0 <HAL_CAN_IRQHandler+0x2f8>
 80017ca:	2b20      	cmp	r3, #32
 80017cc:	d005      	beq.n	80017da <HAL_CAN_IRQHandler+0x302>
          case (CAN_ESR_LEC_2 | CAN_ESR_LEC_1):
            /* Set CAN error code to CRC error */
            errorcode |= HAL_CAN_ERROR_CRC;
            break;
          default:
            break;
 80017ce:	e01d      	b.n	800180c <HAL_CAN_IRQHandler+0x334>
            errorcode |= HAL_CAN_ERROR_STF;
 80017d0:	6a7b      	ldr	r3, [r7, #36]	; 0x24
 80017d2:	f043 0308 	orr.w	r3, r3, #8
 80017d6:	627b      	str	r3, [r7, #36]	; 0x24
            break;
 80017d8:	e019      	b.n	800180e <HAL_CAN_IRQHandler+0x336>
            errorcode |= HAL_CAN_ERROR_FOR;
 80017da:	6a7b      	ldr	r3, [r7, #36]	; 0x24
 80017dc:	f043 0310 	orr.w	r3, r3, #16
 80017e0:	627b      	str	r3, [r7, #36]	; 0x24
            break;
 80017e2:	e014      	b.n	800180e <HAL_CAN_IRQHandler+0x336>
            errorcode |= HAL_CAN_ERROR_ACK;
 80017e4:	6a7b      	ldr	r3, [r7, #36]	; 0x24
 80017e6:	f043 0320 	orr.w	r3, r3, #32
 80017ea:	627b      	str	r3, [r7, #36]	; 0x24
            break;
 80017ec:	e00f      	b.n	800180e <HAL_CAN_IRQHandler+0x336>
            errorcode |= HAL_CAN_ERROR_BR;
 80017ee:	6a7b      	ldr	r3, [r7, #36]	; 0x24
 80017f0:	f043 0340 	orr.w	r3, r3, #64	; 0x40
 80017f4:	627b      	str	r3, [r7, #36]	; 0x24
            break;
 80017f6:	e00a      	b.n	800180e <HAL_CAN_IRQHandler+0x336>
            errorcode |= HAL_CAN_ERROR_BD;
 80017f8:	6a7b      	ldr	r3, [r7, #36]	; 0x24
 80017fa:	f043 0380 	orr.w	r3, r3, #128	; 0x80
 80017fe:	627b      	str	r3, [r7, #36]	; 0x24
            break;
 8001800:	e005      	b.n	800180e <HAL_CAN_IRQHandler+0x336>
            errorcode |= HAL_CAN_ERROR_CRC;
 8001802:	6a7b      	ldr	r3, [r7, #36]	; 0x24
 8001804:	f443 7380 	orr.w	r3, r3, #256	; 0x100
 8001808:	627b      	str	r3, [r7, #36]	; 0x24
            break;
 800180a:	e000      	b.n	800180e <HAL_CAN_IRQHandler+0x336>
            break;
 800180c:	bf00      	nop
        }

        /* Clear Last error code Flag */
        CLEAR_BIT(hcan->Instance->ESR, CAN_ESR_LEC);
 800180e:	687b      	ldr	r3, [r7, #4]
 8001810:	681b      	ldr	r3, [r3, #0]
 8001812:	699a      	ldr	r2, [r3, #24]
 8001814:	687b      	ldr	r3, [r7, #4]
 8001816:	681b      	ldr	r3, [r3, #0]
 8001818:	f022 0270 	bic.w	r2, r2, #112	; 0x70
 800181c:	619a      	str	r2, [r3, #24]
      }
    }

    /* Clear ERRI Flag */
    __HAL_CAN_CLEAR_FLAG(hcan, CAN_FLAG_ERRI);
 800181e:	687b      	ldr	r3, [r7, #4]
 8001820:	681b      	ldr	r3, [r3, #0]
 8001822:	2204      	movs	r2, #4
 8001824:	605a      	str	r2, [r3, #4]
  }

  /* Call the Error call Back in case of Errors */
  if (errorcode != HAL_CAN_ERROR_NONE)
 8001826:	6a7b      	ldr	r3, [r7, #36]	; 0x24
 8001828:	2b00      	cmp	r3, #0
 800182a:	d008      	beq.n	800183e <HAL_CAN_IRQHandler+0x366>
  {
    /* Update error code in handle */
    hcan->ErrorCode |= errorcode;
 800182c:	687b      	ldr	r3, [r7, #4]
 800182e:	6a5a      	ldr	r2, [r3, #36]	; 0x24
 8001830:	6a7b      	ldr	r3, [r7, #36]	; 0x24
 8001832:	431a      	orrs	r2, r3
 8001834:	687b      	ldr	r3, [r7, #4]
 8001836:	625a      	str	r2, [r3, #36]	; 0x24
#if USE_HAL_CAN_REGISTER_CALLBACKS == 1
    /* Call registered callback*/
    hcan->ErrorCallback(hcan);
#else
    /* Call weak (surcharged) callback */
    HAL_CAN_ErrorCallback(hcan);
 8001838:	6878      	ldr	r0, [r7, #4]
 800183a:	f000 f872 	bl	8001922 <HAL_CAN_ErrorCallback>
#endif /* USE_HAL_CAN_REGISTER_CALLBACKS */
  }
}
 800183e:	bf00      	nop
 8001840:	3728      	adds	r7, #40	; 0x28
 8001842:	46bd      	mov	sp, r7
 8001844:	bd80      	pop	{r7, pc}

08001846 <HAL_CAN_TxMailbox0CompleteCallback>:
  * @param  hcan pointer to a CAN_HandleTypeDef structure that contains
  *         the configuration information for the specified CAN.
  * @retval None
  */
__weak void HAL_CAN_TxMailbox0CompleteCallback(CAN_HandleTypeDef *hcan)
{
 8001846:	b480      	push	{r7}
 8001848:	b083      	sub	sp, #12
 800184a:	af00      	add	r7, sp, #0
 800184c:	6078      	str	r0, [r7, #4]

  /* NOTE : This function Should not be modified, when the callback is needed,
            the HAL_CAN_TxMailbox0CompleteCallback could be implemented in the
            user file
   */
}
 800184e:	bf00      	nop
 8001850:	370c      	adds	r7, #12
 8001852:	46bd      	mov	sp, r7
 8001854:	f85d 7b04 	ldr.w	r7, [sp], #4
 8001858:	4770      	bx	lr

0800185a <HAL_CAN_TxMailbox1CompleteCallback>:
  * @param  hcan pointer to a CAN_HandleTypeDef structure that contains
  *         the configuration information for the specified CAN.
  * @retval None
  */
__weak void HAL_CAN_TxMailbox1CompleteCallback(CAN_HandleTypeDef *hcan)
{
 800185a:	b480      	push	{r7}
 800185c:	b083      	sub	sp, #12
 800185e:	af00      	add	r7, sp, #0
 8001860:	6078      	str	r0, [r7, #4]

  /* NOTE : This function Should not be modified, when the callback is needed,
            the HAL_CAN_TxMailbox1CompleteCallback could be implemented in the
            user file
   */
}
 8001862:	bf00      	nop
 8001864:	370c      	adds	r7, #12
 8001866:	46bd      	mov	sp, r7
 8001868:	f85d 7b04 	ldr.w	r7, [sp], #4
 800186c:	4770      	bx	lr

0800186e <HAL_CAN_TxMailbox2CompleteCallback>:
  * @param  hcan pointer to a CAN_HandleTypeDef structure that contains
  *         the configuration information for the specified CAN.
  * @retval None
  */
__weak void HAL_CAN_TxMailbox2CompleteCallback(CAN_HandleTypeDef *hcan)
{
 800186e:	b480      	push	{r7}
 8001870:	b083      	sub	sp, #12
 8001872:	af00      	add	r7, sp, #0
 8001874:	6078      	str	r0, [r7, #4]

  /* NOTE : This function Should not be modified, when the callback is needed,
            the HAL_CAN_TxMailbox2CompleteCallback could be implemented in the
            user file
   */
}
 8001876:	bf00      	nop
 8001878:	370c      	adds	r7, #12
 800187a:	46bd      	mov	sp, r7
 800187c:	f85d 7b04 	ldr.w	r7, [sp], #4
 8001880:	4770      	bx	lr

08001882 <HAL_CAN_TxMailbox0AbortCallback>:
  * @param  hcan pointer to an CAN_HandleTypeDef structure that contains
  *         the configuration information for the specified CAN.
  * @retval None
  */
__weak void HAL_CAN_TxMailbox0AbortCallback(CAN_HandleTypeDef *hcan)
{
 8001882:	b480      	push	{r7}
 8001884:	b083      	sub	sp, #12
 8001886:	af00      	add	r7, sp, #0
 8001888:	6078      	str	r0, [r7, #4]

  /* NOTE : This function Should not be modified, when the callback is needed,
            the HAL_CAN_TxMailbox0AbortCallback could be implemented in the
            user file
   */
}
 800188a:	bf00      	nop
 800188c:	370c      	adds	r7, #12
 800188e:	46bd      	mov	sp, r7
 8001890:	f85d 7b04 	ldr.w	r7, [sp], #4
 8001894:	4770      	bx	lr

08001896 <HAL_CAN_TxMailbox1AbortCallback>:
  * @param  hcan pointer to an CAN_HandleTypeDef structure that contains
  *         the configuration information for the specified CAN.
  * @retval None
  */
__weak void HAL_CAN_TxMailbox1AbortCallback(CAN_HandleTypeDef *hcan)
{
 8001896:	b480      	push	{r7}
 8001898:	b083      	sub	sp, #12
 800189a:	af00      	add	r7, sp, #0
 800189c:	6078      	str	r0, [r7, #4]

  /* NOTE : This function Should not be modified, when the callback is needed,
            the HAL_CAN_TxMailbox1AbortCallback could be implemented in the
            user file
   */
}
 800189e:	bf00      	nop
 80018a0:	370c      	adds	r7, #12
 80018a2:	46bd      	mov	sp, r7
 80018a4:	f85d 7b04 	ldr.w	r7, [sp], #4
 80018a8:	4770      	bx	lr

080018aa <HAL_CAN_TxMailbox2AbortCallback>:
  * @param  hcan pointer to an CAN_HandleTypeDef structure that contains
  *         the configuration information for the specified CAN.
  * @retval None
  */
__weak void HAL_CAN_TxMailbox2AbortCallback(CAN_HandleTypeDef *hcan)
{
 80018aa:	b480      	push	{r7}
 80018ac:	b083      	sub	sp, #12
 80018ae:	af00      	add	r7, sp, #0
 80018b0:	6078      	str	r0, [r7, #4]

  /* NOTE : This function Should not be modified, when the callback is needed,
            the HAL_CAN_TxMailbox2AbortCallback could be implemented in the
            user file
   */
}
 80018b2:	bf00      	nop
 80018b4:	370c      	adds	r7, #12
 80018b6:	46bd      	mov	sp, r7
 80018b8:	f85d 7b04 	ldr.w	r7, [sp], #4
 80018bc:	4770      	bx	lr

080018be <HAL_CAN_RxFifo0FullCallback>:
  * @param  hcan pointer to a CAN_HandleTypeDef structure that contains
  *         the configuration information for the specified CAN.
  * @retval None
  */
__weak void HAL_CAN_RxFifo0FullCallback(CAN_HandleTypeDef *hcan)
{
 80018be:	b480      	push	{r7}
 80018c0:	b083      	sub	sp, #12
 80018c2:	af00      	add	r7, sp, #0
 80018c4:	6078      	str	r0, [r7, #4]

  /* NOTE : This function Should not be modified, when the callback is needed,
            the HAL_CAN_RxFifo0FullCallback could be implemented in the user
            file
   */
}
 80018c6:	bf00      	nop
 80018c8:	370c      	adds	r7, #12
 80018ca:	46bd      	mov	sp, r7
 80018cc:	f85d 7b04 	ldr.w	r7, [sp], #4
 80018d0:	4770      	bx	lr

080018d2 <HAL_CAN_RxFifo1MsgPendingCallback>:
  * @param  hcan pointer to a CAN_HandleTypeDef structure that contains
  *         the configuration information for the specified CAN.
  * @retval None
  */
__weak void HAL_CAN_RxFifo1MsgPendingCallback(CAN_HandleTypeDef *hcan)
{
 80018d2:	b480      	push	{r7}
 80018d4:	b083      	sub	sp, #12
 80018d6:	af00      	add	r7, sp, #0
 80018d8:	6078      	str	r0, [r7, #4]

  /* NOTE : This function Should not be modified, when the callback is needed,
            the HAL_CAN_RxFifo1MsgPendingCallback could be implemented in the
            user file
   */
}
 80018da:	bf00      	nop
 80018dc:	370c      	adds	r7, #12
 80018de:	46bd      	mov	sp, r7
 80018e0:	f85d 7b04 	ldr.w	r7, [sp], #4
 80018e4:	4770      	bx	lr

080018e6 <HAL_CAN_RxFifo1FullCallback>:
  * @param  hcan pointer to a CAN_HandleTypeDef structure that contains
  *         the configuration information for the specified CAN.
  * @retval None
  */
__weak void HAL_CAN_RxFifo1FullCallback(CAN_HandleTypeDef *hcan)
{
 80018e6:	b480      	push	{r7}
 80018e8:	b083      	sub	sp, #12
 80018ea:	af00      	add	r7, sp, #0
 80018ec:	6078      	str	r0, [r7, #4]

  /* NOTE : This function Should not be modified, when the callback is needed,
            the HAL_CAN_RxFifo1FullCallback could be implemented in the user
            file
   */
}
 80018ee:	bf00      	nop
 80018f0:	370c      	adds	r7, #12
 80018f2:	46bd      	mov	sp, r7
 80018f4:	f85d 7b04 	ldr.w	r7, [sp], #4
 80018f8:	4770      	bx	lr

080018fa <HAL_CAN_SleepCallback>:
  * @param  hcan pointer to a CAN_HandleTypeDef structure that contains
  *         the configuration information for the specified CAN.
  * @retval None
  */
__weak void HAL_CAN_SleepCallback(CAN_HandleTypeDef *hcan)
{
 80018fa:	b480      	push	{r7}
 80018fc:	b083      	sub	sp, #12
 80018fe:	af00      	add	r7, sp, #0
 8001900:	6078      	str	r0, [r7, #4]
  UNUSED(hcan);

  /* NOTE : This function Should not be modified, when the callback is needed,
            the HAL_CAN_SleepCallback could be implemented in the user file
   */
}
 8001902:	bf00      	nop
 8001904:	370c      	adds	r7, #12
 8001906:	46bd      	mov	sp, r7
 8001908:	f85d 7b04 	ldr.w	r7, [sp], #4
 800190c:	4770      	bx	lr

0800190e <HAL_CAN_WakeUpFromRxMsgCallback>:
  * @param  hcan pointer to a CAN_HandleTypeDef structure that contains
  *         the configuration information for the specified CAN.
  * @retval None
  */
__weak void HAL_CAN_WakeUpFromRxMsgCallback(CAN_HandleTypeDef *hcan)
{
 800190e:	b480      	push	{r7}
 8001910:	b083      	sub	sp, #12
 8001912:	af00      	add	r7, sp, #0
 8001914:	6078      	str	r0, [r7, #4]

  /* NOTE : This function Should not be modified, when the callback is needed,
            the HAL_CAN_WakeUpFromRxMsgCallback could be implemented in the
            user file
   */
}
 8001916:	bf00      	nop
 8001918:	370c      	adds	r7, #12
 800191a:	46bd      	mov	sp, r7
 800191c:	f85d 7b04 	ldr.w	r7, [sp], #4
 8001920:	4770      	bx	lr

08001922 <HAL_CAN_ErrorCallback>:
  * @param  hcan pointer to a CAN_HandleTypeDef structure that contains
  *         the configuration information for the specified CAN.
  * @retval None
  */
__weak void HAL_CAN_ErrorCallback(CAN_HandleTypeDef *hcan)
{
 8001922:	b480      	push	{r7}
 8001924:	b083      	sub	sp, #12
 8001926:	af00      	add	r7, sp, #0
 8001928:	6078      	str	r0, [r7, #4]
  UNUSED(hcan);

  /* NOTE : This function Should not be modified, when the callback is needed,
            the HAL_CAN_ErrorCallback could be implemented in the user file
   */
}
 800192a:	bf00      	nop
 800192c:	370c      	adds	r7, #12
 800192e:	46bd      	mov	sp, r7
 8001930:	f85d 7b04 	ldr.w	r7, [sp], #4
 8001934:	4770      	bx	lr
	...

08001938 <__NVIC_SetPriorityGrouping>:
           In case of a conflict between priority grouping and available
           priority bits (__NVIC_PRIO_BITS), the smallest possible priority group is set.
  \param [in]      PriorityGroup  Priority grouping field.
 */
__STATIC_INLINE void __NVIC_SetPriorityGrouping(uint32_t PriorityGroup)
{
 8001938:	b480      	push	{r7}
 800193a:	b085      	sub	sp, #20
 800193c:	af00      	add	r7, sp, #0
 800193e:	6078      	str	r0, [r7, #4]
  uint32_t reg_value;
  uint32_t PriorityGroupTmp = (PriorityGroup & (uint32_t)0x07UL);             /* only values 0..7 are used          */
 8001940:	687b      	ldr	r3, [r7, #4]
 8001942:	f003 0307 	and.w	r3, r3, #7
 8001946:	60fb      	str	r3, [r7, #12]

  reg_value  =  SCB->AIRCR;                                                   /* read old register configuration    */
 8001948:	4b0c      	ldr	r3, [pc, #48]	; (800197c <__NVIC_SetPriorityGrouping+0x44>)
 800194a:	68db      	ldr	r3, [r3, #12]
 800194c:	60bb      	str	r3, [r7, #8]
  reg_value &= ~((uint32_t)(SCB_AIRCR_VECTKEY_Msk | SCB_AIRCR_PRIGROUP_Msk)); /* clear bits to change               */
 800194e:	68ba      	ldr	r2, [r7, #8]
 8001950:	f64f 03ff 	movw	r3, #63743	; 0xf8ff
 8001954:	4013      	ands	r3, r2
 8001956:	60bb      	str	r3, [r7, #8]
  reg_value  =  (reg_value                                   |
                ((uint32_t)0x5FAUL << SCB_AIRCR_VECTKEY_Pos) |
                (PriorityGroupTmp << SCB_AIRCR_PRIGROUP_Pos)  );              /* Insert write key and priority group */
 8001958:	68fb      	ldr	r3, [r7, #12]
 800195a:	021a      	lsls	r2, r3, #8
                ((uint32_t)0x5FAUL << SCB_AIRCR_VECTKEY_Pos) |
 800195c:	68bb      	ldr	r3, [r7, #8]
 800195e:	4313      	orrs	r3, r2
  reg_value  =  (reg_value                                   |
 8001960:	f043 63bf 	orr.w	r3, r3, #100139008	; 0x5f80000
 8001964:	f443 3300 	orr.w	r3, r3, #131072	; 0x20000
 8001968:	60bb      	str	r3, [r7, #8]
  SCB->AIRCR =  reg_value;
 800196a:	4a04      	ldr	r2, [pc, #16]	; (800197c <__NVIC_SetPriorityGrouping+0x44>)
 800196c:	68bb      	ldr	r3, [r7, #8]
 800196e:	60d3      	str	r3, [r2, #12]
}
 8001970:	bf00      	nop
 8001972:	3714      	adds	r7, #20
 8001974:	46bd      	mov	sp, r7
 8001976:	f85d 7b04 	ldr.w	r7, [sp], #4
 800197a:	4770      	bx	lr
 800197c:	e000ed00 	.word	0xe000ed00

08001980 <__NVIC_GetPriorityGrouping>:
  \brief   Get Priority Grouping
  \details Reads the priority grouping field from the NVIC Interrupt Controller.
  \return                Priority grouping field (SCB->AIRCR [10:8] PRIGROUP field).
 */
__STATIC_INLINE uint32_t __NVIC_GetPriorityGrouping(void)
{
 8001980:	b480      	push	{r7}
 8001982:	af00      	add	r7, sp, #0
  return ((uint32_t)((SCB->AIRCR & SCB_AIRCR_PRIGROUP_Msk) >> SCB_AIRCR_PRIGROUP_Pos));
 8001984:	4b04      	ldr	r3, [pc, #16]	; (8001998 <__NVIC_GetPriorityGrouping+0x18>)
 8001986:	68db      	ldr	r3, [r3, #12]
 8001988:	0a1b      	lsrs	r3, r3, #8
 800198a:	f003 0307 	and.w	r3, r3, #7
}
 800198e:	4618      	mov	r0, r3
 8001990:	46bd      	mov	sp, r7
 8001992:	f85d 7b04 	ldr.w	r7, [sp], #4
 8001996:	4770      	bx	lr
 8001998:	e000ed00 	.word	0xe000ed00

0800199c <__NVIC_EnableIRQ>:
  \details Enables a device specific interrupt in the NVIC interrupt controller.
  \param [in]      IRQn  Device specific interrupt number.
  \note    IRQn must not be negative.
 */
__STATIC_INLINE void __NVIC_EnableIRQ(IRQn_Type IRQn)
{
 800199c:	b480      	push	{r7}
 800199e:	b083      	sub	sp, #12
 80019a0:	af00      	add	r7, sp, #0
 80019a2:	4603      	mov	r3, r0
 80019a4:	71fb      	strb	r3, [r7, #7]
  if ((int32_t)(IRQn) >= 0)
 80019a6:	f997 3007 	ldrsb.w	r3, [r7, #7]
 80019aa:	2b00      	cmp	r3, #0
 80019ac:	db0b      	blt.n	80019c6 <__NVIC_EnableIRQ+0x2a>
  {
    NVIC->ISER[(((uint32_t)IRQn) >> 5UL)] = (uint32_t)(1UL << (((uint32_t)IRQn) & 0x1FUL));
 80019ae:	79fb      	ldrb	r3, [r7, #7]
 80019b0:	f003 021f 	and.w	r2, r3, #31
 80019b4:	4907      	ldr	r1, [pc, #28]	; (80019d4 <__NVIC_EnableIRQ+0x38>)
 80019b6:	f997 3007 	ldrsb.w	r3, [r7, #7]
 80019ba:	095b      	lsrs	r3, r3, #5
 80019bc:	2001      	movs	r0, #1
 80019be:	fa00 f202 	lsl.w	r2, r0, r2
 80019c2:	f841 2023 	str.w	r2, [r1, r3, lsl #2]
  }
}
 80019c6:	bf00      	nop
 80019c8:	370c      	adds	r7, #12
 80019ca:	46bd      	mov	sp, r7
 80019cc:	f85d 7b04 	ldr.w	r7, [sp], #4
 80019d0:	4770      	bx	lr
 80019d2:	bf00      	nop
 80019d4:	e000e100 	.word	0xe000e100

080019d8 <__NVIC_SetPriority>:
  \param [in]      IRQn  Interrupt number.
  \param [in]  priority  Priority to set.
  \note    The priority cannot be set for every processor exception.
 */
__STATIC_INLINE void __NVIC_SetPriority(IRQn_Type IRQn, uint32_t priority)
{
 80019d8:	b480      	push	{r7}
 80019da:	b083      	sub	sp, #12
 80019dc:	af00      	add	r7, sp, #0
 80019de:	4603      	mov	r3, r0
 80019e0:	6039      	str	r1, [r7, #0]
 80019e2:	71fb      	strb	r3, [r7, #7]
  if ((int32_t)(IRQn) >= 0)
 80019e4:	f997 3007 	ldrsb.w	r3, [r7, #7]
 80019e8:	2b00      	cmp	r3, #0
 80019ea:	db0a      	blt.n	8001a02 <__NVIC_SetPriority+0x2a>
  {
    NVIC->IP[((uint32_t)IRQn)]               = (uint8_t)((priority << (8U - __NVIC_PRIO_BITS)) & (uint32_t)0xFFUL);
 80019ec:	683b      	ldr	r3, [r7, #0]
 80019ee:	b2da      	uxtb	r2, r3
 80019f0:	490c      	ldr	r1, [pc, #48]	; (8001a24 <__NVIC_SetPriority+0x4c>)
 80019f2:	f997 3007 	ldrsb.w	r3, [r7, #7]
 80019f6:	0112      	lsls	r2, r2, #4
 80019f8:	b2d2      	uxtb	r2, r2
 80019fa:	440b      	add	r3, r1
 80019fc:	f883 2300 	strb.w	r2, [r3, #768]	; 0x300
  }
  else
  {
    SCB->SHP[(((uint32_t)IRQn) & 0xFUL)-4UL] = (uint8_t)((priority << (8U - __NVIC_PRIO_BITS)) & (uint32_t)0xFFUL);
  }
}
 8001a00:	e00a      	b.n	8001a18 <__NVIC_SetPriority+0x40>
    SCB->SHP[(((uint32_t)IRQn) & 0xFUL)-4UL] = (uint8_t)((priority << (8U - __NVIC_PRIO_BITS)) & (uint32_t)0xFFUL);
 8001a02:	683b      	ldr	r3, [r7, #0]
 8001a04:	b2da      	uxtb	r2, r3
 8001a06:	4908      	ldr	r1, [pc, #32]	; (8001a28 <__NVIC_SetPriority+0x50>)
 8001a08:	79fb      	ldrb	r3, [r7, #7]
 8001a0a:	f003 030f 	and.w	r3, r3, #15
 8001a0e:	3b04      	subs	r3, #4
 8001a10:	0112      	lsls	r2, r2, #4
 8001a12:	b2d2      	uxtb	r2, r2
 8001a14:	440b      	add	r3, r1
 8001a16:	761a      	strb	r2, [r3, #24]
}
 8001a18:	bf00      	nop
 8001a1a:	370c      	adds	r7, #12
 8001a1c:	46bd      	mov	sp, r7
 8001a1e:	f85d 7b04 	ldr.w	r7, [sp], #4
 8001a22:	4770      	bx	lr
 8001a24:	e000e100 	.word	0xe000e100
 8001a28:	e000ed00 	.word	0xe000ed00

08001a2c <NVIC_EncodePriority>:
  \param [in]   PreemptPriority  Preemptive priority value (starting from 0).
  \param [in]       SubPriority  Subpriority value (starting from 0).
  \return                        Encoded priority. Value can be used in the function \ref NVIC_SetPriority().
 */
__STATIC_INLINE uint32_t NVIC_EncodePriority (uint32_t PriorityGroup, uint32_t PreemptPriority, uint32_t SubPriority)
{
 8001a2c:	b480      	push	{r7}
 8001a2e:	b089      	sub	sp, #36	; 0x24
 8001a30:	af00      	add	r7, sp, #0
 8001a32:	60f8      	str	r0, [r7, #12]
 8001a34:	60b9      	str	r1, [r7, #8]
 8001a36:	607a      	str	r2, [r7, #4]
  uint32_t PriorityGroupTmp = (PriorityGroup & (uint32_t)0x07UL);   /* only values 0..7 are used          */
 8001a38:	68fb      	ldr	r3, [r7, #12]
 8001a3a:	f003 0307 	and.w	r3, r3, #7
 8001a3e:	61fb      	str	r3, [r7, #28]
  uint32_t PreemptPriorityBits;
  uint32_t SubPriorityBits;

  PreemptPriorityBits = ((7UL - PriorityGroupTmp) > (uint32_t)(__NVIC_PRIO_BITS)) ? (uint32_t)(__NVIC_PRIO_BITS) : (uint32_t)(7UL - PriorityGroupTmp);
 8001a40:	69fb      	ldr	r3, [r7, #28]
 8001a42:	f1c3 0307 	rsb	r3, r3, #7
 8001a46:	2b04      	cmp	r3, #4
 8001a48:	bf28      	it	cs
 8001a4a:	2304      	movcs	r3, #4
 8001a4c:	61bb      	str	r3, [r7, #24]
  SubPriorityBits     = ((PriorityGroupTmp + (uint32_t)(__NVIC_PRIO_BITS)) < (uint32_t)7UL) ? (uint32_t)0UL : (uint32_t)((PriorityGroupTmp - 7UL) + (uint32_t)(__NVIC_PRIO_BITS));
 8001a4e:	69fb      	ldr	r3, [r7, #28]
 8001a50:	3304      	adds	r3, #4
 8001a52:	2b06      	cmp	r3, #6
 8001a54:	d902      	bls.n	8001a5c <NVIC_EncodePriority+0x30>
 8001a56:	69fb      	ldr	r3, [r7, #28]
 8001a58:	3b03      	subs	r3, #3
 8001a5a:	e000      	b.n	8001a5e <NVIC_EncodePriority+0x32>
 8001a5c:	2300      	movs	r3, #0
 8001a5e:	617b      	str	r3, [r7, #20]

  return (
           ((PreemptPriority & (uint32_t)((1UL << (PreemptPriorityBits)) - 1UL)) << SubPriorityBits) |
 8001a60:	f04f 32ff 	mov.w	r2, #4294967295	; 0xffffffff
 8001a64:	69bb      	ldr	r3, [r7, #24]
 8001a66:	fa02 f303 	lsl.w	r3, r2, r3
 8001a6a:	43da      	mvns	r2, r3
 8001a6c:	68bb      	ldr	r3, [r7, #8]
 8001a6e:	401a      	ands	r2, r3
 8001a70:	697b      	ldr	r3, [r7, #20]
 8001a72:	409a      	lsls	r2, r3
           ((SubPriority     & (uint32_t)((1UL << (SubPriorityBits    )) - 1UL)))
 8001a74:	f04f 31ff 	mov.w	r1, #4294967295	; 0xffffffff
 8001a78:	697b      	ldr	r3, [r7, #20]
 8001a7a:	fa01 f303 	lsl.w	r3, r1, r3
 8001a7e:	43d9      	mvns	r1, r3
 8001a80:	687b      	ldr	r3, [r7, #4]
 8001a82:	400b      	ands	r3, r1
           ((PreemptPriority & (uint32_t)((1UL << (PreemptPriorityBits)) - 1UL)) << SubPriorityBits) |
 8001a84:	4313      	orrs	r3, r2
         );
}
 8001a86:	4618      	mov	r0, r3
 8001a88:	3724      	adds	r7, #36	; 0x24
 8001a8a:	46bd      	mov	sp, r7
 8001a8c:	f85d 7b04 	ldr.w	r7, [sp], #4
 8001a90:	4770      	bx	lr
	...

08001a94 <SysTick_Config>:
  \note    When the variable <b>__Vendor_SysTickConfig</b> is set to 1, then the
           function <b>SysTick_Config</b> is not included. In this case, the file <b><i>device</i>.h</b>
           must contain a vendor-specific implementation of this function.
 */
__STATIC_INLINE uint32_t SysTick_Config(uint32_t ticks)
{
 8001a94:	b580      	push	{r7, lr}
 8001a96:	b082      	sub	sp, #8
 8001a98:	af00      	add	r7, sp, #0
 8001a9a:	6078      	str	r0, [r7, #4]
  if ((ticks - 1UL) > SysTick_LOAD_RELOAD_Msk)
 8001a9c:	687b      	ldr	r3, [r7, #4]
 8001a9e:	3b01      	subs	r3, #1
 8001aa0:	f1b3 7f80 	cmp.w	r3, #16777216	; 0x1000000
 8001aa4:	d301      	bcc.n	8001aaa <SysTick_Config+0x16>
  {
    return (1UL);                                                   /* Reload value impossible */
 8001aa6:	2301      	movs	r3, #1
 8001aa8:	e00f      	b.n	8001aca <SysTick_Config+0x36>
  }

  SysTick->LOAD  = (uint32_t)(ticks - 1UL);                         /* set reload register */
 8001aaa:	4a0a      	ldr	r2, [pc, #40]	; (8001ad4 <SysTick_Config+0x40>)
 8001aac:	687b      	ldr	r3, [r7, #4]
 8001aae:	3b01      	subs	r3, #1
 8001ab0:	6053      	str	r3, [r2, #4]
  NVIC_SetPriority (SysTick_IRQn, (1UL << __NVIC_PRIO_BITS) - 1UL); /* set Priority for Systick Interrupt */
 8001ab2:	210f      	movs	r1, #15
 8001ab4:	f04f 30ff 	mov.w	r0, #4294967295	; 0xffffffff
 8001ab8:	f7ff ff8e 	bl	80019d8 <__NVIC_SetPriority>
  SysTick->VAL   = 0UL;                                             /* Load the SysTick Counter Value */
 8001abc:	4b05      	ldr	r3, [pc, #20]	; (8001ad4 <SysTick_Config+0x40>)
 8001abe:	2200      	movs	r2, #0
 8001ac0:	609a      	str	r2, [r3, #8]
  SysTick->CTRL  = SysTick_CTRL_CLKSOURCE_Msk |
 8001ac2:	4b04      	ldr	r3, [pc, #16]	; (8001ad4 <SysTick_Config+0x40>)
 8001ac4:	2207      	movs	r2, #7
 8001ac6:	601a      	str	r2, [r3, #0]
                   SysTick_CTRL_TICKINT_Msk   |
                   SysTick_CTRL_ENABLE_Msk;                         /* Enable SysTick IRQ and SysTick Timer */
  return (0UL);                                                     /* Function successful */
 8001ac8:	2300      	movs	r3, #0
}
 8001aca:	4618      	mov	r0, r3
 8001acc:	3708      	adds	r7, #8
 8001ace:	46bd      	mov	sp, r7
 8001ad0:	bd80      	pop	{r7, pc}
 8001ad2:	bf00      	nop
 8001ad4:	e000e010 	.word	0xe000e010

08001ad8 <HAL_NVIC_SetPriorityGrouping>:
  * @note   When the NVIC_PriorityGroup_0 is selected, IRQ preemption is no more possible. 
  *         The pending IRQ priority will be managed only by the subpriority. 
  * @retval None
  */
void HAL_NVIC_SetPriorityGrouping(uint32_t PriorityGroup)
{
 8001ad8:	b580      	push	{r7, lr}
 8001ada:	b082      	sub	sp, #8
 8001adc:	af00      	add	r7, sp, #0
 8001ade:	6078      	str	r0, [r7, #4]
  /* Check the parameters */
  assert_param(IS_NVIC_PRIORITY_GROUP(PriorityGroup));
  
  /* Set the PRIGROUP[10:8] bits according to the PriorityGroup parameter value */
  NVIC_SetPriorityGrouping(PriorityGroup);
 8001ae0:	6878      	ldr	r0, [r7, #4]
 8001ae2:	f7ff ff29 	bl	8001938 <__NVIC_SetPriorityGrouping>
}
 8001ae6:	bf00      	nop
 8001ae8:	3708      	adds	r7, #8
 8001aea:	46bd      	mov	sp, r7
 8001aec:	bd80      	pop	{r7, pc}

08001aee <HAL_NVIC_SetPriority>:
  *         This parameter can be a value between 0 and 15
  *         A lower priority value indicates a higher priority.          
  * @retval None
  */
void HAL_NVIC_SetPriority(IRQn_Type IRQn, uint32_t PreemptPriority, uint32_t SubPriority)
{ 
 8001aee:	b580      	push	{r7, lr}
 8001af0:	b086      	sub	sp, #24
 8001af2:	af00      	add	r7, sp, #0
 8001af4:	4603      	mov	r3, r0
 8001af6:	60b9      	str	r1, [r7, #8]
 8001af8:	607a      	str	r2, [r7, #4]
 8001afa:	73fb      	strb	r3, [r7, #15]
  uint32_t prioritygroup = 0x00U;
 8001afc:	2300      	movs	r3, #0
 8001afe:	617b      	str	r3, [r7, #20]
  
  /* Check the parameters */
  assert_param(IS_NVIC_SUB_PRIORITY(SubPriority));
  assert_param(IS_NVIC_PREEMPTION_PRIORITY(PreemptPriority));
  
  prioritygroup = NVIC_GetPriorityGrouping();
 8001b00:	f7ff ff3e 	bl	8001980 <__NVIC_GetPriorityGrouping>
 8001b04:	6178      	str	r0, [r7, #20]
  
  NVIC_SetPriority(IRQn, NVIC_EncodePriority(prioritygroup, PreemptPriority, SubPriority));
 8001b06:	687a      	ldr	r2, [r7, #4]
 8001b08:	68b9      	ldr	r1, [r7, #8]
 8001b0a:	6978      	ldr	r0, [r7, #20]
 8001b0c:	f7ff ff8e 	bl	8001a2c <NVIC_EncodePriority>
 8001b10:	4602      	mov	r2, r0
 8001b12:	f997 300f 	ldrsb.w	r3, [r7, #15]
 8001b16:	4611      	mov	r1, r2
 8001b18:	4618      	mov	r0, r3
 8001b1a:	f7ff ff5d 	bl	80019d8 <__NVIC_SetPriority>
}
 8001b1e:	bf00      	nop
 8001b20:	3718      	adds	r7, #24
 8001b22:	46bd      	mov	sp, r7
 8001b24:	bd80      	pop	{r7, pc}

08001b26 <HAL_NVIC_EnableIRQ>:
  *         This parameter can be an enumerator of IRQn_Type enumeration
  *         (For the complete STM32 Devices IRQ Channels list, please refer to the appropriate CMSIS device file (stm32f4xxxx.h))
  * @retval None
  */
void HAL_NVIC_EnableIRQ(IRQn_Type IRQn)
{
 8001b26:	b580      	push	{r7, lr}
 8001b28:	b082      	sub	sp, #8
 8001b2a:	af00      	add	r7, sp, #0
 8001b2c:	4603      	mov	r3, r0
 8001b2e:	71fb      	strb	r3, [r7, #7]
  /* Check the parameters */
  assert_param(IS_NVIC_DEVICE_IRQ(IRQn));
  
  /* Enable interrupt */
  NVIC_EnableIRQ(IRQn);
 8001b30:	f997 3007 	ldrsb.w	r3, [r7, #7]
 8001b34:	4618      	mov	r0, r3
 8001b36:	f7ff ff31 	bl	800199c <__NVIC_EnableIRQ>
}
 8001b3a:	bf00      	nop
 8001b3c:	3708      	adds	r7, #8
 8001b3e:	46bd      	mov	sp, r7
 8001b40:	bd80      	pop	{r7, pc}

08001b42 <HAL_SYSTICK_Config>:
  * @param  TicksNumb Specifies the ticks Number of ticks between two interrupts.
  * @retval status:  - 0  Function succeeded.
  *                  - 1  Function failed.
  */
uint32_t HAL_SYSTICK_Config(uint32_t TicksNumb)
{
 8001b42:	b580      	push	{r7, lr}
 8001b44:	b082      	sub	sp, #8
 8001b46:	af00      	add	r7, sp, #0
 8001b48:	6078      	str	r0, [r7, #4]
   return SysTick_Config(TicksNumb);
 8001b4a:	6878      	ldr	r0, [r7, #4]
 8001b4c:	f7ff ffa2 	bl	8001a94 <SysTick_Config>
 8001b50:	4603      	mov	r3, r0
}
 8001b52:	4618      	mov	r0, r3
 8001b54:	3708      	adds	r7, #8
 8001b56:	46bd      	mov	sp, r7
 8001b58:	bd80      	pop	{r7, pc}
	...

08001b5c <HAL_GPIO_Init>:
  * @param  GPIO_Init pointer to a GPIO_InitTypeDef structure that contains
  *         the configuration information for the specified GPIO peripheral.
  * @retval None
  */
void HAL_GPIO_Init(GPIO_TypeDef  *GPIOx, GPIO_InitTypeDef *GPIO_Init)
{
 8001b5c:	b480      	push	{r7}
 8001b5e:	b089      	sub	sp, #36	; 0x24
 8001b60:	af00      	add	r7, sp, #0
 8001b62:	6078      	str	r0, [r7, #4]
 8001b64:	6039      	str	r1, [r7, #0]
  uint32_t position;
  uint32_t ioposition = 0x00U;
 8001b66:	2300      	movs	r3, #0
 8001b68:	617b      	str	r3, [r7, #20]
  uint32_t iocurrent = 0x00U;
 8001b6a:	2300      	movs	r3, #0
 8001b6c:	613b      	str	r3, [r7, #16]
  uint32_t temp = 0x00U;
 8001b6e:	2300      	movs	r3, #0
 8001b70:	61bb      	str	r3, [r7, #24]
  assert_param(IS_GPIO_ALL_INSTANCE(GPIOx));
  assert_param(IS_GPIO_PIN(GPIO_Init->Pin));
  assert_param(IS_GPIO_MODE(GPIO_Init->Mode));

  /* Configure the port pins */
  for(position = 0U; position < GPIO_NUMBER; position++)
 8001b72:	2300      	movs	r3, #0
 8001b74:	61fb      	str	r3, [r7, #28]
 8001b76:	e16b      	b.n	8001e50 <HAL_GPIO_Init+0x2f4>
  {
    /* Get the IO position */
    ioposition = 0x01U << position;
 8001b78:	2201      	movs	r2, #1
 8001b7a:	69fb      	ldr	r3, [r7, #28]
 8001b7c:	fa02 f303 	lsl.w	r3, r2, r3
 8001b80:	617b      	str	r3, [r7, #20]
    /* Get the current IO position */
    iocurrent = (uint32_t)(GPIO_Init->Pin) & ioposition;
 8001b82:	683b      	ldr	r3, [r7, #0]
 8001b84:	681b      	ldr	r3, [r3, #0]
 8001b86:	697a      	ldr	r2, [r7, #20]
 8001b88:	4013      	ands	r3, r2
 8001b8a:	613b      	str	r3, [r7, #16]

    if(iocurrent == ioposition)
 8001b8c:	693a      	ldr	r2, [r7, #16]
 8001b8e:	697b      	ldr	r3, [r7, #20]
 8001b90:	429a      	cmp	r2, r3
 8001b92:	f040 815a 	bne.w	8001e4a <HAL_GPIO_Init+0x2ee>
    {
      /*--------------------- GPIO Mode Configuration ------------------------*/
      /* In case of Output or Alternate function mode selection */
      if(((GPIO_Init->Mode & GPIO_MODE) == MODE_OUTPUT) || \
 8001b96:	683b      	ldr	r3, [r7, #0]
 8001b98:	685b      	ldr	r3, [r3, #4]
 8001b9a:	f003 0303 	and.w	r3, r3, #3
 8001b9e:	2b01      	cmp	r3, #1
 8001ba0:	d005      	beq.n	8001bae <HAL_GPIO_Init+0x52>
          (GPIO_Init->Mode & GPIO_MODE) == MODE_AF)
 8001ba2:	683b      	ldr	r3, [r7, #0]
 8001ba4:	685b      	ldr	r3, [r3, #4]
 8001ba6:	f003 0303 	and.w	r3, r3, #3
      if(((GPIO_Init->Mode & GPIO_MODE) == MODE_OUTPUT) || \
 8001baa:	2b02      	cmp	r3, #2
 8001bac:	d130      	bne.n	8001c10 <HAL_GPIO_Init+0xb4>
      {
        /* Check the Speed parameter */
        assert_param(IS_GPIO_SPEED(GPIO_Init->Speed));
        /* Configure the IO Speed */
        temp = GPIOx->OSPEEDR; 
 8001bae:	687b      	ldr	r3, [r7, #4]
 8001bb0:	689b      	ldr	r3, [r3, #8]
 8001bb2:	61bb      	str	r3, [r7, #24]
        temp &= ~(GPIO_OSPEEDER_OSPEEDR0 << (position * 2U));
 8001bb4:	69fb      	ldr	r3, [r7, #28]
 8001bb6:	005b      	lsls	r3, r3, #1
 8001bb8:	2203      	movs	r2, #3
 8001bba:	fa02 f303 	lsl.w	r3, r2, r3
 8001bbe:	43db      	mvns	r3, r3
 8001bc0:	69ba      	ldr	r2, [r7, #24]
 8001bc2:	4013      	ands	r3, r2
 8001bc4:	61bb      	str	r3, [r7, #24]
        temp |= (GPIO_Init->Speed << (position * 2U));
 8001bc6:	683b      	ldr	r3, [r7, #0]
 8001bc8:	68da      	ldr	r2, [r3, #12]
 8001bca:	69fb      	ldr	r3, [r7, #28]
 8001bcc:	005b      	lsls	r3, r3, #1
 8001bce:	fa02 f303 	lsl.w	r3, r2, r3
 8001bd2:	69ba      	ldr	r2, [r7, #24]
 8001bd4:	4313      	orrs	r3, r2
 8001bd6:	61bb      	str	r3, [r7, #24]
        GPIOx->OSPEEDR = temp;
 8001bd8:	687b      	ldr	r3, [r7, #4]
 8001bda:	69ba      	ldr	r2, [r7, #24]
 8001bdc:	609a      	str	r2, [r3, #8]

        /* Configure the IO Output Type */
        temp = GPIOx->OTYPER;
 8001bde:	687b      	ldr	r3, [r7, #4]
 8001be0:	685b      	ldr	r3, [r3, #4]
 8001be2:	61bb      	str	r3, [r7, #24]
        temp &= ~(GPIO_OTYPER_OT_0 << position) ;
 8001be4:	2201      	movs	r2, #1
 8001be6:	69fb      	ldr	r3, [r7, #28]
 8001be8:	fa02 f303 	lsl.w	r3, r2, r3
 8001bec:	43db      	mvns	r3, r3
 8001bee:	69ba      	ldr	r2, [r7, #24]
 8001bf0:	4013      	ands	r3, r2
 8001bf2:	61bb      	str	r3, [r7, #24]
        temp |= (((GPIO_Init->Mode & OUTPUT_TYPE) >> OUTPUT_TYPE_Pos) << position);
 8001bf4:	683b      	ldr	r3, [r7, #0]
 8001bf6:	685b      	ldr	r3, [r3, #4]
 8001bf8:	091b      	lsrs	r3, r3, #4
 8001bfa:	f003 0201 	and.w	r2, r3, #1
 8001bfe:	69fb      	ldr	r3, [r7, #28]
 8001c00:	fa02 f303 	lsl.w	r3, r2, r3
 8001c04:	69ba      	ldr	r2, [r7, #24]
 8001c06:	4313      	orrs	r3, r2
 8001c08:	61bb      	str	r3, [r7, #24]
        GPIOx->OTYPER = temp;
 8001c0a:	687b      	ldr	r3, [r7, #4]
 8001c0c:	69ba      	ldr	r2, [r7, #24]
 8001c0e:	605a      	str	r2, [r3, #4]
       }

      if((GPIO_Init->Mode & GPIO_MODE) != MODE_ANALOG)
 8001c10:	683b      	ldr	r3, [r7, #0]
 8001c12:	685b      	ldr	r3, [r3, #4]
 8001c14:	f003 0303 	and.w	r3, r3, #3
 8001c18:	2b03      	cmp	r3, #3
 8001c1a:	d017      	beq.n	8001c4c <HAL_GPIO_Init+0xf0>
      {
        /* Check the parameters */
        assert_param(IS_GPIO_PULL(GPIO_Init->Pull));
        
        /* Activate the Pull-up or Pull down resistor for the current IO */
        temp = GPIOx->PUPDR;
 8001c1c:	687b      	ldr	r3, [r7, #4]
 8001c1e:	68db      	ldr	r3, [r3, #12]
 8001c20:	61bb      	str	r3, [r7, #24]
        temp &= ~(GPIO_PUPDR_PUPDR0 << (position * 2U));
 8001c22:	69fb      	ldr	r3, [r7, #28]
 8001c24:	005b      	lsls	r3, r3, #1
 8001c26:	2203      	movs	r2, #3
 8001c28:	fa02 f303 	lsl.w	r3, r2, r3
 8001c2c:	43db      	mvns	r3, r3
 8001c2e:	69ba      	ldr	r2, [r7, #24]
 8001c30:	4013      	ands	r3, r2
 8001c32:	61bb      	str	r3, [r7, #24]
        temp |= ((GPIO_Init->Pull) << (position * 2U));
 8001c34:	683b      	ldr	r3, [r7, #0]
 8001c36:	689a      	ldr	r2, [r3, #8]
 8001c38:	69fb      	ldr	r3, [r7, #28]
 8001c3a:	005b      	lsls	r3, r3, #1
 8001c3c:	fa02 f303 	lsl.w	r3, r2, r3
 8001c40:	69ba      	ldr	r2, [r7, #24]
 8001c42:	4313      	orrs	r3, r2
 8001c44:	61bb      	str	r3, [r7, #24]
        GPIOx->PUPDR = temp;
 8001c46:	687b      	ldr	r3, [r7, #4]
 8001c48:	69ba      	ldr	r2, [r7, #24]
 8001c4a:	60da      	str	r2, [r3, #12]
      }

      /* In case of Alternate function mode selection */
      if((GPIO_Init->Mode & GPIO_MODE) == MODE_AF)
 8001c4c:	683b      	ldr	r3, [r7, #0]
 8001c4e:	685b      	ldr	r3, [r3, #4]
 8001c50:	f003 0303 	and.w	r3, r3, #3
 8001c54:	2b02      	cmp	r3, #2
 8001c56:	d123      	bne.n	8001ca0 <HAL_GPIO_Init+0x144>
      {
        /* Check the Alternate function parameter */
        assert_param(IS_GPIO_AF(GPIO_Init->Alternate));
        /* Configure Alternate function mapped with the current IO */
        temp = GPIOx->AFR[position >> 3U];
 8001c58:	69fb      	ldr	r3, [r7, #28]
 8001c5a:	08da      	lsrs	r2, r3, #3
 8001c5c:	687b      	ldr	r3, [r7, #4]
 8001c5e:	3208      	adds	r2, #8
 8001c60:	f853 3022 	ldr.w	r3, [r3, r2, lsl #2]
 8001c64:	61bb      	str	r3, [r7, #24]
        temp &= ~(0xFU << ((uint32_t)(position & 0x07U) * 4U)) ;
 8001c66:	69fb      	ldr	r3, [r7, #28]
 8001c68:	f003 0307 	and.w	r3, r3, #7
 8001c6c:	009b      	lsls	r3, r3, #2
 8001c6e:	220f      	movs	r2, #15
 8001c70:	fa02 f303 	lsl.w	r3, r2, r3
 8001c74:	43db      	mvns	r3, r3
 8001c76:	69ba      	ldr	r2, [r7, #24]
 8001c78:	4013      	ands	r3, r2
 8001c7a:	61bb      	str	r3, [r7, #24]
        temp |= ((uint32_t)(GPIO_Init->Alternate) << (((uint32_t)position & 0x07U) * 4U));
 8001c7c:	683b      	ldr	r3, [r7, #0]
 8001c7e:	691a      	ldr	r2, [r3, #16]
 8001c80:	69fb      	ldr	r3, [r7, #28]
 8001c82:	f003 0307 	and.w	r3, r3, #7
 8001c86:	009b      	lsls	r3, r3, #2
 8001c88:	fa02 f303 	lsl.w	r3, r2, r3
 8001c8c:	69ba      	ldr	r2, [r7, #24]
 8001c8e:	4313      	orrs	r3, r2
 8001c90:	61bb      	str	r3, [r7, #24]
        GPIOx->AFR[position >> 3U] = temp;
 8001c92:	69fb      	ldr	r3, [r7, #28]
 8001c94:	08da      	lsrs	r2, r3, #3
 8001c96:	687b      	ldr	r3, [r7, #4]
 8001c98:	3208      	adds	r2, #8
 8001c9a:	69b9      	ldr	r1, [r7, #24]
 8001c9c:	f843 1022 	str.w	r1, [r3, r2, lsl #2]
      }

      /* Configure IO Direction mode (Input, Output, Alternate or Analog) */
      temp = GPIOx->MODER;
 8001ca0:	687b      	ldr	r3, [r7, #4]
 8001ca2:	681b      	ldr	r3, [r3, #0]
 8001ca4:	61bb      	str	r3, [r7, #24]
      temp &= ~(GPIO_MODER_MODER0 << (position * 2U));
 8001ca6:	69fb      	ldr	r3, [r7, #28]
 8001ca8:	005b      	lsls	r3, r3, #1
 8001caa:	2203      	movs	r2, #3
 8001cac:	fa02 f303 	lsl.w	r3, r2, r3
 8001cb0:	43db      	mvns	r3, r3
 8001cb2:	69ba      	ldr	r2, [r7, #24]
 8001cb4:	4013      	ands	r3, r2
 8001cb6:	61bb      	str	r3, [r7, #24]
      temp |= ((GPIO_Init->Mode & GPIO_MODE) << (position * 2U));
 8001cb8:	683b      	ldr	r3, [r7, #0]
 8001cba:	685b      	ldr	r3, [r3, #4]
 8001cbc:	f003 0203 	and.w	r2, r3, #3
 8001cc0:	69fb      	ldr	r3, [r7, #28]
 8001cc2:	005b      	lsls	r3, r3, #1
 8001cc4:	fa02 f303 	lsl.w	r3, r2, r3
 8001cc8:	69ba      	ldr	r2, [r7, #24]
 8001cca:	4313      	orrs	r3, r2
 8001ccc:	61bb      	str	r3, [r7, #24]
      GPIOx->MODER = temp;
 8001cce:	687b      	ldr	r3, [r7, #4]
 8001cd0:	69ba      	ldr	r2, [r7, #24]
 8001cd2:	601a      	str	r2, [r3, #0]

      /*--------------------- EXTI Mode Configuration ------------------------*/
      /* Configure the External Interrupt or event for the current IO */
      if((GPIO_Init->Mode & EXTI_MODE) != 0x00U)
 8001cd4:	683b      	ldr	r3, [r7, #0]
 8001cd6:	685b      	ldr	r3, [r3, #4]
 8001cd8:	f403 3340 	and.w	r3, r3, #196608	; 0x30000
 8001cdc:	2b00      	cmp	r3, #0
 8001cde:	f000 80b4 	beq.w	8001e4a <HAL_GPIO_Init+0x2ee>
      {
        /* Enable SYSCFG Clock */
        __HAL_RCC_SYSCFG_CLK_ENABLE();
 8001ce2:	2300      	movs	r3, #0
 8001ce4:	60fb      	str	r3, [r7, #12]
 8001ce6:	4b60      	ldr	r3, [pc, #384]	; (8001e68 <HAL_GPIO_Init+0x30c>)
 8001ce8:	6c5b      	ldr	r3, [r3, #68]	; 0x44
 8001cea:	4a5f      	ldr	r2, [pc, #380]	; (8001e68 <HAL_GPIO_Init+0x30c>)
 8001cec:	f443 4380 	orr.w	r3, r3, #16384	; 0x4000
 8001cf0:	6453      	str	r3, [r2, #68]	; 0x44
 8001cf2:	4b5d      	ldr	r3, [pc, #372]	; (8001e68 <HAL_GPIO_Init+0x30c>)
 8001cf4:	6c5b      	ldr	r3, [r3, #68]	; 0x44
 8001cf6:	f403 4380 	and.w	r3, r3, #16384	; 0x4000
 8001cfa:	60fb      	str	r3, [r7, #12]
 8001cfc:	68fb      	ldr	r3, [r7, #12]

        temp = SYSCFG->EXTICR[position >> 2U];
 8001cfe:	4a5b      	ldr	r2, [pc, #364]	; (8001e6c <HAL_GPIO_Init+0x310>)
 8001d00:	69fb      	ldr	r3, [r7, #28]
 8001d02:	089b      	lsrs	r3, r3, #2
 8001d04:	3302      	adds	r3, #2
 8001d06:	f852 3023 	ldr.w	r3, [r2, r3, lsl #2]
 8001d0a:	61bb      	str	r3, [r7, #24]
        temp &= ~(0x0FU << (4U * (position & 0x03U)));
 8001d0c:	69fb      	ldr	r3, [r7, #28]
 8001d0e:	f003 0303 	and.w	r3, r3, #3
 8001d12:	009b      	lsls	r3, r3, #2
 8001d14:	220f      	movs	r2, #15
 8001d16:	fa02 f303 	lsl.w	r3, r2, r3
 8001d1a:	43db      	mvns	r3, r3
 8001d1c:	69ba      	ldr	r2, [r7, #24]
 8001d1e:	4013      	ands	r3, r2
 8001d20:	61bb      	str	r3, [r7, #24]
        temp |= ((uint32_t)(GPIO_GET_INDEX(GPIOx)) << (4U * (position & 0x03U)));
 8001d22:	687b      	ldr	r3, [r7, #4]
 8001d24:	4a52      	ldr	r2, [pc, #328]	; (8001e70 <HAL_GPIO_Init+0x314>)
 8001d26:	4293      	cmp	r3, r2
 8001d28:	d02b      	beq.n	8001d82 <HAL_GPIO_Init+0x226>
 8001d2a:	687b      	ldr	r3, [r7, #4]
 8001d2c:	4a51      	ldr	r2, [pc, #324]	; (8001e74 <HAL_GPIO_Init+0x318>)
 8001d2e:	4293      	cmp	r3, r2
 8001d30:	d025      	beq.n	8001d7e <HAL_GPIO_Init+0x222>
 8001d32:	687b      	ldr	r3, [r7, #4]
 8001d34:	4a50      	ldr	r2, [pc, #320]	; (8001e78 <HAL_GPIO_Init+0x31c>)
 8001d36:	4293      	cmp	r3, r2
 8001d38:	d01f      	beq.n	8001d7a <HAL_GPIO_Init+0x21e>
 8001d3a:	687b      	ldr	r3, [r7, #4]
 8001d3c:	4a4f      	ldr	r2, [pc, #316]	; (8001e7c <HAL_GPIO_Init+0x320>)
 8001d3e:	4293      	cmp	r3, r2
 8001d40:	d019      	beq.n	8001d76 <HAL_GPIO_Init+0x21a>
 8001d42:	687b      	ldr	r3, [r7, #4]
 8001d44:	4a4e      	ldr	r2, [pc, #312]	; (8001e80 <HAL_GPIO_Init+0x324>)
 8001d46:	4293      	cmp	r3, r2
 8001d48:	d013      	beq.n	8001d72 <HAL_GPIO_Init+0x216>
 8001d4a:	687b      	ldr	r3, [r7, #4]
 8001d4c:	4a4d      	ldr	r2, [pc, #308]	; (8001e84 <HAL_GPIO_Init+0x328>)
 8001d4e:	4293      	cmp	r3, r2
 8001d50:	d00d      	beq.n	8001d6e <HAL_GPIO_Init+0x212>
 8001d52:	687b      	ldr	r3, [r7, #4]
 8001d54:	4a4c      	ldr	r2, [pc, #304]	; (8001e88 <HAL_GPIO_Init+0x32c>)
 8001d56:	4293      	cmp	r3, r2
 8001d58:	d007      	beq.n	8001d6a <HAL_GPIO_Init+0x20e>
 8001d5a:	687b      	ldr	r3, [r7, #4]
 8001d5c:	4a4b      	ldr	r2, [pc, #300]	; (8001e8c <HAL_GPIO_Init+0x330>)
 8001d5e:	4293      	cmp	r3, r2
 8001d60:	d101      	bne.n	8001d66 <HAL_GPIO_Init+0x20a>
 8001d62:	2307      	movs	r3, #7
 8001d64:	e00e      	b.n	8001d84 <HAL_GPIO_Init+0x228>
 8001d66:	2308      	movs	r3, #8
 8001d68:	e00c      	b.n	8001d84 <HAL_GPIO_Init+0x228>
 8001d6a:	2306      	movs	r3, #6
 8001d6c:	e00a      	b.n	8001d84 <HAL_GPIO_Init+0x228>
 8001d6e:	2305      	movs	r3, #5
 8001d70:	e008      	b.n	8001d84 <HAL_GPIO_Init+0x228>
 8001d72:	2304      	movs	r3, #4
 8001d74:	e006      	b.n	8001d84 <HAL_GPIO_Init+0x228>
 8001d76:	2303      	movs	r3, #3
 8001d78:	e004      	b.n	8001d84 <HAL_GPIO_Init+0x228>
 8001d7a:	2302      	movs	r3, #2
 8001d7c:	e002      	b.n	8001d84 <HAL_GPIO_Init+0x228>
 8001d7e:	2301      	movs	r3, #1
 8001d80:	e000      	b.n	8001d84 <HAL_GPIO_Init+0x228>
 8001d82:	2300      	movs	r3, #0
 8001d84:	69fa      	ldr	r2, [r7, #28]
 8001d86:	f002 0203 	and.w	r2, r2, #3
 8001d8a:	0092      	lsls	r2, r2, #2
 8001d8c:	4093      	lsls	r3, r2
 8001d8e:	69ba      	ldr	r2, [r7, #24]
 8001d90:	4313      	orrs	r3, r2
 8001d92:	61bb      	str	r3, [r7, #24]
        SYSCFG->EXTICR[position >> 2U] = temp;
 8001d94:	4935      	ldr	r1, [pc, #212]	; (8001e6c <HAL_GPIO_Init+0x310>)
 8001d96:	69fb      	ldr	r3, [r7, #28]
 8001d98:	089b      	lsrs	r3, r3, #2
 8001d9a:	3302      	adds	r3, #2
 8001d9c:	69ba      	ldr	r2, [r7, #24]
 8001d9e:	f841 2023 	str.w	r2, [r1, r3, lsl #2]

        /* Clear Rising Falling edge configuration */
        temp = EXTI->RTSR;
 8001da2:	4b3b      	ldr	r3, [pc, #236]	; (8001e90 <HAL_GPIO_Init+0x334>)
 8001da4:	689b      	ldr	r3, [r3, #8]
 8001da6:	61bb      	str	r3, [r7, #24]
        temp &= ~((uint32_t)iocurrent);
 8001da8:	693b      	ldr	r3, [r7, #16]
 8001daa:	43db      	mvns	r3, r3
 8001dac:	69ba      	ldr	r2, [r7, #24]
 8001dae:	4013      	ands	r3, r2
 8001db0:	61bb      	str	r3, [r7, #24]
        if((GPIO_Init->Mode & TRIGGER_RISING) != 0x00U)
 8001db2:	683b      	ldr	r3, [r7, #0]
 8001db4:	685b      	ldr	r3, [r3, #4]
 8001db6:	f403 1380 	and.w	r3, r3, #1048576	; 0x100000
 8001dba:	2b00      	cmp	r3, #0
 8001dbc:	d003      	beq.n	8001dc6 <HAL_GPIO_Init+0x26a>
        {
          temp |= iocurrent;
 8001dbe:	69ba      	ldr	r2, [r7, #24]
 8001dc0:	693b      	ldr	r3, [r7, #16]
 8001dc2:	4313      	orrs	r3, r2
 8001dc4:	61bb      	str	r3, [r7, #24]
        }
        EXTI->RTSR = temp;
 8001dc6:	4a32      	ldr	r2, [pc, #200]	; (8001e90 <HAL_GPIO_Init+0x334>)
 8001dc8:	69bb      	ldr	r3, [r7, #24]
 8001dca:	6093      	str	r3, [r2, #8]

        temp = EXTI->FTSR;
 8001dcc:	4b30      	ldr	r3, [pc, #192]	; (8001e90 <HAL_GPIO_Init+0x334>)
 8001dce:	68db      	ldr	r3, [r3, #12]
 8001dd0:	61bb      	str	r3, [r7, #24]
        temp &= ~((uint32_t)iocurrent);
 8001dd2:	693b      	ldr	r3, [r7, #16]
 8001dd4:	43db      	mvns	r3, r3
 8001dd6:	69ba      	ldr	r2, [r7, #24]
 8001dd8:	4013      	ands	r3, r2
 8001dda:	61bb      	str	r3, [r7, #24]
        if((GPIO_Init->Mode & TRIGGER_FALLING) != 0x00U)
 8001ddc:	683b      	ldr	r3, [r7, #0]
 8001dde:	685b      	ldr	r3, [r3, #4]
 8001de0:	f403 1300 	and.w	r3, r3, #2097152	; 0x200000
 8001de4:	2b00      	cmp	r3, #0
 8001de6:	d003      	beq.n	8001df0 <HAL_GPIO_Init+0x294>
        {
          temp |= iocurrent;
 8001de8:	69ba      	ldr	r2, [r7, #24]
 8001dea:	693b      	ldr	r3, [r7, #16]
 8001dec:	4313      	orrs	r3, r2
 8001dee:	61bb      	str	r3, [r7, #24]
        }
        EXTI->FTSR = temp;
 8001df0:	4a27      	ldr	r2, [pc, #156]	; (8001e90 <HAL_GPIO_Init+0x334>)
 8001df2:	69bb      	ldr	r3, [r7, #24]
 8001df4:	60d3      	str	r3, [r2, #12]

        temp = EXTI->EMR;
 8001df6:	4b26      	ldr	r3, [pc, #152]	; (8001e90 <HAL_GPIO_Init+0x334>)
 8001df8:	685b      	ldr	r3, [r3, #4]
 8001dfa:	61bb      	str	r3, [r7, #24]
        temp &= ~((uint32_t)iocurrent);
 8001dfc:	693b      	ldr	r3, [r7, #16]
 8001dfe:	43db      	mvns	r3, r3
 8001e00:	69ba      	ldr	r2, [r7, #24]
 8001e02:	4013      	ands	r3, r2
 8001e04:	61bb      	str	r3, [r7, #24]
        if((GPIO_Init->Mode & EXTI_EVT) != 0x00U)
 8001e06:	683b      	ldr	r3, [r7, #0]
 8001e08:	685b      	ldr	r3, [r3, #4]
 8001e0a:	f403 3300 	and.w	r3, r3, #131072	; 0x20000
 8001e0e:	2b00      	cmp	r3, #0
 8001e10:	d003      	beq.n	8001e1a <HAL_GPIO_Init+0x2be>
        {
          temp |= iocurrent;
 8001e12:	69ba      	ldr	r2, [r7, #24]
 8001e14:	693b      	ldr	r3, [r7, #16]
 8001e16:	4313      	orrs	r3, r2
 8001e18:	61bb      	str	r3, [r7, #24]
        }
        EXTI->EMR = temp;
 8001e1a:	4a1d      	ldr	r2, [pc, #116]	; (8001e90 <HAL_GPIO_Init+0x334>)
 8001e1c:	69bb      	ldr	r3, [r7, #24]
 8001e1e:	6053      	str	r3, [r2, #4]

        /* Clear EXTI line configuration */
        temp = EXTI->IMR;
 8001e20:	4b1b      	ldr	r3, [pc, #108]	; (8001e90 <HAL_GPIO_Init+0x334>)
 8001e22:	681b      	ldr	r3, [r3, #0]
 8001e24:	61bb      	str	r3, [r7, #24]
        temp &= ~((uint32_t)iocurrent);
 8001e26:	693b      	ldr	r3, [r7, #16]
 8001e28:	43db      	mvns	r3, r3
 8001e2a:	69ba      	ldr	r2, [r7, #24]
 8001e2c:	4013      	ands	r3, r2
 8001e2e:	61bb      	str	r3, [r7, #24]
        if((GPIO_Init->Mode & EXTI_IT) != 0x00U)
 8001e30:	683b      	ldr	r3, [r7, #0]
 8001e32:	685b      	ldr	r3, [r3, #4]
 8001e34:	f403 3380 	and.w	r3, r3, #65536	; 0x10000
 8001e38:	2b00      	cmp	r3, #0
 8001e3a:	d003      	beq.n	8001e44 <HAL_GPIO_Init+0x2e8>
        {
          temp |= iocurrent;
 8001e3c:	69ba      	ldr	r2, [r7, #24]
 8001e3e:	693b      	ldr	r3, [r7, #16]
 8001e40:	4313      	orrs	r3, r2
 8001e42:	61bb      	str	r3, [r7, #24]
        }
        EXTI->IMR = temp;
 8001e44:	4a12      	ldr	r2, [pc, #72]	; (8001e90 <HAL_GPIO_Init+0x334>)
 8001e46:	69bb      	ldr	r3, [r7, #24]
 8001e48:	6013      	str	r3, [r2, #0]
  for(position = 0U; position < GPIO_NUMBER; position++)
 8001e4a:	69fb      	ldr	r3, [r7, #28]
 8001e4c:	3301      	adds	r3, #1
 8001e4e:	61fb      	str	r3, [r7, #28]
 8001e50:	69fb      	ldr	r3, [r7, #28]
 8001e52:	2b0f      	cmp	r3, #15
 8001e54:	f67f ae90 	bls.w	8001b78 <HAL_GPIO_Init+0x1c>
      }
    }
  }
}
 8001e58:	bf00      	nop
 8001e5a:	bf00      	nop
 8001e5c:	3724      	adds	r7, #36	; 0x24
 8001e5e:	46bd      	mov	sp, r7
 8001e60:	f85d 7b04 	ldr.w	r7, [sp], #4
 8001e64:	4770      	bx	lr
 8001e66:	bf00      	nop
 8001e68:	40023800 	.word	0x40023800
 8001e6c:	40013800 	.word	0x40013800
 8001e70:	40020000 	.word	0x40020000
 8001e74:	40020400 	.word	0x40020400
 8001e78:	40020800 	.word	0x40020800
 8001e7c:	40020c00 	.word	0x40020c00
 8001e80:	40021000 	.word	0x40021000
 8001e84:	40021400 	.word	0x40021400
 8001e88:	40021800 	.word	0x40021800
 8001e8c:	40021c00 	.word	0x40021c00
 8001e90:	40013c00 	.word	0x40013c00

08001e94 <HAL_GPIO_WritePin>:
  *            @arg GPIO_PIN_RESET: to clear the port pin
  *            @arg GPIO_PIN_SET: to set the port pin
  * @retval None
  */
void HAL_GPIO_WritePin(GPIO_TypeDef* GPIOx, uint16_t GPIO_Pin, GPIO_PinState PinState)
{
 8001e94:	b480      	push	{r7}
 8001e96:	b083      	sub	sp, #12
 8001e98:	af00      	add	r7, sp, #0
 8001e9a:	6078      	str	r0, [r7, #4]
 8001e9c:	460b      	mov	r3, r1
 8001e9e:	807b      	strh	r3, [r7, #2]
 8001ea0:	4613      	mov	r3, r2
 8001ea2:	707b      	strb	r3, [r7, #1]
  /* Check the parameters */
  assert_param(IS_GPIO_PIN(GPIO_Pin));
  assert_param(IS_GPIO_PIN_ACTION(PinState));

  if(PinState != GPIO_PIN_RESET)
 8001ea4:	787b      	ldrb	r3, [r7, #1]
 8001ea6:	2b00      	cmp	r3, #0
 8001ea8:	d003      	beq.n	8001eb2 <HAL_GPIO_WritePin+0x1e>
  {
    GPIOx->BSRR = GPIO_Pin;
 8001eaa:	887a      	ldrh	r2, [r7, #2]
 8001eac:	687b      	ldr	r3, [r7, #4]
 8001eae:	619a      	str	r2, [r3, #24]
  }
  else
  {
    GPIOx->BSRR = (uint32_t)GPIO_Pin << 16U;
  }
}
 8001eb0:	e003      	b.n	8001eba <HAL_GPIO_WritePin+0x26>
    GPIOx->BSRR = (uint32_t)GPIO_Pin << 16U;
 8001eb2:	887b      	ldrh	r3, [r7, #2]
 8001eb4:	041a      	lsls	r2, r3, #16
 8001eb6:	687b      	ldr	r3, [r7, #4]
 8001eb8:	619a      	str	r2, [r3, #24]
}
 8001eba:	bf00      	nop
 8001ebc:	370c      	adds	r7, #12
 8001ebe:	46bd      	mov	sp, r7
 8001ec0:	f85d 7b04 	ldr.w	r7, [sp], #4
 8001ec4:	4770      	bx	lr
	...

08001ec8 <HAL_RCC_OscConfig>:
  *         supported by this API. User should request a transition to HSE Off
  *         first and then HSE On or HSE Bypass.
  * @retval HAL status
  */
__weak HAL_StatusTypeDef HAL_RCC_OscConfig(RCC_OscInitTypeDef  *RCC_OscInitStruct)
{
 8001ec8:	b580      	push	{r7, lr}
 8001eca:	b086      	sub	sp, #24
 8001ecc:	af00      	add	r7, sp, #0
 8001ece:	6078      	str	r0, [r7, #4]
  uint32_t tickstart, pll_config;

  /* Check Null pointer */
  if(RCC_OscInitStruct == NULL)
 8001ed0:	687b      	ldr	r3, [r7, #4]
 8001ed2:	2b00      	cmp	r3, #0
 8001ed4:	d101      	bne.n	8001eda <HAL_RCC_OscConfig+0x12>
  {
    return HAL_ERROR;
 8001ed6:	2301      	movs	r3, #1
 8001ed8:	e267      	b.n	80023aa <HAL_RCC_OscConfig+0x4e2>
  }

  /* Check the parameters */
  assert_param(IS_RCC_OSCILLATORTYPE(RCC_OscInitStruct->OscillatorType));
  /*------------------------------- HSE Configuration ------------------------*/
  if(((RCC_OscInitStruct->OscillatorType) & RCC_OSCILLATORTYPE_HSE) == RCC_OSCILLATORTYPE_HSE)
 8001eda:	687b      	ldr	r3, [r7, #4]
 8001edc:	681b      	ldr	r3, [r3, #0]
 8001ede:	f003 0301 	and.w	r3, r3, #1
 8001ee2:	2b00      	cmp	r3, #0
 8001ee4:	d075      	beq.n	8001fd2 <HAL_RCC_OscConfig+0x10a>
  {
    /* Check the parameters */
    assert_param(IS_RCC_HSE(RCC_OscInitStruct->HSEState));
    /* When the HSE is used as system clock or clock source for PLL in these cases HSE will not disabled */
    if((__HAL_RCC_GET_SYSCLK_SOURCE() == RCC_CFGR_SWS_HSE) ||\
 8001ee6:	4b88      	ldr	r3, [pc, #544]	; (8002108 <HAL_RCC_OscConfig+0x240>)
 8001ee8:	689b      	ldr	r3, [r3, #8]
 8001eea:	f003 030c 	and.w	r3, r3, #12
 8001eee:	2b04      	cmp	r3, #4
 8001ef0:	d00c      	beq.n	8001f0c <HAL_RCC_OscConfig+0x44>
      ((__HAL_RCC_GET_SYSCLK_SOURCE() == RCC_CFGR_SWS_PLL) && ((RCC->PLLCFGR & RCC_PLLCFGR_PLLSRC) == RCC_PLLCFGR_PLLSRC_HSE)))
 8001ef2:	4b85      	ldr	r3, [pc, #532]	; (8002108 <HAL_RCC_OscConfig+0x240>)
 8001ef4:	689b      	ldr	r3, [r3, #8]
 8001ef6:	f003 030c 	and.w	r3, r3, #12
    if((__HAL_RCC_GET_SYSCLK_SOURCE() == RCC_CFGR_SWS_HSE) ||\
 8001efa:	2b08      	cmp	r3, #8
 8001efc:	d112      	bne.n	8001f24 <HAL_RCC_OscConfig+0x5c>
      ((__HAL_RCC_GET_SYSCLK_SOURCE() == RCC_CFGR_SWS_PLL) && ((RCC->PLLCFGR & RCC_PLLCFGR_PLLSRC) == RCC_PLLCFGR_PLLSRC_HSE)))
 8001efe:	4b82      	ldr	r3, [pc, #520]	; (8002108 <HAL_RCC_OscConfig+0x240>)
 8001f00:	685b      	ldr	r3, [r3, #4]
 8001f02:	f403 0380 	and.w	r3, r3, #4194304	; 0x400000
 8001f06:	f5b3 0f80 	cmp.w	r3, #4194304	; 0x400000
 8001f0a:	d10b      	bne.n	8001f24 <HAL_RCC_OscConfig+0x5c>
    {
      if((__HAL_RCC_GET_FLAG(RCC_FLAG_HSERDY) != RESET) && (RCC_OscInitStruct->HSEState == RCC_HSE_OFF))
 8001f0c:	4b7e      	ldr	r3, [pc, #504]	; (8002108 <HAL_RCC_OscConfig+0x240>)
 8001f0e:	681b      	ldr	r3, [r3, #0]
 8001f10:	f403 3300 	and.w	r3, r3, #131072	; 0x20000
 8001f14:	2b00      	cmp	r3, #0
 8001f16:	d05b      	beq.n	8001fd0 <HAL_RCC_OscConfig+0x108>
 8001f18:	687b      	ldr	r3, [r7, #4]
 8001f1a:	685b      	ldr	r3, [r3, #4]
 8001f1c:	2b00      	cmp	r3, #0
 8001f1e:	d157      	bne.n	8001fd0 <HAL_RCC_OscConfig+0x108>
      {
        return HAL_ERROR;
 8001f20:	2301      	movs	r3, #1
 8001f22:	e242      	b.n	80023aa <HAL_RCC_OscConfig+0x4e2>
      }
    }
    else
    {
      /* Set the new HSE configuration ---------------------------------------*/
      __HAL_RCC_HSE_CONFIG(RCC_OscInitStruct->HSEState);
 8001f24:	687b      	ldr	r3, [r7, #4]
 8001f26:	685b      	ldr	r3, [r3, #4]
 8001f28:	f5b3 3f80 	cmp.w	r3, #65536	; 0x10000
 8001f2c:	d106      	bne.n	8001f3c <HAL_RCC_OscConfig+0x74>
 8001f2e:	4b76      	ldr	r3, [pc, #472]	; (8002108 <HAL_RCC_OscConfig+0x240>)
 8001f30:	681b      	ldr	r3, [r3, #0]
 8001f32:	4a75      	ldr	r2, [pc, #468]	; (8002108 <HAL_RCC_OscConfig+0x240>)
 8001f34:	f443 3380 	orr.w	r3, r3, #65536	; 0x10000
 8001f38:	6013      	str	r3, [r2, #0]
 8001f3a:	e01d      	b.n	8001f78 <HAL_RCC_OscConfig+0xb0>
 8001f3c:	687b      	ldr	r3, [r7, #4]
 8001f3e:	685b      	ldr	r3, [r3, #4]
 8001f40:	f5b3 2fa0 	cmp.w	r3, #327680	; 0x50000
 8001f44:	d10c      	bne.n	8001f60 <HAL_RCC_OscConfig+0x98>
 8001f46:	4b70      	ldr	r3, [pc, #448]	; (8002108 <HAL_RCC_OscConfig+0x240>)
 8001f48:	681b      	ldr	r3, [r3, #0]
 8001f4a:	4a6f      	ldr	r2, [pc, #444]	; (8002108 <HAL_RCC_OscConfig+0x240>)
 8001f4c:	f443 2380 	orr.w	r3, r3, #262144	; 0x40000
 8001f50:	6013      	str	r3, [r2, #0]
 8001f52:	4b6d      	ldr	r3, [pc, #436]	; (8002108 <HAL_RCC_OscConfig+0x240>)
 8001f54:	681b      	ldr	r3, [r3, #0]
 8001f56:	4a6c      	ldr	r2, [pc, #432]	; (8002108 <HAL_RCC_OscConfig+0x240>)
 8001f58:	f443 3380 	orr.w	r3, r3, #65536	; 0x10000
 8001f5c:	6013      	str	r3, [r2, #0]
 8001f5e:	e00b      	b.n	8001f78 <HAL_RCC_OscConfig+0xb0>
 8001f60:	4b69      	ldr	r3, [pc, #420]	; (8002108 <HAL_RCC_OscConfig+0x240>)
 8001f62:	681b      	ldr	r3, [r3, #0]
 8001f64:	4a68      	ldr	r2, [pc, #416]	; (8002108 <HAL_RCC_OscConfig+0x240>)
 8001f66:	f423 3380 	bic.w	r3, r3, #65536	; 0x10000
 8001f6a:	6013      	str	r3, [r2, #0]
 8001f6c:	4b66      	ldr	r3, [pc, #408]	; (8002108 <HAL_RCC_OscConfig+0x240>)
 8001f6e:	681b      	ldr	r3, [r3, #0]
 8001f70:	4a65      	ldr	r2, [pc, #404]	; (8002108 <HAL_RCC_OscConfig+0x240>)
 8001f72:	f423 2380 	bic.w	r3, r3, #262144	; 0x40000
 8001f76:	6013      	str	r3, [r2, #0]

      /* Check the HSE State */
      if((RCC_OscInitStruct->HSEState) != RCC_HSE_OFF)
 8001f78:	687b      	ldr	r3, [r7, #4]
 8001f7a:	685b      	ldr	r3, [r3, #4]
 8001f7c:	2b00      	cmp	r3, #0
 8001f7e:	d013      	beq.n	8001fa8 <HAL_RCC_OscConfig+0xe0>
      {
        /* Get Start Tick */
        tickstart = HAL_GetTick();
 8001f80:	f7fe ff22 	bl	8000dc8 <HAL_GetTick>
 8001f84:	6138      	str	r0, [r7, #16]

        /* Wait till HSE is ready */
        while(__HAL_RCC_GET_FLAG(RCC_FLAG_HSERDY) == RESET)
 8001f86:	e008      	b.n	8001f9a <HAL_RCC_OscConfig+0xd2>
        {
          if((HAL_GetTick() - tickstart ) > HSE_TIMEOUT_VALUE)
 8001f88:	f7fe ff1e 	bl	8000dc8 <HAL_GetTick>
 8001f8c:	4602      	mov	r2, r0
 8001f8e:	693b      	ldr	r3, [r7, #16]
 8001f90:	1ad3      	subs	r3, r2, r3
 8001f92:	2b64      	cmp	r3, #100	; 0x64
 8001f94:	d901      	bls.n	8001f9a <HAL_RCC_OscConfig+0xd2>
          {
            return HAL_TIMEOUT;
 8001f96:	2303      	movs	r3, #3
 8001f98:	e207      	b.n	80023aa <HAL_RCC_OscConfig+0x4e2>
        while(__HAL_RCC_GET_FLAG(RCC_FLAG_HSERDY) == RESET)
