
Tx.elf:     file format elf32-littlearm

Sections:
Idx Name          Size      VMA       LMA       File off  Algn
  0 .isr_vector   00000188  08000000  08000000  00010000  2**0
                  CONTENTS, ALLOC, LOAD, READONLY, DATA
  1 .text         00003aac  08000188  08000188  00010188  2**2
                  CONTENTS, ALLOC, LOAD, READONLY, CODE
  2 .rodata       0000004c  08003c34  08003c34  00013c34  2**2
                  CONTENTS, ALLOC, LOAD, READONLY, DATA
  3 .ARM.extab    00000000  08003c80  08003c80  0002000c  2**0
                  CONTENTS
  4 .ARM          00000008  08003c80  08003c80  00013c80  2**2
                  CONTENTS, ALLOC, LOAD, READONLY, DATA
  5 .preinit_array 00000000  08003c88  08003c88  0002000c  2**0
                  CONTENTS, ALLOC, LOAD, DATA
  6 .init_array   00000004  08003c88  08003c88  00013c88  2**2
                  CONTENTS, ALLOC, LOAD, DATA
  7 .fini_array   00000004  08003c8c  08003c8c  00013c8c  2**2
                  CONTENTS, ALLOC, LOAD, DATA
  8 .data         0000000c  20000000  08003c90  00020000  2**2
                  CONTENTS, ALLOC, LOAD, DATA
  9 .ccmram       00000000  10000000  10000000  0002000c  2**0
                  CONTENTS
 10 .bss          00000194  2000000c  2000000c  0002000c  2**2
                  ALLOC
 11 ._user_heap_stack 00000600  200001a0  200001a0  0002000c  2**0
                  ALLOC
 12 .ARM.attributes 00000030  00000000  00000000  0002000c  2**0
                  CONTENTS, READONLY
 13 .debug_info   0000bd6d  00000000  00000000  0002003c  2**0
                  CONTENTS, READONLY, DEBUGGING, OCTETS
 14 .debug_abbrev 00001b08  00000000  00000000  0002bda9  2**0
                  CONTENTS, READONLY, DEBUGGING, OCTETS
 15 .debug_aranges 00000910  00000000  00000000  0002d8b8  2**3
                  CONTENTS, READONLY, DEBUGGING, OCTETS
 16 .debug_ranges 000008c0  00000000  00000000  0002e1c8  2**3
                  CONTENTS, READONLY, DEBUGGING, OCTETS
 17 .debug_macro  00021b57  00000000  00000000  0002ea88  2**0
                  CONTENTS, READONLY, DEBUGGING, OCTETS
 18 .debug_line   0000ae4d  00000000  00000000  000505df  2**0
                  CONTENTS, READONLY, DEBUGGING, OCTETS
 19 .debug_str    000d1969  00000000  00000000  0005b42c  2**0
                  CONTENTS, READONLY, DEBUGGING, OCTETS
 20 .comment      00000050  00000000  00000000  0012cd95  2**0
                  CONTENTS, READONLY
 21 .debug_frame  00002510  00000000  00000000  0012cde8  2**2
                  CONTENTS, READONLY, DEBUGGING, OCTETS

Disassembly of section .text:

08000188 <__do_global_dtors_aux>:
 8000188:	b510      	push	{r4, lr}
 800018a:	4c05      	ldr	r4, [pc, #20]	; (80001a0 <__do_global_dtors_aux+0x18>)
 800018c:	7823      	ldrb	r3, [r4, #0]
 800018e:	b933      	cbnz	r3, 800019e <__do_global_dtors_aux+0x16>
 8000190:	4b04      	ldr	r3, [pc, #16]	; (80001a4 <__do_global_dtors_aux+0x1c>)
 8000192:	b113      	cbz	r3, 800019a <__do_global_dtors_aux+0x12>
 8000194:	4804      	ldr	r0, [pc, #16]	; (80001a8 <__do_global_dtors_aux+0x20>)
 8000196:	f3af 8000 	nop.w
 800019a:	2301      	movs	r3, #1
 800019c:	7023      	strb	r3, [r4, #0]
 800019e:	bd10      	pop	{r4, pc}
 80001a0:	2000000c 	.word	0x2000000c
 80001a4:	00000000 	.word	0x00000000
 80001a8:	08003c1c 	.word	0x08003c1c

080001ac <frame_dummy>:
 80001ac:	b508      	push	{r3, lr}
 80001ae:	4b03      	ldr	r3, [pc, #12]	; (80001bc <frame_dummy+0x10>)
 80001b0:	b11b      	cbz	r3, 80001ba <frame_dummy+0xe>
 80001b2:	4903      	ldr	r1, [pc, #12]	; (80001c0 <frame_dummy+0x14>)
 80001b4:	4803      	ldr	r0, [pc, #12]	; (80001c4 <frame_dummy+0x18>)
 80001b6:	f3af 8000 	nop.w
 80001ba:	bd08      	pop	{r3, pc}
 80001bc:	00000000 	.word	0x00000000
 80001c0:	20000010 	.word	0x20000010
 80001c4:	08003c1c 	.word	0x08003c1c

080001c8 <__aeabi_uldivmod>:
 80001c8:	b953      	cbnz	r3, 80001e0 <__aeabi_uldivmod+0x18>
 80001ca:	b94a      	cbnz	r2, 80001e0 <__aeabi_uldivmod+0x18>
 80001cc:	2900      	cmp	r1, #0
 80001ce:	bf08      	it	eq
 80001d0:	2800      	cmpeq	r0, #0
 80001d2:	bf1c      	itt	ne
 80001d4:	f04f 31ff 	movne.w	r1, #4294967295	; 0xffffffff
 80001d8:	f04f 30ff 	movne.w	r0, #4294967295	; 0xffffffff
 80001dc:	f000 b974 	b.w	80004c8 <__aeabi_idiv0>
 80001e0:	f1ad 0c08 	sub.w	ip, sp, #8
 80001e4:	e96d ce04 	strd	ip, lr, [sp, #-16]!
 80001e8:	f000 f806 	bl	80001f8 <__udivmoddi4>
 80001ec:	f8dd e004 	ldr.w	lr, [sp, #4]
 80001f0:	e9dd 2302 	ldrd	r2, r3, [sp, #8]
 80001f4:	b004      	add	sp, #16
 80001f6:	4770      	bx	lr

080001f8 <__udivmoddi4>:
 80001f8:	e92d 47f0 	stmdb	sp!, {r4, r5, r6, r7, r8, r9, sl, lr}
 80001fc:	9d08      	ldr	r5, [sp, #32]
 80001fe:	4604      	mov	r4, r0
 8000200:	468e      	mov	lr, r1
 8000202:	2b00      	cmp	r3, #0
 8000204:	d14d      	bne.n	80002a2 <__udivmoddi4+0xaa>
 8000206:	428a      	cmp	r2, r1
 8000208:	4694      	mov	ip, r2
 800020a:	d969      	bls.n	80002e0 <__udivmoddi4+0xe8>
 800020c:	fab2 f282 	clz	r2, r2
 8000210:	b152      	cbz	r2, 8000228 <__udivmoddi4+0x30>
 8000212:	fa01 f302 	lsl.w	r3, r1, r2
 8000216:	f1c2 0120 	rsb	r1, r2, #32
 800021a:	fa20 f101 	lsr.w	r1, r0, r1
 800021e:	fa0c fc02 	lsl.w	ip, ip, r2
 8000222:	ea41 0e03 	orr.w	lr, r1, r3
 8000226:	4094      	lsls	r4, r2
 8000228:	ea4f 481c 	mov.w	r8, ip, lsr #16
 800022c:	0c21      	lsrs	r1, r4, #16
 800022e:	fbbe f6f8 	udiv	r6, lr, r8
 8000232:	fa1f f78c 	uxth.w	r7, ip
 8000236:	fb08 e316 	mls	r3, r8, r6, lr
 800023a:	ea41 4303 	orr.w	r3, r1, r3, lsl #16
 800023e:	fb06 f107 	mul.w	r1, r6, r7
 8000242:	4299      	cmp	r1, r3
 8000244:	d90a      	bls.n	800025c <__udivmoddi4+0x64>
 8000246:	eb1c 0303 	adds.w	r3, ip, r3
 800024a:	f106 30ff 	add.w	r0, r6, #4294967295	; 0xffffffff
 800024e:	f080 811f 	bcs.w	8000490 <__udivmoddi4+0x298>
 8000252:	4299      	cmp	r1, r3
 8000254:	f240 811c 	bls.w	8000490 <__udivmoddi4+0x298>
 8000258:	3e02      	subs	r6, #2
 800025a:	4463      	add	r3, ip
 800025c:	1a5b      	subs	r3, r3, r1
 800025e:	b2a4      	uxth	r4, r4
 8000260:	fbb3 f0f8 	udiv	r0, r3, r8
 8000264:	fb08 3310 	mls	r3, r8, r0, r3
 8000268:	ea44 4403 	orr.w	r4, r4, r3, lsl #16
 800026c:	fb00 f707 	mul.w	r7, r0, r7
 8000270:	42a7      	cmp	r7, r4
 8000272:	d90a      	bls.n	800028a <__udivmoddi4+0x92>
 8000274:	eb1c 0404 	adds.w	r4, ip, r4
 8000278:	f100 33ff 	add.w	r3, r0, #4294967295	; 0xffffffff
 800027c:	f080 810a 	bcs.w	8000494 <__udivmoddi4+0x29c>
 8000280:	42a7      	cmp	r7, r4
 8000282:	f240 8107 	bls.w	8000494 <__udivmoddi4+0x29c>
 8000286:	4464      	add	r4, ip
 8000288:	3802      	subs	r0, #2
 800028a:	ea40 4006 	orr.w	r0, r0, r6, lsl #16
 800028e:	1be4      	subs	r4, r4, r7
 8000290:	2600      	movs	r6, #0
 8000292:	b11d      	cbz	r5, 800029c <__udivmoddi4+0xa4>
 8000294:	40d4      	lsrs	r4, r2
 8000296:	2300      	movs	r3, #0
 8000298:	e9c5 4300 	strd	r4, r3, [r5]
 800029c:	4631      	mov	r1, r6
 800029e:	e8bd 87f0 	ldmia.w	sp!, {r4, r5, r6, r7, r8, r9, sl, pc}
 80002a2:	428b      	cmp	r3, r1
 80002a4:	d909      	bls.n	80002ba <__udivmoddi4+0xc2>
 80002a6:	2d00      	cmp	r5, #0
 80002a8:	f000 80ef 	beq.w	800048a <__udivmoddi4+0x292>
 80002ac:	2600      	movs	r6, #0
 80002ae:	e9c5 0100 	strd	r0, r1, [r5]
 80002b2:	4630      	mov	r0, r6
 80002b4:	4631      	mov	r1, r6
 80002b6:	e8bd 87f0 	ldmia.w	sp!, {r4, r5, r6, r7, r8, r9, sl, pc}
 80002ba:	fab3 f683 	clz	r6, r3
 80002be:	2e00      	cmp	r6, #0
 80002c0:	d14a      	bne.n	8000358 <__udivmoddi4+0x160>
 80002c2:	428b      	cmp	r3, r1
 80002c4:	d302      	bcc.n	80002cc <__udivmoddi4+0xd4>
 80002c6:	4282      	cmp	r2, r0
 80002c8:	f200 80f9 	bhi.w	80004be <__udivmoddi4+0x2c6>
 80002cc:	1a84      	subs	r4, r0, r2
 80002ce:	eb61 0303 	sbc.w	r3, r1, r3
 80002d2:	2001      	movs	r0, #1
 80002d4:	469e      	mov	lr, r3
 80002d6:	2d00      	cmp	r5, #0
 80002d8:	d0e0      	beq.n	800029c <__udivmoddi4+0xa4>
 80002da:	e9c5 4e00 	strd	r4, lr, [r5]
 80002de:	e7dd      	b.n	800029c <__udivmoddi4+0xa4>
 80002e0:	b902      	cbnz	r2, 80002e4 <__udivmoddi4+0xec>
 80002e2:	deff      	udf	#255	; 0xff
 80002e4:	fab2 f282 	clz	r2, r2
 80002e8:	2a00      	cmp	r2, #0
 80002ea:	f040 8092 	bne.w	8000412 <__udivmoddi4+0x21a>
 80002ee:	eba1 010c 	sub.w	r1, r1, ip
 80002f2:	ea4f 471c 	mov.w	r7, ip, lsr #16
 80002f6:	fa1f fe8c 	uxth.w	lr, ip
 80002fa:	2601      	movs	r6, #1
 80002fc:	0c20      	lsrs	r0, r4, #16
 80002fe:	fbb1 f3f7 	udiv	r3, r1, r7
 8000302:	fb07 1113 	mls	r1, r7, r3, r1
 8000306:	ea40 4101 	orr.w	r1, r0, r1, lsl #16
 800030a:	fb0e f003 	mul.w	r0, lr, r3
 800030e:	4288      	cmp	r0, r1
 8000310:	d908      	bls.n	8000324 <__udivmoddi4+0x12c>
 8000312:	eb1c 0101 	adds.w	r1, ip, r1
 8000316:	f103 38ff 	add.w	r8, r3, #4294967295	; 0xffffffff
 800031a:	d202      	bcs.n	8000322 <__udivmoddi4+0x12a>
 800031c:	4288      	cmp	r0, r1
 800031e:	f200 80cb 	bhi.w	80004b8 <__udivmoddi4+0x2c0>
 8000322:	4643      	mov	r3, r8
 8000324:	1a09      	subs	r1, r1, r0
 8000326:	b2a4      	uxth	r4, r4
 8000328:	fbb1 f0f7 	udiv	r0, r1, r7
 800032c:	fb07 1110 	mls	r1, r7, r0, r1
 8000330:	ea44 4401 	orr.w	r4, r4, r1, lsl #16
 8000334:	fb0e fe00 	mul.w	lr, lr, r0
 8000338:	45a6      	cmp	lr, r4
 800033a:	d908      	bls.n	800034e <__udivmoddi4+0x156>
 800033c:	eb1c 0404 	adds.w	r4, ip, r4
 8000340:	f100 31ff 	add.w	r1, r0, #4294967295	; 0xffffffff
 8000344:	d202      	bcs.n	800034c <__udivmoddi4+0x154>
 8000346:	45a6      	cmp	lr, r4
 8000348:	f200 80bb 	bhi.w	80004c2 <__udivmoddi4+0x2ca>
 800034c:	4608      	mov	r0, r1
 800034e:	eba4 040e 	sub.w	r4, r4, lr
 8000352:	ea40 4003 	orr.w	r0, r0, r3, lsl #16
 8000356:	e79c      	b.n	8000292 <__udivmoddi4+0x9a>
 8000358:	f1c6 0720 	rsb	r7, r6, #32
 800035c:	40b3      	lsls	r3, r6
 800035e:	fa22 fc07 	lsr.w	ip, r2, r7
 8000362:	ea4c 0c03 	orr.w	ip, ip, r3
 8000366:	fa20 f407 	lsr.w	r4, r0, r7
 800036a:	fa01 f306 	lsl.w	r3, r1, r6
 800036e:	431c      	orrs	r4, r3
 8000370:	40f9      	lsrs	r1, r7
 8000372:	ea4f 491c 	mov.w	r9, ip, lsr #16
 8000376:	fa00 f306 	lsl.w	r3, r0, r6
 800037a:	fbb1 f8f9 	udiv	r8, r1, r9
 800037e:	0c20      	lsrs	r0, r4, #16
 8000380:	fa1f fe8c 	uxth.w	lr, ip
 8000384:	fb09 1118 	mls	r1, r9, r8, r1
 8000388:	ea40 4101 	orr.w	r1, r0, r1, lsl #16
 800038c:	fb08 f00e 	mul.w	r0, r8, lr
 8000390:	4288      	cmp	r0, r1
 8000392:	fa02 f206 	lsl.w	r2, r2, r6
 8000396:	d90b      	bls.n	80003b0 <__udivmoddi4+0x1b8>
 8000398:	eb1c 0101 	adds.w	r1, ip, r1
 800039c:	f108 3aff 	add.w	sl, r8, #4294967295	; 0xffffffff
 80003a0:	f080 8088 	bcs.w	80004b4 <__udivmoddi4+0x2bc>
 80003a4:	4288      	cmp	r0, r1
 80003a6:	f240 8085 	bls.w	80004b4 <__udivmoddi4+0x2bc>
 80003aa:	f1a8 0802 	sub.w	r8, r8, #2
 80003ae:	4461      	add	r1, ip
 80003b0:	1a09      	subs	r1, r1, r0
 80003b2:	b2a4      	uxth	r4, r4
 80003b4:	fbb1 f0f9 	udiv	r0, r1, r9
 80003b8:	fb09 1110 	mls	r1, r9, r0, r1
 80003bc:	ea44 4101 	orr.w	r1, r4, r1, lsl #16
 80003c0:	fb00 fe0e 	mul.w	lr, r0, lr
 80003c4:	458e      	cmp	lr, r1
 80003c6:	d908      	bls.n	80003da <__udivmoddi4+0x1e2>
 80003c8:	eb1c 0101 	adds.w	r1, ip, r1
 80003cc:	f100 34ff 	add.w	r4, r0, #4294967295	; 0xffffffff
 80003d0:	d26c      	bcs.n	80004ac <__udivmoddi4+0x2b4>
 80003d2:	458e      	cmp	lr, r1
 80003d4:	d96a      	bls.n	80004ac <__udivmoddi4+0x2b4>
 80003d6:	3802      	subs	r0, #2
 80003d8:	4461      	add	r1, ip
 80003da:	ea40 4008 	orr.w	r0, r0, r8, lsl #16
 80003de:	fba0 9402 	umull	r9, r4, r0, r2
 80003e2:	eba1 010e 	sub.w	r1, r1, lr
 80003e6:	42a1      	cmp	r1, r4
 80003e8:	46c8      	mov	r8, r9
 80003ea:	46a6      	mov	lr, r4
 80003ec:	d356      	bcc.n	800049c <__udivmoddi4+0x2a4>
 80003ee:	d053      	beq.n	8000498 <__udivmoddi4+0x2a0>
 80003f0:	b15d      	cbz	r5, 800040a <__udivmoddi4+0x212>
 80003f2:	ebb3 0208 	subs.w	r2, r3, r8
 80003f6:	eb61 010e 	sbc.w	r1, r1, lr
 80003fa:	fa01 f707 	lsl.w	r7, r1, r7
 80003fe:	fa22 f306 	lsr.w	r3, r2, r6
 8000402:	40f1      	lsrs	r1, r6
 8000404:	431f      	orrs	r7, r3
 8000406:	e9c5 7100 	strd	r7, r1, [r5]
 800040a:	2600      	movs	r6, #0
 800040c:	4631      	mov	r1, r6
 800040e:	e8bd 87f0 	ldmia.w	sp!, {r4, r5, r6, r7, r8, r9, sl, pc}
 8000412:	f1c2 0320 	rsb	r3, r2, #32
 8000416:	40d8      	lsrs	r0, r3
 8000418:	fa0c fc02 	lsl.w	ip, ip, r2
 800041c:	fa21 f303 	lsr.w	r3, r1, r3
 8000420:	4091      	lsls	r1, r2
 8000422:	4301      	orrs	r1, r0
 8000424:	ea4f 471c 	mov.w	r7, ip, lsr #16
 8000428:	fa1f fe8c 	uxth.w	lr, ip
 800042c:	fbb3 f0f7 	udiv	r0, r3, r7
 8000430:	fb07 3610 	mls	r6, r7, r0, r3
 8000434:	0c0b      	lsrs	r3, r1, #16
 8000436:	ea43 4306 	orr.w	r3, r3, r6, lsl #16
 800043a:	fb00 f60e 	mul.w	r6, r0, lr
 800043e:	429e      	cmp	r6, r3
 8000440:	fa04 f402 	lsl.w	r4, r4, r2
 8000444:	d908      	bls.n	8000458 <__udivmoddi4+0x260>
 8000446:	eb1c 0303 	adds.w	r3, ip, r3
 800044a:	f100 38ff 	add.w	r8, r0, #4294967295	; 0xffffffff
 800044e:	d22f      	bcs.n	80004b0 <__udivmoddi4+0x2b8>
 8000450:	429e      	cmp	r6, r3
 8000452:	d92d      	bls.n	80004b0 <__udivmoddi4+0x2b8>
 8000454:	3802      	subs	r0, #2
 8000456:	4463      	add	r3, ip
 8000458:	1b9b      	subs	r3, r3, r6
 800045a:	b289      	uxth	r1, r1
 800045c:	fbb3 f6f7 	udiv	r6, r3, r7
 8000460:	fb07 3316 	mls	r3, r7, r6, r3
 8000464:	ea41 4103 	orr.w	r1, r1, r3, lsl #16
 8000468:	fb06 f30e 	mul.w	r3, r6, lr
 800046c:	428b      	cmp	r3, r1
 800046e:	d908      	bls.n	8000482 <__udivmoddi4+0x28a>
 8000470:	eb1c 0101 	adds.w	r1, ip, r1
 8000474:	f106 38ff 	add.w	r8, r6, #4294967295	; 0xffffffff
 8000478:	d216      	bcs.n	80004a8 <__udivmoddi4+0x2b0>
 800047a:	428b      	cmp	r3, r1
 800047c:	d914      	bls.n	80004a8 <__udivmoddi4+0x2b0>
 800047e:	3e02      	subs	r6, #2
 8000480:	4461      	add	r1, ip
 8000482:	1ac9      	subs	r1, r1, r3
 8000484:	ea46 4600 	orr.w	r6, r6, r0, lsl #16
 8000488:	e738      	b.n	80002fc <__udivmoddi4+0x104>
 800048a:	462e      	mov	r6, r5
 800048c:	4628      	mov	r0, r5
 800048e:	e705      	b.n	800029c <__udivmoddi4+0xa4>
 8000490:	4606      	mov	r6, r0
 8000492:	e6e3      	b.n	800025c <__udivmoddi4+0x64>
 8000494:	4618      	mov	r0, r3
 8000496:	e6f8      	b.n	800028a <__udivmoddi4+0x92>
 8000498:	454b      	cmp	r3, r9
 800049a:	d2a9      	bcs.n	80003f0 <__udivmoddi4+0x1f8>
 800049c:	ebb9 0802 	subs.w	r8, r9, r2
 80004a0:	eb64 0e0c 	sbc.w	lr, r4, ip
 80004a4:	3801      	subs	r0, #1
 80004a6:	e7a3      	b.n	80003f0 <__udivmoddi4+0x1f8>
 80004a8:	4646      	mov	r6, r8
 80004aa:	e7ea      	b.n	8000482 <__udivmoddi4+0x28a>
 80004ac:	4620      	mov	r0, r4
 80004ae:	e794      	b.n	80003da <__udivmoddi4+0x1e2>
 80004b0:	4640      	mov	r0, r8
 80004b2:	e7d1      	b.n	8000458 <__udivmoddi4+0x260>
 80004b4:	46d0      	mov	r8, sl
 80004b6:	e77b      	b.n	80003b0 <__udivmoddi4+0x1b8>
 80004b8:	3b02      	subs	r3, #2
 80004ba:	4461      	add	r1, ip
 80004bc:	e732      	b.n	8000324 <__udivmoddi4+0x12c>
 80004be:	4630      	mov	r0, r6
 80004c0:	e709      	b.n	80002d6 <__udivmoddi4+0xde>
 80004c2:	4464      	add	r4, ip
 80004c4:	3802      	subs	r0, #2
 80004c6:	e742      	b.n	800034e <__udivmoddi4+0x156>

080004c8 <__aeabi_idiv0>:
 80004c8:	4770      	bx	lr
 80004ca:	bf00      	nop

080004cc <main>:
/**
  * @brief  The application entry point.
  * @retval int
  */
int main(void)
{
 80004cc:	b580      	push	{r7, lr}
 80004ce:	af00      	add	r7, sp, #0
  /* USER CODE END 1 */

  /* MCU Configuration--------------------------------------------------------*/

  /* Reset of all peripherals, Initializes the Flash interface and the Systick. */
  HAL_Init();
 80004d0:	f000 fdb8 	bl	8001044 <HAL_Init>
  /* USER CODE BEGIN Init */

  /* USER CODE END Init */

  /* Configure the system clock */
  SystemClock_Config();
 80004d4:	f000 f8e8 	bl	80006a8 <SystemClock_Config>
  /* USER CODE BEGIN SysInit */

  /* USER CODE END SysInit */

  /* Initialize all configured peripherals */
  MX_GPIO_Init();
 80004d8:	f000 fac4 	bl	8000a64 <MX_GPIO_Init>
  MX_CAN1_Init();
 80004dc:	f000 fa44 	bl	8000968 <MX_CAN1_Init>
  MX_ADC1_Init();
 80004e0:	f000 f94c 	bl	800077c <MX_ADC1_Init>
  MX_ADC2_Init();
 80004e4:	f000 f99c 	bl	8000820 <MX_ADC2_Init>
  MX_ADC3_Init();
 80004e8:	f000 f9ec 	bl	80008c4 <MX_ADC3_Init>
  MX_USART2_UART_Init();
 80004ec:	f000 fa90 	bl	8000a10 <MX_USART2_UART_Init>
  /* USER CODE BEGIN 2 */
  HAL_CAN_Start(&hcan1);
 80004f0:	485e      	ldr	r0, [pc, #376]	; (800066c <main+0x1a0>)
 80004f2:	f001 fcc7 	bl	8001e84 <HAL_CAN_Start>
  HAL_CAN_ActivateNotification(&hcan1, CAN_IT_RX_FIFO0_MSG_PENDING);
 80004f6:	2102      	movs	r1, #2
 80004f8:	485c      	ldr	r0, [pc, #368]	; (800066c <main+0x1a0>)
 80004fa:	f001 fde2 	bl	80020c2 <HAL_CAN_ActivateNotification>
  HAL_Delay(100);
 80004fe:	2064      	movs	r0, #100	; 0x64
 8000500:	f000 fe12 	bl	8001128 <HAL_Delay>
  HAL_Delay(100);
 8000504:	2064      	movs	r0, #100	; 0x64
 8000506:	f000 fe0f 	bl	8001128 <HAL_Delay>

  TxHeader.DLC=8;
 800050a:	4b59      	ldr	r3, [pc, #356]	; (8000670 <main+0x1a4>)
 800050c:	2208      	movs	r2, #8
 800050e:	611a      	str	r2, [r3, #16]
  TxHeader.RTR=CAN_RTR_DATA;
 8000510:	4b57      	ldr	r3, [pc, #348]	; (8000670 <main+0x1a4>)
 8000512:	2200      	movs	r2, #0
 8000514:	60da      	str	r2, [r3, #12]
  TxHeader.IDE=CAN_ID_STD;
 8000516:	4b56      	ldr	r3, [pc, #344]	; (8000670 <main+0x1a4>)
 8000518:	2200      	movs	r2, #0
 800051a:	609a      	str	r2, [r3, #8]
  TxHeader.ExtId=0x0;
 800051c:	4b54      	ldr	r3, [pc, #336]	; (8000670 <main+0x1a4>)
 800051e:	2200      	movs	r2, #0
 8000520:	605a      	str	r2, [r3, #4]
  TxHeader.StdId=0x0AA;
 8000522:	4b53      	ldr	r3, [pc, #332]	; (8000670 <main+0x1a4>)
 8000524:	22aa      	movs	r2, #170	; 0xaa
 8000526:	601a      	str	r2, [r3, #0]
  TxHeader.TransmitGlobalTime=DISABLE;
 8000528:	4b51      	ldr	r3, [pc, #324]	; (8000670 <main+0x1a4>)
 800052a:	2200      	movs	r2, #0
 800052c:	751a      	strb	r2, [r3, #20]

  /* Infinite loop */
  /* USER CODE BEGIN WHILE */
  while (1)
  {
	  HAL_ADC_Start_IT(&hadc1);
 800052e:	4851      	ldr	r0, [pc, #324]	; (8000674 <main+0x1a8>)
 8000530:	f000 fe94 	bl	800125c <HAL_ADC_Start_IT>
	  HAL_ADC_Start_IT(&hadc2);
 8000534:	4850      	ldr	r0, [pc, #320]	; (8000678 <main+0x1ac>)
 8000536:	f000 fe91 	bl	800125c <HAL_ADC_Start_IT>
	    	  HAL_ADC_Start_IT(&hadc3);
 800053a:	4850      	ldr	r0, [pc, #320]	; (800067c <main+0x1b0>)
 800053c:	f000 fe8e 	bl	800125c <HAL_ADC_Start_IT>

	    	  if(IR_Flag == 1){
 8000540:	4b4f      	ldr	r3, [pc, #316]	; (8000680 <main+0x1b4>)
 8000542:	681b      	ldr	r3, [r3, #0]
 8000544:	2b01      	cmp	r3, #1
 8000546:	d11b      	bne.n	8000580 <main+0xb4>
	    		  TxData[0] = 'I' ;
 8000548:	4b4e      	ldr	r3, [pc, #312]	; (8000684 <main+0x1b8>)
 800054a:	2249      	movs	r2, #73	; 0x49
 800054c:	701a      	strb	r2, [r3, #0]
	    		  if(HAL_CAN_AddTxMessage(&hcan1, &TxHeader, TxData, &TxMailBox) != HAL_OK)
 800054e:	4b4e      	ldr	r3, [pc, #312]	; (8000688 <main+0x1bc>)
 8000550:	4a4c      	ldr	r2, [pc, #304]	; (8000684 <main+0x1b8>)
 8000552:	4947      	ldr	r1, [pc, #284]	; (8000670 <main+0x1a4>)
 8000554:	4845      	ldr	r0, [pc, #276]	; (800066c <main+0x1a0>)
 8000556:	f001 fcd9 	bl	8001f0c <HAL_CAN_AddTxMessage>
 800055a:	4603      	mov	r3, r0
 800055c:	2b00      	cmp	r3, #0
 800055e:	d008      	beq.n	8000572 <main+0xa6>
	    		  {

	    			  HAL_UART_Transmit(&huart2,(uint8_t*)"IR FAULT\r\n", 10, HAL_MAX_DELAY);
 8000560:	f04f 33ff 	mov.w	r3, #4294967295	; 0xffffffff
 8000564:	220a      	movs	r2, #10
 8000566:	4949      	ldr	r1, [pc, #292]	; (800068c <main+0x1c0>)
 8000568:	4849      	ldr	r0, [pc, #292]	; (8000690 <main+0x1c4>)
 800056a:	f002 ffb6 	bl	80034da <HAL_UART_Transmit>

	    			  Error_Handler();
 800056e:	f000 fb5b 	bl	8000c28 <Error_Handler>
	    		  }
	    		  HAL_Delay(50);
 8000572:	2032      	movs	r0, #50	; 0x32
 8000574:	f000 fdd8 	bl	8001128 <HAL_Delay>

	    		  IR_Flag = 0;
 8000578:	4b41      	ldr	r3, [pc, #260]	; (8000680 <main+0x1b4>)
 800057a:	2200      	movs	r2, #0
 800057c:	601a      	str	r2, [r3, #0]
 800057e:	e017      	b.n	80005b0 <main+0xe4>

	    		}
	    	  else
	    	  {
	    		TxData[0] = 'X' ;
 8000580:	4b40      	ldr	r3, [pc, #256]	; (8000684 <main+0x1b8>)
 8000582:	2258      	movs	r2, #88	; 0x58
 8000584:	701a      	strb	r2, [r3, #0]
	    		if(HAL_CAN_AddTxMessage(&hcan1, &TxHeader, TxData, &TxMailBox) != HAL_OK)
 8000586:	4b40      	ldr	r3, [pc, #256]	; (8000688 <main+0x1bc>)
 8000588:	4a3e      	ldr	r2, [pc, #248]	; (8000684 <main+0x1b8>)
 800058a:	4939      	ldr	r1, [pc, #228]	; (8000670 <main+0x1a4>)
 800058c:	4837      	ldr	r0, [pc, #220]	; (800066c <main+0x1a0>)
 800058e:	f001 fcbd 	bl	8001f0c <HAL_CAN_AddTxMessage>
 8000592:	4603      	mov	r3, r0
 8000594:	2b00      	cmp	r3, #0
 8000596:	d008      	beq.n	80005aa <main+0xde>
	    		{
	    			  HAL_UART_Transmit(&huart2,(uint8_t*)"IRE FAULT\r\n", 11, HAL_MAX_DELAY);
 8000598:	f04f 33ff 	mov.w	r3, #4294967295	; 0xffffffff
 800059c:	220b      	movs	r2, #11
 800059e:	493d      	ldr	r1, [pc, #244]	; (8000694 <main+0x1c8>)
 80005a0:	483b      	ldr	r0, [pc, #236]	; (8000690 <main+0x1c4>)
 80005a2:	f002 ff9a 	bl	80034da <HAL_UART_Transmit>

	    			Error_Handler();
 80005a6:	f000 fb3f 	bl	8000c28 <Error_Handler>
	    		}
	    		HAL_Delay(50);
 80005aa:	2032      	movs	r0, #50	; 0x32
 80005ac:	f000 fdbc 	bl	8001128 <HAL_Delay>
	    	  }
//============================================================================================

	    	  if(ALC_Flag == 1){
 80005b0:	4b39      	ldr	r3, [pc, #228]	; (8000698 <main+0x1cc>)
 80005b2:	681b      	ldr	r3, [r3, #0]
 80005b4:	2b01      	cmp	r3, #1
 80005b6:	d11b      	bne.n	80005f0 <main+0x124>
	    		  TxData[1] = 'A' ;
 80005b8:	4b32      	ldr	r3, [pc, #200]	; (8000684 <main+0x1b8>)
 80005ba:	2241      	movs	r2, #65	; 0x41
 80005bc:	705a      	strb	r2, [r3, #1]
	    		  if(HAL_CAN_AddTxMessage(&hcan1, &TxHeader, TxData, &TxMailBox) != HAL_OK)
 80005be:	4b32      	ldr	r3, [pc, #200]	; (8000688 <main+0x1bc>)
 80005c0:	4a30      	ldr	r2, [pc, #192]	; (8000684 <main+0x1b8>)
 80005c2:	492b      	ldr	r1, [pc, #172]	; (8000670 <main+0x1a4>)
 80005c4:	4829      	ldr	r0, [pc, #164]	; (800066c <main+0x1a0>)
 80005c6:	f001 fca1 	bl	8001f0c <HAL_CAN_AddTxMessage>
 80005ca:	4603      	mov	r3, r0
 80005cc:	2b00      	cmp	r3, #0
 80005ce:	d008      	beq.n	80005e2 <main+0x116>
	    		  {
	    			  HAL_UART_Transmit(&huart2,(uint8_t*)"ALC FAULT\r\n", 11, HAL_MAX_DELAY);
 80005d0:	f04f 33ff 	mov.w	r3, #4294967295	; 0xffffffff
 80005d4:	220b      	movs	r2, #11
 80005d6:	4931      	ldr	r1, [pc, #196]	; (800069c <main+0x1d0>)
 80005d8:	482d      	ldr	r0, [pc, #180]	; (8000690 <main+0x1c4>)
 80005da:	f002 ff7e 	bl	80034da <HAL_UART_Transmit>
	    			  Error_Handler();
 80005de:	f000 fb23 	bl	8000c28 <Error_Handler>

	    		  }
	    		  HAL_Delay(50);
 80005e2:	2032      	movs	r0, #50	; 0x32
 80005e4:	f000 fda0 	bl	8001128 <HAL_Delay>

	    			  ALC_Flag = 0;
 80005e8:	4b2b      	ldr	r3, [pc, #172]	; (8000698 <main+0x1cc>)
 80005ea:	2200      	movs	r2, #0
 80005ec:	601a      	str	r2, [r3, #0]
 80005ee:	e017      	b.n	8000620 <main+0x154>
	    	  }
	    	else
	    	  	  {
	    	  		TxData[1] = 'Y' ;
 80005f0:	4b24      	ldr	r3, [pc, #144]	; (8000684 <main+0x1b8>)
 80005f2:	2259      	movs	r2, #89	; 0x59
 80005f4:	705a      	strb	r2, [r3, #1]
	    	  		if(HAL_CAN_AddTxMessage(&hcan1, &TxHeader, TxData, &TxMailBox) != HAL_OK)
 80005f6:	4b24      	ldr	r3, [pc, #144]	; (8000688 <main+0x1bc>)
 80005f8:	4a22      	ldr	r2, [pc, #136]	; (8000684 <main+0x1b8>)
 80005fa:	491d      	ldr	r1, [pc, #116]	; (8000670 <main+0x1a4>)
 80005fc:	481b      	ldr	r0, [pc, #108]	; (800066c <main+0x1a0>)
 80005fe:	f001 fc85 	bl	8001f0c <HAL_CAN_AddTxMessage>
 8000602:	4603      	mov	r3, r0
 8000604:	2b00      	cmp	r3, #0
 8000606:	d008      	beq.n	800061a <main+0x14e>
	    	  		{

		    			  HAL_UART_Transmit(&huart2,(uint8_t*)"ALCE FAULT\r\n", 12, HAL_MAX_DELAY);
 8000608:	f04f 33ff 	mov.w	r3, #4294967295	; 0xffffffff
 800060c:	220c      	movs	r2, #12
 800060e:	4924      	ldr	r1, [pc, #144]	; (80006a0 <main+0x1d4>)
 8000610:	481f      	ldr	r0, [pc, #124]	; (8000690 <main+0x1c4>)
 8000612:	f002 ff62 	bl	80034da <HAL_UART_Transmit>

	    	  		  	Error_Handler();
 8000616:	f000 fb07 	bl	8000c28 <Error_Handler>
	    	  		}
	    	  		HAL_Delay(50);
 800061a:	2032      	movs	r0, #50	; 0x32
 800061c:	f000 fd84 	bl	8001128 <HAL_Delay>
	    	  	  }
//==============================================================

	    	  if(FUEL_Flag == 1){
 8000620:	4b20      	ldr	r3, [pc, #128]	; (80006a4 <main+0x1d8>)
 8000622:	681b      	ldr	r3, [r3, #0]
 8000624:	2b01      	cmp	r3, #1
 8000626:	d111      	bne.n	800064c <main+0x180>

	    		  TxData[2] = 'F' ;
 8000628:	4b16      	ldr	r3, [pc, #88]	; (8000684 <main+0x1b8>)
 800062a:	2246      	movs	r2, #70	; 0x46
 800062c:	709a      	strb	r2, [r3, #2]
	    		  if(HAL_CAN_AddTxMessage(&hcan1, &TxHeader, TxData, &TxMailBox) != HAL_OK)
 800062e:	4b16      	ldr	r3, [pc, #88]	; (8000688 <main+0x1bc>)
 8000630:	4a14      	ldr	r2, [pc, #80]	; (8000684 <main+0x1b8>)
 8000632:	490f      	ldr	r1, [pc, #60]	; (8000670 <main+0x1a4>)
 8000634:	480d      	ldr	r0, [pc, #52]	; (800066c <main+0x1a0>)
 8000636:	f001 fc69 	bl	8001f0c <HAL_CAN_AddTxMessage>
 800063a:	4603      	mov	r3, r0
 800063c:	2b00      	cmp	r3, #0
 800063e:	d001      	beq.n	8000644 <main+0x178>
	    			  Error_Handler();
 8000640:	f000 faf2 	bl	8000c28 <Error_Handler>
	    		FUEL_Flag = 0;
 8000644:	4b17      	ldr	r3, [pc, #92]	; (80006a4 <main+0x1d8>)
 8000646:	2200      	movs	r2, #0
 8000648:	601a      	str	r2, [r3, #0]
 800064a:	e770      	b.n	800052e <main+0x62>
	    	  }
	    	else
	    	  	  {
	    	  		TxData[2] = 'Z' ;
 800064c:	4b0d      	ldr	r3, [pc, #52]	; (8000684 <main+0x1b8>)
 800064e:	225a      	movs	r2, #90	; 0x5a
 8000650:	709a      	strb	r2, [r3, #2]
	    	  		if(HAL_CAN_AddTxMessage(&hcan1, &TxHeader, TxData, &TxMailBox) != HAL_OK)
 8000652:	4b0d      	ldr	r3, [pc, #52]	; (8000688 <main+0x1bc>)
 8000654:	4a0b      	ldr	r2, [pc, #44]	; (8000684 <main+0x1b8>)
 8000656:	4906      	ldr	r1, [pc, #24]	; (8000670 <main+0x1a4>)
 8000658:	4804      	ldr	r0, [pc, #16]	; (800066c <main+0x1a0>)
 800065a:	f001 fc57 	bl	8001f0c <HAL_CAN_AddTxMessage>
 800065e:	4603      	mov	r3, r0
 8000660:	2b00      	cmp	r3, #0
 8000662:	f43f af64 	beq.w	800052e <main+0x62>
	    	  		  	Error_Handler();
 8000666:	f000 fadf 	bl	8000c28 <Error_Handler>
	  HAL_ADC_Start_IT(&hadc1);
 800066a:	e760      	b.n	800052e <main+0x62>
 800066c:	20000100 	.word	0x20000100
 8000670:	20000178 	.word	0x20000178
 8000674:	20000028 	.word	0x20000028
 8000678:	20000070 	.word	0x20000070
 800067c:	200000b8 	.word	0x200000b8
 8000680:	2000016c 	.word	0x2000016c
 8000684:	20000190 	.word	0x20000190
 8000688:	20000198 	.word	0x20000198
 800068c:	08003c34 	.word	0x08003c34
 8000690:	20000128 	.word	0x20000128
 8000694:	08003c40 	.word	0x08003c40
 8000698:	20000170 	.word	0x20000170
 800069c:	08003c4c 	.word	0x08003c4c
 80006a0:	08003c58 	.word	0x08003c58
 80006a4:	20000174 	.word	0x20000174

080006a8 <SystemClock_Config>:
/**
  * @brief System Clock Configuration
  * @retval None
  */
void SystemClock_Config(void)
{
 80006a8:	b580      	push	{r7, lr}
 80006aa:	b094      	sub	sp, #80	; 0x50
 80006ac:	af00      	add	r7, sp, #0
  RCC_OscInitTypeDef RCC_OscInitStruct = {0};
 80006ae:	f107 0320 	add.w	r3, r7, #32
 80006b2:	2230      	movs	r2, #48	; 0x30
 80006b4:	2100      	movs	r1, #0
 80006b6:	4618      	mov	r0, r3
 80006b8:	f003 faa8 	bl	8003c0c <memset>
  RCC_ClkInitTypeDef RCC_ClkInitStruct = {0};
 80006bc:	f107 030c 	add.w	r3, r7, #12
 80006c0:	2200      	movs	r2, #0
 80006c2:	601a      	str	r2, [r3, #0]
 80006c4:	605a      	str	r2, [r3, #4]
 80006c6:	609a      	str	r2, [r3, #8]
 80006c8:	60da      	str	r2, [r3, #12]
 80006ca:	611a      	str	r2, [r3, #16]

  /** Configure the main internal regulator output voltage
  */
  __HAL_RCC_PWR_CLK_ENABLE();
 80006cc:	2300      	movs	r3, #0
 80006ce:	60bb      	str	r3, [r7, #8]
 80006d0:	4b28      	ldr	r3, [pc, #160]	; (8000774 <SystemClock_Config+0xcc>)
 80006d2:	6c1b      	ldr	r3, [r3, #64]	; 0x40
 80006d4:	4a27      	ldr	r2, [pc, #156]	; (8000774 <SystemClock_Config+0xcc>)
 80006d6:	f043 5380 	orr.w	r3, r3, #268435456	; 0x10000000
 80006da:	6413      	str	r3, [r2, #64]	; 0x40
 80006dc:	4b25      	ldr	r3, [pc, #148]	; (8000774 <SystemClock_Config+0xcc>)
 80006de:	6c1b      	ldr	r3, [r3, #64]	; 0x40
 80006e0:	f003 5380 	and.w	r3, r3, #268435456	; 0x10000000
 80006e4:	60bb      	str	r3, [r7, #8]
 80006e6:	68bb      	ldr	r3, [r7, #8]
  __HAL_PWR_VOLTAGESCALING_CONFIG(PWR_REGULATOR_VOLTAGE_SCALE1);
 80006e8:	2300      	movs	r3, #0
 80006ea:	607b      	str	r3, [r7, #4]
 80006ec:	4b22      	ldr	r3, [pc, #136]	; (8000778 <SystemClock_Config+0xd0>)
 80006ee:	681b      	ldr	r3, [r3, #0]
 80006f0:	4a21      	ldr	r2, [pc, #132]	; (8000778 <SystemClock_Config+0xd0>)
 80006f2:	f443 4380 	orr.w	r3, r3, #16384	; 0x4000
 80006f6:	6013      	str	r3, [r2, #0]
 80006f8:	4b1f      	ldr	r3, [pc, #124]	; (8000778 <SystemClock_Config+0xd0>)
 80006fa:	681b      	ldr	r3, [r3, #0]
 80006fc:	f403 4380 	and.w	r3, r3, #16384	; 0x4000
 8000700:	607b      	str	r3, [r7, #4]
 8000702:	687b      	ldr	r3, [r7, #4]

  /** Initializes the RCC Oscillators according to the specified parameters
  * in the RCC_OscInitTypeDef structure.
  */
  RCC_OscInitStruct.OscillatorType = RCC_OSCILLATORTYPE_HSE;
 8000704:	2301      	movs	r3, #1
 8000706:	623b      	str	r3, [r7, #32]
  RCC_OscInitStruct.HSEState = RCC_HSE_ON;
 8000708:	f44f 3380 	mov.w	r3, #65536	; 0x10000
 800070c:	627b      	str	r3, [r7, #36]	; 0x24
  RCC_OscInitStruct.PLL.PLLState = RCC_PLL_ON;
 800070e:	2302      	movs	r3, #2
 8000710:	63bb      	str	r3, [r7, #56]	; 0x38
  RCC_OscInitStruct.PLL.PLLSource = RCC_PLLSOURCE_HSE;
 8000712:	f44f 0380 	mov.w	r3, #4194304	; 0x400000
 8000716:	63fb      	str	r3, [r7, #60]	; 0x3c
  RCC_OscInitStruct.PLL.PLLM = 4;
 8000718:	2304      	movs	r3, #4
 800071a:	643b      	str	r3, [r7, #64]	; 0x40
  RCC_OscInitStruct.PLL.PLLN = 72;
 800071c:	2348      	movs	r3, #72	; 0x48
 800071e:	647b      	str	r3, [r7, #68]	; 0x44
  RCC_OscInitStruct.PLL.PLLP = RCC_PLLP_DIV2;
 8000720:	2302      	movs	r3, #2
 8000722:	64bb      	str	r3, [r7, #72]	; 0x48
  RCC_OscInitStruct.PLL.PLLQ = 7;
 8000724:	2307      	movs	r3, #7
 8000726:	64fb      	str	r3, [r7, #76]	; 0x4c
  if (HAL_RCC_OscConfig(&RCC_OscInitStruct) != HAL_OK)
 8000728:	f107 0320 	add.w	r3, r7, #32
 800072c:	4618      	mov	r0, r3
 800072e:	f002 f9ef 	bl	8002b10 <HAL_RCC_OscConfig>
 8000732:	4603      	mov	r3, r0
 8000734:	2b00      	cmp	r3, #0
 8000736:	d001      	beq.n	800073c <SystemClock_Config+0x94>
  {
    Error_Handler();
 8000738:	f000 fa76 	bl	8000c28 <Error_Handler>
  }

  /** Initializes the CPU, AHB and APB buses clocks
  */
  RCC_ClkInitStruct.ClockType = RCC_CLOCKTYPE_HCLK|RCC_CLOCKTYPE_SYSCLK
 800073c:	230f      	movs	r3, #15
 800073e:	60fb      	str	r3, [r7, #12]
                              |RCC_CLOCKTYPE_PCLK1|RCC_CLOCKTYPE_PCLK2;
  RCC_ClkInitStruct.SYSCLKSource = RCC_SYSCLKSOURCE_PLLCLK;
 8000740:	2302      	movs	r3, #2
 8000742:	613b      	str	r3, [r7, #16]
  RCC_ClkInitStruct.AHBCLKDivider = RCC_SYSCLK_DIV1;
 8000744:	2300      	movs	r3, #0
 8000746:	617b      	str	r3, [r7, #20]
  RCC_ClkInitStruct.APB1CLKDivider = RCC_HCLK_DIV2;
 8000748:	f44f 5380 	mov.w	r3, #4096	; 0x1000
 800074c:	61bb      	str	r3, [r7, #24]
  RCC_ClkInitStruct.APB2CLKDivider = RCC_HCLK_DIV2;
 800074e:	f44f 5380 	mov.w	r3, #4096	; 0x1000
 8000752:	61fb      	str	r3, [r7, #28]

  if (HAL_RCC_ClockConfig(&RCC_ClkInitStruct, FLASH_LATENCY_2) != HAL_OK)
 8000754:	f107 030c 	add.w	r3, r7, #12
 8000758:	2102      	movs	r1, #2
 800075a:	4618      	mov	r0, r3
 800075c:	f002 fc50 	bl	8003000 <HAL_RCC_ClockConfig>
 8000760:	4603      	mov	r3, r0
 8000762:	2b00      	cmp	r3, #0
 8000764:	d001      	beq.n	800076a <SystemClock_Config+0xc2>
  {
    Error_Handler();
 8000766:	f000 fa5f 	bl	8000c28 <Error_Handler>
  }
}
 800076a:	bf00      	nop
 800076c:	3750      	adds	r7, #80	; 0x50
 800076e:	46bd      	mov	sp, r7
 8000770:	bd80      	pop	{r7, pc}
 8000772:	bf00      	nop
 8000774:	40023800 	.word	0x40023800
 8000778:	40007000 	.word	0x40007000

0800077c <MX_ADC1_Init>:
  * @brief ADC1 Initialization Function
  * @param None
  * @retval None
  */
static void MX_ADC1_Init(void)
{
 800077c:	b580      	push	{r7, lr}
 800077e:	b084      	sub	sp, #16
 8000780:	af00      	add	r7, sp, #0

  /* USER CODE BEGIN ADC1_Init 0 */

  /* USER CODE END ADC1_Init 0 */

  ADC_ChannelConfTypeDef sConfig = {0};
 8000782:	463b      	mov	r3, r7
 8000784:	2200      	movs	r2, #0
 8000786:	601a      	str	r2, [r3, #0]
 8000788:	605a      	str	r2, [r3, #4]
 800078a:	609a      	str	r2, [r3, #8]
 800078c:	60da      	str	r2, [r3, #12]

  /* USER CODE END ADC1_Init 1 */

  /** Configure the global features of the ADC (Clock, Resolution, Data Alignment and number of conversion)
  */
  hadc1.Instance = ADC1;
 800078e:	4b21      	ldr	r3, [pc, #132]	; (8000814 <MX_ADC1_Init+0x98>)
 8000790:	4a21      	ldr	r2, [pc, #132]	; (8000818 <MX_ADC1_Init+0x9c>)
 8000792:	601a      	str	r2, [r3, #0]
  hadc1.Init.ClockPrescaler = ADC_CLOCK_SYNC_PCLK_DIV2;
 8000794:	4b1f      	ldr	r3, [pc, #124]	; (8000814 <MX_ADC1_Init+0x98>)
 8000796:	2200      	movs	r2, #0
 8000798:	605a      	str	r2, [r3, #4]
  hadc1.Init.Resolution = ADC_RESOLUTION_12B;
 800079a:	4b1e      	ldr	r3, [pc, #120]	; (8000814 <MX_ADC1_Init+0x98>)
 800079c:	2200      	movs	r2, #0
 800079e:	609a      	str	r2, [r3, #8]
  hadc1.Init.ScanConvMode = DISABLE;
 80007a0:	4b1c      	ldr	r3, [pc, #112]	; (8000814 <MX_ADC1_Init+0x98>)
 80007a2:	2200      	movs	r2, #0
 80007a4:	611a      	str	r2, [r3, #16]
  hadc1.Init.ContinuousConvMode = DISABLE;
 80007a6:	4b1b      	ldr	r3, [pc, #108]	; (8000814 <MX_ADC1_Init+0x98>)
 80007a8:	2200      	movs	r2, #0
 80007aa:	761a      	strb	r2, [r3, #24]
  hadc1.Init.DiscontinuousConvMode = DISABLE;
 80007ac:	4b19      	ldr	r3, [pc, #100]	; (8000814 <MX_ADC1_Init+0x98>)
 80007ae:	2200      	movs	r2, #0
 80007b0:	f883 2020 	strb.w	r2, [r3, #32]
  hadc1.Init.ExternalTrigConvEdge = ADC_EXTERNALTRIGCONVEDGE_NONE;
 80007b4:	4b17      	ldr	r3, [pc, #92]	; (8000814 <MX_ADC1_Init+0x98>)
 80007b6:	2200      	movs	r2, #0
 80007b8:	62da      	str	r2, [r3, #44]	; 0x2c
  hadc1.Init.ExternalTrigConv = ADC_SOFTWARE_START;
 80007ba:	4b16      	ldr	r3, [pc, #88]	; (8000814 <MX_ADC1_Init+0x98>)
 80007bc:	4a17      	ldr	r2, [pc, #92]	; (800081c <MX_ADC1_Init+0xa0>)
 80007be:	629a      	str	r2, [r3, #40]	; 0x28
  hadc1.Init.DataAlign = ADC_DATAALIGN_RIGHT;
 80007c0:	4b14      	ldr	r3, [pc, #80]	; (8000814 <MX_ADC1_Init+0x98>)
 80007c2:	2200      	movs	r2, #0
 80007c4:	60da      	str	r2, [r3, #12]
  hadc1.Init.NbrOfConversion = 1;
 80007c6:	4b13      	ldr	r3, [pc, #76]	; (8000814 <MX_ADC1_Init+0x98>)
 80007c8:	2201      	movs	r2, #1
 80007ca:	61da      	str	r2, [r3, #28]
  hadc1.Init.DMAContinuousRequests = DISABLE;
 80007cc:	4b11      	ldr	r3, [pc, #68]	; (8000814 <MX_ADC1_Init+0x98>)
 80007ce:	2200      	movs	r2, #0
 80007d0:	f883 2030 	strb.w	r2, [r3, #48]	; 0x30
  hadc1.Init.EOCSelection = ADC_EOC_SINGLE_CONV;
 80007d4:	4b0f      	ldr	r3, [pc, #60]	; (8000814 <MX_ADC1_Init+0x98>)
 80007d6:	2201      	movs	r2, #1
 80007d8:	615a      	str	r2, [r3, #20]
  if (HAL_ADC_Init(&hadc1) != HAL_OK)
 80007da:	480e      	ldr	r0, [pc, #56]	; (8000814 <MX_ADC1_Init+0x98>)
 80007dc:	f000 fcc8 	bl	8001170 <HAL_ADC_Init>
 80007e0:	4603      	mov	r3, r0
 80007e2:	2b00      	cmp	r3, #0
 80007e4:	d001      	beq.n	80007ea <MX_ADC1_Init+0x6e>
  {
    Error_Handler();
 80007e6:	f000 fa1f 	bl	8000c28 <Error_Handler>
  }

  /** Configure for the selected ADC regular channel its corresponding rank in the sequencer and its sample time.
  */
  sConfig.Channel = ADC_CHANNEL_1;
 80007ea:	2301      	movs	r3, #1
 80007ec:	603b      	str	r3, [r7, #0]
  sConfig.Rank = 1;
 80007ee:	2301      	movs	r3, #1
 80007f0:	607b      	str	r3, [r7, #4]
  sConfig.SamplingTime = ADC_SAMPLETIME_3CYCLES;
 80007f2:	2300      	movs	r3, #0
 80007f4:	60bb      	str	r3, [r7, #8]
  if (HAL_ADC_ConfigChannel(&hadc1, &sConfig) != HAL_OK)
 80007f6:	463b      	mov	r3, r7
 80007f8:	4619      	mov	r1, r3
 80007fa:	4806      	ldr	r0, [pc, #24]	; (8000814 <MX_ADC1_Init+0x98>)
 80007fc:	f000 ff3e 	bl	800167c <HAL_ADC_ConfigChannel>
 8000800:	4603      	mov	r3, r0
 8000802:	2b00      	cmp	r3, #0
 8000804:	d001      	beq.n	800080a <MX_ADC1_Init+0x8e>
  {
    Error_Handler();
 8000806:	f000 fa0f 	bl	8000c28 <Error_Handler>
  }
  /* USER CODE BEGIN ADC1_Init 2 */

  /* USER CODE END ADC1_Init 2 */

}
 800080a:	bf00      	nop
 800080c:	3710      	adds	r7, #16
 800080e:	46bd      	mov	sp, r7
 8000810:	bd80      	pop	{r7, pc}
 8000812:	bf00      	nop
 8000814:	20000028 	.word	0x20000028
 8000818:	40012000 	.word	0x40012000
 800081c:	0f000001 	.word	0x0f000001

08000820 <MX_ADC2_Init>:
  * @brief ADC2 Initialization Function
  * @param None
  * @retval None
  */
static void MX_ADC2_Init(void)
{
 8000820:	b580      	push	{r7, lr}
 8000822:	b084      	sub	sp, #16
 8000824:	af00      	add	r7, sp, #0

  /* USER CODE BEGIN ADC2_Init 0 */

  /* USER CODE END ADC2_Init 0 */

  ADC_ChannelConfTypeDef sConfig = {0};
 8000826:	463b      	mov	r3, r7
 8000828:	2200      	movs	r2, #0
 800082a:	601a      	str	r2, [r3, #0]
 800082c:	605a      	str	r2, [r3, #4]
 800082e:	609a      	str	r2, [r3, #8]
 8000830:	60da      	str	r2, [r3, #12]

  /* USER CODE END ADC2_Init 1 */

  /** Configure the global features of the ADC (Clock, Resolution, Data Alignment and number of conversion)
  */
  hadc2.Instance = ADC2;
 8000832:	4b21      	ldr	r3, [pc, #132]	; (80008b8 <MX_ADC2_Init+0x98>)
 8000834:	4a21      	ldr	r2, [pc, #132]	; (80008bc <MX_ADC2_Init+0x9c>)
 8000836:	601a      	str	r2, [r3, #0]
  hadc2.Init.ClockPrescaler = ADC_CLOCK_SYNC_PCLK_DIV2;
 8000838:	4b1f      	ldr	r3, [pc, #124]	; (80008b8 <MX_ADC2_Init+0x98>)
 800083a:	2200      	movs	r2, #0
 800083c:	605a      	str	r2, [r3, #4]
  hadc2.Init.Resolution = ADC_RESOLUTION_12B;
 800083e:	4b1e      	ldr	r3, [pc, #120]	; (80008b8 <MX_ADC2_Init+0x98>)
 8000840:	2200      	movs	r2, #0
 8000842:	609a      	str	r2, [r3, #8]
  hadc2.Init.ScanConvMode = DISABLE;
 8000844:	4b1c      	ldr	r3, [pc, #112]	; (80008b8 <MX_ADC2_Init+0x98>)
 8000846:	2200      	movs	r2, #0
 8000848:	611a      	str	r2, [r3, #16]
  hadc2.Init.ContinuousConvMode = DISABLE;
 800084a:	4b1b      	ldr	r3, [pc, #108]	; (80008b8 <MX_ADC2_Init+0x98>)
 800084c:	2200      	movs	r2, #0
 800084e:	761a      	strb	r2, [r3, #24]
  hadc2.Init.DiscontinuousConvMode = DISABLE;
 8000850:	4b19      	ldr	r3, [pc, #100]	; (80008b8 <MX_ADC2_Init+0x98>)
 8000852:	2200      	movs	r2, #0
 8000854:	f883 2020 	strb.w	r2, [r3, #32]
  hadc2.Init.ExternalTrigConvEdge = ADC_EXTERNALTRIGCONVEDGE_NONE;
 8000858:	4b17      	ldr	r3, [pc, #92]	; (80008b8 <MX_ADC2_Init+0x98>)
 800085a:	2200      	movs	r2, #0
 800085c:	62da      	str	r2, [r3, #44]	; 0x2c
  hadc2.Init.ExternalTrigConv = ADC_SOFTWARE_START;
 800085e:	4b16      	ldr	r3, [pc, #88]	; (80008b8 <MX_ADC2_Init+0x98>)
 8000860:	4a17      	ldr	r2, [pc, #92]	; (80008c0 <MX_ADC2_Init+0xa0>)
 8000862:	629a      	str	r2, [r3, #40]	; 0x28
  hadc2.Init.DataAlign = ADC_DATAALIGN_RIGHT;
 8000864:	4b14      	ldr	r3, [pc, #80]	; (80008b8 <MX_ADC2_Init+0x98>)
 8000866:	2200      	movs	r2, #0
 8000868:	60da      	str	r2, [r3, #12]
  hadc2.Init.NbrOfConversion = 1;
 800086a:	4b13      	ldr	r3, [pc, #76]	; (80008b8 <MX_ADC2_Init+0x98>)
 800086c:	2201      	movs	r2, #1
 800086e:	61da      	str	r2, [r3, #28]
  hadc2.Init.DMAContinuousRequests = DISABLE;
 8000870:	4b11      	ldr	r3, [pc, #68]	; (80008b8 <MX_ADC2_Init+0x98>)
 8000872:	2200      	movs	r2, #0
 8000874:	f883 2030 	strb.w	r2, [r3, #48]	; 0x30
  hadc2.Init.EOCSelection = ADC_EOC_SINGLE_CONV;
 8000878:	4b0f      	ldr	r3, [pc, #60]	; (80008b8 <MX_ADC2_Init+0x98>)
 800087a:	2201      	movs	r2, #1
 800087c:	615a      	str	r2, [r3, #20]
  if (HAL_ADC_Init(&hadc2) != HAL_OK)
 800087e:	480e      	ldr	r0, [pc, #56]	; (80008b8 <MX_ADC2_Init+0x98>)
 8000880:	f000 fc76 	bl	8001170 <HAL_ADC_Init>
 8000884:	4603      	mov	r3, r0
 8000886:	2b00      	cmp	r3, #0
 8000888:	d001      	beq.n	800088e <MX_ADC2_Init+0x6e>
  {
    Error_Handler();
 800088a:	f000 f9cd 	bl	8000c28 <Error_Handler>
  }

  /** Configure for the selected ADC regular channel its corresponding rank in the sequencer and its sample time.
  */
  sConfig.Channel = ADC_CHANNEL_2;
 800088e:	2302      	movs	r3, #2
 8000890:	603b      	str	r3, [r7, #0]
  sConfig.Rank = 1;
 8000892:	2301      	movs	r3, #1
 8000894:	607b      	str	r3, [r7, #4]
  sConfig.SamplingTime = ADC_SAMPLETIME_3CYCLES;
 8000896:	2300      	movs	r3, #0
 8000898:	60bb      	str	r3, [r7, #8]
  if (HAL_ADC_ConfigChannel(&hadc2, &sConfig) != HAL_OK)
 800089a:	463b      	mov	r3, r7
 800089c:	4619      	mov	r1, r3
 800089e:	4806      	ldr	r0, [pc, #24]	; (80008b8 <MX_ADC2_Init+0x98>)
 80008a0:	f000 feec 	bl	800167c <HAL_ADC_ConfigChannel>
 80008a4:	4603      	mov	r3, r0
 80008a6:	2b00      	cmp	r3, #0
 80008a8:	d001      	beq.n	80008ae <MX_ADC2_Init+0x8e>
  {
    Error_Handler();
 80008aa:	f000 f9bd 	bl	8000c28 <Error_Handler>
  }
  /* USER CODE BEGIN ADC2_Init 2 */

  /* USER CODE END ADC2_Init 2 */

}
 80008ae:	bf00      	nop
 80008b0:	3710      	adds	r7, #16
 80008b2:	46bd      	mov	sp, r7
 80008b4:	bd80      	pop	{r7, pc}
 80008b6:	bf00      	nop
 80008b8:	20000070 	.word	0x20000070
 80008bc:	40012100 	.word	0x40012100
 80008c0:	0f000001 	.word	0x0f000001

080008c4 <MX_ADC3_Init>:
  * @brief ADC3 Initialization Function
  * @param None
  * @retval None
  */
static void MX_ADC3_Init(void)
{
 80008c4:	b580      	push	{r7, lr}
 80008c6:	b084      	sub	sp, #16
 80008c8:	af00      	add	r7, sp, #0

  /* USER CODE BEGIN ADC3_Init 0 */

  /* USER CODE END ADC3_Init 0 */

  ADC_ChannelConfTypeDef sConfig = {0};
 80008ca:	463b      	mov	r3, r7
 80008cc:	2200      	movs	r2, #0
 80008ce:	601a      	str	r2, [r3, #0]
 80008d0:	605a      	str	r2, [r3, #4]
 80008d2:	609a      	str	r2, [r3, #8]
 80008d4:	60da      	str	r2, [r3, #12]

  /* USER CODE END ADC3_Init 1 */

  /** Configure the global features of the ADC (Clock, Resolution, Data Alignment and number of conversion)
  */
  hadc3.Instance = ADC3;
 80008d6:	4b21      	ldr	r3, [pc, #132]	; (800095c <MX_ADC3_Init+0x98>)
 80008d8:	4a21      	ldr	r2, [pc, #132]	; (8000960 <MX_ADC3_Init+0x9c>)
 80008da:	601a      	str	r2, [r3, #0]
  hadc3.Init.ClockPrescaler = ADC_CLOCK_SYNC_PCLK_DIV2;
 80008dc:	4b1f      	ldr	r3, [pc, #124]	; (800095c <MX_ADC3_Init+0x98>)
 80008de:	2200      	movs	r2, #0
 80008e0:	605a      	str	r2, [r3, #4]
  hadc3.Init.Resolution = ADC_RESOLUTION_12B;
 80008e2:	4b1e      	ldr	r3, [pc, #120]	; (800095c <MX_ADC3_Init+0x98>)
 80008e4:	2200      	movs	r2, #0
 80008e6:	609a      	str	r2, [r3, #8]
  hadc3.Init.ScanConvMode = DISABLE;
 80008e8:	4b1c      	ldr	r3, [pc, #112]	; (800095c <MX_ADC3_Init+0x98>)
 80008ea:	2200      	movs	r2, #0
 80008ec:	611a      	str	r2, [r3, #16]
  hadc3.Init.ContinuousConvMode = DISABLE;
 80008ee:	4b1b      	ldr	r3, [pc, #108]	; (800095c <MX_ADC3_Init+0x98>)
 80008f0:	2200      	movs	r2, #0
 80008f2:	761a      	strb	r2, [r3, #24]
  hadc3.Init.DiscontinuousConvMode = DISABLE;
 80008f4:	4b19      	ldr	r3, [pc, #100]	; (800095c <MX_ADC3_Init+0x98>)
 80008f6:	2200      	movs	r2, #0
 80008f8:	f883 2020 	strb.w	r2, [r3, #32]
  hadc3.Init.ExternalTrigConvEdge = ADC_EXTERNALTRIGCONVEDGE_NONE;
 80008fc:	4b17      	ldr	r3, [pc, #92]	; (800095c <MX_ADC3_Init+0x98>)
 80008fe:	2200      	movs	r2, #0
 8000900:	62da      	str	r2, [r3, #44]	; 0x2c
  hadc3.Init.ExternalTrigConv = ADC_SOFTWARE_START;
 8000902:	4b16      	ldr	r3, [pc, #88]	; (800095c <MX_ADC3_Init+0x98>)
 8000904:	4a17      	ldr	r2, [pc, #92]	; (8000964 <MX_ADC3_Init+0xa0>)
 8000906:	629a      	str	r2, [r3, #40]	; 0x28
  hadc3.Init.DataAlign = ADC_DATAALIGN_RIGHT;
 8000908:	4b14      	ldr	r3, [pc, #80]	; (800095c <MX_ADC3_Init+0x98>)
 800090a:	2200      	movs	r2, #0
 800090c:	60da      	str	r2, [r3, #12]
  hadc3.Init.NbrOfConversion = 1;
 800090e:	4b13      	ldr	r3, [pc, #76]	; (800095c <MX_ADC3_Init+0x98>)
 8000910:	2201      	movs	r2, #1
 8000912:	61da      	str	r2, [r3, #28]
  hadc3.Init.DMAContinuousRequests = DISABLE;
 8000914:	4b11      	ldr	r3, [pc, #68]	; (800095c <MX_ADC3_Init+0x98>)
 8000916:	2200      	movs	r2, #0
 8000918:	f883 2030 	strb.w	r2, [r3, #48]	; 0x30
  hadc3.Init.EOCSelection = ADC_EOC_SINGLE_CONV;
 800091c:	4b0f      	ldr	r3, [pc, #60]	; (800095c <MX_ADC3_Init+0x98>)
 800091e:	2201      	movs	r2, #1
 8000920:	615a      	str	r2, [r3, #20]
  if (HAL_ADC_Init(&hadc3) != HAL_OK)
 8000922:	480e      	ldr	r0, [pc, #56]	; (800095c <MX_ADC3_Init+0x98>)
 8000924:	f000 fc24 	bl	8001170 <HAL_ADC_Init>
 8000928:	4603      	mov	r3, r0
 800092a:	2b00      	cmp	r3, #0
 800092c:	d001      	beq.n	8000932 <MX_ADC3_Init+0x6e>
  {
    Error_Handler();
 800092e:	f000 f97b 	bl	8000c28 <Error_Handler>
  }

  /** Configure for the selected ADC regular channel its corresponding rank in the sequencer and its sample time.
  */
  sConfig.Channel = ADC_CHANNEL_3;
 8000932:	2303      	movs	r3, #3
 8000934:	603b      	str	r3, [r7, #0]
  sConfig.Rank = 1;
 8000936:	2301      	movs	r3, #1
 8000938:	607b      	str	r3, [r7, #4]
  sConfig.SamplingTime = ADC_SAMPLETIME_3CYCLES;
 800093a:	2300      	movs	r3, #0
 800093c:	60bb      	str	r3, [r7, #8]
  if (HAL_ADC_ConfigChannel(&hadc3, &sConfig) != HAL_OK)
 800093e:	463b      	mov	r3, r7
 8000940:	4619      	mov	r1, r3
 8000942:	4806      	ldr	r0, [pc, #24]	; (800095c <MX_ADC3_Init+0x98>)
 8000944:	f000 fe9a 	bl	800167c <HAL_ADC_ConfigChannel>
 8000948:	4603      	mov	r3, r0
 800094a:	2b00      	cmp	r3, #0
 800094c:	d001      	beq.n	8000952 <MX_ADC3_Init+0x8e>
  {
    Error_Handler();
 800094e:	f000 f96b 	bl	8000c28 <Error_Handler>
  }
  /* USER CODE BEGIN ADC3_Init 2 */

  /* USER CODE END ADC3_Init 2 */

}
 8000952:	bf00      	nop
 8000954:	3710      	adds	r7, #16
 8000956:	46bd      	mov	sp, r7
 8000958:	bd80      	pop	{r7, pc}
 800095a:	bf00      	nop
 800095c:	200000b8 	.word	0x200000b8
 8000960:	40012200 	.word	0x40012200
 8000964:	0f000001 	.word	0x0f000001

08000968 <MX_CAN1_Init>:
  * @brief CAN1 Initialization Function
  * @param None
  * @retval None
  */
static void MX_CAN1_Init(void)
{
 8000968:	b580      	push	{r7, lr}
 800096a:	b08a      	sub	sp, #40	; 0x28
 800096c:	af00      	add	r7, sp, #0
  /* USER CODE END CAN1_Init 0 */

  /* USER CODE BEGIN CAN1_Init 1 */

  /* USER CODE END CAN1_Init 1 */
  hcan1.Instance = CAN1;
 800096e:	4b26      	ldr	r3, [pc, #152]	; (8000a08 <MX_CAN1_Init+0xa0>)
 8000970:	4a26      	ldr	r2, [pc, #152]	; (8000a0c <MX_CAN1_Init+0xa4>)
 8000972:	601a      	str	r2, [r3, #0]
  hcan1.Init.Prescaler = 18;
 8000974:	4b24      	ldr	r3, [pc, #144]	; (8000a08 <MX_CAN1_Init+0xa0>)
 8000976:	2212      	movs	r2, #18
 8000978:	605a      	str	r2, [r3, #4]
  hcan1.Init.Mode = CAN_MODE_NORMAL;
 800097a:	4b23      	ldr	r3, [pc, #140]	; (8000a08 <MX_CAN1_Init+0xa0>)
 800097c:	2200      	movs	r2, #0
 800097e:	609a      	str	r2, [r3, #8]
  hcan1.Init.SyncJumpWidth = CAN_SJW_1TQ;
 8000980:	4b21      	ldr	r3, [pc, #132]	; (8000a08 <MX_CAN1_Init+0xa0>)
 8000982:	2200      	movs	r2, #0
 8000984:	60da      	str	r2, [r3, #12]
  hcan1.Init.TimeSeg1 = CAN_BS1_2TQ;
 8000986:	4b20      	ldr	r3, [pc, #128]	; (8000a08 <MX_CAN1_Init+0xa0>)
 8000988:	f44f 3280 	mov.w	r2, #65536	; 0x10000
 800098c:	611a      	str	r2, [r3, #16]
  hcan1.Init.TimeSeg2 = CAN_BS2_1TQ;
 800098e:	4b1e      	ldr	r3, [pc, #120]	; (8000a08 <MX_CAN1_Init+0xa0>)
 8000990:	2200      	movs	r2, #0
 8000992:	615a      	str	r2, [r3, #20]
  hcan1.Init.TimeTriggeredMode = DISABLE;
 8000994:	4b1c      	ldr	r3, [pc, #112]	; (8000a08 <MX_CAN1_Init+0xa0>)
 8000996:	2200      	movs	r2, #0
 8000998:	761a      	strb	r2, [r3, #24]
  hcan1.Init.AutoBusOff = DISABLE;
 800099a:	4b1b      	ldr	r3, [pc, #108]	; (8000a08 <MX_CAN1_Init+0xa0>)
 800099c:	2200      	movs	r2, #0
 800099e:	765a      	strb	r2, [r3, #25]
  hcan1.Init.AutoWakeUp = DISABLE;
 80009a0:	4b19      	ldr	r3, [pc, #100]	; (8000a08 <MX_CAN1_Init+0xa0>)
 80009a2:	2200      	movs	r2, #0
 80009a4:	769a      	strb	r2, [r3, #26]
  hcan1.Init.AutoRetransmission = DISABLE;
 80009a6:	4b18      	ldr	r3, [pc, #96]	; (8000a08 <MX_CAN1_Init+0xa0>)
 80009a8:	2200      	movs	r2, #0
 80009aa:	76da      	strb	r2, [r3, #27]
  hcan1.Init.ReceiveFifoLocked = DISABLE;
 80009ac:	4b16      	ldr	r3, [pc, #88]	; (8000a08 <MX_CAN1_Init+0xa0>)
 80009ae:	2200      	movs	r2, #0
 80009b0:	771a      	strb	r2, [r3, #28]
  hcan1.Init.TransmitFifoPriority = DISABLE;
 80009b2:	4b15      	ldr	r3, [pc, #84]	; (8000a08 <MX_CAN1_Init+0xa0>)
 80009b4:	2200      	movs	r2, #0
 80009b6:	775a      	strb	r2, [r3, #29]
  if (HAL_CAN_Init(&hcan1) != HAL_OK)
 80009b8:	4813      	ldr	r0, [pc, #76]	; (8000a08 <MX_CAN1_Init+0xa0>)
 80009ba:	f001 f887 	bl	8001acc <HAL_CAN_Init>
 80009be:	4603      	mov	r3, r0
 80009c0:	2b00      	cmp	r3, #0
 80009c2:	d001      	beq.n	80009c8 <MX_CAN1_Init+0x60>
  {
    Error_Handler();
 80009c4:	f000 f930 	bl	8000c28 <Error_Handler>
  }
  /* USER CODE BEGIN CAN1_Init 2 */
   CAN_FilterTypeDef canFilterConfig;
   canFilterConfig.FilterActivation=CAN_FILTER_ENABLE;
 80009c8:	2301      	movs	r3, #1
 80009ca:	623b      	str	r3, [r7, #32]
   canFilterConfig.SlaveStartFilterBank=14;
 80009cc:	230e      	movs	r3, #14
 80009ce:	627b      	str	r3, [r7, #36]	; 0x24
   canFilterConfig.FilterBank=2;
 80009d0:	2302      	movs	r3, #2
 80009d2:	617b      	str	r3, [r7, #20]
   canFilterConfig.FilterFIFOAssignment=CAN_RX_FIFO0;
 80009d4:	2300      	movs	r3, #0
 80009d6:	613b      	str	r3, [r7, #16]
   canFilterConfig.FilterScale=CAN_FILTERSCALE_32BIT;
 80009d8:	2301      	movs	r3, #1
 80009da:	61fb      	str	r3, [r7, #28]
   canFilterConfig.FilterMode=CAN_FILTERMODE_IDMASK;
 80009dc:	2300      	movs	r3, #0
 80009de:	61bb      	str	r3, [r7, #24]
   canFilterConfig.FilterMaskIdLow=0x0000;
 80009e0:	2300      	movs	r3, #0
 80009e2:	60fb      	str	r3, [r7, #12]
   canFilterConfig.FilterMaskIdHigh=0xFF00;
 80009e4:	f44f 437f 	mov.w	r3, #65280	; 0xff00
 80009e8:	60bb      	str	r3, [r7, #8]
   canFilterConfig.FilterIdLow=0x0000;
 80009ea:	2300      	movs	r3, #0
 80009ec:	607b      	str	r3, [r7, #4]
   canFilterConfig.FilterIdHigh=0x1500;
 80009ee:	f44f 53a8 	mov.w	r3, #5376	; 0x1500
 80009f2:	603b      	str	r3, [r7, #0]
   HAL_CAN_ConfigFilter(&hcan1, &canFilterConfig);
 80009f4:	463b      	mov	r3, r7
 80009f6:	4619      	mov	r1, r3
 80009f8:	4803      	ldr	r0, [pc, #12]	; (8000a08 <MX_CAN1_Init+0xa0>)
 80009fa:	f001 f963 	bl	8001cc4 <HAL_CAN_ConfigFilter>
  /* USER CODE END CAN1_Init 2 */

}
 80009fe:	bf00      	nop
 8000a00:	3728      	adds	r7, #40	; 0x28
 8000a02:	46bd      	mov	sp, r7
 8000a04:	bd80      	pop	{r7, pc}
 8000a06:	bf00      	nop
 8000a08:	20000100 	.word	0x20000100
 8000a0c:	40006400 	.word	0x40006400

08000a10 <MX_USART2_UART_Init>:
  * @brief USART2 Initialization Function
  * @param None
  * @retval None
  */
static void MX_USART2_UART_Init(void)
{
 8000a10:	b580      	push	{r7, lr}
 8000a12:	af00      	add	r7, sp, #0
  /* USER CODE END USART2_Init 0 */

  /* USER CODE BEGIN USART2_Init 1 */

  /* USER CODE END USART2_Init 1 */
  huart2.Instance = USART2;
 8000a14:	4b11      	ldr	r3, [pc, #68]	; (8000a5c <MX_USART2_UART_Init+0x4c>)
 8000a16:	4a12      	ldr	r2, [pc, #72]	; (8000a60 <MX_USART2_UART_Init+0x50>)
 8000a18:	601a      	str	r2, [r3, #0]
  huart2.Init.BaudRate = 9600;
 8000a1a:	4b10      	ldr	r3, [pc, #64]	; (8000a5c <MX_USART2_UART_Init+0x4c>)
 8000a1c:	f44f 5216 	mov.w	r2, #9600	; 0x2580
 8000a20:	605a      	str	r2, [r3, #4]
  huart2.Init.WordLength = UART_WORDLENGTH_8B;
 8000a22:	4b0e      	ldr	r3, [pc, #56]	; (8000a5c <MX_USART2_UART_Init+0x4c>)
 8000a24:	2200      	movs	r2, #0
 8000a26:	609a      	str	r2, [r3, #8]
  huart2.Init.StopBits = UART_STOPBITS_1;
 8000a28:	4b0c      	ldr	r3, [pc, #48]	; (8000a5c <MX_USART2_UART_Init+0x4c>)
 8000a2a:	2200      	movs	r2, #0
 8000a2c:	60da      	str	r2, [r3, #12]
  huart2.Init.Parity = UART_PARITY_NONE;
 8000a2e:	4b0b      	ldr	r3, [pc, #44]	; (8000a5c <MX_USART2_UART_Init+0x4c>)
 8000a30:	2200      	movs	r2, #0
 8000a32:	611a      	str	r2, [r3, #16]
  huart2.Init.Mode = UART_MODE_TX_RX;
 8000a34:	4b09      	ldr	r3, [pc, #36]	; (8000a5c <MX_USART2_UART_Init+0x4c>)
 8000a36:	220c      	movs	r2, #12
 8000a38:	615a      	str	r2, [r3, #20]
  huart2.Init.HwFlowCtl = UART_HWCONTROL_NONE;
 8000a3a:	4b08      	ldr	r3, [pc, #32]	; (8000a5c <MX_USART2_UART_Init+0x4c>)
 8000a3c:	2200      	movs	r2, #0
 8000a3e:	619a      	str	r2, [r3, #24]
  huart2.Init.OverSampling = UART_OVERSAMPLING_16;
 8000a40:	4b06      	ldr	r3, [pc, #24]	; (8000a5c <MX_USART2_UART_Init+0x4c>)
 8000a42:	2200      	movs	r2, #0
 8000a44:	61da      	str	r2, [r3, #28]
  if (HAL_UART_Init(&huart2) != HAL_OK)
 8000a46:	4805      	ldr	r0, [pc, #20]	; (8000a5c <MX_USART2_UART_Init+0x4c>)
 8000a48:	f002 fcfa 	bl	8003440 <HAL_UART_Init>
 8000a4c:	4603      	mov	r3, r0
 8000a4e:	2b00      	cmp	r3, #0
 8000a50:	d001      	beq.n	8000a56 <MX_USART2_UART_Init+0x46>
  {
    Error_Handler();
 8000a52:	f000 f8e9 	bl	8000c28 <Error_Handler>
  }
  /* USER CODE BEGIN USART2_Init 2 */

  /* USER CODE END USART2_Init 2 */

}
 8000a56:	bf00      	nop
 8000a58:	bd80      	pop	{r7, pc}
 8000a5a:	bf00      	nop
 8000a5c:	20000128 	.word	0x20000128
 8000a60:	40004400 	.word	0x40004400

08000a64 <MX_GPIO_Init>:
  * @brief GPIO Initialization Function
  * @param None
  * @retval None
  */
static void MX_GPIO_Init(void)
{
 8000a64:	b580      	push	{r7, lr}
 8000a66:	b08a      	sub	sp, #40	; 0x28
 8000a68:	af00      	add	r7, sp, #0
  GPIO_InitTypeDef GPIO_InitStruct = {0};
 8000a6a:	f107 0314 	add.w	r3, r7, #20
 8000a6e:	2200      	movs	r2, #0
 8000a70:	601a      	str	r2, [r3, #0]
 8000a72:	605a      	str	r2, [r3, #4]
 8000a74:	609a      	str	r2, [r3, #8]
 8000a76:	60da      	str	r2, [r3, #12]
 8000a78:	611a      	str	r2, [r3, #16]
/* USER CODE BEGIN MX_GPIO_Init_1 */
/* USER CODE END MX_GPIO_Init_1 */

  /* GPIO Ports Clock Enable */
  __HAL_RCC_GPIOH_CLK_ENABLE();
 8000a7a:	2300      	movs	r3, #0
 8000a7c:	613b      	str	r3, [r7, #16]
 8000a7e:	4b27      	ldr	r3, [pc, #156]	; (8000b1c <MX_GPIO_Init+0xb8>)
 8000a80:	6b1b      	ldr	r3, [r3, #48]	; 0x30
 8000a82:	4a26      	ldr	r2, [pc, #152]	; (8000b1c <MX_GPIO_Init+0xb8>)
 8000a84:	f043 0380 	orr.w	r3, r3, #128	; 0x80
 8000a88:	6313      	str	r3, [r2, #48]	; 0x30
 8000a8a:	4b24      	ldr	r3, [pc, #144]	; (8000b1c <MX_GPIO_Init+0xb8>)
 8000a8c:	6b1b      	ldr	r3, [r3, #48]	; 0x30
 8000a8e:	f003 0380 	and.w	r3, r3, #128	; 0x80
 8000a92:	613b      	str	r3, [r7, #16]
 8000a94:	693b      	ldr	r3, [r7, #16]
  __HAL_RCC_GPIOA_CLK_ENABLE();
 8000a96:	2300      	movs	r3, #0
 8000a98:	60fb      	str	r3, [r7, #12]
 8000a9a:	4b20      	ldr	r3, [pc, #128]	; (8000b1c <MX_GPIO_Init+0xb8>)
 8000a9c:	6b1b      	ldr	r3, [r3, #48]	; 0x30
 8000a9e:	4a1f      	ldr	r2, [pc, #124]	; (8000b1c <MX_GPIO_Init+0xb8>)
 8000aa0:	f043 0301 	orr.w	r3, r3, #1
 8000aa4:	6313      	str	r3, [r2, #48]	; 0x30
 8000aa6:	4b1d      	ldr	r3, [pc, #116]	; (8000b1c <MX_GPIO_Init+0xb8>)
 8000aa8:	6b1b      	ldr	r3, [r3, #48]	; 0x30
 8000aaa:	f003 0301 	and.w	r3, r3, #1
 8000aae:	60fb      	str	r3, [r7, #12]
 8000ab0:	68fb      	ldr	r3, [r7, #12]
  __HAL_RCC_GPIOD_CLK_ENABLE();
 8000ab2:	2300      	movs	r3, #0
 8000ab4:	60bb      	str	r3, [r7, #8]
 8000ab6:	4b19      	ldr	r3, [pc, #100]	; (8000b1c <MX_GPIO_Init+0xb8>)
 8000ab8:	6b1b      	ldr	r3, [r3, #48]	; 0x30
 8000aba:	4a18      	ldr	r2, [pc, #96]	; (8000b1c <MX_GPIO_Init+0xb8>)
 8000abc:	f043 0308 	orr.w	r3, r3, #8
 8000ac0:	6313      	str	r3, [r2, #48]	; 0x30
 8000ac2:	4b16      	ldr	r3, [pc, #88]	; (8000b1c <MX_GPIO_Init+0xb8>)
 8000ac4:	6b1b      	ldr	r3, [r3, #48]	; 0x30
 8000ac6:	f003 0308 	and.w	r3, r3, #8
 8000aca:	60bb      	str	r3, [r7, #8]
 8000acc:	68bb      	ldr	r3, [r7, #8]
  __HAL_RCC_GPIOB_CLK_ENABLE();
 8000ace:	2300      	movs	r3, #0
 8000ad0:	607b      	str	r3, [r7, #4]
 8000ad2:	4b12      	ldr	r3, [pc, #72]	; (8000b1c <MX_GPIO_Init+0xb8>)
 8000ad4:	6b1b      	ldr	r3, [r3, #48]	; 0x30
 8000ad6:	4a11      	ldr	r2, [pc, #68]	; (8000b1c <MX_GPIO_Init+0xb8>)
 8000ad8:	f043 0302 	orr.w	r3, r3, #2
 8000adc:	6313      	str	r3, [r2, #48]	; 0x30
 8000ade:	4b0f      	ldr	r3, [pc, #60]	; (8000b1c <MX_GPIO_Init+0xb8>)
 8000ae0:	6b1b      	ldr	r3, [r3, #48]	; 0x30
 8000ae2:	f003 0302 	and.w	r3, r3, #2
 8000ae6:	607b      	str	r3, [r7, #4]
 8000ae8:	687b      	ldr	r3, [r7, #4]

  /*Configure GPIO pin Output Level */
  HAL_GPIO_WritePin(GPIOD, GPIO_PIN_12|GPIO_PIN_13|GPIO_PIN_14|GPIO_PIN_15, GPIO_PIN_RESET);
 8000aea:	2200      	movs	r2, #0
 8000aec:	f44f 4170 	mov.w	r1, #61440	; 0xf000
 8000af0:	480b      	ldr	r0, [pc, #44]	; (8000b20 <MX_GPIO_Init+0xbc>)
 8000af2:	f001 fff3 	bl	8002adc <HAL_GPIO_WritePin>

  /*Configure GPIO pins : PD12 PD13 PD14 PD15 */
  GPIO_InitStruct.Pin = GPIO_PIN_12|GPIO_PIN_13|GPIO_PIN_14|GPIO_PIN_15;
 8000af6:	f44f 4370 	mov.w	r3, #61440	; 0xf000
 8000afa:	617b      	str	r3, [r7, #20]
  GPIO_InitStruct.Mode = GPIO_MODE_OUTPUT_PP;
 8000afc:	2301      	movs	r3, #1
 8000afe:	61bb      	str	r3, [r7, #24]
  GPIO_InitStruct.Pull = GPIO_NOPULL;
 8000b00:	2300      	movs	r3, #0
 8000b02:	61fb      	str	r3, [r7, #28]
  GPIO_InitStruct.Speed = GPIO_SPEED_FREQ_LOW;
 8000b04:	2300      	movs	r3, #0
 8000b06:	623b      	str	r3, [r7, #32]
  HAL_GPIO_Init(GPIOD, &GPIO_InitStruct);
 8000b08:	f107 0314 	add.w	r3, r7, #20
 8000b0c:	4619      	mov	r1, r3
 8000b0e:	4804      	ldr	r0, [pc, #16]	; (8000b20 <MX_GPIO_Init+0xbc>)
 8000b10:	f001 fe48 	bl	80027a4 <HAL_GPIO_Init>

/* USER CODE BEGIN MX_GPIO_Init_2 */
/* USER CODE END MX_GPIO_Init_2 */
}
 8000b14:	bf00      	nop
 8000b16:	3728      	adds	r7, #40	; 0x28
 8000b18:	46bd      	mov	sp, r7
 8000b1a:	bd80      	pop	{r7, pc}
 8000b1c:	40023800 	.word	0x40023800
 8000b20:	40020c00 	.word	0x40020c00

08000b24 <HAL_ADC_ConvCpltCallback>:
//{
//	HAL_GPIO_WritePin(GPIOD, GPIO_PIN_15, GPIO_PIN_SET);
//}

void HAL_ADC_ConvCpltCallback(ADC_HandleTypeDef* hadc)
{
 8000b24:	b580      	push	{r7, lr}
 8000b26:	b086      	sub	sp, #24
 8000b28:	af00      	add	r7, sp, #0
 8000b2a:	6078      	str	r0, [r7, #4]

	if(hadc->Instance == ADC1)
 8000b2c:	687b      	ldr	r3, [r7, #4]
 8000b2e:	681b      	ldr	r3, [r3, #0]
 8000b30:	4a34      	ldr	r2, [pc, #208]	; (8000c04 <HAL_ADC_ConvCpltCallback+0xe0>)
 8000b32:	4293      	cmp	r3, r2
 8000b34:	d11e      	bne.n	8000b74 <HAL_ADC_ConvCpltCallback+0x50>
	{
		uint32_t IR = HAL_ADC_GetValue(&hadc1);
 8000b36:	4834      	ldr	r0, [pc, #208]	; (8000c08 <HAL_ADC_ConvCpltCallback+0xe4>)
 8000b38:	f000 fd7e 	bl	8001638 <HAL_ADC_GetValue>
 8000b3c:	60f8      	str	r0, [r7, #12]
		HAL_ADC_Stop(&hadc1);
 8000b3e:	4832      	ldr	r0, [pc, #200]	; (8000c08 <HAL_ADC_ConvCpltCallback+0xe4>)
 8000b40:	f000 fb59 	bl	80011f6 <HAL_ADC_Stop>

		if(IR < 500){
 8000b44:	68fb      	ldr	r3, [r7, #12]
 8000b46:	f5b3 7ffa 	cmp.w	r3, #500	; 0x1f4
 8000b4a:	d209      	bcs.n	8000b60 <HAL_ADC_ConvCpltCallback+0x3c>
			IR_Flag = 1;
 8000b4c:	4b2f      	ldr	r3, [pc, #188]	; (8000c0c <HAL_ADC_ConvCpltCallback+0xe8>)
 8000b4e:	2201      	movs	r2, #1
 8000b50:	601a      	str	r2, [r3, #0]
			HAL_GPIO_WritePin(GPIOD, GPIO_PIN_12, GPIO_PIN_SET);	//yellow
 8000b52:	2201      	movs	r2, #1
 8000b54:	f44f 5180 	mov.w	r1, #4096	; 0x1000
 8000b58:	482d      	ldr	r0, [pc, #180]	; (8000c10 <HAL_ADC_ConvCpltCallback+0xec>)
 8000b5a:	f001 ffbf 	bl	8002adc <HAL_GPIO_WritePin>
			else{
				FUEL_Flag = 0;
				HAL_GPIO_WritePin(GPIOD, GPIO_PIN_14, GPIO_PIN_RESET);
			}
		}
}
 8000b5e:	e04c      	b.n	8000bfa <HAL_ADC_ConvCpltCallback+0xd6>
			IR_Flag = 0;
 8000b60:	4b2a      	ldr	r3, [pc, #168]	; (8000c0c <HAL_ADC_ConvCpltCallback+0xe8>)
 8000b62:	2200      	movs	r2, #0
 8000b64:	601a      	str	r2, [r3, #0]
			HAL_GPIO_WritePin(GPIOD, GPIO_PIN_12, GPIO_PIN_RESET);
 8000b66:	2200      	movs	r2, #0
 8000b68:	f44f 5180 	mov.w	r1, #4096	; 0x1000
 8000b6c:	4828      	ldr	r0, [pc, #160]	; (8000c10 <HAL_ADC_ConvCpltCallback+0xec>)
 8000b6e:	f001 ffb5 	bl	8002adc <HAL_GPIO_WritePin>
}
 8000b72:	e042      	b.n	8000bfa <HAL_ADC_ConvCpltCallback+0xd6>
	else if(hadc->Instance == ADC2){
 8000b74:	687b      	ldr	r3, [r7, #4]
 8000b76:	681b      	ldr	r3, [r3, #0]
 8000b78:	4a26      	ldr	r2, [pc, #152]	; (8000c14 <HAL_ADC_ConvCpltCallback+0xf0>)
 8000b7a:	4293      	cmp	r3, r2
 8000b7c:	d11e      	bne.n	8000bbc <HAL_ADC_ConvCpltCallback+0x98>
			uint32_t ALC = HAL_ADC_GetValue(&hadc2);
 8000b7e:	4826      	ldr	r0, [pc, #152]	; (8000c18 <HAL_ADC_ConvCpltCallback+0xf4>)
 8000b80:	f000 fd5a 	bl	8001638 <HAL_ADC_GetValue>
 8000b84:	6138      	str	r0, [r7, #16]
			HAL_ADC_Stop(&hadc2);
 8000b86:	4824      	ldr	r0, [pc, #144]	; (8000c18 <HAL_ADC_ConvCpltCallback+0xf4>)
 8000b88:	f000 fb35 	bl	80011f6 <HAL_ADC_Stop>
			if(ALC  > 500){
 8000b8c:	693b      	ldr	r3, [r7, #16]
 8000b8e:	f5b3 7ffa 	cmp.w	r3, #500	; 0x1f4
 8000b92:	d909      	bls.n	8000ba8 <HAL_ADC_ConvCpltCallback+0x84>
				ALC_Flag = 1;
 8000b94:	4b21      	ldr	r3, [pc, #132]	; (8000c1c <HAL_ADC_ConvCpltCallback+0xf8>)
 8000b96:	2201      	movs	r2, #1
 8000b98:	601a      	str	r2, [r3, #0]
				HAL_GPIO_WritePin(GPIOD, GPIO_PIN_13, GPIO_PIN_SET);	//orange
 8000b9a:	2201      	movs	r2, #1
 8000b9c:	f44f 5100 	mov.w	r1, #8192	; 0x2000
 8000ba0:	481b      	ldr	r0, [pc, #108]	; (8000c10 <HAL_ADC_ConvCpltCallback+0xec>)
 8000ba2:	f001 ff9b 	bl	8002adc <HAL_GPIO_WritePin>
}
 8000ba6:	e028      	b.n	8000bfa <HAL_ADC_ConvCpltCallback+0xd6>
				ALC_Flag = 0;
 8000ba8:	4b1c      	ldr	r3, [pc, #112]	; (8000c1c <HAL_ADC_ConvCpltCallback+0xf8>)
 8000baa:	2200      	movs	r2, #0
 8000bac:	601a      	str	r2, [r3, #0]
				HAL_GPIO_WritePin(GPIOD, GPIO_PIN_13, GPIO_PIN_RESET);
 8000bae:	2200      	movs	r2, #0
 8000bb0:	f44f 5100 	mov.w	r1, #8192	; 0x2000
 8000bb4:	4816      	ldr	r0, [pc, #88]	; (8000c10 <HAL_ADC_ConvCpltCallback+0xec>)
 8000bb6:	f001 ff91 	bl	8002adc <HAL_GPIO_WritePin>
}
 8000bba:	e01e      	b.n	8000bfa <HAL_ADC_ConvCpltCallback+0xd6>
			uint32_t FUEL = HAL_ADC_GetValue(&hadc3);
 8000bbc:	4818      	ldr	r0, [pc, #96]	; (8000c20 <HAL_ADC_ConvCpltCallback+0xfc>)
 8000bbe:	f000 fd3b 	bl	8001638 <HAL_ADC_GetValue>
 8000bc2:	6178      	str	r0, [r7, #20]
			HAL_ADC_Stop(&hadc3);
 8000bc4:	4816      	ldr	r0, [pc, #88]	; (8000c20 <HAL_ADC_ConvCpltCallback+0xfc>)
 8000bc6:	f000 fb16 	bl	80011f6 <HAL_ADC_Stop>
			if(FUEL > 1250){
 8000bca:	697b      	ldr	r3, [r7, #20]
 8000bcc:	f240 42e2 	movw	r2, #1250	; 0x4e2
 8000bd0:	4293      	cmp	r3, r2
 8000bd2:	d909      	bls.n	8000be8 <HAL_ADC_ConvCpltCallback+0xc4>
				FUEL_Flag = 1;
 8000bd4:	4b13      	ldr	r3, [pc, #76]	; (8000c24 <HAL_ADC_ConvCpltCallback+0x100>)
 8000bd6:	2201      	movs	r2, #1
 8000bd8:	601a      	str	r2, [r3, #0]
				HAL_GPIO_WritePin(GPIOD, GPIO_PIN_14, GPIO_PIN_SET);	//red
 8000bda:	2201      	movs	r2, #1
 8000bdc:	f44f 4180 	mov.w	r1, #16384	; 0x4000
 8000be0:	480b      	ldr	r0, [pc, #44]	; (8000c10 <HAL_ADC_ConvCpltCallback+0xec>)
 8000be2:	f001 ff7b 	bl	8002adc <HAL_GPIO_WritePin>
}
 8000be6:	e008      	b.n	8000bfa <HAL_ADC_ConvCpltCallback+0xd6>
				FUEL_Flag = 0;
 8000be8:	4b0e      	ldr	r3, [pc, #56]	; (8000c24 <HAL_ADC_ConvCpltCallback+0x100>)
 8000bea:	2200      	movs	r2, #0
 8000bec:	601a      	str	r2, [r3, #0]
				HAL_GPIO_WritePin(GPIOD, GPIO_PIN_14, GPIO_PIN_RESET);
 8000bee:	2200      	movs	r2, #0
 8000bf0:	f44f 4180 	mov.w	r1, #16384	; 0x4000
 8000bf4:	4806      	ldr	r0, [pc, #24]	; (8000c10 <HAL_ADC_ConvCpltCallback+0xec>)
 8000bf6:	f001 ff71 	bl	8002adc <HAL_GPIO_WritePin>
}
 8000bfa:	bf00      	nop
 8000bfc:	3718      	adds	r7, #24
 8000bfe:	46bd      	mov	sp, r7
 8000c00:	bd80      	pop	{r7, pc}
 8000c02:	bf00      	nop
 8000c04:	40012000 	.word	0x40012000
 8000c08:	20000028 	.word	0x20000028
 8000c0c:	2000016c 	.word	0x2000016c
 8000c10:	40020c00 	.word	0x40020c00
 8000c14:	40012100 	.word	0x40012100
 8000c18:	20000070 	.word	0x20000070
 8000c1c:	20000170 	.word	0x20000170
 8000c20:	200000b8 	.word	0x200000b8
 8000c24:	20000174 	.word	0x20000174

08000c28 <Error_Handler>:
/**
  * @brief  This function is executed in case of error occurrence.
  * @retval None
  */
void Error_Handler(void)
{
 8000c28:	b580      	push	{r7, lr}
 8000c2a:	af00      	add	r7, sp, #0
  \details Disables IRQ interrupts by setting the I-bit in the CPSR.
           Can only be executed in Privileged modes.
 */
__STATIC_FORCEINLINE void __disable_irq(void)
{
  __ASM volatile ("cpsid i" : : : "memory");
 8000c2c:	b672      	cpsid	i
}
 8000c2e:	bf00      	nop
  /* USER CODE BEGIN Error_Handler_Debug */
  /* User can add his own implementation to report the HAL error return state */
  __disable_irq();
  while (1)
  {
	  HAL_GPIO_WritePin(GPIOD, GPIO_PIN_15, GPIO_PIN_SET);
 8000c30:	2201      	movs	r2, #1
 8000c32:	f44f 4100 	mov.w	r1, #32768	; 0x8000
 8000c36:	4802      	ldr	r0, [pc, #8]	; (8000c40 <Error_Handler+0x18>)
 8000c38:	f001 ff50 	bl	8002adc <HAL_GPIO_WritePin>
 8000c3c:	e7f8      	b.n	8000c30 <Error_Handler+0x8>
 8000c3e:	bf00      	nop
 8000c40:	40020c00 	.word	0x40020c00

08000c44 <HAL_MspInit>:
/* USER CODE END 0 */
/**
  * Initializes the Global MSP.
  */
void HAL_MspInit(void)
{
 8000c44:	b580      	push	{r7, lr}
 8000c46:	b082      	sub	sp, #8
 8000c48:	af00      	add	r7, sp, #0
  /* USER CODE BEGIN MspInit 0 */

  /* USER CODE END MspInit 0 */

  __HAL_RCC_SYSCFG_CLK_ENABLE();
 8000c4a:	2300      	movs	r3, #0
 8000c4c:	607b      	str	r3, [r7, #4]
 8000c4e:	4b10      	ldr	r3, [pc, #64]	; (8000c90 <HAL_MspInit+0x4c>)
 8000c50:	6c5b      	ldr	r3, [r3, #68]	; 0x44
 8000c52:	4a0f      	ldr	r2, [pc, #60]	; (8000c90 <HAL_MspInit+0x4c>)
 8000c54:	f443 4380 	orr.w	r3, r3, #16384	; 0x4000
 8000c58:	6453      	str	r3, [r2, #68]	; 0x44
 8000c5a:	4b0d      	ldr	r3, [pc, #52]	; (8000c90 <HAL_MspInit+0x4c>)
 8000c5c:	6c5b      	ldr	r3, [r3, #68]	; 0x44
 8000c5e:	f403 4380 	and.w	r3, r3, #16384	; 0x4000
 8000c62:	607b      	str	r3, [r7, #4]
 8000c64:	687b      	ldr	r3, [r7, #4]
  __HAL_RCC_PWR_CLK_ENABLE();
 8000c66:	2300      	movs	r3, #0
 8000c68:	603b      	str	r3, [r7, #0]
 8000c6a:	4b09      	ldr	r3, [pc, #36]	; (8000c90 <HAL_MspInit+0x4c>)
 8000c6c:	6c1b      	ldr	r3, [r3, #64]	; 0x40
 8000c6e:	4a08      	ldr	r2, [pc, #32]	; (8000c90 <HAL_MspInit+0x4c>)
 8000c70:	f043 5380 	orr.w	r3, r3, #268435456	; 0x10000000
 8000c74:	6413      	str	r3, [r2, #64]	; 0x40
 8000c76:	4b06      	ldr	r3, [pc, #24]	; (8000c90 <HAL_MspInit+0x4c>)
 8000c78:	6c1b      	ldr	r3, [r3, #64]	; 0x40
 8000c7a:	f003 5380 	and.w	r3, r3, #268435456	; 0x10000000
 8000c7e:	603b      	str	r3, [r7, #0]
 8000c80:	683b      	ldr	r3, [r7, #0]

  HAL_NVIC_SetPriorityGrouping(NVIC_PRIORITYGROUP_0);
 8000c82:	2007      	movs	r0, #7
 8000c84:	f001 fd4c 	bl	8002720 <HAL_NVIC_SetPriorityGrouping>
  /* System interrupt init*/

  /* USER CODE BEGIN MspInit 1 */

  /* USER CODE END MspInit 1 */
}
 8000c88:	bf00      	nop
 8000c8a:	3708      	adds	r7, #8
 8000c8c:	46bd      	mov	sp, r7
 8000c8e:	bd80      	pop	{r7, pc}
 8000c90:	40023800 	.word	0x40023800

08000c94 <HAL_ADC_MspInit>:
* This function configures the hardware resources used in this example
* @param hadc: ADC handle pointer
* @retval None
*/
void HAL_ADC_MspInit(ADC_HandleTypeDef* hadc)
{
 8000c94:	b580      	push	{r7, lr}
 8000c96:	b08e      	sub	sp, #56	; 0x38
 8000c98:	af00      	add	r7, sp, #0
 8000c9a:	6078      	str	r0, [r7, #4]
  GPIO_InitTypeDef GPIO_InitStruct = {0};
 8000c9c:	f107 0324 	add.w	r3, r7, #36	; 0x24
 8000ca0:	2200      	movs	r2, #0
 8000ca2:	601a      	str	r2, [r3, #0]
 8000ca4:	605a      	str	r2, [r3, #4]
 8000ca6:	609a      	str	r2, [r3, #8]
 8000ca8:	60da      	str	r2, [r3, #12]
 8000caa:	611a      	str	r2, [r3, #16]
  if(hadc->Instance==ADC1)
 8000cac:	687b      	ldr	r3, [r7, #4]
 8000cae:	681b      	ldr	r3, [r3, #0]
 8000cb0:	4a51      	ldr	r2, [pc, #324]	; (8000df8 <HAL_ADC_MspInit+0x164>)
 8000cb2:	4293      	cmp	r3, r2
 8000cb4:	d130      	bne.n	8000d18 <HAL_ADC_MspInit+0x84>
  {
  /* USER CODE BEGIN ADC1_MspInit 0 */

  /* USER CODE END ADC1_MspInit 0 */
    /* Peripheral clock enable */
    __HAL_RCC_ADC1_CLK_ENABLE();
 8000cb6:	2300      	movs	r3, #0
 8000cb8:	623b      	str	r3, [r7, #32]
 8000cba:	4b50      	ldr	r3, [pc, #320]	; (8000dfc <HAL_ADC_MspInit+0x168>)
 8000cbc:	6c5b      	ldr	r3, [r3, #68]	; 0x44
 8000cbe:	4a4f      	ldr	r2, [pc, #316]	; (8000dfc <HAL_ADC_MspInit+0x168>)
 8000cc0:	f443 7380 	orr.w	r3, r3, #256	; 0x100
 8000cc4:	6453      	str	r3, [r2, #68]	; 0x44
 8000cc6:	4b4d      	ldr	r3, [pc, #308]	; (8000dfc <HAL_ADC_MspInit+0x168>)
 8000cc8:	6c5b      	ldr	r3, [r3, #68]	; 0x44
 8000cca:	f403 7380 	and.w	r3, r3, #256	; 0x100
 8000cce:	623b      	str	r3, [r7, #32]
 8000cd0:	6a3b      	ldr	r3, [r7, #32]

    __HAL_RCC_GPIOA_CLK_ENABLE();
 8000cd2:	2300      	movs	r3, #0
 8000cd4:	61fb      	str	r3, [r7, #28]
 8000cd6:	4b49      	ldr	r3, [pc, #292]	; (8000dfc <HAL_ADC_MspInit+0x168>)
 8000cd8:	6b1b      	ldr	r3, [r3, #48]	; 0x30
 8000cda:	4a48      	ldr	r2, [pc, #288]	; (8000dfc <HAL_ADC_MspInit+0x168>)
 8000cdc:	f043 0301 	orr.w	r3, r3, #1
 8000ce0:	6313      	str	r3, [r2, #48]	; 0x30
 8000ce2:	4b46      	ldr	r3, [pc, #280]	; (8000dfc <HAL_ADC_MspInit+0x168>)
 8000ce4:	6b1b      	ldr	r3, [r3, #48]	; 0x30
 8000ce6:	f003 0301 	and.w	r3, r3, #1
 8000cea:	61fb      	str	r3, [r7, #28]
 8000cec:	69fb      	ldr	r3, [r7, #28]
    /**ADC1 GPIO Configuration
    PA1     ------> ADC1_IN1
    */
    GPIO_InitStruct.Pin = GPIO_PIN_1;
 8000cee:	2302      	movs	r3, #2
 8000cf0:	627b      	str	r3, [r7, #36]	; 0x24
    GPIO_InitStruct.Mode = GPIO_MODE_ANALOG;
 8000cf2:	2303      	movs	r3, #3
 8000cf4:	62bb      	str	r3, [r7, #40]	; 0x28
    GPIO_InitStruct.Pull = GPIO_NOPULL;
 8000cf6:	2300      	movs	r3, #0
 8000cf8:	62fb      	str	r3, [r7, #44]	; 0x2c
    HAL_GPIO_Init(GPIOA, &GPIO_InitStruct);
 8000cfa:	f107 0324 	add.w	r3, r7, #36	; 0x24
 8000cfe:	4619      	mov	r1, r3
 8000d00:	483f      	ldr	r0, [pc, #252]	; (8000e00 <HAL_ADC_MspInit+0x16c>)
 8000d02:	f001 fd4f 	bl	80027a4 <HAL_GPIO_Init>

    /* ADC1 interrupt Init */
    HAL_NVIC_SetPriority(ADC_IRQn, 0, 0);
 8000d06:	2200      	movs	r2, #0
 8000d08:	2100      	movs	r1, #0
 8000d0a:	2012      	movs	r0, #18
 8000d0c:	f001 fd13 	bl	8002736 <HAL_NVIC_SetPriority>
    HAL_NVIC_EnableIRQ(ADC_IRQn);
 8000d10:	2012      	movs	r0, #18
 8000d12:	f001 fd2c 	bl	800276e <HAL_NVIC_EnableIRQ>
  /* USER CODE BEGIN ADC3_MspInit 1 */

  /* USER CODE END ADC3_MspInit 1 */
  }

}
 8000d16:	e06a      	b.n	8000dee <HAL_ADC_MspInit+0x15a>
  else if(hadc->Instance==ADC2)
 8000d18:	687b      	ldr	r3, [r7, #4]
 8000d1a:	681b      	ldr	r3, [r3, #0]
 8000d1c:	4a39      	ldr	r2, [pc, #228]	; (8000e04 <HAL_ADC_MspInit+0x170>)
 8000d1e:	4293      	cmp	r3, r2
 8000d20:	d130      	bne.n	8000d84 <HAL_ADC_MspInit+0xf0>
    __HAL_RCC_ADC2_CLK_ENABLE();
 8000d22:	2300      	movs	r3, #0
 8000d24:	61bb      	str	r3, [r7, #24]
 8000d26:	4b35      	ldr	r3, [pc, #212]	; (8000dfc <HAL_ADC_MspInit+0x168>)
 8000d28:	6c5b      	ldr	r3, [r3, #68]	; 0x44
 8000d2a:	4a34      	ldr	r2, [pc, #208]	; (8000dfc <HAL_ADC_MspInit+0x168>)
 8000d2c:	f443 7300 	orr.w	r3, r3, #512	; 0x200
 8000d30:	6453      	str	r3, [r2, #68]	; 0x44
 8000d32:	4b32      	ldr	r3, [pc, #200]	; (8000dfc <HAL_ADC_MspInit+0x168>)
 8000d34:	6c5b      	ldr	r3, [r3, #68]	; 0x44
 8000d36:	f403 7300 	and.w	r3, r3, #512	; 0x200
 8000d3a:	61bb      	str	r3, [r7, #24]
 8000d3c:	69bb      	ldr	r3, [r7, #24]
    __HAL_RCC_GPIOA_CLK_ENABLE();
 8000d3e:	2300      	movs	r3, #0
 8000d40:	617b      	str	r3, [r7, #20]
 8000d42:	4b2e      	ldr	r3, [pc, #184]	; (8000dfc <HAL_ADC_MspInit+0x168>)
 8000d44:	6b1b      	ldr	r3, [r3, #48]	; 0x30
 8000d46:	4a2d      	ldr	r2, [pc, #180]	; (8000dfc <HAL_ADC_MspInit+0x168>)
 8000d48:	f043 0301 	orr.w	r3, r3, #1
 8000d4c:	6313      	str	r3, [r2, #48]	; 0x30
 8000d4e:	4b2b      	ldr	r3, [pc, #172]	; (8000dfc <HAL_ADC_MspInit+0x168>)
 8000d50:	6b1b      	ldr	r3, [r3, #48]	; 0x30
 8000d52:	f003 0301 	and.w	r3, r3, #1
 8000d56:	617b      	str	r3, [r7, #20]
 8000d58:	697b      	ldr	r3, [r7, #20]
    GPIO_InitStruct.Pin = GPIO_PIN_2;
 8000d5a:	2304      	movs	r3, #4
 8000d5c:	627b      	str	r3, [r7, #36]	; 0x24
    GPIO_InitStruct.Mode = GPIO_MODE_ANALOG;
 8000d5e:	2303      	movs	r3, #3
 8000d60:	62bb      	str	r3, [r7, #40]	; 0x28
    GPIO_InitStruct.Pull = GPIO_NOPULL;
 8000d62:	2300      	movs	r3, #0
 8000d64:	62fb      	str	r3, [r7, #44]	; 0x2c
    HAL_GPIO_Init(GPIOA, &GPIO_InitStruct);
 8000d66:	f107 0324 	add.w	r3, r7, #36	; 0x24
 8000d6a:	4619      	mov	r1, r3
 8000d6c:	4824      	ldr	r0, [pc, #144]	; (8000e00 <HAL_ADC_MspInit+0x16c>)
 8000d6e:	f001 fd19 	bl	80027a4 <HAL_GPIO_Init>
    HAL_NVIC_SetPriority(ADC_IRQn, 0, 0);
 8000d72:	2200      	movs	r2, #0
 8000d74:	2100      	movs	r1, #0
 8000d76:	2012      	movs	r0, #18
 8000d78:	f001 fcdd 	bl	8002736 <HAL_NVIC_SetPriority>
    HAL_NVIC_EnableIRQ(ADC_IRQn);
 8000d7c:	2012      	movs	r0, #18
 8000d7e:	f001 fcf6 	bl	800276e <HAL_NVIC_EnableIRQ>
}
 8000d82:	e034      	b.n	8000dee <HAL_ADC_MspInit+0x15a>
  else if(hadc->Instance==ADC3)
 8000d84:	687b      	ldr	r3, [r7, #4]
 8000d86:	681b      	ldr	r3, [r3, #0]
 8000d88:	4a1f      	ldr	r2, [pc, #124]	; (8000e08 <HAL_ADC_MspInit+0x174>)
 8000d8a:	4293      	cmp	r3, r2
 8000d8c:	d12f      	bne.n	8000dee <HAL_ADC_MspInit+0x15a>
    __HAL_RCC_ADC3_CLK_ENABLE();
 8000d8e:	2300      	movs	r3, #0
 8000d90:	613b      	str	r3, [r7, #16]
 8000d92:	4b1a      	ldr	r3, [pc, #104]	; (8000dfc <HAL_ADC_MspInit+0x168>)
 8000d94:	6c5b      	ldr	r3, [r3, #68]	; 0x44
 8000d96:	4a19      	ldr	r2, [pc, #100]	; (8000dfc <HAL_ADC_MspInit+0x168>)
 8000d98:	f443 6380 	orr.w	r3, r3, #1024	; 0x400
 8000d9c:	6453      	str	r3, [r2, #68]	; 0x44
 8000d9e:	4b17      	ldr	r3, [pc, #92]	; (8000dfc <HAL_ADC_MspInit+0x168>)
 8000da0:	6c5b      	ldr	r3, [r3, #68]	; 0x44
 8000da2:	f403 6380 	and.w	r3, r3, #1024	; 0x400
 8000da6:	613b      	str	r3, [r7, #16]
 8000da8:	693b      	ldr	r3, [r7, #16]
    __HAL_RCC_GPIOA_CLK_ENABLE();
 8000daa:	2300      	movs	r3, #0
 8000dac:	60fb      	str	r3, [r7, #12]
 8000dae:	4b13      	ldr	r3, [pc, #76]	; (8000dfc <HAL_ADC_MspInit+0x168>)
 8000db0:	6b1b      	ldr	r3, [r3, #48]	; 0x30
 8000db2:	4a12      	ldr	r2, [pc, #72]	; (8000dfc <HAL_ADC_MspInit+0x168>)
 8000db4:	f043 0301 	orr.w	r3, r3, #1
 8000db8:	6313      	str	r3, [r2, #48]	; 0x30
 8000dba:	4b10      	ldr	r3, [pc, #64]	; (8000dfc <HAL_ADC_MspInit+0x168>)
 8000dbc:	6b1b      	ldr	r3, [r3, #48]	; 0x30
 8000dbe:	f003 0301 	and.w	r3, r3, #1
 8000dc2:	60fb      	str	r3, [r7, #12]
 8000dc4:	68fb      	ldr	r3, [r7, #12]
    GPIO_InitStruct.Pin = GPIO_PIN_3;
 8000dc6:	2308      	movs	r3, #8
 8000dc8:	627b      	str	r3, [r7, #36]	; 0x24
    GPIO_InitStruct.Mode = GPIO_MODE_ANALOG;
 8000dca:	2303      	movs	r3, #3
 8000dcc:	62bb      	str	r3, [r7, #40]	; 0x28
    GPIO_InitStruct.Pull = GPIO_NOPULL;
 8000dce:	2300      	movs	r3, #0
 8000dd0:	62fb      	str	r3, [r7, #44]	; 0x2c
    HAL_GPIO_Init(GPIOA, &GPIO_InitStruct);
 8000dd2:	f107 0324 	add.w	r3, r7, #36	; 0x24
 8000dd6:	4619      	mov	r1, r3
 8000dd8:	4809      	ldr	r0, [pc, #36]	; (8000e00 <HAL_ADC_MspInit+0x16c>)
 8000dda:	f001 fce3 	bl	80027a4 <HAL_GPIO_Init>
    HAL_NVIC_SetPriority(ADC_IRQn, 0, 0);
 8000dde:	2200      	movs	r2, #0
 8000de0:	2100      	movs	r1, #0
 8000de2:	2012      	movs	r0, #18
 8000de4:	f001 fca7 	bl	8002736 <HAL_NVIC_SetPriority>
    HAL_NVIC_EnableIRQ(ADC_IRQn);
 8000de8:	2012      	movs	r0, #18
 8000dea:	f001 fcc0 	bl	800276e <HAL_NVIC_EnableIRQ>
}
 8000dee:	bf00      	nop
 8000df0:	3738      	adds	r7, #56	; 0x38
 8000df2:	46bd      	mov	sp, r7
 8000df4:	bd80      	pop	{r7, pc}
 8000df6:	bf00      	nop
 8000df8:	40012000 	.word	0x40012000
 8000dfc:	40023800 	.word	0x40023800
 8000e00:	40020000 	.word	0x40020000
 8000e04:	40012100 	.word	0x40012100
 8000e08:	40012200 	.word	0x40012200

08000e0c <HAL_CAN_MspInit>:
* This function configures the hardware resources used in this example
* @param hcan: CAN handle pointer
* @retval None
*/
void HAL_CAN_MspInit(CAN_HandleTypeDef* hcan)
{
 8000e0c:	b580      	push	{r7, lr}
 8000e0e:	b08a      	sub	sp, #40	; 0x28
 8000e10:	af00      	add	r7, sp, #0
 8000e12:	6078      	str	r0, [r7, #4]
  GPIO_InitTypeDef GPIO_InitStruct = {0};
 8000e14:	f107 0314 	add.w	r3, r7, #20
 8000e18:	2200      	movs	r2, #0
 8000e1a:	601a      	str	r2, [r3, #0]
 8000e1c:	605a      	str	r2, [r3, #4]
 8000e1e:	609a      	str	r2, [r3, #8]
 8000e20:	60da      	str	r2, [r3, #12]
 8000e22:	611a      	str	r2, [r3, #16]
  if(hcan->Instance==CAN1)
 8000e24:	687b      	ldr	r3, [r7, #4]
 8000e26:	681b      	ldr	r3, [r3, #0]
 8000e28:	4a1d      	ldr	r2, [pc, #116]	; (8000ea0 <HAL_CAN_MspInit+0x94>)
 8000e2a:	4293      	cmp	r3, r2
 8000e2c:	d134      	bne.n	8000e98 <HAL_CAN_MspInit+0x8c>
  {
  /* USER CODE BEGIN CAN1_MspInit 0 */

  /* USER CODE END CAN1_MspInit 0 */
    /* Peripheral clock enable */
    __HAL_RCC_CAN1_CLK_ENABLE();
 8000e2e:	2300      	movs	r3, #0
 8000e30:	613b      	str	r3, [r7, #16]
 8000e32:	4b1c      	ldr	r3, [pc, #112]	; (8000ea4 <HAL_CAN_MspInit+0x98>)
 8000e34:	6c1b      	ldr	r3, [r3, #64]	; 0x40
 8000e36:	4a1b      	ldr	r2, [pc, #108]	; (8000ea4 <HAL_CAN_MspInit+0x98>)
 8000e38:	f043 7300 	orr.w	r3, r3, #33554432	; 0x2000000
 8000e3c:	6413      	str	r3, [r2, #64]	; 0x40
 8000e3e:	4b19      	ldr	r3, [pc, #100]	; (8000ea4 <HAL_CAN_MspInit+0x98>)
 8000e40:	6c1b      	ldr	r3, [r3, #64]	; 0x40
 8000e42:	f003 7300 	and.w	r3, r3, #33554432	; 0x2000000
 8000e46:	613b      	str	r3, [r7, #16]
 8000e48:	693b      	ldr	r3, [r7, #16]

    __HAL_RCC_GPIOB_CLK_ENABLE();
 8000e4a:	2300      	movs	r3, #0
 8000e4c:	60fb      	str	r3, [r7, #12]
 8000e4e:	4b15      	ldr	r3, [pc, #84]	; (8000ea4 <HAL_CAN_MspInit+0x98>)
 8000e50:	6b1b      	ldr	r3, [r3, #48]	; 0x30
 8000e52:	4a14      	ldr	r2, [pc, #80]	; (8000ea4 <HAL_CAN_MspInit+0x98>)
 8000e54:	f043 0302 	orr.w	r3, r3, #2
 8000e58:	6313      	str	r3, [r2, #48]	; 0x30
 8000e5a:	4b12      	ldr	r3, [pc, #72]	; (8000ea4 <HAL_CAN_MspInit+0x98>)
 8000e5c:	6b1b      	ldr	r3, [r3, #48]	; 0x30
 8000e5e:	f003 0302 	and.w	r3, r3, #2
 8000e62:	60fb      	str	r3, [r7, #12]
 8000e64:	68fb      	ldr	r3, [r7, #12]
    /**CAN1 GPIO Configuration
    PB8     ------> CAN1_RX
    PB9     ------> CAN1_TX
    */
    GPIO_InitStruct.Pin = GPIO_PIN_8|GPIO_PIN_9;
 8000e66:	f44f 7340 	mov.w	r3, #768	; 0x300
 8000e6a:	617b      	str	r3, [r7, #20]
    GPIO_InitStruct.Mode = GPIO_MODE_AF_PP;
 8000e6c:	2302      	movs	r3, #2
 8000e6e:	61bb      	str	r3, [r7, #24]
    GPIO_InitStruct.Pull = GPIO_NOPULL;
 8000e70:	2300      	movs	r3, #0
 8000e72:	61fb      	str	r3, [r7, #28]
    GPIO_InitStruct.Speed = GPIO_SPEED_FREQ_VERY_HIGH;
 8000e74:	2303      	movs	r3, #3
 8000e76:	623b      	str	r3, [r7, #32]
    GPIO_InitStruct.Alternate = GPIO_AF9_CAN1;
 8000e78:	2309      	movs	r3, #9
 8000e7a:	627b      	str	r3, [r7, #36]	; 0x24
    HAL_GPIO_Init(GPIOB, &GPIO_InitStruct);
 8000e7c:	f107 0314 	add.w	r3, r7, #20
 8000e80:	4619      	mov	r1, r3
 8000e82:	4809      	ldr	r0, [pc, #36]	; (8000ea8 <HAL_CAN_MspInit+0x9c>)
 8000e84:	f001 fc8e 	bl	80027a4 <HAL_GPIO_Init>

    /* CAN1 interrupt Init */
    HAL_NVIC_SetPriority(CAN1_RX0_IRQn, 0, 0);
 8000e88:	2200      	movs	r2, #0
 8000e8a:	2100      	movs	r1, #0
 8000e8c:	2014      	movs	r0, #20
 8000e8e:	f001 fc52 	bl	8002736 <HAL_NVIC_SetPriority>
    HAL_NVIC_EnableIRQ(CAN1_RX0_IRQn);
 8000e92:	2014      	movs	r0, #20
 8000e94:	f001 fc6b 	bl	800276e <HAL_NVIC_EnableIRQ>
  /* USER CODE BEGIN CAN1_MspInit 1 */

  /* USER CODE END CAN1_MspInit 1 */
  }

}
 8000e98:	bf00      	nop
 8000e9a:	3728      	adds	r7, #40	; 0x28
 8000e9c:	46bd      	mov	sp, r7
 8000e9e:	bd80      	pop	{r7, pc}
 8000ea0:	40006400 	.word	0x40006400
 8000ea4:	40023800 	.word	0x40023800
 8000ea8:	40020400 	.word	0x40020400

08000eac <HAL_UART_MspInit>:
* This function configures the hardware resources used in this example
* @param huart: UART handle pointer
* @retval None
*/
void HAL_UART_MspInit(UART_HandleTypeDef* huart)
{
 8000eac:	b580      	push	{r7, lr}
 8000eae:	b08a      	sub	sp, #40	; 0x28
 8000eb0:	af00      	add	r7, sp, #0
 8000eb2:	6078      	str	r0, [r7, #4]
  GPIO_InitTypeDef GPIO_InitStruct = {0};
 8000eb4:	f107 0314 	add.w	r3, r7, #20
 8000eb8:	2200      	movs	r2, #0
 8000eba:	601a      	str	r2, [r3, #0]
 8000ebc:	605a      	str	r2, [r3, #4]
 8000ebe:	609a      	str	r2, [r3, #8]
 8000ec0:	60da      	str	r2, [r3, #12]
 8000ec2:	611a      	str	r2, [r3, #16]
  if(huart->Instance==USART2)
 8000ec4:	687b      	ldr	r3, [r7, #4]
 8000ec6:	681b      	ldr	r3, [r3, #0]
 8000ec8:	4a19      	ldr	r2, [pc, #100]	; (8000f30 <HAL_UART_MspInit+0x84>)
 8000eca:	4293      	cmp	r3, r2
 8000ecc:	d12b      	bne.n	8000f26 <HAL_UART_MspInit+0x7a>
  {
  /* USER CODE BEGIN USART2_MspInit 0 */

  /* USER CODE END USART2_MspInit 0 */
    /* Peripheral clock enable */
    __HAL_RCC_USART2_CLK_ENABLE();
 8000ece:	2300      	movs	r3, #0
 8000ed0:	613b      	str	r3, [r7, #16]
 8000ed2:	4b18      	ldr	r3, [pc, #96]	; (8000f34 <HAL_UART_MspInit+0x88>)
 8000ed4:	6c1b      	ldr	r3, [r3, #64]	; 0x40
 8000ed6:	4a17      	ldr	r2, [pc, #92]	; (8000f34 <HAL_UART_MspInit+0x88>)
 8000ed8:	f443 3300 	orr.w	r3, r3, #131072	; 0x20000
 8000edc:	6413      	str	r3, [r2, #64]	; 0x40
 8000ede:	4b15      	ldr	r3, [pc, #84]	; (8000f34 <HAL_UART_MspInit+0x88>)
 8000ee0:	6c1b      	ldr	r3, [r3, #64]	; 0x40
 8000ee2:	f403 3300 	and.w	r3, r3, #131072	; 0x20000
 8000ee6:	613b      	str	r3, [r7, #16]
 8000ee8:	693b      	ldr	r3, [r7, #16]

    __HAL_RCC_GPIOD_CLK_ENABLE();
 8000eea:	2300      	movs	r3, #0
 8000eec:	60fb      	str	r3, [r7, #12]
 8000eee:	4b11      	ldr	r3, [pc, #68]	; (8000f34 <HAL_UART_MspInit+0x88>)
 8000ef0:	6b1b      	ldr	r3, [r3, #48]	; 0x30
 8000ef2:	4a10      	ldr	r2, [pc, #64]	; (8000f34 <HAL_UART_MspInit+0x88>)
 8000ef4:	f043 0308 	orr.w	r3, r3, #8
 8000ef8:	6313      	str	r3, [r2, #48]	; 0x30
 8000efa:	4b0e      	ldr	r3, [pc, #56]	; (8000f34 <HAL_UART_MspInit+0x88>)
 8000efc:	6b1b      	ldr	r3, [r3, #48]	; 0x30
 8000efe:	f003 0308 	and.w	r3, r3, #8
 8000f02:	60fb      	str	r3, [r7, #12]
 8000f04:	68fb      	ldr	r3, [r7, #12]
    /**USART2 GPIO Configuration
    PD5     ------> USART2_TX
    PD6     ------> USART2_RX
    */
    GPIO_InitStruct.Pin = GPIO_PIN_5|GPIO_PIN_6;
 8000f06:	2360      	movs	r3, #96	; 0x60
 8000f08:	617b      	str	r3, [r7, #20]
    GPIO_InitStruct.Mode = GPIO_MODE_AF_PP;
 8000f0a:	2302      	movs	r3, #2
 8000f0c:	61bb      	str	r3, [r7, #24]
    GPIO_InitStruct.Pull = GPIO_NOPULL;
 8000f0e:	2300      	movs	r3, #0
 8000f10:	61fb      	str	r3, [r7, #28]
    GPIO_InitStruct.Speed = GPIO_SPEED_FREQ_VERY_HIGH;
 8000f12:	2303      	movs	r3, #3
 8000f14:	623b      	str	r3, [r7, #32]
    GPIO_InitStruct.Alternate = GPIO_AF7_USART2;
 8000f16:	2307      	movs	r3, #7
 8000f18:	627b      	str	r3, [r7, #36]	; 0x24
    HAL_GPIO_Init(GPIOD, &GPIO_InitStruct);
 8000f1a:	f107 0314 	add.w	r3, r7, #20
 8000f1e:	4619      	mov	r1, r3
 8000f20:	4805      	ldr	r0, [pc, #20]	; (8000f38 <HAL_UART_MspInit+0x8c>)
 8000f22:	f001 fc3f 	bl	80027a4 <HAL_GPIO_Init>
  /* USER CODE BEGIN USART2_MspInit 1 */

  /* USER CODE END USART2_MspInit 1 */
  }

}
 8000f26:	bf00      	nop
 8000f28:	3728      	adds	r7, #40	; 0x28
 8000f2a:	46bd      	mov	sp, r7
 8000f2c:	bd80      	pop	{r7, pc}
 8000f2e:	bf00      	nop
 8000f30:	40004400 	.word	0x40004400
 8000f34:	40023800 	.word	0x40023800
 8000f38:	40020c00 	.word	0x40020c00

08000f3c <NMI_Handler>:
/******************************************************************************/
/**
  * @brief This function handles Non maskable interrupt.
  */
void NMI_Handler(void)
{
 8000f3c:	b480      	push	{r7}
 8000f3e:	af00      	add	r7, sp, #0
  /* USER CODE BEGIN NonMaskableInt_IRQn 0 */

  /* USER CODE END NonMaskableInt_IRQn 0 */
  /* USER CODE BEGIN NonMaskableInt_IRQn 1 */
  while (1)
 8000f40:	e7fe      	b.n	8000f40 <NMI_Handler+0x4>

08000f42 <HardFault_Handler>:

/**
  * @brief This function handles Hard fault interrupt.
  */
void HardFault_Handler(void)
{
 8000f42:	b480      	push	{r7}
 8000f44:	af00      	add	r7, sp, #0
  /* USER CODE BEGIN HardFault_IRQn 0 */

  /* USER CODE END HardFault_IRQn 0 */
  while (1)
 8000f46:	e7fe      	b.n	8000f46 <HardFault_Handler+0x4>

08000f48 <MemManage_Handler>:

/**
  * @brief This function handles Memory management fault.
  */
void MemManage_Handler(void)
{
 8000f48:	b480      	push	{r7}
 8000f4a:	af00      	add	r7, sp, #0
  /* USER CODE BEGIN MemoryManagement_IRQn 0 */

  /* USER CODE END MemoryManagement_IRQn 0 */
  while (1)
 8000f4c:	e7fe      	b.n	8000f4c <MemManage_Handler+0x4>

08000f4e <BusFault_Handler>:

/**
  * @brief This function handles Pre-fetch fault, memory access fault.
  */
void BusFault_Handler(void)
{
 8000f4e:	b480      	push	{r7}
 8000f50:	af00      	add	r7, sp, #0
  /* USER CODE BEGIN BusFault_IRQn 0 */

  /* USER CODE END BusFault_IRQn 0 */
  while (1)
 8000f52:	e7fe      	b.n	8000f52 <BusFault_Handler+0x4>

08000f54 <UsageFault_Handler>:

/**
  * @brief This function handles Undefined instruction or illegal state.
  */
void UsageFault_Handler(void)
{
 8000f54:	b480      	push	{r7}
 8000f56:	af00      	add	r7, sp, #0
  /* USER CODE BEGIN UsageFault_IRQn 0 */

  /* USER CODE END UsageFault_IRQn 0 */
  while (1)
 8000f58:	e7fe      	b.n	8000f58 <UsageFault_Handler+0x4>

08000f5a <SVC_Handler>:

/**
  * @brief This function handles System service call via SWI instruction.
  */
void SVC_Handler(void)
{
 8000f5a:	b480      	push	{r7}
 8000f5c:	af00      	add	r7, sp, #0

  /* USER CODE END SVCall_IRQn 0 */
  /* USER CODE BEGIN SVCall_IRQn 1 */

  /* USER CODE END SVCall_IRQn 1 */
}
 8000f5e:	bf00      	nop
 8000f60:	46bd      	mov	sp, r7
 8000f62:	f85d 7b04 	ldr.w	r7, [sp], #4
 8000f66:	4770      	bx	lr

08000f68 <DebugMon_Handler>:

/**
  * @brief This function handles Debug monitor.
  */
void DebugMon_Handler(void)
{
 8000f68:	b480      	push	{r7}
 8000f6a:	af00      	add	r7, sp, #0

  /* USER CODE END DebugMonitor_IRQn 0 */
  /* USER CODE BEGIN DebugMonitor_IRQn 1 */

  /* USER CODE END DebugMonitor_IRQn 1 */
}
 8000f6c:	bf00      	nop
 8000f6e:	46bd      	mov	sp, r7
 8000f70:	f85d 7b04 	ldr.w	r7, [sp], #4
 8000f74:	4770      	bx	lr

08000f76 <PendSV_Handler>:

/**
  * @brief This function handles Pendable request for system service.
  */
void PendSV_Handler(void)
{
 8000f76:	b480      	push	{r7}
 8000f78:	af00      	add	r7, sp, #0

  /* USER CODE END PendSV_IRQn 0 */
  /* USER CODE BEGIN PendSV_IRQn 1 */

  /* USER CODE END PendSV_IRQn 1 */
}
 8000f7a:	bf00      	nop
 8000f7c:	46bd      	mov	sp, r7
 8000f7e:	f85d 7b04 	ldr.w	r7, [sp], #4
 8000f82:	4770      	bx	lr

08000f84 <SysTick_Handler>:

/**
  * @brief This function handles System tick timer.
  */
void SysTick_Handler(void)
{
 8000f84:	b580      	push	{r7, lr}
 8000f86:	af00      	add	r7, sp, #0
  /* USER CODE BEGIN SysTick_IRQn 0 */

  /* USER CODE END SysTick_IRQn 0 */
  HAL_IncTick();
 8000f88:	f000 f8ae 	bl	80010e8 <HAL_IncTick>
  /* USER CODE BEGIN SysTick_IRQn 1 */

  /* USER CODE END SysTick_IRQn 1 */
}
 8000f8c:	bf00      	nop
 8000f8e:	bd80      	pop	{r7, pc}

08000f90 <ADC_IRQHandler>:

/**
  * @brief This function handles ADC1, ADC2 and ADC3 global interrupts.
  */
void ADC_IRQHandler(void)
{
 8000f90:	b580      	push	{r7, lr}
 8000f92:	af00      	add	r7, sp, #0
  /* USER CODE BEGIN ADC_IRQn 0 */

  /* USER CODE END ADC_IRQn 0 */
  HAL_ADC_IRQHandler(&hadc1);
 8000f94:	4805      	ldr	r0, [pc, #20]	; (8000fac <ADC_IRQHandler+0x1c>)
 8000f96:	f000 fa3f 	bl	8001418 <HAL_ADC_IRQHandler>
  HAL_ADC_IRQHandler(&hadc2);
 8000f9a:	4805      	ldr	r0, [pc, #20]	; (8000fb0 <ADC_IRQHandler+0x20>)
 8000f9c:	f000 fa3c 	bl	8001418 <HAL_ADC_IRQHandler>
  HAL_ADC_IRQHandler(&hadc3);
 8000fa0:	4804      	ldr	r0, [pc, #16]	; (8000fb4 <ADC_IRQHandler+0x24>)
 8000fa2:	f000 fa39 	bl	8001418 <HAL_ADC_IRQHandler>
  /* USER CODE BEGIN ADC_IRQn 1 */

  /* USER CODE END ADC_IRQn 1 */
}
 8000fa6:	bf00      	nop
 8000fa8:	bd80      	pop	{r7, pc}
 8000faa:	bf00      	nop
 8000fac:	20000028 	.word	0x20000028
 8000fb0:	20000070 	.word	0x20000070
 8000fb4:	200000b8 	.word	0x200000b8

08000fb8 <CAN1_RX0_IRQHandler>:

/**
  * @brief This function handles CAN1 RX0 interrupts.
  */
void CAN1_RX0_IRQHandler(void)
{
 8000fb8:	b580      	push	{r7, lr}
 8000fba:	af00      	add	r7, sp, #0
  /* USER CODE BEGIN CAN1_RX0_IRQn 0 */

  /* USER CODE END CAN1_RX0_IRQn 0 */
  HAL_CAN_IRQHandler(&hcan1);
 8000fbc:	4802      	ldr	r0, [pc, #8]	; (8000fc8 <CAN1_RX0_IRQHandler+0x10>)
 8000fbe:	f001 f8a6 	bl	800210e <HAL_CAN_IRQHandler>
  /* USER CODE BEGIN CAN1_RX0_IRQn 1 */

  /* USER CODE END CAN1_RX0_IRQn 1 */
}
 8000fc2:	bf00      	nop
 8000fc4:	bd80      	pop	{r7, pc}
 8000fc6:	bf00      	nop
 8000fc8:	20000100 	.word	0x20000100

08000fcc <SystemInit>:
  *         configuration.
  * @param  None
  * @retval None
  */
void SystemInit(void)
{
 8000fcc:	b480      	push	{r7}
 8000fce:	af00      	add	r7, sp, #0
  /* FPU settings ------------------------------------------------------------*/
  #if (__FPU_PRESENT == 1) && (__FPU_USED == 1)
    SCB->CPACR |= ((3UL << 10*2)|(3UL << 11*2));  /* set CP10 and CP11 Full Access */
 8000fd0:	4b06      	ldr	r3, [pc, #24]	; (8000fec <SystemInit+0x20>)
 8000fd2:	f8d3 3088 	ldr.w	r3, [r3, #136]	; 0x88
 8000fd6:	4a05      	ldr	r2, [pc, #20]	; (8000fec <SystemInit+0x20>)
 8000fd8:	f443 0370 	orr.w	r3, r3, #15728640	; 0xf00000
 8000fdc:	f8c2 3088 	str.w	r3, [r2, #136]	; 0x88

  /* Configure the Vector Table location -------------------------------------*/
#if defined(USER_VECT_TAB_ADDRESS)
  SCB->VTOR = VECT_TAB_BASE_ADDRESS | VECT_TAB_OFFSET; /* Vector Table Relocation in Internal SRAM */
#endif /* USER_VECT_TAB_ADDRESS */
}
 8000fe0:	bf00      	nop
 8000fe2:	46bd      	mov	sp, r7
 8000fe4:	f85d 7b04 	ldr.w	r7, [sp], #4
 8000fe8:	4770      	bx	lr
 8000fea:	bf00      	nop
 8000fec:	e000ed00 	.word	0xe000ed00

08000ff0 <Reset_Handler>:

    .section  .text.Reset_Handler
  .weak  Reset_Handler
  .type  Reset_Handler, %function
Reset_Handler:  
  ldr   sp, =_estack     /* set stack pointer */
 8000ff0:	f8df d034 	ldr.w	sp, [pc, #52]	; 8001028 <LoopFillZerobss+0x12>

/* Copy the data segment initializers from flash to SRAM */  
  ldr r0, =_sdata
 8000ff4:	480d      	ldr	r0, [pc, #52]	; (800102c <LoopFillZerobss+0x16>)
  ldr r1, =_edata
 8000ff6:	490e      	ldr	r1, [pc, #56]	; (8001030 <LoopFillZerobss+0x1a>)
  ldr r2, =_sidata
 8000ff8:	4a0e      	ldr	r2, [pc, #56]	; (8001034 <LoopFillZerobss+0x1e>)
  movs r3, #0
 8000ffa:	2300      	movs	r3, #0
  b LoopCopyDataInit
 8000ffc:	e002      	b.n	8001004 <LoopCopyDataInit>

08000ffe <CopyDataInit>:

CopyDataInit:
  ldr r4, [r2, r3]
 8000ffe:	58d4      	ldr	r4, [r2, r3]
  str r4, [r0, r3]
 8001000:	50c4      	str	r4, [r0, r3]
  adds r3, r3, #4
 8001002:	3304      	adds	r3, #4

08001004 <LoopCopyDataInit>:

LoopCopyDataInit:
  adds r4, r0, r3
 8001004:	18c4      	adds	r4, r0, r3
  cmp r4, r1
 8001006:	428c      	cmp	r4, r1
  bcc CopyDataInit
 8001008:	d3f9      	bcc.n	8000ffe <CopyDataInit>
  
/* Zero fill the bss segment. */
  ldr r2, =_sbss
 800100a:	4a0b      	ldr	r2, [pc, #44]	; (8001038 <LoopFillZerobss+0x22>)
  ldr r4, =_ebss
 800100c:	4c0b      	ldr	r4, [pc, #44]	; (800103c <LoopFillZerobss+0x26>)
  movs r3, #0
 800100e:	2300      	movs	r3, #0
  b LoopFillZerobss
 8001010:	e001      	b.n	8001016 <LoopFillZerobss>

08001012 <FillZerobss>:

FillZerobss:
  str  r3, [r2]
 8001012:	6013      	str	r3, [r2, #0]
  adds r2, r2, #4
 8001014:	3204      	adds	r2, #4

08001016 <LoopFillZerobss>:

LoopFillZerobss:
  cmp r2, r4
 8001016:	42a2      	cmp	r2, r4
  bcc FillZerobss
 8001018:	d3fb      	bcc.n	8001012 <FillZerobss>

/* Call the clock system initialization function.*/
  bl  SystemInit   
 800101a:	f7ff ffd7 	bl	8000fcc <SystemInit>
/* Call static constructors */
    bl __libc_init_array
 800101e:	f002 fdd1 	bl	8003bc4 <__libc_init_array>
/* Call the application's entry point.*/
  bl  main
 8001022:	f7ff fa53 	bl	80004cc <main>
  bx  lr    
 8001026:	4770      	bx	lr
  ldr   sp, =_estack     /* set stack pointer */
 8001028:	20020000 	.word	0x20020000
  ldr r0, =_sdata
 800102c:	20000000 	.word	0x20000000
  ldr r1, =_edata
 8001030:	2000000c 	.word	0x2000000c
  ldr r2, =_sidata
 8001034:	08003c90 	.word	0x08003c90
  ldr r2, =_sbss
 8001038:	2000000c 	.word	0x2000000c
  ldr r4, =_ebss
 800103c:	200001a0 	.word	0x200001a0

08001040 <CAN1_RX1_IRQHandler>:
 * @retval None       
*/
    .section  .text.Default_Handler,"ax",%progbits
Default_Handler:
Infinite_Loop:
  b  Infinite_Loop
 8001040:	e7fe      	b.n	8001040 <CAN1_RX1_IRQHandler>
	...

08001044 <HAL_Init>:
  *         need to ensure that the SysTick time base is always set to 1 millisecond
  *         to have correct HAL operation.
  * @retval HAL status
  */
HAL_StatusTypeDef HAL_Init(void)
{
 8001044:	b580      	push	{r7, lr}
 8001046:	af00      	add	r7, sp, #0
  /* Configure Flash prefetch, Instruction cache, Data cache */ 
#if (INSTRUCTION_CACHE_ENABLE != 0U)
  __HAL_FLASH_INSTRUCTION_CACHE_ENABLE();
 8001048:	4b0e      	ldr	r3, [pc, #56]	; (8001084 <HAL_Init+0x40>)
 800104a:	681b      	ldr	r3, [r3, #0]
 800104c:	4a0d      	ldr	r2, [pc, #52]	; (8001084 <HAL_Init+0x40>)
 800104e:	f443 7300 	orr.w	r3, r3, #512	; 0x200
 8001052:	6013      	str	r3, [r2, #0]
#endif /* INSTRUCTION_CACHE_ENABLE */

#if (DATA_CACHE_ENABLE != 0U)
  __HAL_FLASH_DATA_CACHE_ENABLE();
 8001054:	4b0b      	ldr	r3, [pc, #44]	; (8001084 <HAL_Init+0x40>)
 8001056:	681b      	ldr	r3, [r3, #0]
 8001058:	4a0a      	ldr	r2, [pc, #40]	; (8001084 <HAL_Init+0x40>)
 800105a:	f443 6380 	orr.w	r3, r3, #1024	; 0x400
 800105e:	6013      	str	r3, [r2, #0]
#endif /* DATA_CACHE_ENABLE */

#if (PREFETCH_ENABLE != 0U)
  __HAL_FLASH_PREFETCH_BUFFER_ENABLE();
 8001060:	4b08      	ldr	r3, [pc, #32]	; (8001084 <HAL_Init+0x40>)
 8001062:	681b      	ldr	r3, [r3, #0]
 8001064:	4a07      	ldr	r2, [pc, #28]	; (8001084 <HAL_Init+0x40>)
 8001066:	f443 7380 	orr.w	r3, r3, #256	; 0x100
 800106a:	6013      	str	r3, [r2, #0]
#endif /* PREFETCH_ENABLE */

  /* Set Interrupt Group Priority */
  HAL_NVIC_SetPriorityGrouping(NVIC_PRIORITYGROUP_4);
 800106c:	2003      	movs	r0, #3
 800106e:	f001 fb57 	bl	8002720 <HAL_NVIC_SetPriorityGrouping>

  /* Use systick as time base source and configure 1ms tick (default clock after Reset is HSI) */
  HAL_InitTick(TICK_INT_PRIORITY);
 8001072:	2000      	movs	r0, #0
 8001074:	f000 f808 	bl	8001088 <HAL_InitTick>

  /* Init the low level hardware */
  HAL_MspInit();
 8001078:	f7ff fde4 	bl	8000c44 <HAL_MspInit>

  /* Return function status */
  return HAL_OK;
 800107c:	2300      	movs	r3, #0
}
 800107e:	4618      	mov	r0, r3
 8001080:	bd80      	pop	{r7, pc}
 8001082:	bf00      	nop
 8001084:	40023c00 	.word	0x40023c00

08001088 <HAL_InitTick>:
  *       implementation  in user file.
  * @param TickPriority Tick interrupt priority.
  * @retval HAL status
  */
__weak HAL_StatusTypeDef HAL_InitTick(uint32_t TickPriority)
{
 8001088:	b580      	push	{r7, lr}
 800108a:	b082      	sub	sp, #8
 800108c:	af00      	add	r7, sp, #0
 800108e:	6078      	str	r0, [r7, #4]
  /* Configure the SysTick to have interrupt in 1ms time basis*/
  if (HAL_SYSTICK_Config(SystemCoreClock / (1000U / uwTickFreq)) > 0U)
 8001090:	4b12      	ldr	r3, [pc, #72]	; (80010dc <HAL_InitTick+0x54>)
 8001092:	681a      	ldr	r2, [r3, #0]
 8001094:	4b12      	ldr	r3, [pc, #72]	; (80010e0 <HAL_InitTick+0x58>)
 8001096:	781b      	ldrb	r3, [r3, #0]
 8001098:	4619      	mov	r1, r3
 800109a:	f44f 737a 	mov.w	r3, #1000	; 0x3e8
 800109e:	fbb3 f3f1 	udiv	r3, r3, r1
 80010a2:	fbb2 f3f3 	udiv	r3, r2, r3
 80010a6:	4618      	mov	r0, r3
 80010a8:	f001 fb6f 	bl	800278a <HAL_SYSTICK_Config>
 80010ac:	4603      	mov	r3, r0
 80010ae:	2b00      	cmp	r3, #0
 80010b0:	d001      	beq.n	80010b6 <HAL_InitTick+0x2e>
  {
    return HAL_ERROR;
 80010b2:	2301      	movs	r3, #1
 80010b4:	e00e      	b.n	80010d4 <HAL_InitTick+0x4c>
  }

  /* Configure the SysTick IRQ priority */
  if (TickPriority < (1UL << __NVIC_PRIO_BITS))
 80010b6:	687b      	ldr	r3, [r7, #4]
 80010b8:	2b0f      	cmp	r3, #15
 80010ba:	d80a      	bhi.n	80010d2 <HAL_InitTick+0x4a>
  {
    HAL_NVIC_SetPriority(SysTick_IRQn, TickPriority, 0U);
 80010bc:	2200      	movs	r2, #0
 80010be:	6879      	ldr	r1, [r7, #4]
 80010c0:	f04f 30ff 	mov.w	r0, #4294967295	; 0xffffffff
 80010c4:	f001 fb37 	bl	8002736 <HAL_NVIC_SetPriority>
    uwTickPrio = TickPriority;
 80010c8:	4a06      	ldr	r2, [pc, #24]	; (80010e4 <HAL_InitTick+0x5c>)
 80010ca:	687b      	ldr	r3, [r7, #4]
 80010cc:	6013      	str	r3, [r2, #0]
  {
    return HAL_ERROR;
  }

  /* Return function status */
  return HAL_OK;
 80010ce:	2300      	movs	r3, #0
 80010d0:	e000      	b.n	80010d4 <HAL_InitTick+0x4c>
    return HAL_ERROR;
 80010d2:	2301      	movs	r3, #1
}
 80010d4:	4618      	mov	r0, r3
 80010d6:	3708      	adds	r7, #8
 80010d8:	46bd      	mov	sp, r7
 80010da:	bd80      	pop	{r7, pc}
 80010dc:	20000000 	.word	0x20000000
 80010e0:	20000008 	.word	0x20000008
 80010e4:	20000004 	.word	0x20000004

080010e8 <HAL_IncTick>:
 * @note This function is declared as __weak to be overwritten in case of other 
  *      implementations in user file.
  * @retval None
  */
__weak void HAL_IncTick(void)
{
 80010e8:	b480      	push	{r7}
 80010ea:	af00      	add	r7, sp, #0
  uwTick += uwTickFreq;
 80010ec:	4b06      	ldr	r3, [pc, #24]	; (8001108 <HAL_IncTick+0x20>)
 80010ee:	781b      	ldrb	r3, [r3, #0]
 80010f0:	461a      	mov	r2, r3
 80010f2:	4b06      	ldr	r3, [pc, #24]	; (800110c <HAL_IncTick+0x24>)
 80010f4:	681b      	ldr	r3, [r3, #0]
 80010f6:	4413      	add	r3, r2
 80010f8:	4a04      	ldr	r2, [pc, #16]	; (800110c <HAL_IncTick+0x24>)
 80010fa:	6013      	str	r3, [r2, #0]
}
 80010fc:	bf00      	nop
 80010fe:	46bd      	mov	sp, r7
 8001100:	f85d 7b04 	ldr.w	r7, [sp], #4
 8001104:	4770      	bx	lr
 8001106:	bf00      	nop
 8001108:	20000008 	.word	0x20000008
 800110c:	2000019c 	.word	0x2000019c

08001110 <HAL_GetTick>:
  * @note This function is declared as __weak to be overwritten in case of other 
  *       implementations in user file.
  * @retval tick value
  */
__weak uint32_t HAL_GetTick(void)
{
 8001110:	b480      	push	{r7}
 8001112:	af00      	add	r7, sp, #0
  return uwTick;
 8001114:	4b03      	ldr	r3, [pc, #12]	; (8001124 <HAL_GetTick+0x14>)
 8001116:	681b      	ldr	r3, [r3, #0]
}
 8001118:	4618      	mov	r0, r3
 800111a:	46bd      	mov	sp, r7
 800111c:	f85d 7b04 	ldr.w	r7, [sp], #4
 8001120:	4770      	bx	lr
 8001122:	bf00      	nop
 8001124:	2000019c 	.word	0x2000019c

08001128 <HAL_Delay>:
  *       implementations in user file.
  * @param Delay specifies the delay time length, in milliseconds.
  * @retval None
  */
__weak void HAL_Delay(uint32_t Delay)
{
 8001128:	b580      	push	{r7, lr}
 800112a:	b084      	sub	sp, #16
 800112c:	af00      	add	r7, sp, #0
 800112e:	6078      	str	r0, [r7, #4]
  uint32_t tickstart = HAL_GetTick();
 8001130:	f7ff ffee 	bl	8001110 <HAL_GetTick>
 8001134:	60b8      	str	r0, [r7, #8]
  uint32_t wait = Delay;
 8001136:	687b      	ldr	r3, [r7, #4]
 8001138:	60fb      	str	r3, [r7, #12]

  /* Add a freq to guarantee minimum wait */
  if (wait < HAL_MAX_DELAY)
 800113a:	68fb      	ldr	r3, [r7, #12]
 800113c:	f1b3 3fff 	cmp.w	r3, #4294967295	; 0xffffffff
 8001140:	d005      	beq.n	800114e <HAL_Delay+0x26>
  {
    wait += (uint32_t)(uwTickFreq);
 8001142:	4b0a      	ldr	r3, [pc, #40]	; (800116c <HAL_Delay+0x44>)
 8001144:	781b      	ldrb	r3, [r3, #0]
 8001146:	461a      	mov	r2, r3
 8001148:	68fb      	ldr	r3, [r7, #12]
 800114a:	4413      	add	r3, r2
 800114c:	60fb      	str	r3, [r7, #12]
  }

  while((HAL_GetTick() - tickstart) < wait)
 800114e:	bf00      	nop
 8001150:	f7ff ffde 	bl	8001110 <HAL_GetTick>
 8001154:	4602      	mov	r2, r0
 8001156:	68bb      	ldr	r3, [r7, #8]
 8001158:	1ad3      	subs	r3, r2, r3
 800115a:	68fa      	ldr	r2, [r7, #12]
 800115c:	429a      	cmp	r2, r3
 800115e:	d8f7      	bhi.n	8001150 <HAL_Delay+0x28>
  {
  }
}
 8001160:	bf00      	nop
 8001162:	bf00      	nop
 8001164:	3710      	adds	r7, #16
 8001166:	46bd      	mov	sp, r7
 8001168:	bd80      	pop	{r7, pc}
 800116a:	bf00      	nop
 800116c:	20000008 	.word	0x20000008

08001170 <HAL_ADC_Init>:
  * @param  hadc pointer to a ADC_HandleTypeDef structure that contains
  *         the configuration information for the specified ADC.  
  * @retval HAL status
  */
HAL_StatusTypeDef HAL_ADC_Init(ADC_HandleTypeDef* hadc)
{
 8001170:	b580      	push	{r7, lr}
 8001172:	b084      	sub	sp, #16
 8001174:	af00      	add	r7, sp, #0
 8001176:	6078      	str	r0, [r7, #4]
  HAL_StatusTypeDef tmp_hal_status = HAL_OK;
 8001178:	2300      	movs	r3, #0
 800117a:	73fb      	strb	r3, [r7, #15]
  
  /* Check ADC handle */
  if(hadc == NULL)
 800117c:	687b      	ldr	r3, [r7, #4]
 800117e:	2b00      	cmp	r3, #0
 8001180:	d101      	bne.n	8001186 <HAL_ADC_Init+0x16>
  {
    return HAL_ERROR;
 8001182:	2301      	movs	r3, #1
 8001184:	e033      	b.n	80011ee <HAL_ADC_Init+0x7e>
  if(hadc->Init.ExternalTrigConv != ADC_SOFTWARE_START)
  {
    assert_param(IS_ADC_EXT_TRIG_EDGE(hadc->Init.ExternalTrigConvEdge));
  }
  
  if(hadc->State == HAL_ADC_STATE_RESET)
 8001186:	687b      	ldr	r3, [r7, #4]
 8001188:	6c1b      	ldr	r3, [r3, #64]	; 0x40
 800118a:	2b00      	cmp	r3, #0
 800118c:	d109      	bne.n	80011a2 <HAL_ADC_Init+0x32>

    /* Init the low level hardware */
    hadc->MspInitCallback(hadc);
#else
    /* Init the low level hardware */
    HAL_ADC_MspInit(hadc);
 800118e:	6878      	ldr	r0, [r7, #4]
 8001190:	f7ff fd80 	bl	8000c94 <HAL_ADC_MspInit>
#endif /* USE_HAL_ADC_REGISTER_CALLBACKS */

    /* Initialize ADC error code */
    ADC_CLEAR_ERRORCODE(hadc);
 8001194:	687b      	ldr	r3, [r7, #4]
 8001196:	2200      	movs	r2, #0
 8001198:	645a      	str	r2, [r3, #68]	; 0x44
    
    /* Allocate lock resource and initialize it */
    hadc->Lock = HAL_UNLOCKED;
 800119a:	687b      	ldr	r3, [r7, #4]
 800119c:	2200      	movs	r2, #0
 800119e:	f883 203c 	strb.w	r2, [r3, #60]	; 0x3c
  }
  
  /* Configuration of ADC parameters if previous preliminary actions are      */ 
  /* correctly completed.                                                     */
  if (HAL_IS_BIT_CLR(hadc->State, HAL_ADC_STATE_ERROR_INTERNAL))
 80011a2:	687b      	ldr	r3, [r7, #4]
 80011a4:	6c1b      	ldr	r3, [r3, #64]	; 0x40
 80011a6:	f003 0310 	and.w	r3, r3, #16
 80011aa:	2b00      	cmp	r3, #0
 80011ac:	d118      	bne.n	80011e0 <HAL_ADC_Init+0x70>
  {
    /* Set ADC state */
    ADC_STATE_CLR_SET(hadc->State,
 80011ae:	687b      	ldr	r3, [r7, #4]
 80011b0:	6c1b      	ldr	r3, [r3, #64]	; 0x40
 80011b2:	f423 5388 	bic.w	r3, r3, #4352	; 0x1100
 80011b6:	f023 0302 	bic.w	r3, r3, #2
 80011ba:	f043 0202 	orr.w	r2, r3, #2
 80011be:	687b      	ldr	r3, [r7, #4]
 80011c0:	641a      	str	r2, [r3, #64]	; 0x40
                      HAL_ADC_STATE_REG_BUSY | HAL_ADC_STATE_INJ_BUSY,
                      HAL_ADC_STATE_BUSY_INTERNAL);
    
    /* Set ADC parameters */
    ADC_Init(hadc);
 80011c2:	6878      	ldr	r0, [r7, #4]
 80011c4:	f000 fb7c 	bl	80018c0 <ADC_Init>
    
    /* Set ADC error code to none */
    ADC_CLEAR_ERRORCODE(hadc);
 80011c8:	687b      	ldr	r3, [r7, #4]
 80011ca:	2200      	movs	r2, #0
 80011cc:	645a      	str	r2, [r3, #68]	; 0x44
    
    /* Set the ADC state */
    ADC_STATE_CLR_SET(hadc->State,
 80011ce:	687b      	ldr	r3, [r7, #4]
 80011d0:	6c1b      	ldr	r3, [r3, #64]	; 0x40
 80011d2:	f023 0303 	bic.w	r3, r3, #3
 80011d6:	f043 0201 	orr.w	r2, r3, #1
 80011da:	687b      	ldr	r3, [r7, #4]
 80011dc:	641a      	str	r2, [r3, #64]	; 0x40
 80011de:	e001      	b.n	80011e4 <HAL_ADC_Init+0x74>
                      HAL_ADC_STATE_BUSY_INTERNAL,
                      HAL_ADC_STATE_READY);
  }
  else
  {
    tmp_hal_status = HAL_ERROR;
 80011e0:	2301      	movs	r3, #1
 80011e2:	73fb      	strb	r3, [r7, #15]
  }
  
  /* Release Lock */
  __HAL_UNLOCK(hadc);
 80011e4:	687b      	ldr	r3, [r7, #4]
 80011e6:	2200      	movs	r2, #0
 80011e8:	f883 203c 	strb.w	r2, [r3, #60]	; 0x3c

  /* Return function status */
  return tmp_hal_status;
 80011ec:	7bfb      	ldrb	r3, [r7, #15]
}
 80011ee:	4618      	mov	r0, r3
 80011f0:	3710      	adds	r7, #16
 80011f2:	46bd      	mov	sp, r7
 80011f4:	bd80      	pop	{r7, pc}

080011f6 <HAL_ADC_Stop>:
  *         the configuration information for the specified ADC.
  *
  * @retval HAL status.
  */
HAL_StatusTypeDef HAL_ADC_Stop(ADC_HandleTypeDef* hadc)
{
 80011f6:	b480      	push	{r7}
 80011f8:	b083      	sub	sp, #12
 80011fa:	af00      	add	r7, sp, #0
 80011fc:	6078      	str	r0, [r7, #4]
  /* Check the parameters */
  assert_param(IS_ADC_ALL_INSTANCE(hadc->Instance));
  
  /* Process locked */
  __HAL_LOCK(hadc);
 80011fe:	687b      	ldr	r3, [r7, #4]
 8001200:	f893 303c 	ldrb.w	r3, [r3, #60]	; 0x3c
 8001204:	2b01      	cmp	r3, #1
 8001206:	d101      	bne.n	800120c <HAL_ADC_Stop+0x16>
 8001208:	2302      	movs	r3, #2
 800120a:	e021      	b.n	8001250 <HAL_ADC_Stop+0x5a>
 800120c:	687b      	ldr	r3, [r7, #4]
 800120e:	2201      	movs	r2, #1
 8001210:	f883 203c 	strb.w	r2, [r3, #60]	; 0x3c
  
  /* Stop potential conversion on going, on regular and injected groups */
  /* Disable ADC peripheral */
  __HAL_ADC_DISABLE(hadc);
 8001214:	687b      	ldr	r3, [r7, #4]
 8001216:	681b      	ldr	r3, [r3, #0]
 8001218:	689a      	ldr	r2, [r3, #8]
 800121a:	687b      	ldr	r3, [r7, #4]
 800121c:	681b      	ldr	r3, [r3, #0]
 800121e:	f022 0201 	bic.w	r2, r2, #1
 8001222:	609a      	str	r2, [r3, #8]
  
  /* Check if ADC is effectively disabled */
  if(HAL_IS_BIT_CLR(hadc->Instance->CR2, ADC_CR2_ADON))
 8001224:	687b      	ldr	r3, [r7, #4]
 8001226:	681b      	ldr	r3, [r3, #0]
 8001228:	689b      	ldr	r3, [r3, #8]
 800122a:	f003 0301 	and.w	r3, r3, #1
 800122e:	2b00      	cmp	r3, #0
 8001230:	d109      	bne.n	8001246 <HAL_ADC_Stop+0x50>
  {
    /* Set ADC state */
    ADC_STATE_CLR_SET(hadc->State,
 8001232:	687b      	ldr	r3, [r7, #4]
 8001234:	6c1b      	ldr	r3, [r3, #64]	; 0x40
 8001236:	f423 5388 	bic.w	r3, r3, #4352	; 0x1100
 800123a:	f023 0301 	bic.w	r3, r3, #1
 800123e:	f043 0201 	orr.w	r2, r3, #1
 8001242:	687b      	ldr	r3, [r7, #4]
 8001244:	641a      	str	r2, [r3, #64]	; 0x40
                      HAL_ADC_STATE_REG_BUSY | HAL_ADC_STATE_INJ_BUSY,
                      HAL_ADC_STATE_READY);
  }
  
  /* Process unlocked */
  __HAL_UNLOCK(hadc);
 8001246:	687b      	ldr	r3, [r7, #4]
 8001248:	2200      	movs	r2, #0
 800124a:	f883 203c 	strb.w	r2, [r3, #60]	; 0x3c
  
  /* Return function status */
  return HAL_OK;
 800124e:	2300      	movs	r3, #0
}
 8001250:	4618      	mov	r0, r3
 8001252:	370c      	adds	r7, #12
 8001254:	46bd      	mov	sp, r7
 8001256:	f85d 7b04 	ldr.w	r7, [sp], #4
 800125a:	4770      	bx	lr

0800125c <HAL_ADC_Start_IT>:
  * @param  hadc pointer to a ADC_HandleTypeDef structure that contains
  *         the configuration information for the specified ADC.
  * @retval HAL status.
  */
HAL_StatusTypeDef HAL_ADC_Start_IT(ADC_HandleTypeDef* hadc)
{
 800125c:	b480      	push	{r7}
 800125e:	b085      	sub	sp, #20
 8001260:	af00      	add	r7, sp, #0
 8001262:	6078      	str	r0, [r7, #4]
  __IO uint32_t counter = 0U;
 8001264:	2300      	movs	r3, #0
 8001266:	60bb      	str	r3, [r7, #8]
  /* Check the parameters */
  assert_param(IS_FUNCTIONAL_STATE(hadc->Init.ContinuousConvMode));
  assert_param(IS_ADC_EXT_TRIG_EDGE(hadc->Init.ExternalTrigConvEdge)); 
  
  /* Process locked */
  __HAL_LOCK(hadc);
 8001268:	687b      	ldr	r3, [r7, #4]
 800126a:	f893 303c 	ldrb.w	r3, [r3, #60]	; 0x3c
 800126e:	2b01      	cmp	r3, #1
 8001270:	d101      	bne.n	8001276 <HAL_ADC_Start_IT+0x1a>
 8001272:	2302      	movs	r3, #2
 8001274:	e0bd      	b.n	80013f2 <HAL_ADC_Start_IT+0x196>
 8001276:	687b      	ldr	r3, [r7, #4]
 8001278:	2201      	movs	r2, #1
 800127a:	f883 203c 	strb.w	r2, [r3, #60]	; 0x3c
  
  /* Enable the ADC peripheral */
  /* Check if ADC peripheral is disabled in order to enable it and wait during 
  Tstab time the ADC's stabilization */
  if((hadc->Instance->CR2 & ADC_CR2_ADON) != ADC_CR2_ADON)
 800127e:	687b      	ldr	r3, [r7, #4]
 8001280:	681b      	ldr	r3, [r3, #0]
 8001282:	689b      	ldr	r3, [r3, #8]
 8001284:	f003 0301 	and.w	r3, r3, #1
 8001288:	2b01      	cmp	r3, #1
 800128a:	d018      	beq.n	80012be <HAL_ADC_Start_IT+0x62>
  {  
    /* Enable the Peripheral */
    __HAL_ADC_ENABLE(hadc);
 800128c:	687b      	ldr	r3, [r7, #4]
 800128e:	681b      	ldr	r3, [r3, #0]
 8001290:	689a      	ldr	r2, [r3, #8]
 8001292:	687b      	ldr	r3, [r7, #4]
 8001294:	681b      	ldr	r3, [r3, #0]
 8001296:	f042 0201 	orr.w	r2, r2, #1
 800129a:	609a      	str	r2, [r3, #8]
    
    /* Delay for ADC stabilization time */
    /* Compute number of CPU cycles to wait for */
    counter = (ADC_STAB_DELAY_US * (SystemCoreClock / 1000000U));
 800129c:	4b58      	ldr	r3, [pc, #352]	; (8001400 <HAL_ADC_Start_IT+0x1a4>)
 800129e:	681b      	ldr	r3, [r3, #0]
 80012a0:	4a58      	ldr	r2, [pc, #352]	; (8001404 <HAL_ADC_Start_IT+0x1a8>)
 80012a2:	fba2 2303 	umull	r2, r3, r2, r3
 80012a6:	0c9a      	lsrs	r2, r3, #18
 80012a8:	4613      	mov	r3, r2
 80012aa:	005b      	lsls	r3, r3, #1
 80012ac:	4413      	add	r3, r2
 80012ae:	60bb      	str	r3, [r7, #8]
    while(counter != 0U)
 80012b0:	e002      	b.n	80012b8 <HAL_ADC_Start_IT+0x5c>
    {
      counter--;
 80012b2:	68bb      	ldr	r3, [r7, #8]
 80012b4:	3b01      	subs	r3, #1
 80012b6:	60bb      	str	r3, [r7, #8]
    while(counter != 0U)
 80012b8:	68bb      	ldr	r3, [r7, #8]
 80012ba:	2b00      	cmp	r3, #0
 80012bc:	d1f9      	bne.n	80012b2 <HAL_ADC_Start_IT+0x56>
    }
  }
  
  /* Start conversion if ADC is effectively enabled */
  if(HAL_IS_BIT_SET(hadc->Instance->CR2, ADC_CR2_ADON))
 80012be:	687b      	ldr	r3, [r7, #4]
 80012c0:	681b      	ldr	r3, [r3, #0]
 80012c2:	689b      	ldr	r3, [r3, #8]
 80012c4:	f003 0301 	and.w	r3, r3, #1
 80012c8:	2b01      	cmp	r3, #1
 80012ca:	f040 8085 	bne.w	80013d8 <HAL_ADC_Start_IT+0x17c>
  {
    /* Set ADC state                                                          */
    /* - Clear state bitfield related to regular group conversion results     */
    /* - Set state bitfield related to regular group operation                */
    ADC_STATE_CLR_SET(hadc->State,
 80012ce:	687b      	ldr	r3, [r7, #4]
 80012d0:	6c1b      	ldr	r3, [r3, #64]	; 0x40
 80012d2:	f423 63e0 	bic.w	r3, r3, #1792	; 0x700
 80012d6:	f023 0301 	bic.w	r3, r3, #1
 80012da:	f443 7280 	orr.w	r2, r3, #256	; 0x100
 80012de:	687b      	ldr	r3, [r7, #4]
 80012e0:	641a      	str	r2, [r3, #64]	; 0x40
                      HAL_ADC_STATE_READY | HAL_ADC_STATE_REG_EOC | HAL_ADC_STATE_REG_OVR,
                      HAL_ADC_STATE_REG_BUSY);
    
    /* If conversions on group regular are also triggering group injected,    */
    /* update ADC state.                                                      */
    if (READ_BIT(hadc->Instance->CR1, ADC_CR1_JAUTO) != RESET)
 80012e2:	687b      	ldr	r3, [r7, #4]
 80012e4:	681b      	ldr	r3, [r3, #0]
 80012e6:	685b      	ldr	r3, [r3, #4]
 80012e8:	f403 6380 	and.w	r3, r3, #1024	; 0x400
 80012ec:	2b00      	cmp	r3, #0
 80012ee:	d007      	beq.n	8001300 <HAL_ADC_Start_IT+0xa4>
    {
      ADC_STATE_CLR_SET(hadc->State, HAL_ADC_STATE_INJ_EOC, HAL_ADC_STATE_INJ_BUSY);  
 80012f0:	687b      	ldr	r3, [r7, #4]
 80012f2:	6c1b      	ldr	r3, [r3, #64]	; 0x40
 80012f4:	f423 5340 	bic.w	r3, r3, #12288	; 0x3000
 80012f8:	f443 5280 	orr.w	r2, r3, #4096	; 0x1000
 80012fc:	687b      	ldr	r3, [r7, #4]
 80012fe:	641a      	str	r2, [r3, #64]	; 0x40
    }
    
    /* State machine update: Check if an injected conversion is ongoing */
    if (HAL_IS_BIT_SET(hadc->State, HAL_ADC_STATE_INJ_BUSY))
 8001300:	687b      	ldr	r3, [r7, #4]
 8001302:	6c1b      	ldr	r3, [r3, #64]	; 0x40
 8001304:	f403 5380 	and.w	r3, r3, #4096	; 0x1000
 8001308:	f5b3 5f80 	cmp.w	r3, #4096	; 0x1000
 800130c:	d106      	bne.n	800131c <HAL_ADC_Start_IT+0xc0>
    {
      /* Reset ADC error code fields related to conversions on group regular */
      CLEAR_BIT(hadc->ErrorCode, (HAL_ADC_ERROR_OVR | HAL_ADC_ERROR_DMA));         
 800130e:	687b      	ldr	r3, [r7, #4]
 8001310:	6c5b      	ldr	r3, [r3, #68]	; 0x44
 8001312:	f023 0206 	bic.w	r2, r3, #6
 8001316:	687b      	ldr	r3, [r7, #4]
 8001318:	645a      	str	r2, [r3, #68]	; 0x44
 800131a:	e002      	b.n	8001322 <HAL_ADC_Start_IT+0xc6>
    }
    else
    {
      /* Reset ADC all error code fields */
      ADC_CLEAR_ERRORCODE(hadc);
 800131c:	687b      	ldr	r3, [r7, #4]
 800131e:	2200      	movs	r2, #0
 8001320:	645a      	str	r2, [r3, #68]	; 0x44
    }

    /* Process unlocked */
    /* Unlock before starting ADC conversions: in case of potential           */
    /* interruption, to let the process to ADC IRQ Handler.                   */
    __HAL_UNLOCK(hadc);
 8001322:	687b      	ldr	r3, [r7, #4]
 8001324:	2200      	movs	r2, #0
 8001326:	f883 203c 	strb.w	r2, [r3, #60]	; 0x3c

    /* Pointer to the common control register to which is belonging hadc    */
    /* (Depending on STM32F4 product, there may be up to 3 ADCs and 1 common */
    /* control register)                                                    */
    tmpADC_Common = ADC_COMMON_REGISTER(hadc);
 800132a:	4b37      	ldr	r3, [pc, #220]	; (8001408 <HAL_ADC_Start_IT+0x1ac>)
 800132c:	60fb      	str	r3, [r7, #12]

    /* Clear regular group conversion flag and overrun flag */
    /* (To ensure of no unknown state from potential previous ADC operations) */
    __HAL_ADC_CLEAR_FLAG(hadc, ADC_FLAG_EOC | ADC_FLAG_OVR);
 800132e:	687b      	ldr	r3, [r7, #4]
 8001330:	681b      	ldr	r3, [r3, #0]
 8001332:	f06f 0222 	mvn.w	r2, #34	; 0x22
 8001336:	601a      	str	r2, [r3, #0]
    
    /* Enable end of conversion interrupt for regular group */
    __HAL_ADC_ENABLE_IT(hadc, (ADC_IT_EOC | ADC_IT_OVR));
 8001338:	687b      	ldr	r3, [r7, #4]
 800133a:	681b      	ldr	r3, [r3, #0]
 800133c:	685b      	ldr	r3, [r3, #4]
 800133e:	687a      	ldr	r2, [r7, #4]
 8001340:	6812      	ldr	r2, [r2, #0]
 8001342:	f043 6380 	orr.w	r3, r3, #67108864	; 0x4000000
 8001346:	f043 0320 	orr.w	r3, r3, #32
 800134a:	6053      	str	r3, [r2, #4]
    
    /* Check if Multimode enabled */
    if(HAL_IS_BIT_CLR(tmpADC_Common->CCR, ADC_CCR_MULTI))
 800134c:	68fb      	ldr	r3, [r7, #12]
 800134e:	685b      	ldr	r3, [r3, #4]
 8001350:	f003 031f 	and.w	r3, r3, #31
 8001354:	2b00      	cmp	r3, #0
 8001356:	d12a      	bne.n	80013ae <HAL_ADC_Start_IT+0x152>
    {
#if defined(ADC2) && defined(ADC3)
      if((hadc->Instance == ADC1) || ((hadc->Instance == ADC2) && ((ADC->CCR & ADC_CCR_MULTI_Msk) < ADC_CCR_MULTI_0)) \
 8001358:	687b      	ldr	r3, [r7, #4]
 800135a:	681b      	ldr	r3, [r3, #0]
 800135c:	4a2b      	ldr	r2, [pc, #172]	; (800140c <HAL_ADC_Start_IT+0x1b0>)
 800135e:	4293      	cmp	r3, r2
 8001360:	d015      	beq.n	800138e <HAL_ADC_Start_IT+0x132>
 8001362:	687b      	ldr	r3, [r7, #4]
 8001364:	681b      	ldr	r3, [r3, #0]
 8001366:	4a2a      	ldr	r2, [pc, #168]	; (8001410 <HAL_ADC_Start_IT+0x1b4>)
 8001368:	4293      	cmp	r3, r2
 800136a:	d105      	bne.n	8001378 <HAL_ADC_Start_IT+0x11c>
 800136c:	4b26      	ldr	r3, [pc, #152]	; (8001408 <HAL_ADC_Start_IT+0x1ac>)
 800136e:	685b      	ldr	r3, [r3, #4]
 8001370:	f003 031f 	and.w	r3, r3, #31
 8001374:	2b00      	cmp	r3, #0
 8001376:	d00a      	beq.n	800138e <HAL_ADC_Start_IT+0x132>
                                  || ((hadc->Instance == ADC3) && ((ADC->CCR & ADC_CCR_MULTI_Msk) < ADC_CCR_MULTI_4)))
 8001378:	687b      	ldr	r3, [r7, #4]
 800137a:	681b      	ldr	r3, [r3, #0]
 800137c:	4a25      	ldr	r2, [pc, #148]	; (8001414 <HAL_ADC_Start_IT+0x1b8>)
 800137e:	4293      	cmp	r3, r2
 8001380:	d136      	bne.n	80013f0 <HAL_ADC_Start_IT+0x194>
 8001382:	4b21      	ldr	r3, [pc, #132]	; (8001408 <HAL_ADC_Start_IT+0x1ac>)
 8001384:	685b      	ldr	r3, [r3, #4]
 8001386:	f003 0310 	and.w	r3, r3, #16
 800138a:	2b00      	cmp	r3, #0
 800138c:	d130      	bne.n	80013f0 <HAL_ADC_Start_IT+0x194>
      {
#endif /* ADC2 || ADC3 */
        /* if no external trigger present enable software conversion of regular channels */
        if((hadc->Instance->CR2 & ADC_CR2_EXTEN) == RESET) 
 800138e:	687b      	ldr	r3, [r7, #4]
 8001390:	681b      	ldr	r3, [r3, #0]
 8001392:	689b      	ldr	r3, [r3, #8]
 8001394:	f003 5340 	and.w	r3, r3, #805306368	; 0x30000000
 8001398:	2b00      	cmp	r3, #0
 800139a:	d129      	bne.n	80013f0 <HAL_ADC_Start_IT+0x194>
        {
          /* Enable the selected ADC software conversion for regular group */
          hadc->Instance->CR2 |= (uint32_t)ADC_CR2_SWSTART;
 800139c:	687b      	ldr	r3, [r7, #4]
 800139e:	681b      	ldr	r3, [r3, #0]
 80013a0:	689a      	ldr	r2, [r3, #8]
 80013a2:	687b      	ldr	r3, [r7, #4]
 80013a4:	681b      	ldr	r3, [r3, #0]
 80013a6:	f042 4280 	orr.w	r2, r2, #1073741824	; 0x40000000
 80013aa:	609a      	str	r2, [r3, #8]
 80013ac:	e020      	b.n	80013f0 <HAL_ADC_Start_IT+0x194>
#endif /* ADC2 || ADC3 */
    }
    else
    {
      /* if instance of handle correspond to ADC1 and  no external trigger present enable software conversion of regular channels */
      if((hadc->Instance == ADC1) && ((hadc->Instance->CR2 & ADC_CR2_EXTEN) == RESET))
 80013ae:	687b      	ldr	r3, [r7, #4]
 80013b0:	681b      	ldr	r3, [r3, #0]
 80013b2:	4a16      	ldr	r2, [pc, #88]	; (800140c <HAL_ADC_Start_IT+0x1b0>)
 80013b4:	4293      	cmp	r3, r2
 80013b6:	d11b      	bne.n	80013f0 <HAL_ADC_Start_IT+0x194>
 80013b8:	687b      	ldr	r3, [r7, #4]
 80013ba:	681b      	ldr	r3, [r3, #0]
 80013bc:	689b      	ldr	r3, [r3, #8]
 80013be:	f003 5340 	and.w	r3, r3, #805306368	; 0x30000000
 80013c2:	2b00      	cmp	r3, #0
 80013c4:	d114      	bne.n	80013f0 <HAL_ADC_Start_IT+0x194>
      {
        /* Enable the selected ADC software conversion for regular group */
          hadc->Instance->CR2 |= (uint32_t)ADC_CR2_SWSTART;
 80013c6:	687b      	ldr	r3, [r7, #4]
 80013c8:	681b      	ldr	r3, [r3, #0]
 80013ca:	689a      	ldr	r2, [r3, #8]
 80013cc:	687b      	ldr	r3, [r7, #4]
 80013ce:	681b      	ldr	r3, [r3, #0]
 80013d0:	f042 4280 	orr.w	r2, r2, #1073741824	; 0x40000000
 80013d4:	609a      	str	r2, [r3, #8]
 80013d6:	e00b      	b.n	80013f0 <HAL_ADC_Start_IT+0x194>
    }
  }
  else
  {
    /* Update ADC state machine to error */
    SET_BIT(hadc->State, HAL_ADC_STATE_ERROR_INTERNAL);
 80013d8:	687b      	ldr	r3, [r7, #4]
 80013da:	6c1b      	ldr	r3, [r3, #64]	; 0x40
 80013dc:	f043 0210 	orr.w	r2, r3, #16
 80013e0:	687b      	ldr	r3, [r7, #4]
 80013e2:	641a      	str	r2, [r3, #64]	; 0x40

    /* Set ADC error code to ADC IP internal error */
    SET_BIT(hadc->ErrorCode, HAL_ADC_ERROR_INTERNAL);
 80013e4:	687b      	ldr	r3, [r7, #4]
 80013e6:	6c5b      	ldr	r3, [r3, #68]	; 0x44
 80013e8:	f043 0201 	orr.w	r2, r3, #1
 80013ec:	687b      	ldr	r3, [r7, #4]
 80013ee:	645a      	str	r2, [r3, #68]	; 0x44
  }
  
  /* Return function status */
  return HAL_OK;
 80013f0:	2300      	movs	r3, #0
}
 80013f2:	4618      	mov	r0, r3
 80013f4:	3714      	adds	r7, #20
 80013f6:	46bd      	mov	sp, r7
 80013f8:	f85d 7b04 	ldr.w	r7, [sp], #4
 80013fc:	4770      	bx	lr
 80013fe:	bf00      	nop
 8001400:	20000000 	.word	0x20000000
 8001404:	431bde83 	.word	0x431bde83
 8001408:	40012300 	.word	0x40012300
 800140c:	40012000 	.word	0x40012000
 8001410:	40012100 	.word	0x40012100
 8001414:	40012200 	.word	0x40012200

08001418 <HAL_ADC_IRQHandler>:
  * @param  hadc pointer to a ADC_HandleTypeDef structure that contains
  *         the configuration information for the specified ADC.
  * @retval None
  */
void HAL_ADC_IRQHandler(ADC_HandleTypeDef* hadc)
{
 8001418:	b580      	push	{r7, lr}
 800141a:	b086      	sub	sp, #24
 800141c:	af00      	add	r7, sp, #0
 800141e:	6078      	str	r0, [r7, #4]
  uint32_t tmp1 = 0U, tmp2 = 0U;
 8001420:	2300      	movs	r3, #0
 8001422:	617b      	str	r3, [r7, #20]
 8001424:	2300      	movs	r3, #0
 8001426:	613b      	str	r3, [r7, #16]
  
  uint32_t tmp_sr = hadc->Instance->SR;
 8001428:	687b      	ldr	r3, [r7, #4]
 800142a:	681b      	ldr	r3, [r3, #0]
 800142c:	681b      	ldr	r3, [r3, #0]
 800142e:	60fb      	str	r3, [r7, #12]
  uint32_t tmp_cr1 = hadc->Instance->CR1;
 8001430:	687b      	ldr	r3, [r7, #4]
 8001432:	681b      	ldr	r3, [r3, #0]
 8001434:	685b      	ldr	r3, [r3, #4]
 8001436:	60bb      	str	r3, [r7, #8]
  /* Check the parameters */
  assert_param(IS_FUNCTIONAL_STATE(hadc->Init.ContinuousConvMode));
  assert_param(IS_ADC_REGULAR_LENGTH(hadc->Init.NbrOfConversion));
  assert_param(IS_ADC_EOCSelection(hadc->Init.EOCSelection));
  
  tmp1 = tmp_sr & ADC_FLAG_EOC;
 8001438:	68fb      	ldr	r3, [r7, #12]
 800143a:	f003 0302 	and.w	r3, r3, #2
 800143e:	617b      	str	r3, [r7, #20]
  tmp2 = tmp_cr1 & ADC_IT_EOC;
 8001440:	68bb      	ldr	r3, [r7, #8]
 8001442:	f003 0320 	and.w	r3, r3, #32
 8001446:	613b      	str	r3, [r7, #16]
  /* Check End of conversion flag for regular channels */
  if(tmp1 && tmp2)
 8001448:	697b      	ldr	r3, [r7, #20]
 800144a:	2b00      	cmp	r3, #0
 800144c:	d049      	beq.n	80014e2 <HAL_ADC_IRQHandler+0xca>
 800144e:	693b      	ldr	r3, [r7, #16]
 8001450:	2b00      	cmp	r3, #0
 8001452:	d046      	beq.n	80014e2 <HAL_ADC_IRQHandler+0xca>
  {
    /* Update state machine on conversion status if not in error state */
    if (HAL_IS_BIT_CLR(hadc->State, HAL_ADC_STATE_ERROR_INTERNAL))
 8001454:	687b      	ldr	r3, [r7, #4]
 8001456:	6c1b      	ldr	r3, [r3, #64]	; 0x40
 8001458:	f003 0310 	and.w	r3, r3, #16
 800145c:	2b00      	cmp	r3, #0
 800145e:	d105      	bne.n	800146c <HAL_ADC_IRQHandler+0x54>
    {
      /* Set ADC state */
      SET_BIT(hadc->State, HAL_ADC_STATE_REG_EOC); 
 8001460:	687b      	ldr	r3, [r7, #4]
 8001462:	6c1b      	ldr	r3, [r3, #64]	; 0x40
 8001464:	f443 7200 	orr.w	r2, r3, #512	; 0x200
 8001468:	687b      	ldr	r3, [r7, #4]
 800146a:	641a      	str	r2, [r3, #64]	; 0x40
    /* by external trigger, continuous mode or scan sequence on going.      */
    /* Note: On STM32F4, there is no independent flag of end of sequence.   */
    /*       The test of scan sequence on going is done either with scan    */
    /*       sequence disabled or with end of conversion flag set to        */
    /*       of end of sequence.                                            */
    if(ADC_IS_SOFTWARE_START_REGULAR(hadc)                   &&
 800146c:	687b      	ldr	r3, [r7, #4]
 800146e:	681b      	ldr	r3, [r3, #0]
 8001470:	689b      	ldr	r3, [r3, #8]
 8001472:	f003 5340 	and.w	r3, r3, #805306368	; 0x30000000
 8001476:	2b00      	cmp	r3, #0
 8001478:	d12b      	bne.n	80014d2 <HAL_ADC_IRQHandler+0xba>
       (hadc->Init.ContinuousConvMode == DISABLE)            &&
 800147a:	687b      	ldr	r3, [r7, #4]
 800147c:	7e1b      	ldrb	r3, [r3, #24]
    if(ADC_IS_SOFTWARE_START_REGULAR(hadc)                   &&
 800147e:	2b00      	cmp	r3, #0
 8001480:	d127      	bne.n	80014d2 <HAL_ADC_IRQHandler+0xba>
       (HAL_IS_BIT_CLR(hadc->Instance->SQR1, ADC_SQR1_L) || 
 8001482:	687b      	ldr	r3, [r7, #4]
 8001484:	681b      	ldr	r3, [r3, #0]
 8001486:	6adb      	ldr	r3, [r3, #44]	; 0x2c
 8001488:	f403 0370 	and.w	r3, r3, #15728640	; 0xf00000
       (hadc->Init.ContinuousConvMode == DISABLE)            &&
 800148c:	2b00      	cmp	r3, #0
 800148e:	d006      	beq.n	800149e <HAL_ADC_IRQHandler+0x86>
        HAL_IS_BIT_CLR(hadc->Instance->CR2, ADC_CR2_EOCS)  )   )
 8001490:	687b      	ldr	r3, [r7, #4]
 8001492:	681b      	ldr	r3, [r3, #0]
 8001494:	689b      	ldr	r3, [r3, #8]
 8001496:	f403 6380 	and.w	r3, r3, #1024	; 0x400
       (HAL_IS_BIT_CLR(hadc->Instance->SQR1, ADC_SQR1_L) || 
 800149a:	2b00      	cmp	r3, #0
 800149c:	d119      	bne.n	80014d2 <HAL_ADC_IRQHandler+0xba>
    {
      /* Disable ADC end of single conversion interrupt on group regular */
      /* Note: Overrun interrupt was enabled with EOC interrupt in          */
      /* HAL_ADC_Start_IT(), but is not disabled here because can be used   */
      /* by overrun IRQ process below.                                      */
      __HAL_ADC_DISABLE_IT(hadc, ADC_IT_EOC);
 800149e:	687b      	ldr	r3, [r7, #4]
 80014a0:	681b      	ldr	r3, [r3, #0]
 80014a2:	685a      	ldr	r2, [r3, #4]
 80014a4:	687b      	ldr	r3, [r7, #4]
 80014a6:	681b      	ldr	r3, [r3, #0]
 80014a8:	f022 0220 	bic.w	r2, r2, #32
 80014ac:	605a      	str	r2, [r3, #4]
      
      /* Set ADC state */
      CLEAR_BIT(hadc->State, HAL_ADC_STATE_REG_BUSY);
 80014ae:	687b      	ldr	r3, [r7, #4]
 80014b0:	6c1b      	ldr	r3, [r3, #64]	; 0x40
 80014b2:	f423 7280 	bic.w	r2, r3, #256	; 0x100
 80014b6:	687b      	ldr	r3, [r7, #4]
 80014b8:	641a      	str	r2, [r3, #64]	; 0x40
      
      if (HAL_IS_BIT_CLR(hadc->State, HAL_ADC_STATE_INJ_BUSY))
 80014ba:	687b      	ldr	r3, [r7, #4]
 80014bc:	6c1b      	ldr	r3, [r3, #64]	; 0x40
 80014be:	f403 5380 	and.w	r3, r3, #4096	; 0x1000
 80014c2:	2b00      	cmp	r3, #0
 80014c4:	d105      	bne.n	80014d2 <HAL_ADC_IRQHandler+0xba>
      {
        SET_BIT(hadc->State, HAL_ADC_STATE_READY);
 80014c6:	687b      	ldr	r3, [r7, #4]
 80014c8:	6c1b      	ldr	r3, [r3, #64]	; 0x40
 80014ca:	f043 0201 	orr.w	r2, r3, #1
 80014ce:	687b      	ldr	r3, [r7, #4]
 80014d0:	641a      	str	r2, [r3, #64]	; 0x40
    
    /* Conversion complete callback */
#if (USE_HAL_ADC_REGISTER_CALLBACKS == 1)
    hadc->ConvCpltCallback(hadc);
#else
    HAL_ADC_ConvCpltCallback(hadc);
 80014d2:	6878      	ldr	r0, [r7, #4]
 80014d4:	f7ff fb26 	bl	8000b24 <HAL_ADC_ConvCpltCallback>
#endif /* USE_HAL_ADC_REGISTER_CALLBACKS */
    
    /* Clear regular group conversion flag */
    __HAL_ADC_CLEAR_FLAG(hadc, ADC_FLAG_STRT | ADC_FLAG_EOC);
 80014d8:	687b      	ldr	r3, [r7, #4]
 80014da:	681b      	ldr	r3, [r3, #0]
 80014dc:	f06f 0212 	mvn.w	r2, #18
 80014e0:	601a      	str	r2, [r3, #0]
  }
  
  tmp1 = tmp_sr & ADC_FLAG_JEOC;
 80014e2:	68fb      	ldr	r3, [r7, #12]
 80014e4:	f003 0304 	and.w	r3, r3, #4
 80014e8:	617b      	str	r3, [r7, #20]
  tmp2 = tmp_cr1 & ADC_IT_JEOC;
 80014ea:	68bb      	ldr	r3, [r7, #8]
 80014ec:	f003 0380 	and.w	r3, r3, #128	; 0x80
 80014f0:	613b      	str	r3, [r7, #16]
  /* Check End of conversion flag for injected channels */
  if(tmp1 && tmp2)
 80014f2:	697b      	ldr	r3, [r7, #20]
 80014f4:	2b00      	cmp	r3, #0
 80014f6:	d057      	beq.n	80015a8 <HAL_ADC_IRQHandler+0x190>
 80014f8:	693b      	ldr	r3, [r7, #16]
 80014fa:	2b00      	cmp	r3, #0
 80014fc:	d054      	beq.n	80015a8 <HAL_ADC_IRQHandler+0x190>
  {
    /* Update state machine on conversion status if not in error state */
    if (HAL_IS_BIT_CLR(hadc->State, HAL_ADC_STATE_ERROR_INTERNAL))
 80014fe:	687b      	ldr	r3, [r7, #4]
 8001500:	6c1b      	ldr	r3, [r3, #64]	; 0x40
 8001502:	f003 0310 	and.w	r3, r3, #16
 8001506:	2b00      	cmp	r3, #0
 8001508:	d105      	bne.n	8001516 <HAL_ADC_IRQHandler+0xfe>
    {
      /* Set ADC state */
      SET_BIT(hadc->State, HAL_ADC_STATE_INJ_EOC);
 800150a:	687b      	ldr	r3, [r7, #4]
 800150c:	6c1b      	ldr	r3, [r3, #64]	; 0x40
 800150e:	f443 5200 	orr.w	r2, r3, #8192	; 0x2000
 8001512:	687b      	ldr	r3, [r7, #4]
 8001514:	641a      	str	r2, [r3, #64]	; 0x40

    /* Determine whether any further conversion upcoming on group injected  */
    /* by external trigger, scan sequence on going or by automatic injected */
    /* conversion from group regular (same conditions as group regular      */
    /* interruption disabling above).                                       */
    if(ADC_IS_SOFTWARE_START_INJECTED(hadc)                    &&
 8001516:	687b      	ldr	r3, [r7, #4]
 8001518:	681b      	ldr	r3, [r3, #0]
 800151a:	689b      	ldr	r3, [r3, #8]
 800151c:	f403 1340 	and.w	r3, r3, #3145728	; 0x300000
 8001520:	2b00      	cmp	r3, #0
 8001522:	d139      	bne.n	8001598 <HAL_ADC_IRQHandler+0x180>
       (HAL_IS_BIT_CLR(hadc->Instance->JSQR, ADC_JSQR_JL)  ||
 8001524:	687b      	ldr	r3, [r7, #4]
 8001526:	681b      	ldr	r3, [r3, #0]
 8001528:	6b9b      	ldr	r3, [r3, #56]	; 0x38
 800152a:	f403 1340 	and.w	r3, r3, #3145728	; 0x300000
    if(ADC_IS_SOFTWARE_START_INJECTED(hadc)                    &&
 800152e:	2b00      	cmp	r3, #0
 8001530:	d006      	beq.n	8001540 <HAL_ADC_IRQHandler+0x128>
        HAL_IS_BIT_CLR(hadc->Instance->CR2, ADC_CR2_EOCS)    ) &&
 8001532:	687b      	ldr	r3, [r7, #4]
 8001534:	681b      	ldr	r3, [r3, #0]
 8001536:	689b      	ldr	r3, [r3, #8]
 8001538:	f403 6380 	and.w	r3, r3, #1024	; 0x400
       (HAL_IS_BIT_CLR(hadc->Instance->JSQR, ADC_JSQR_JL)  ||
 800153c:	2b00      	cmp	r3, #0
 800153e:	d12b      	bne.n	8001598 <HAL_ADC_IRQHandler+0x180>
       (HAL_IS_BIT_CLR(hadc->Instance->CR1, ADC_CR1_JAUTO) &&
 8001540:	687b      	ldr	r3, [r7, #4]
 8001542:	681b      	ldr	r3, [r3, #0]
 8001544:	685b      	ldr	r3, [r3, #4]
 8001546:	f403 6380 	and.w	r3, r3, #1024	; 0x400
        HAL_IS_BIT_CLR(hadc->Instance->CR2, ADC_CR2_EOCS)    ) &&
 800154a:	2b00      	cmp	r3, #0
 800154c:	d124      	bne.n	8001598 <HAL_ADC_IRQHandler+0x180>
        (ADC_IS_SOFTWARE_START_REGULAR(hadc)       &&
 800154e:	687b      	ldr	r3, [r7, #4]
 8001550:	681b      	ldr	r3, [r3, #0]
 8001552:	689b      	ldr	r3, [r3, #8]
 8001554:	f003 5340 	and.w	r3, r3, #805306368	; 0x30000000
       (HAL_IS_BIT_CLR(hadc->Instance->CR1, ADC_CR1_JAUTO) &&
 8001558:	2b00      	cmp	r3, #0
 800155a:	d11d      	bne.n	8001598 <HAL_ADC_IRQHandler+0x180>
        (hadc->Init.ContinuousConvMode == DISABLE)   )       )   )
 800155c:	687b      	ldr	r3, [r7, #4]
 800155e:	7e1b      	ldrb	r3, [r3, #24]
        (ADC_IS_SOFTWARE_START_REGULAR(hadc)       &&
 8001560:	2b00      	cmp	r3, #0
 8001562:	d119      	bne.n	8001598 <HAL_ADC_IRQHandler+0x180>
    {
      /* Disable ADC end of single conversion interrupt on group injected */
      __HAL_ADC_DISABLE_IT(hadc, ADC_IT_JEOC);
 8001564:	687b      	ldr	r3, [r7, #4]
 8001566:	681b      	ldr	r3, [r3, #0]
 8001568:	685a      	ldr	r2, [r3, #4]
 800156a:	687b      	ldr	r3, [r7, #4]
 800156c:	681b      	ldr	r3, [r3, #0]
 800156e:	f022 0280 	bic.w	r2, r2, #128	; 0x80
 8001572:	605a      	str	r2, [r3, #4]
      
      /* Set ADC state */
      CLEAR_BIT(hadc->State, HAL_ADC_STATE_INJ_BUSY);   
 8001574:	687b      	ldr	r3, [r7, #4]
 8001576:	6c1b      	ldr	r3, [r3, #64]	; 0x40
 8001578:	f423 5280 	bic.w	r2, r3, #4096	; 0x1000
 800157c:	687b      	ldr	r3, [r7, #4]
 800157e:	641a      	str	r2, [r3, #64]	; 0x40

      if (HAL_IS_BIT_CLR(hadc->State, HAL_ADC_STATE_REG_BUSY))
 8001580:	687b      	ldr	r3, [r7, #4]
 8001582:	6c1b      	ldr	r3, [r3, #64]	; 0x40
 8001584:	f403 7380 	and.w	r3, r3, #256	; 0x100
 8001588:	2b00      	cmp	r3, #0
 800158a:	d105      	bne.n	8001598 <HAL_ADC_IRQHandler+0x180>
      { 
        SET_BIT(hadc->State, HAL_ADC_STATE_READY);
 800158c:	687b      	ldr	r3, [r7, #4]
 800158e:	6c1b      	ldr	r3, [r3, #64]	; 0x40
 8001590:	f043 0201 	orr.w	r2, r3, #1
 8001594:	687b      	ldr	r3, [r7, #4]
 8001596:	641a      	str	r2, [r3, #64]	; 0x40
    /* Conversion complete callback */ 
    /* Conversion complete callback */ 
#if (USE_HAL_ADC_REGISTER_CALLBACKS == 1)
      hadc->InjectedConvCpltCallback(hadc);
#else
      HAL_ADCEx_InjectedConvCpltCallback(hadc);
 8001598:	6878      	ldr	r0, [r7, #4]
 800159a:	f000 fa8d 	bl	8001ab8 <HAL_ADCEx_InjectedConvCpltCallback>
#endif /* USE_HAL_ADC_REGISTER_CALLBACKS */
    
    /* Clear injected group conversion flag */
    __HAL_ADC_CLEAR_FLAG(hadc, (ADC_FLAG_JSTRT | ADC_FLAG_JEOC));
 800159e:	687b      	ldr	r3, [r7, #4]
 80015a0:	681b      	ldr	r3, [r3, #0]
 80015a2:	f06f 020c 	mvn.w	r2, #12
 80015a6:	601a      	str	r2, [r3, #0]
  }
  
  tmp1 = tmp_sr & ADC_FLAG_AWD;
 80015a8:	68fb      	ldr	r3, [r7, #12]
 80015aa:	f003 0301 	and.w	r3, r3, #1
 80015ae:	617b      	str	r3, [r7, #20]
  tmp2 = tmp_cr1 & ADC_IT_AWD;
 80015b0:	68bb      	ldr	r3, [r7, #8]
 80015b2:	f003 0340 	and.w	r3, r3, #64	; 0x40
 80015b6:	613b      	str	r3, [r7, #16]
  /* Check Analog watchdog flag */
  if(tmp1 && tmp2)
 80015b8:	697b      	ldr	r3, [r7, #20]
 80015ba:	2b00      	cmp	r3, #0
 80015bc:	d017      	beq.n	80015ee <HAL_ADC_IRQHandler+0x1d6>
 80015be:	693b      	ldr	r3, [r7, #16]
 80015c0:	2b00      	cmp	r3, #0
 80015c2:	d014      	beq.n	80015ee <HAL_ADC_IRQHandler+0x1d6>
  {
    if(__HAL_ADC_GET_FLAG(hadc, ADC_FLAG_AWD))
 80015c4:	687b      	ldr	r3, [r7, #4]
 80015c6:	681b      	ldr	r3, [r3, #0]
 80015c8:	681b      	ldr	r3, [r3, #0]
 80015ca:	f003 0301 	and.w	r3, r3, #1
 80015ce:	2b01      	cmp	r3, #1
 80015d0:	d10d      	bne.n	80015ee <HAL_ADC_IRQHandler+0x1d6>
    {
      /* Set ADC state */
      SET_BIT(hadc->State, HAL_ADC_STATE_AWD1);
 80015d2:	687b      	ldr	r3, [r7, #4]
 80015d4:	6c1b      	ldr	r3, [r3, #64]	; 0x40
 80015d6:	f443 3280 	orr.w	r2, r3, #65536	; 0x10000
 80015da:	687b      	ldr	r3, [r7, #4]
 80015dc:	641a      	str	r2, [r3, #64]	; 0x40
      
      /* Level out of window callback */
#if (USE_HAL_ADC_REGISTER_CALLBACKS == 1)
      hadc->LevelOutOfWindowCallback(hadc);
#else
      HAL_ADC_LevelOutOfWindowCallback(hadc);
 80015de:	6878      	ldr	r0, [r7, #4]
 80015e0:	f000 f837 	bl	8001652 <HAL_ADC_LevelOutOfWindowCallback>
#endif /* USE_HAL_ADC_REGISTER_CALLBACKS */
      
      /* Clear the ADC analog watchdog flag */
      __HAL_ADC_CLEAR_FLAG(hadc, ADC_FLAG_AWD);
 80015e4:	687b      	ldr	r3, [r7, #4]
 80015e6:	681b      	ldr	r3, [r3, #0]
 80015e8:	f06f 0201 	mvn.w	r2, #1
 80015ec:	601a      	str	r2, [r3, #0]
    }
  }
  
  tmp1 = tmp_sr & ADC_FLAG_OVR;
 80015ee:	68fb      	ldr	r3, [r7, #12]
 80015f0:	f003 0320 	and.w	r3, r3, #32
 80015f4:	617b      	str	r3, [r7, #20]
  tmp2 = tmp_cr1 & ADC_IT_OVR;
 80015f6:	68bb      	ldr	r3, [r7, #8]
 80015f8:	f003 6380 	and.w	r3, r3, #67108864	; 0x4000000
 80015fc:	613b      	str	r3, [r7, #16]
  /* Check Overrun flag */
  if(tmp1 && tmp2)
 80015fe:	697b      	ldr	r3, [r7, #20]
 8001600:	2b00      	cmp	r3, #0
 8001602:	d015      	beq.n	8001630 <HAL_ADC_IRQHandler+0x218>
 8001604:	693b      	ldr	r3, [r7, #16]
 8001606:	2b00      	cmp	r3, #0
 8001608:	d012      	beq.n	8001630 <HAL_ADC_IRQHandler+0x218>
    /* Note: On STM32F4, ADC overrun can be set through other parameters    */
    /*       refer to description of parameter "EOCSelection" for more      */
    /*       details.                                                       */
    
    /* Set ADC error code to overrun */
    SET_BIT(hadc->ErrorCode, HAL_ADC_ERROR_OVR);
 800160a:	687b      	ldr	r3, [r7, #4]
 800160c:	6c5b      	ldr	r3, [r3, #68]	; 0x44
 800160e:	f043 0202 	orr.w	r2, r3, #2
 8001612:	687b      	ldr	r3, [r7, #4]
 8001614:	645a      	str	r2, [r3, #68]	; 0x44
    
    /* Clear ADC overrun flag */
    __HAL_ADC_CLEAR_FLAG(hadc, ADC_FLAG_OVR);
 8001616:	687b      	ldr	r3, [r7, #4]
 8001618:	681b      	ldr	r3, [r3, #0]
 800161a:	f06f 0220 	mvn.w	r2, #32
 800161e:	601a      	str	r2, [r3, #0]
    
    /* Error callback */ 
#if (USE_HAL_ADC_REGISTER_CALLBACKS == 1)
      hadc->ErrorCallback(hadc);
#else
      HAL_ADC_ErrorCallback(hadc);
 8001620:	6878      	ldr	r0, [r7, #4]
 8001622:	f000 f820 	bl	8001666 <HAL_ADC_ErrorCallback>
#endif /* USE_HAL_ADC_REGISTER_CALLBACKS */
    
    /* Clear the Overrun flag */
    __HAL_ADC_CLEAR_FLAG(hadc, ADC_FLAG_OVR);
 8001626:	687b      	ldr	r3, [r7, #4]
 8001628:	681b      	ldr	r3, [r3, #0]
 800162a:	f06f 0220 	mvn.w	r2, #32
 800162e:	601a      	str	r2, [r3, #0]
  }
}
 8001630:	bf00      	nop
 8001632:	3718      	adds	r7, #24
 8001634:	46bd      	mov	sp, r7
 8001636:	bd80      	pop	{r7, pc}

08001638 <HAL_ADC_GetValue>:
  * @param  hadc pointer to a ADC_HandleTypeDef structure that contains
  *         the configuration information for the specified ADC.
  * @retval Converted value
  */
uint32_t HAL_ADC_GetValue(ADC_HandleTypeDef* hadc)
{       
 8001638:	b480      	push	{r7}
 800163a:	b083      	sub	sp, #12
 800163c:	af00      	add	r7, sp, #0
 800163e:	6078      	str	r0, [r7, #4]
  /* Return the selected ADC converted value */ 
  return hadc->Instance->DR;
 8001640:	687b      	ldr	r3, [r7, #4]
 8001642:	681b      	ldr	r3, [r3, #0]
 8001644:	6cdb      	ldr	r3, [r3, #76]	; 0x4c
}
 8001646:	4618      	mov	r0, r3
 8001648:	370c      	adds	r7, #12
 800164a:	46bd      	mov	sp, r7
 800164c:	f85d 7b04 	ldr.w	r7, [sp], #4
 8001650:	4770      	bx	lr

08001652 <HAL_ADC_LevelOutOfWindowCallback>:
  * @param  hadc pointer to a ADC_HandleTypeDef structure that contains
  *         the configuration information for the specified ADC.
  * @retval None
  */
__weak void HAL_ADC_LevelOutOfWindowCallback(ADC_HandleTypeDef* hadc)
{
 8001652:	b480      	push	{r7}
 8001654:	b083      	sub	sp, #12
 8001656:	af00      	add	r7, sp, #0
 8001658:	6078      	str	r0, [r7, #4]
  /* Prevent unused argument(s) compilation warning */
  UNUSED(hadc);
  /* NOTE : This function Should not be modified, when the callback is needed,
            the HAL_ADC_LevelOoutOfWindowCallback could be implemented in the user file
   */
}
 800165a:	bf00      	nop
 800165c:	370c      	adds	r7, #12
 800165e:	46bd      	mov	sp, r7
 8001660:	f85d 7b04 	ldr.w	r7, [sp], #4
 8001664:	4770      	bx	lr

08001666 <HAL_ADC_ErrorCallback>:
  * @param  hadc pointer to a ADC_HandleTypeDef structure that contains
  *         the configuration information for the specified ADC.
  * @retval None
  */
__weak void HAL_ADC_ErrorCallback(ADC_HandleTypeDef *hadc)
{
 8001666:	b480      	push	{r7}
 8001668:	b083      	sub	sp, #12
 800166a:	af00      	add	r7, sp, #0
 800166c:	6078      	str	r0, [r7, #4]
  /* Prevent unused argument(s) compilation warning */
  UNUSED(hadc);
  /* NOTE : This function Should not be modified, when the callback is needed,
            the HAL_ADC_ErrorCallback could be implemented in the user file
   */
}
 800166e:	bf00      	nop
 8001670:	370c      	adds	r7, #12
 8001672:	46bd      	mov	sp, r7
 8001674:	f85d 7b04 	ldr.w	r7, [sp], #4
 8001678:	4770      	bx	lr
	...

0800167c <HAL_ADC_ConfigChannel>:
  *         the configuration information for the specified ADC.
  * @param  sConfig ADC configuration structure. 
  * @retval HAL status
  */
HAL_StatusTypeDef HAL_ADC_ConfigChannel(ADC_HandleTypeDef* hadc, ADC_ChannelConfTypeDef* sConfig)
{
 800167c:	b480      	push	{r7}
 800167e:	b085      	sub	sp, #20
 8001680:	af00      	add	r7, sp, #0
 8001682:	6078      	str	r0, [r7, #4]
 8001684:	6039      	str	r1, [r7, #0]
  __IO uint32_t counter = 0U;
 8001686:	2300      	movs	r3, #0
 8001688:	60bb      	str	r3, [r7, #8]
  assert_param(IS_ADC_CHANNEL(sConfig->Channel));
  assert_param(IS_ADC_REGULAR_RANK(sConfig->Rank));
  assert_param(IS_ADC_SAMPLE_TIME(sConfig->SamplingTime));
  
  /* Process locked */
  __HAL_LOCK(hadc);
 800168a:	687b      	ldr	r3, [r7, #4]
 800168c:	f893 303c 	ldrb.w	r3, [r3, #60]	; 0x3c
 8001690:	2b01      	cmp	r3, #1
 8001692:	d101      	bne.n	8001698 <HAL_ADC_ConfigChannel+0x1c>
 8001694:	2302      	movs	r3, #2
 8001696:	e105      	b.n	80018a4 <HAL_ADC_ConfigChannel+0x228>
 8001698:	687b      	ldr	r3, [r7, #4]
 800169a:	2201      	movs	r2, #1
 800169c:	f883 203c 	strb.w	r2, [r3, #60]	; 0x3c
    
  /* if ADC_Channel_10 ... ADC_Channel_18 is selected */
  if (sConfig->Channel > ADC_CHANNEL_9)
 80016a0:	683b      	ldr	r3, [r7, #0]
 80016a2:	681b      	ldr	r3, [r3, #0]
 80016a4:	2b09      	cmp	r3, #9
 80016a6:	d925      	bls.n	80016f4 <HAL_ADC_ConfigChannel+0x78>
  {
    /* Clear the old sample time */
    hadc->Instance->SMPR1 &= ~ADC_SMPR1(ADC_SMPR1_SMP10, sConfig->Channel);
 80016a8:	687b      	ldr	r3, [r7, #4]
 80016aa:	681b      	ldr	r3, [r3, #0]
 80016ac:	68d9      	ldr	r1, [r3, #12]
 80016ae:	683b      	ldr	r3, [r7, #0]
 80016b0:	681b      	ldr	r3, [r3, #0]
 80016b2:	b29b      	uxth	r3, r3
 80016b4:	461a      	mov	r2, r3
 80016b6:	4613      	mov	r3, r2
 80016b8:	005b      	lsls	r3, r3, #1
 80016ba:	4413      	add	r3, r2
 80016bc:	3b1e      	subs	r3, #30
 80016be:	2207      	movs	r2, #7
 80016c0:	fa02 f303 	lsl.w	r3, r2, r3
 80016c4:	43da      	mvns	r2, r3
 80016c6:	687b      	ldr	r3, [r7, #4]
 80016c8:	681b      	ldr	r3, [r3, #0]
 80016ca:	400a      	ands	r2, r1
 80016cc:	60da      	str	r2, [r3, #12]
    
    /* Set the new sample time */
    hadc->Instance->SMPR1 |= ADC_SMPR1(sConfig->SamplingTime, sConfig->Channel);
 80016ce:	687b      	ldr	r3, [r7, #4]
 80016d0:	681b      	ldr	r3, [r3, #0]
 80016d2:	68d9      	ldr	r1, [r3, #12]
 80016d4:	683b      	ldr	r3, [r7, #0]
 80016d6:	689a      	ldr	r2, [r3, #8]
 80016d8:	683b      	ldr	r3, [r7, #0]
 80016da:	681b      	ldr	r3, [r3, #0]
 80016dc:	b29b      	uxth	r3, r3
 80016de:	4618      	mov	r0, r3
 80016e0:	4603      	mov	r3, r0
 80016e2:	005b      	lsls	r3, r3, #1
 80016e4:	4403      	add	r3, r0
 80016e6:	3b1e      	subs	r3, #30
 80016e8:	409a      	lsls	r2, r3
 80016ea:	687b      	ldr	r3, [r7, #4]
 80016ec:	681b      	ldr	r3, [r3, #0]
 80016ee:	430a      	orrs	r2, r1
 80016f0:	60da      	str	r2, [r3, #12]
 80016f2:	e022      	b.n	800173a <HAL_ADC_ConfigChannel+0xbe>
  }
  else /* ADC_Channel include in ADC_Channel_[0..9] */
  {
    /* Clear the old sample time */
    hadc->Instance->SMPR2 &= ~ADC_SMPR2(ADC_SMPR2_SMP0, sConfig->Channel);
 80016f4:	687b      	ldr	r3, [r7, #4]
 80016f6:	681b      	ldr	r3, [r3, #0]
 80016f8:	6919      	ldr	r1, [r3, #16]
 80016fa:	683b      	ldr	r3, [r7, #0]
 80016fc:	681b      	ldr	r3, [r3, #0]
 80016fe:	b29b      	uxth	r3, r3
 8001700:	461a      	mov	r2, r3
 8001702:	4613      	mov	r3, r2
 8001704:	005b      	lsls	r3, r3, #1
 8001706:	4413      	add	r3, r2
 8001708:	2207      	movs	r2, #7
 800170a:	fa02 f303 	lsl.w	r3, r2, r3
 800170e:	43da      	mvns	r2, r3
 8001710:	687b      	ldr	r3, [r7, #4]
 8001712:	681b      	ldr	r3, [r3, #0]
 8001714:	400a      	ands	r2, r1
 8001716:	611a      	str	r2, [r3, #16]
    
    /* Set the new sample time */
    hadc->Instance->SMPR2 |= ADC_SMPR2(sConfig->SamplingTime, sConfig->Channel);
 8001718:	687b      	ldr	r3, [r7, #4]
 800171a:	681b      	ldr	r3, [r3, #0]
 800171c:	6919      	ldr	r1, [r3, #16]
 800171e:	683b      	ldr	r3, [r7, #0]
 8001720:	689a      	ldr	r2, [r3, #8]
 8001722:	683b      	ldr	r3, [r7, #0]
 8001724:	681b      	ldr	r3, [r3, #0]
 8001726:	b29b      	uxth	r3, r3
 8001728:	4618      	mov	r0, r3
 800172a:	4603      	mov	r3, r0
 800172c:	005b      	lsls	r3, r3, #1
 800172e:	4403      	add	r3, r0
 8001730:	409a      	lsls	r2, r3
 8001732:	687b      	ldr	r3, [r7, #4]
 8001734:	681b      	ldr	r3, [r3, #0]
 8001736:	430a      	orrs	r2, r1
 8001738:	611a      	str	r2, [r3, #16]
  }
  
  /* For Rank 1 to 6 */
  if (sConfig->Rank < 7U)
 800173a:	683b      	ldr	r3, [r7, #0]
 800173c:	685b      	ldr	r3, [r3, #4]
 800173e:	2b06      	cmp	r3, #6
 8001740:	d824      	bhi.n	800178c <HAL_ADC_ConfigChannel+0x110>
  {
    /* Clear the old SQx bits for the selected rank */
    hadc->Instance->SQR3 &= ~ADC_SQR3_RK(ADC_SQR3_SQ1, sConfig->Rank);
 8001742:	687b      	ldr	r3, [r7, #4]
 8001744:	681b      	ldr	r3, [r3, #0]
 8001746:	6b59      	ldr	r1, [r3, #52]	; 0x34
 8001748:	683b      	ldr	r3, [r7, #0]
 800174a:	685a      	ldr	r2, [r3, #4]
 800174c:	4613      	mov	r3, r2
 800174e:	009b      	lsls	r3, r3, #2
 8001750:	4413      	add	r3, r2
 8001752:	3b05      	subs	r3, #5
 8001754:	221f      	movs	r2, #31
 8001756:	fa02 f303 	lsl.w	r3, r2, r3
 800175a:	43da      	mvns	r2, r3
 800175c:	687b      	ldr	r3, [r7, #4]
 800175e:	681b      	ldr	r3, [r3, #0]
 8001760:	400a      	ands	r2, r1
 8001762:	635a      	str	r2, [r3, #52]	; 0x34
    
    /* Set the SQx bits for the selected rank */
    hadc->Instance->SQR3 |= ADC_SQR3_RK(sConfig->Channel, sConfig->Rank);
 8001764:	687b      	ldr	r3, [r7, #4]
 8001766:	681b      	ldr	r3, [r3, #0]
 8001768:	6b59      	ldr	r1, [r3, #52]	; 0x34
 800176a:	683b      	ldr	r3, [r7, #0]
 800176c:	681b      	ldr	r3, [r3, #0]
 800176e:	b29b      	uxth	r3, r3
 8001770:	4618      	mov	r0, r3
 8001772:	683b      	ldr	r3, [r7, #0]
 8001774:	685a      	ldr	r2, [r3, #4]
 8001776:	4613      	mov	r3, r2
 8001778:	009b      	lsls	r3, r3, #2
 800177a:	4413      	add	r3, r2
 800177c:	3b05      	subs	r3, #5
 800177e:	fa00 f203 	lsl.w	r2, r0, r3
 8001782:	687b      	ldr	r3, [r7, #4]
 8001784:	681b      	ldr	r3, [r3, #0]
 8001786:	430a      	orrs	r2, r1
 8001788:	635a      	str	r2, [r3, #52]	; 0x34
 800178a:	e04c      	b.n	8001826 <HAL_ADC_ConfigChannel+0x1aa>
  }
  /* For Rank 7 to 12 */
  else if (sConfig->Rank < 13U)
 800178c:	683b      	ldr	r3, [r7, #0]
 800178e:	685b      	ldr	r3, [r3, #4]
 8001790:	2b0c      	cmp	r3, #12
 8001792:	d824      	bhi.n	80017de <HAL_ADC_ConfigChannel+0x162>
  {
    /* Clear the old SQx bits for the selected rank */
    hadc->Instance->SQR2 &= ~ADC_SQR2_RK(ADC_SQR2_SQ7, sConfig->Rank);
 8001794:	687b      	ldr	r3, [r7, #4]
 8001796:	681b      	ldr	r3, [r3, #0]
 8001798:	6b19      	ldr	r1, [r3, #48]	; 0x30
 800179a:	683b      	ldr	r3, [r7, #0]
 800179c:	685a      	ldr	r2, [r3, #4]
 800179e:	4613      	mov	r3, r2
 80017a0:	009b      	lsls	r3, r3, #2
 80017a2:	4413      	add	r3, r2
 80017a4:	3b23      	subs	r3, #35	; 0x23
 80017a6:	221f      	movs	r2, #31
 80017a8:	fa02 f303 	lsl.w	r3, r2, r3
 80017ac:	43da      	mvns	r2, r3
 80017ae:	687b      	ldr	r3, [r7, #4]
 80017b0:	681b      	ldr	r3, [r3, #0]
 80017b2:	400a      	ands	r2, r1
 80017b4:	631a      	str	r2, [r3, #48]	; 0x30
    
    /* Set the SQx bits for the selected rank */
    hadc->Instance->SQR2 |= ADC_SQR2_RK(sConfig->Channel, sConfig->Rank);
 80017b6:	687b      	ldr	r3, [r7, #4]
 80017b8:	681b      	ldr	r3, [r3, #0]
 80017ba:	6b19      	ldr	r1, [r3, #48]	; 0x30
 80017bc:	683b      	ldr	r3, [r7, #0]
 80017be:	681b      	ldr	r3, [r3, #0]
 80017c0:	b29b      	uxth	r3, r3
 80017c2:	4618      	mov	r0, r3
 80017c4:	683b      	ldr	r3, [r7, #0]
 80017c6:	685a      	ldr	r2, [r3, #4]
 80017c8:	4613      	mov	r3, r2
 80017ca:	009b      	lsls	r3, r3, #2
 80017cc:	4413      	add	r3, r2
 80017ce:	3b23      	subs	r3, #35	; 0x23
 80017d0:	fa00 f203 	lsl.w	r2, r0, r3
 80017d4:	687b      	ldr	r3, [r7, #4]
 80017d6:	681b      	ldr	r3, [r3, #0]
 80017d8:	430a      	orrs	r2, r1
 80017da:	631a      	str	r2, [r3, #48]	; 0x30
 80017dc:	e023      	b.n	8001826 <HAL_ADC_ConfigChannel+0x1aa>
  }
  /* For Rank 13 to 16 */
  else
  {
    /* Clear the old SQx bits for the selected rank */
    hadc->Instance->SQR1 &= ~ADC_SQR1_RK(ADC_SQR1_SQ13, sConfig->Rank);
 80017de:	687b      	ldr	r3, [r7, #4]
 80017e0:	681b      	ldr	r3, [r3, #0]
 80017e2:	6ad9      	ldr	r1, [r3, #44]	; 0x2c
 80017e4:	683b      	ldr	r3, [r7, #0]
 80017e6:	685a      	ldr	r2, [r3, #4]
 80017e8:	4613      	mov	r3, r2
 80017ea:	009b      	lsls	r3, r3, #2
 80017ec:	4413      	add	r3, r2
 80017ee:	3b41      	subs	r3, #65	; 0x41
 80017f0:	221f      	movs	r2, #31
 80017f2:	fa02 f303 	lsl.w	r3, r2, r3
 80017f6:	43da      	mvns	r2, r3
 80017f8:	687b      	ldr	r3, [r7, #4]
 80017fa:	681b      	ldr	r3, [r3, #0]
 80017fc:	400a      	ands	r2, r1
 80017fe:	62da      	str	r2, [r3, #44]	; 0x2c
    
    /* Set the SQx bits for the selected rank */
    hadc->Instance->SQR1 |= ADC_SQR1_RK(sConfig->Channel, sConfig->Rank);
 8001800:	687b      	ldr	r3, [r7, #4]
 8001802:	681b      	ldr	r3, [r3, #0]
 8001804:	6ad9      	ldr	r1, [r3, #44]	; 0x2c
 8001806:	683b      	ldr	r3, [r7, #0]
 8001808:	681b      	ldr	r3, [r3, #0]
 800180a:	b29b      	uxth	r3, r3
 800180c:	4618      	mov	r0, r3
 800180e:	683b      	ldr	r3, [r7, #0]
 8001810:	685a      	ldr	r2, [r3, #4]
 8001812:	4613      	mov	r3, r2
 8001814:	009b      	lsls	r3, r3, #2
 8001816:	4413      	add	r3, r2
 8001818:	3b41      	subs	r3, #65	; 0x41
 800181a:	fa00 f203 	lsl.w	r2, r0, r3
 800181e:	687b      	ldr	r3, [r7, #4]
 8001820:	681b      	ldr	r3, [r3, #0]
 8001822:	430a      	orrs	r2, r1
 8001824:	62da      	str	r2, [r3, #44]	; 0x2c
  }

    /* Pointer to the common control register to which is belonging hadc    */
    /* (Depending on STM32F4 product, there may be up to 3 ADCs and 1 common */
    /* control register)                                                    */
    tmpADC_Common = ADC_COMMON_REGISTER(hadc);
 8001826:	4b22      	ldr	r3, [pc, #136]	; (80018b0 <HAL_ADC_ConfigChannel+0x234>)
 8001828:	60fb      	str	r3, [r7, #12]

  /* if ADC1 Channel_18 is selected for VBAT Channel ennable VBATE */
  if ((hadc->Instance == ADC1) && (sConfig->Channel == ADC_CHANNEL_VBAT))
 800182a:	687b      	ldr	r3, [r7, #4]
 800182c:	681b      	ldr	r3, [r3, #0]
 800182e:	4a21      	ldr	r2, [pc, #132]	; (80018b4 <HAL_ADC_ConfigChannel+0x238>)
 8001830:	4293      	cmp	r3, r2
 8001832:	d109      	bne.n	8001848 <HAL_ADC_ConfigChannel+0x1cc>
 8001834:	683b      	ldr	r3, [r7, #0]
 8001836:	681b      	ldr	r3, [r3, #0]
 8001838:	2b12      	cmp	r3, #18
 800183a:	d105      	bne.n	8001848 <HAL_ADC_ConfigChannel+0x1cc>
    if ((uint16_t)ADC_CHANNEL_TEMPSENSOR == (uint16_t)ADC_CHANNEL_VBAT)
    {
      tmpADC_Common->CCR &= ~ADC_CCR_TSVREFE;
    }
    /* Enable the VBAT channel*/
    tmpADC_Common->CCR |= ADC_CCR_VBATE;
 800183c:	68fb      	ldr	r3, [r7, #12]
 800183e:	685b      	ldr	r3, [r3, #4]
 8001840:	f443 0280 	orr.w	r2, r3, #4194304	; 0x400000
 8001844:	68fb      	ldr	r3, [r7, #12]
 8001846:	605a      	str	r2, [r3, #4]
  }
  
  /* if ADC1 Channel_16 or Channel_18 is selected for Temperature sensor or 
     Channel_17 is selected for VREFINT enable TSVREFE */
  if ((hadc->Instance == ADC1) && ((sConfig->Channel == ADC_CHANNEL_TEMPSENSOR) || (sConfig->Channel == ADC_CHANNEL_VREFINT)))
 8001848:	687b      	ldr	r3, [r7, #4]
 800184a:	681b      	ldr	r3, [r3, #0]
 800184c:	4a19      	ldr	r2, [pc, #100]	; (80018b4 <HAL_ADC_ConfigChannel+0x238>)
 800184e:	4293      	cmp	r3, r2
 8001850:	d123      	bne.n	800189a <HAL_ADC_ConfigChannel+0x21e>
 8001852:	683b      	ldr	r3, [r7, #0]
 8001854:	681b      	ldr	r3, [r3, #0]
 8001856:	2b10      	cmp	r3, #16
 8001858:	d003      	beq.n	8001862 <HAL_ADC_ConfigChannel+0x1e6>
 800185a:	683b      	ldr	r3, [r7, #0]
 800185c:	681b      	ldr	r3, [r3, #0]
 800185e:	2b11      	cmp	r3, #17
 8001860:	d11b      	bne.n	800189a <HAL_ADC_ConfigChannel+0x21e>
    if ((uint16_t)ADC_CHANNEL_TEMPSENSOR == (uint16_t)ADC_CHANNEL_VBAT)
    {
      tmpADC_Common->CCR &= ~ADC_CCR_VBATE;
    }
    /* Enable the Temperature sensor and VREFINT channel*/
    tmpADC_Common->CCR |= ADC_CCR_TSVREFE;
 8001862:	68fb      	ldr	r3, [r7, #12]
 8001864:	685b      	ldr	r3, [r3, #4]
 8001866:	f443 0200 	orr.w	r2, r3, #8388608	; 0x800000
 800186a:	68fb      	ldr	r3, [r7, #12]
 800186c:	605a      	str	r2, [r3, #4]
    
    if(sConfig->Channel == ADC_CHANNEL_TEMPSENSOR)
 800186e:	683b      	ldr	r3, [r7, #0]
 8001870:	681b      	ldr	r3, [r3, #0]
 8001872:	2b10      	cmp	r3, #16
 8001874:	d111      	bne.n	800189a <HAL_ADC_ConfigChannel+0x21e>
    {
      /* Delay for temperature sensor stabilization time */
      /* Compute number of CPU cycles to wait for */
      counter = (ADC_TEMPSENSOR_DELAY_US * (SystemCoreClock / 1000000U));
 8001876:	4b10      	ldr	r3, [pc, #64]	; (80018b8 <HAL_ADC_ConfigChannel+0x23c>)
 8001878:	681b      	ldr	r3, [r3, #0]
 800187a:	4a10      	ldr	r2, [pc, #64]	; (80018bc <HAL_ADC_ConfigChannel+0x240>)
 800187c:	fba2 2303 	umull	r2, r3, r2, r3
 8001880:	0c9a      	lsrs	r2, r3, #18
 8001882:	4613      	mov	r3, r2
 8001884:	009b      	lsls	r3, r3, #2
 8001886:	4413      	add	r3, r2
 8001888:	005b      	lsls	r3, r3, #1
 800188a:	60bb      	str	r3, [r7, #8]
      while(counter != 0U)
 800188c:	e002      	b.n	8001894 <HAL_ADC_ConfigChannel+0x218>
      {
        counter--;
 800188e:	68bb      	ldr	r3, [r7, #8]
 8001890:	3b01      	subs	r3, #1
 8001892:	60bb      	str	r3, [r7, #8]
      while(counter != 0U)
 8001894:	68bb      	ldr	r3, [r7, #8]
 8001896:	2b00      	cmp	r3, #0
 8001898:	d1f9      	bne.n	800188e <HAL_ADC_ConfigChannel+0x212>
      }
    }
  }
  
  /* Process unlocked */
  __HAL_UNLOCK(hadc);
 800189a:	687b      	ldr	r3, [r7, #4]
 800189c:	2200      	movs	r2, #0
 800189e:	f883 203c 	strb.w	r2, [r3, #60]	; 0x3c
  
  /* Return function status */
  return HAL_OK;
 80018a2:	2300      	movs	r3, #0
}
 80018a4:	4618      	mov	r0, r3
 80018a6:	3714      	adds	r7, #20
 80018a8:	46bd      	mov	sp, r7
 80018aa:	f85d 7b04 	ldr.w	r7, [sp], #4
 80018ae:	4770      	bx	lr
 80018b0:	40012300 	.word	0x40012300
 80018b4:	40012000 	.word	0x40012000
 80018b8:	20000000 	.word	0x20000000
 80018bc:	431bde83 	.word	0x431bde83

080018c0 <ADC_Init>:
  * @param  hadc pointer to a ADC_HandleTypeDef structure that contains
  *         the configuration information for the specified ADC.  
  * @retval None
  */
static void ADC_Init(ADC_HandleTypeDef* hadc)
{
 80018c0:	b480      	push	{r7}
 80018c2:	b085      	sub	sp, #20
 80018c4:	af00      	add	r7, sp, #0
 80018c6:	6078      	str	r0, [r7, #4]
  
  /* Set ADC parameters */
  /* Pointer to the common control register to which is belonging hadc    */
  /* (Depending on STM32F4 product, there may be up to 3 ADCs and 1 common */
  /* control register)                                                    */
  tmpADC_Common = ADC_COMMON_REGISTER(hadc);
 80018c8:	4b79      	ldr	r3, [pc, #484]	; (8001ab0 <ADC_Init+0x1f0>)
 80018ca:	60fb      	str	r3, [r7, #12]
  
  /* Set the ADC clock prescaler */
  tmpADC_Common->CCR &= ~(ADC_CCR_ADCPRE);
 80018cc:	68fb      	ldr	r3, [r7, #12]
 80018ce:	685b      	ldr	r3, [r3, #4]
 80018d0:	f423 3240 	bic.w	r2, r3, #196608	; 0x30000
 80018d4:	68fb      	ldr	r3, [r7, #12]
 80018d6:	605a      	str	r2, [r3, #4]
  tmpADC_Common->CCR |=  hadc->Init.ClockPrescaler;
 80018d8:	68fb      	ldr	r3, [r7, #12]
 80018da:	685a      	ldr	r2, [r3, #4]
 80018dc:	687b      	ldr	r3, [r7, #4]
 80018de:	685b      	ldr	r3, [r3, #4]
 80018e0:	431a      	orrs	r2, r3
 80018e2:	68fb      	ldr	r3, [r7, #12]
 80018e4:	605a      	str	r2, [r3, #4]
  
  /* Set ADC scan mode */
  hadc->Instance->CR1 &= ~(ADC_CR1_SCAN);
 80018e6:	687b      	ldr	r3, [r7, #4]
 80018e8:	681b      	ldr	r3, [r3, #0]
 80018ea:	685a      	ldr	r2, [r3, #4]
 80018ec:	687b      	ldr	r3, [r7, #4]
 80018ee:	681b      	ldr	r3, [r3, #0]
 80018f0:	f422 7280 	bic.w	r2, r2, #256	; 0x100
 80018f4:	605a      	str	r2, [r3, #4]
  hadc->Instance->CR1 |=  ADC_CR1_SCANCONV(hadc->Init.ScanConvMode);
 80018f6:	687b      	ldr	r3, [r7, #4]
 80018f8:	681b      	ldr	r3, [r3, #0]
 80018fa:	6859      	ldr	r1, [r3, #4]
 80018fc:	687b      	ldr	r3, [r7, #4]
 80018fe:	691b      	ldr	r3, [r3, #16]
 8001900:	021a      	lsls	r2, r3, #8
 8001902:	687b      	ldr	r3, [r7, #4]
 8001904:	681b      	ldr	r3, [r3, #0]
 8001906:	430a      	orrs	r2, r1
 8001908:	605a      	str	r2, [r3, #4]
  
  /* Set ADC resolution */
  hadc->Instance->CR1 &= ~(ADC_CR1_RES);
 800190a:	687b      	ldr	r3, [r7, #4]
 800190c:	681b      	ldr	r3, [r3, #0]
 800190e:	685a      	ldr	r2, [r3, #4]
 8001910:	687b      	ldr	r3, [r7, #4]
 8001912:	681b      	ldr	r3, [r3, #0]
 8001914:	f022 7240 	bic.w	r2, r2, #50331648	; 0x3000000
 8001918:	605a      	str	r2, [r3, #4]
  hadc->Instance->CR1 |=  hadc->Init.Resolution;
 800191a:	687b      	ldr	r3, [r7, #4]
 800191c:	681b      	ldr	r3, [r3, #0]
 800191e:	6859      	ldr	r1, [r3, #4]
 8001920:	687b      	ldr	r3, [r7, #4]
 8001922:	689a      	ldr	r2, [r3, #8]
 8001924:	687b      	ldr	r3, [r7, #4]
 8001926:	681b      	ldr	r3, [r3, #0]
 8001928:	430a      	orrs	r2, r1
 800192a:	605a      	str	r2, [r3, #4]
  
  /* Set ADC data alignment */
  hadc->Instance->CR2 &= ~(ADC_CR2_ALIGN);
 800192c:	687b      	ldr	r3, [r7, #4]
 800192e:	681b      	ldr	r3, [r3, #0]
 8001930:	689a      	ldr	r2, [r3, #8]
 8001932:	687b      	ldr	r3, [r7, #4]
 8001934:	681b      	ldr	r3, [r3, #0]
 8001936:	f422 6200 	bic.w	r2, r2, #2048	; 0x800
 800193a:	609a      	str	r2, [r3, #8]
  hadc->Instance->CR2 |= hadc->Init.DataAlign;
 800193c:	687b      	ldr	r3, [r7, #4]
 800193e:	681b      	ldr	r3, [r3, #0]
 8001940:	6899      	ldr	r1, [r3, #8]
 8001942:	687b      	ldr	r3, [r7, #4]
 8001944:	68da      	ldr	r2, [r3, #12]
 8001946:	687b      	ldr	r3, [r7, #4]
 8001948:	681b      	ldr	r3, [r3, #0]
 800194a:	430a      	orrs	r2, r1
 800194c:	609a      	str	r2, [r3, #8]
  /* Enable external trigger if trigger selection is different of software  */
  /* start.                                                                 */
  /* Note: This configuration keeps the hardware feature of parameter       */
  /*       ExternalTrigConvEdge "trigger edge none" equivalent to           */
  /*       software start.                                                  */
  if(hadc->Init.ExternalTrigConv != ADC_SOFTWARE_START)
 800194e:	687b      	ldr	r3, [r7, #4]
 8001950:	6a9b      	ldr	r3, [r3, #40]	; 0x28
 8001952:	4a58      	ldr	r2, [pc, #352]	; (8001ab4 <ADC_Init+0x1f4>)
 8001954:	4293      	cmp	r3, r2
 8001956:	d022      	beq.n	800199e <ADC_Init+0xde>
  {
    /* Select external trigger to start conversion */
    hadc->Instance->CR2 &= ~(ADC_CR2_EXTSEL);
 8001958:	687b      	ldr	r3, [r7, #4]
 800195a:	681b      	ldr	r3, [r3, #0]
 800195c:	689a      	ldr	r2, [r3, #8]
 800195e:	687b      	ldr	r3, [r7, #4]
 8001960:	681b      	ldr	r3, [r3, #0]
 8001962:	f022 6270 	bic.w	r2, r2, #251658240	; 0xf000000
 8001966:	609a      	str	r2, [r3, #8]
    hadc->Instance->CR2 |= hadc->Init.ExternalTrigConv;
 8001968:	687b      	ldr	r3, [r7, #4]
 800196a:	681b      	ldr	r3, [r3, #0]
 800196c:	6899      	ldr	r1, [r3, #8]
 800196e:	687b      	ldr	r3, [r7, #4]
 8001970:	6a9a      	ldr	r2, [r3, #40]	; 0x28
 8001972:	687b      	ldr	r3, [r7, #4]
 8001974:	681b      	ldr	r3, [r3, #0]
 8001976:	430a      	orrs	r2, r1
 8001978:	609a      	str	r2, [r3, #8]
    
    /* Select external trigger polarity */
    hadc->Instance->CR2 &= ~(ADC_CR2_EXTEN);
 800197a:	687b      	ldr	r3, [r7, #4]
 800197c:	681b      	ldr	r3, [r3, #0]
 800197e:	689a      	ldr	r2, [r3, #8]
 8001980:	687b      	ldr	r3, [r7, #4]
 8001982:	681b      	ldr	r3, [r3, #0]
 8001984:	f022 5240 	bic.w	r2, r2, #805306368	; 0x30000000
 8001988:	609a      	str	r2, [r3, #8]
    hadc->Instance->CR2 |= hadc->Init.ExternalTrigConvEdge;
 800198a:	687b      	ldr	r3, [r7, #4]
 800198c:	681b      	ldr	r3, [r3, #0]
 800198e:	6899      	ldr	r1, [r3, #8]
 8001990:	687b      	ldr	r3, [r7, #4]
 8001992:	6ada      	ldr	r2, [r3, #44]	; 0x2c
 8001994:	687b      	ldr	r3, [r7, #4]
 8001996:	681b      	ldr	r3, [r3, #0]
 8001998:	430a      	orrs	r2, r1
 800199a:	609a      	str	r2, [r3, #8]
 800199c:	e00f      	b.n	80019be <ADC_Init+0xfe>
  }
  else
  {
    /* Reset the external trigger */
    hadc->Instance->CR2 &= ~(ADC_CR2_EXTSEL);
 800199e:	687b      	ldr	r3, [r7, #4]
 80019a0:	681b      	ldr	r3, [r3, #0]
 80019a2:	689a      	ldr	r2, [r3, #8]
 80019a4:	687b      	ldr	r3, [r7, #4]
 80019a6:	681b      	ldr	r3, [r3, #0]
 80019a8:	f022 6270 	bic.w	r2, r2, #251658240	; 0xf000000
 80019ac:	609a      	str	r2, [r3, #8]
    hadc->Instance->CR2 &= ~(ADC_CR2_EXTEN);
 80019ae:	687b      	ldr	r3, [r7, #4]
 80019b0:	681b      	ldr	r3, [r3, #0]
 80019b2:	689a      	ldr	r2, [r3, #8]
 80019b4:	687b      	ldr	r3, [r7, #4]
 80019b6:	681b      	ldr	r3, [r3, #0]
 80019b8:	f022 5240 	bic.w	r2, r2, #805306368	; 0x30000000
 80019bc:	609a      	str	r2, [r3, #8]
  }
  
  /* Enable or disable ADC continuous conversion mode */
  hadc->Instance->CR2 &= ~(ADC_CR2_CONT);
 80019be:	687b      	ldr	r3, [r7, #4]
 80019c0:	681b      	ldr	r3, [r3, #0]
 80019c2:	689a      	ldr	r2, [r3, #8]
 80019c4:	687b      	ldr	r3, [r7, #4]
 80019c6:	681b      	ldr	r3, [r3, #0]
 80019c8:	f022 0202 	bic.w	r2, r2, #2
 80019cc:	609a      	str	r2, [r3, #8]
  hadc->Instance->CR2 |= ADC_CR2_CONTINUOUS((uint32_t)hadc->Init.ContinuousConvMode);
 80019ce:	687b      	ldr	r3, [r7, #4]
 80019d0:	681b      	ldr	r3, [r3, #0]
 80019d2:	6899      	ldr	r1, [r3, #8]
 80019d4:	687b      	ldr	r3, [r7, #4]
 80019d6:	7e1b      	ldrb	r3, [r3, #24]
 80019d8:	005a      	lsls	r2, r3, #1
 80019da:	687b      	ldr	r3, [r7, #4]
 80019dc:	681b      	ldr	r3, [r3, #0]
 80019de:	430a      	orrs	r2, r1
 80019e0:	609a      	str	r2, [r3, #8]
  
  if(hadc->Init.DiscontinuousConvMode != DISABLE)
 80019e2:	687b      	ldr	r3, [r7, #4]
 80019e4:	f893 3020 	ldrb.w	r3, [r3, #32]
 80019e8:	2b00      	cmp	r3, #0
 80019ea:	d01b      	beq.n	8001a24 <ADC_Init+0x164>
  {
    assert_param(IS_ADC_REGULAR_DISC_NUMBER(hadc->Init.NbrOfDiscConversion));
  
    /* Enable the selected ADC regular discontinuous mode */
    hadc->Instance->CR1 |= (uint32_t)ADC_CR1_DISCEN;
 80019ec:	687b      	ldr	r3, [r7, #4]
 80019ee:	681b      	ldr	r3, [r3, #0]
 80019f0:	685a      	ldr	r2, [r3, #4]
 80019f2:	687b      	ldr	r3, [r7, #4]
 80019f4:	681b      	ldr	r3, [r3, #0]
 80019f6:	f442 6200 	orr.w	r2, r2, #2048	; 0x800
 80019fa:	605a      	str	r2, [r3, #4]
    
    /* Set the number of channels to be converted in discontinuous mode */
    hadc->Instance->CR1 &= ~(ADC_CR1_DISCNUM);
 80019fc:	687b      	ldr	r3, [r7, #4]
 80019fe:	681b      	ldr	r3, [r3, #0]
 8001a00:	685a      	ldr	r2, [r3, #4]
 8001a02:	687b      	ldr	r3, [r7, #4]
 8001a04:	681b      	ldr	r3, [r3, #0]
 8001a06:	f422 4260 	bic.w	r2, r2, #57344	; 0xe000
 8001a0a:	605a      	str	r2, [r3, #4]
    hadc->Instance->CR1 |=  ADC_CR1_DISCONTINUOUS(hadc->Init.NbrOfDiscConversion);
 8001a0c:	687b      	ldr	r3, [r7, #4]
 8001a0e:	681b      	ldr	r3, [r3, #0]
 8001a10:	6859      	ldr	r1, [r3, #4]
 8001a12:	687b      	ldr	r3, [r7, #4]
 8001a14:	6a5b      	ldr	r3, [r3, #36]	; 0x24
 8001a16:	3b01      	subs	r3, #1
 8001a18:	035a      	lsls	r2, r3, #13
 8001a1a:	687b      	ldr	r3, [r7, #4]
 8001a1c:	681b      	ldr	r3, [r3, #0]
 8001a1e:	430a      	orrs	r2, r1
 8001a20:	605a      	str	r2, [r3, #4]
 8001a22:	e007      	b.n	8001a34 <ADC_Init+0x174>
  }
  else
  {
    /* Disable the selected ADC regular discontinuous mode */
    hadc->Instance->CR1 &= ~(ADC_CR1_DISCEN);
 8001a24:	687b      	ldr	r3, [r7, #4]
 8001a26:	681b      	ldr	r3, [r3, #0]
 8001a28:	685a      	ldr	r2, [r3, #4]
 8001a2a:	687b      	ldr	r3, [r7, #4]
 8001a2c:	681b      	ldr	r3, [r3, #0]
 8001a2e:	f422 6200 	bic.w	r2, r2, #2048	; 0x800
 8001a32:	605a      	str	r2, [r3, #4]
  }
  
  /* Set ADC number of conversion */
  hadc->Instance->SQR1 &= ~(ADC_SQR1_L);
 8001a34:	687b      	ldr	r3, [r7, #4]
 8001a36:	681b      	ldr	r3, [r3, #0]
 8001a38:	6ada      	ldr	r2, [r3, #44]	; 0x2c
 8001a3a:	687b      	ldr	r3, [r7, #4]
 8001a3c:	681b      	ldr	r3, [r3, #0]
 8001a3e:	f422 0270 	bic.w	r2, r2, #15728640	; 0xf00000
 8001a42:	62da      	str	r2, [r3, #44]	; 0x2c
  hadc->Instance->SQR1 |=  ADC_SQR1(hadc->Init.NbrOfConversion);
 8001a44:	687b      	ldr	r3, [r7, #4]
 8001a46:	681b      	ldr	r3, [r3, #0]
 8001a48:	6ad9      	ldr	r1, [r3, #44]	; 0x2c
 8001a4a:	687b      	ldr	r3, [r7, #4]
 8001a4c:	69db      	ldr	r3, [r3, #28]
 8001a4e:	3b01      	subs	r3, #1
 8001a50:	051a      	lsls	r2, r3, #20
 8001a52:	687b      	ldr	r3, [r7, #4]
 8001a54:	681b      	ldr	r3, [r3, #0]
 8001a56:	430a      	orrs	r2, r1
 8001a58:	62da      	str	r2, [r3, #44]	; 0x2c
  
  /* Enable or disable ADC DMA continuous request */
  hadc->Instance->CR2 &= ~(ADC_CR2_DDS);
 8001a5a:	687b      	ldr	r3, [r7, #4]
 8001a5c:	681b      	ldr	r3, [r3, #0]
 8001a5e:	689a      	ldr	r2, [r3, #8]
 8001a60:	687b      	ldr	r3, [r7, #4]
 8001a62:	681b      	ldr	r3, [r3, #0]
 8001a64:	f422 7200 	bic.w	r2, r2, #512	; 0x200
 8001a68:	609a      	str	r2, [r3, #8]
  hadc->Instance->CR2 |= ADC_CR2_DMAContReq((uint32_t)hadc->Init.DMAContinuousRequests);
 8001a6a:	687b      	ldr	r3, [r7, #4]
 8001a6c:	681b      	ldr	r3, [r3, #0]
 8001a6e:	6899      	ldr	r1, [r3, #8]
 8001a70:	687b      	ldr	r3, [r7, #4]
 8001a72:	f893 3030 	ldrb.w	r3, [r3, #48]	; 0x30
 8001a76:	025a      	lsls	r2, r3, #9
 8001a78:	687b      	ldr	r3, [r7, #4]
 8001a7a:	681b      	ldr	r3, [r3, #0]
 8001a7c:	430a      	orrs	r2, r1
 8001a7e:	609a      	str	r2, [r3, #8]
  
  /* Enable or disable ADC end of conversion selection */
  hadc->Instance->CR2 &= ~(ADC_CR2_EOCS);
 8001a80:	687b      	ldr	r3, [r7, #4]
 8001a82:	681b      	ldr	r3, [r3, #0]
 8001a84:	689a      	ldr	r2, [r3, #8]
 8001a86:	687b      	ldr	r3, [r7, #4]
 8001a88:	681b      	ldr	r3, [r3, #0]
 8001a8a:	f422 6280 	bic.w	r2, r2, #1024	; 0x400
 8001a8e:	609a      	str	r2, [r3, #8]
  hadc->Instance->CR2 |= ADC_CR2_EOCSelection(hadc->Init.EOCSelection);
 8001a90:	687b      	ldr	r3, [r7, #4]
 8001a92:	681b      	ldr	r3, [r3, #0]
 8001a94:	6899      	ldr	r1, [r3, #8]
 8001a96:	687b      	ldr	r3, [r7, #4]
 8001a98:	695b      	ldr	r3, [r3, #20]
 8001a9a:	029a      	lsls	r2, r3, #10
 8001a9c:	687b      	ldr	r3, [r7, #4]
 8001a9e:	681b      	ldr	r3, [r3, #0]
 8001aa0:	430a      	orrs	r2, r1
 8001aa2:	609a      	str	r2, [r3, #8]
}
 8001aa4:	bf00      	nop
 8001aa6:	3714      	adds	r7, #20
 8001aa8:	46bd      	mov	sp, r7
 8001aaa:	f85d 7b04 	ldr.w	r7, [sp], #4
 8001aae:	4770      	bx	lr
 8001ab0:	40012300 	.word	0x40012300
 8001ab4:	0f000001 	.word	0x0f000001

08001ab8 <HAL_ADCEx_InjectedConvCpltCallback>:
  * @param  hadc pointer to a ADC_HandleTypeDef structure that contains
  *         the configuration information for the specified ADC.
  * @retval None
  */
__weak void HAL_ADCEx_InjectedConvCpltCallback(ADC_HandleTypeDef* hadc)
{
 8001ab8:	b480      	push	{r7}
 8001aba:	b083      	sub	sp, #12
 8001abc:	af00      	add	r7, sp, #0
 8001abe:	6078      	str	r0, [r7, #4]
  /* Prevent unused argument(s) compilation warning */
  UNUSED(hadc);
  /* NOTE : This function Should not be modified, when the callback is needed,
            the HAL_ADC_InjectedConvCpltCallback could be implemented in the user file
   */
}
 8001ac0:	bf00      	nop
 8001ac2:	370c      	adds	r7, #12
 8001ac4:	46bd      	mov	sp, r7
 8001ac6:	f85d 7b04 	ldr.w	r7, [sp], #4
 8001aca:	4770      	bx	lr

08001acc <HAL_CAN_Init>:
  * @param  hcan pointer to a CAN_HandleTypeDef structure that contains
  *         the configuration information for the specified CAN.
  * @retval HAL status
  */
HAL_StatusTypeDef HAL_CAN_Init(CAN_HandleTypeDef *hcan)
{
 8001acc:	b580      	push	{r7, lr}
 8001ace:	b084      	sub	sp, #16
 8001ad0:	af00      	add	r7, sp, #0
 8001ad2:	6078      	str	r0, [r7, #4]
  uint32_t tickstart;

  /* Check CAN handle */
  if (hcan == NULL)
 8001ad4:	687b      	ldr	r3, [r7, #4]
 8001ad6:	2b00      	cmp	r3, #0
 8001ad8:	d101      	bne.n	8001ade <HAL_CAN_Init+0x12>
  {
    return HAL_ERROR;
 8001ada:	2301      	movs	r3, #1
 8001adc:	e0ed      	b.n	8001cba <HAL_CAN_Init+0x1ee>
    /* Init the low level hardware: CLOCK, NVIC */
    hcan->MspInitCallback(hcan);
  }

#else
  if (hcan->State == HAL_CAN_STATE_RESET)
 8001ade:	687b      	ldr	r3, [r7, #4]
 8001ae0:	f893 3020 	ldrb.w	r3, [r3, #32]
 8001ae4:	b2db      	uxtb	r3, r3
 8001ae6:	2b00      	cmp	r3, #0
 8001ae8:	d102      	bne.n	8001af0 <HAL_CAN_Init+0x24>
  {
    /* Init the low level hardware: CLOCK, NVIC */
    HAL_CAN_MspInit(hcan);
 8001aea:	6878      	ldr	r0, [r7, #4]
 8001aec:	f7ff f98e 	bl	8000e0c <HAL_CAN_MspInit>
  }
#endif /* (USE_HAL_CAN_REGISTER_CALLBACKS) */

  /* Request initialisation */
  SET_BIT(hcan->Instance->MCR, CAN_MCR_INRQ);
 8001af0:	687b      	ldr	r3, [r7, #4]
 8001af2:	681b      	ldr	r3, [r3, #0]
 8001af4:	681a      	ldr	r2, [r3, #0]
 8001af6:	687b      	ldr	r3, [r7, #4]
 8001af8:	681b      	ldr	r3, [r3, #0]
 8001afa:	f042 0201 	orr.w	r2, r2, #1
 8001afe:	601a      	str	r2, [r3, #0]

  /* Get tick */
  tickstart = HAL_GetTick();
 8001b00:	f7ff fb06 	bl	8001110 <HAL_GetTick>
 8001b04:	60f8      	str	r0, [r7, #12]

  /* Wait initialisation acknowledge */
  while ((hcan->Instance->MSR & CAN_MSR_INAK) == 0U)
 8001b06:	e012      	b.n	8001b2e <HAL_CAN_Init+0x62>
  {
    if ((HAL_GetTick() - tickstart) > CAN_TIMEOUT_VALUE)
 8001b08:	f7ff fb02 	bl	8001110 <HAL_GetTick>
 8001b0c:	4602      	mov	r2, r0
 8001b0e:	68fb      	ldr	r3, [r7, #12]
 8001b10:	1ad3      	subs	r3, r2, r3
 8001b12:	2b0a      	cmp	r3, #10
 8001b14:	d90b      	bls.n	8001b2e <HAL_CAN_Init+0x62>
    {
      /* Update error code */
      hcan->ErrorCode |= HAL_CAN_ERROR_TIMEOUT;
 8001b16:	687b      	ldr	r3, [r7, #4]
 8001b18:	6a5b      	ldr	r3, [r3, #36]	; 0x24
 8001b1a:	f443 3200 	orr.w	r2, r3, #131072	; 0x20000
 8001b1e:	687b      	ldr	r3, [r7, #4]
 8001b20:	625a      	str	r2, [r3, #36]	; 0x24

      /* Change CAN state */
      hcan->State = HAL_CAN_STATE_ERROR;
 8001b22:	687b      	ldr	r3, [r7, #4]
 8001b24:	2205      	movs	r2, #5
 8001b26:	f883 2020 	strb.w	r2, [r3, #32]

      return HAL_ERROR;
 8001b2a:	2301      	movs	r3, #1
 8001b2c:	e0c5      	b.n	8001cba <HAL_CAN_Init+0x1ee>
  while ((hcan->Instance->MSR & CAN_MSR_INAK) == 0U)
 8001b2e:	687b      	ldr	r3, [r7, #4]
 8001b30:	681b      	ldr	r3, [r3, #0]
 8001b32:	685b      	ldr	r3, [r3, #4]
 8001b34:	f003 0301 	and.w	r3, r3, #1
 8001b38:	2b00      	cmp	r3, #0
 8001b3a:	d0e5      	beq.n	8001b08 <HAL_CAN_Init+0x3c>
    }
  }

  /* Exit from sleep mode */
  CLEAR_BIT(hcan->Instance->MCR, CAN_MCR_SLEEP);
 8001b3c:	687b      	ldr	r3, [r7, #4]
 8001b3e:	681b      	ldr	r3, [r3, #0]
 8001b40:	681a      	ldr	r2, [r3, #0]
 8001b42:	687b      	ldr	r3, [r7, #4]
 8001b44:	681b      	ldr	r3, [r3, #0]
 8001b46:	f022 0202 	bic.w	r2, r2, #2
 8001b4a:	601a      	str	r2, [r3, #0]

  /* Get tick */
  tickstart = HAL_GetTick();
 8001b4c:	f7ff fae0 	bl	8001110 <HAL_GetTick>
 8001b50:	60f8      	str	r0, [r7, #12]

  /* Check Sleep mode leave acknowledge */
  while ((hcan->Instance->MSR & CAN_MSR_SLAK) != 0U)
 8001b52:	e012      	b.n	8001b7a <HAL_CAN_Init+0xae>
  {
    if ((HAL_GetTick() - tickstart) > CAN_TIMEOUT_VALUE)
 8001b54:	f7ff fadc 	bl	8001110 <HAL_GetTick>
 8001b58:	4602      	mov	r2, r0
 8001b5a:	68fb      	ldr	r3, [r7, #12]
 8001b5c:	1ad3      	subs	r3, r2, r3
 8001b5e:	2b0a      	cmp	r3, #10
 8001b60:	d90b      	bls.n	8001b7a <HAL_CAN_Init+0xae>
    {
      /* Update error code */
      hcan->ErrorCode |= HAL_CAN_ERROR_TIMEOUT;
 8001b62:	687b      	ldr	r3, [r7, #4]
 8001b64:	6a5b      	ldr	r3, [r3, #36]	; 0x24
 8001b66:	f443 3200 	orr.w	r2, r3, #131072	; 0x20000
 8001b6a:	687b      	ldr	r3, [r7, #4]
 8001b6c:	625a      	str	r2, [r3, #36]	; 0x24

      /* Change CAN state */
      hcan->State = HAL_CAN_STATE_ERROR;
 8001b6e:	687b      	ldr	r3, [r7, #4]
 8001b70:	2205      	movs	r2, #5
 8001b72:	f883 2020 	strb.w	r2, [r3, #32]

      return HAL_ERROR;
 8001b76:	2301      	movs	r3, #1
 8001b78:	e09f      	b.n	8001cba <HAL_CAN_Init+0x1ee>
  while ((hcan->Instance->MSR & CAN_MSR_SLAK) != 0U)
 8001b7a:	687b      	ldr	r3, [r7, #4]
 8001b7c:	681b      	ldr	r3, [r3, #0]
 8001b7e:	685b      	ldr	r3, [r3, #4]
 8001b80:	f003 0302 	and.w	r3, r3, #2
 8001b84:	2b00      	cmp	r3, #0
 8001b86:	d1e5      	bne.n	8001b54 <HAL_CAN_Init+0x88>
    }
  }

  /* Set the time triggered communication mode */
  if (hcan->Init.TimeTriggeredMode == ENABLE)
 8001b88:	687b      	ldr	r3, [r7, #4]
 8001b8a:	7e1b      	ldrb	r3, [r3, #24]
 8001b8c:	2b01      	cmp	r3, #1
 8001b8e:	d108      	bne.n	8001ba2 <HAL_CAN_Init+0xd6>
  {
    SET_BIT(hcan->Instance->MCR, CAN_MCR_TTCM);
 8001b90:	687b      	ldr	r3, [r7, #4]
 8001b92:	681b      	ldr	r3, [r3, #0]
 8001b94:	681a      	ldr	r2, [r3, #0]
 8001b96:	687b      	ldr	r3, [r7, #4]
 8001b98:	681b      	ldr	r3, [r3, #0]
 8001b9a:	f042 0280 	orr.w	r2, r2, #128	; 0x80
 8001b9e:	601a      	str	r2, [r3, #0]
 8001ba0:	e007      	b.n	8001bb2 <HAL_CAN_Init+0xe6>
  }
  else
  {
    CLEAR_BIT(hcan->Instance->MCR, CAN_MCR_TTCM);
 8001ba2:	687b      	ldr	r3, [r7, #4]
 8001ba4:	681b      	ldr	r3, [r3, #0]
 8001ba6:	681a      	ldr	r2, [r3, #0]
 8001ba8:	687b      	ldr	r3, [r7, #4]
 8001baa:	681b      	ldr	r3, [r3, #0]
 8001bac:	f022 0280 	bic.w	r2, r2, #128	; 0x80
 8001bb0:	601a      	str	r2, [r3, #0]
  }

  /* Set the automatic bus-off management */
  if (hcan->Init.AutoBusOff == ENABLE)
 8001bb2:	687b      	ldr	r3, [r7, #4]
 8001bb4:	7e5b      	ldrb	r3, [r3, #25]
 8001bb6:	2b01      	cmp	r3, #1
 8001bb8:	d108      	bne.n	8001bcc <HAL_CAN_Init+0x100>
  {
    SET_BIT(hcan->Instance->MCR, CAN_MCR_ABOM);
 8001bba:	687b      	ldr	r3, [r7, #4]
 8001bbc:	681b      	ldr	r3, [r3, #0]
 8001bbe:	681a      	ldr	r2, [r3, #0]
 8001bc0:	687b      	ldr	r3, [r7, #4]
 8001bc2:	681b      	ldr	r3, [r3, #0]
 8001bc4:	f042 0240 	orr.w	r2, r2, #64	; 0x40
 8001bc8:	601a      	str	r2, [r3, #0]
 8001bca:	e007      	b.n	8001bdc <HAL_CAN_Init+0x110>
  }
  else
  {
    CLEAR_BIT(hcan->Instance->MCR, CAN_MCR_ABOM);
 8001bcc:	687b      	ldr	r3, [r7, #4]
 8001bce:	681b      	ldr	r3, [r3, #0]
 8001bd0:	681a      	ldr	r2, [r3, #0]
 8001bd2:	687b      	ldr	r3, [r7, #4]
 8001bd4:	681b      	ldr	r3, [r3, #0]
 8001bd6:	f022 0240 	bic.w	r2, r2, #64	; 0x40
 8001bda:	601a      	str	r2, [r3, #0]
  }

  /* Set the automatic wake-up mode */
  if (hcan->Init.AutoWakeUp == ENABLE)
 8001bdc:	687b      	ldr	r3, [r7, #4]
 8001bde:	7e9b      	ldrb	r3, [r3, #26]
 8001be0:	2b01      	cmp	r3, #1
 8001be2:	d108      	bne.n	8001bf6 <HAL_CAN_Init+0x12a>
  {
    SET_BIT(hcan->Instance->MCR, CAN_MCR_AWUM);
 8001be4:	687b      	ldr	r3, [r7, #4]
 8001be6:	681b      	ldr	r3, [r3, #0]
 8001be8:	681a      	ldr	r2, [r3, #0]
 8001bea:	687b      	ldr	r3, [r7, #4]
 8001bec:	681b      	ldr	r3, [r3, #0]
 8001bee:	f042 0220 	orr.w	r2, r2, #32
 8001bf2:	601a      	str	r2, [r3, #0]
 8001bf4:	e007      	b.n	8001c06 <HAL_CAN_Init+0x13a>
  }
  else
  {
    CLEAR_BIT(hcan->Instance->MCR, CAN_MCR_AWUM);
 8001bf6:	687b      	ldr	r3, [r7, #4]
 8001bf8:	681b      	ldr	r3, [r3, #0]
 8001bfa:	681a      	ldr	r2, [r3, #0]
 8001bfc:	687b      	ldr	r3, [r7, #4]
 8001bfe:	681b      	ldr	r3, [r3, #0]
 8001c00:	f022 0220 	bic.w	r2, r2, #32
 8001c04:	601a      	str	r2, [r3, #0]
  }

  /* Set the automatic retransmission */
  if (hcan->Init.AutoRetransmission == ENABLE)
 8001c06:	687b      	ldr	r3, [r7, #4]
 8001c08:	7edb      	ldrb	r3, [r3, #27]
 8001c0a:	2b01      	cmp	r3, #1
 8001c0c:	d108      	bne.n	8001c20 <HAL_CAN_Init+0x154>
  {
    CLEAR_BIT(hcan->Instance->MCR, CAN_MCR_NART);
 8001c0e:	687b      	ldr	r3, [r7, #4]
 8001c10:	681b      	ldr	r3, [r3, #0]
 8001c12:	681a      	ldr	r2, [r3, #0]
 8001c14:	687b      	ldr	r3, [r7, #4]
 8001c16:	681b      	ldr	r3, [r3, #0]
 8001c18:	f022 0210 	bic.w	r2, r2, #16
 8001c1c:	601a      	str	r2, [r3, #0]
 8001c1e:	e007      	b.n	8001c30 <HAL_CAN_Init+0x164>
  }
  else
  {
    SET_BIT(hcan->Instance->MCR, CAN_MCR_NART);
 8001c20:	687b      	ldr	r3, [r7, #4]
 8001c22:	681b      	ldr	r3, [r3, #0]
 8001c24:	681a      	ldr	r2, [r3, #0]
 8001c26:	687b      	ldr	r3, [r7, #4]
 8001c28:	681b      	ldr	r3, [r3, #0]
 8001c2a:	f042 0210 	orr.w	r2, r2, #16
 8001c2e:	601a      	str	r2, [r3, #0]
  }

  /* Set the receive FIFO locked mode */
  if (hcan->Init.ReceiveFifoLocked == ENABLE)
 8001c30:	687b      	ldr	r3, [r7, #4]
 8001c32:	7f1b      	ldrb	r3, [r3, #28]
 8001c34:	2b01      	cmp	r3, #1
 8001c36:	d108      	bne.n	8001c4a <HAL_CAN_Init+0x17e>
  {
    SET_BIT(hcan->Instance->MCR, CAN_MCR_RFLM);
 8001c38:	687b      	ldr	r3, [r7, #4]
 8001c3a:	681b      	ldr	r3, [r3, #0]
 8001c3c:	681a      	ldr	r2, [r3, #0]
 8001c3e:	687b      	ldr	r3, [r7, #4]
 8001c40:	681b      	ldr	r3, [r3, #0]
 8001c42:	f042 0208 	orr.w	r2, r2, #8
 8001c46:	601a      	str	r2, [r3, #0]
 8001c48:	e007      	b.n	8001c5a <HAL_CAN_Init+0x18e>
  }
  else
  {
    CLEAR_BIT(hcan->Instance->MCR, CAN_MCR_RFLM);
 8001c4a:	687b      	ldr	r3, [r7, #4]
 8001c4c:	681b      	ldr	r3, [r3, #0]
 8001c4e:	681a      	ldr	r2, [r3, #0]
 8001c50:	687b      	ldr	r3, [r7, #4]
 8001c52:	681b      	ldr	r3, [r3, #0]
 8001c54:	f022 0208 	bic.w	r2, r2, #8
 8001c58:	601a      	str	r2, [r3, #0]
  }

  /* Set the transmit FIFO priority */
  if (hcan->Init.TransmitFifoPriority == ENABLE)
 8001c5a:	687b      	ldr	r3, [r7, #4]
 8001c5c:	7f5b      	ldrb	r3, [r3, #29]
 8001c5e:	2b01      	cmp	r3, #1
 8001c60:	d108      	bne.n	8001c74 <HAL_CAN_Init+0x1a8>
  {
    SET_BIT(hcan->Instance->MCR, CAN_MCR_TXFP);
 8001c62:	687b      	ldr	r3, [r7, #4]
 8001c64:	681b      	ldr	r3, [r3, #0]
 8001c66:	681a      	ldr	r2, [r3, #0]
 8001c68:	687b      	ldr	r3, [r7, #4]
 8001c6a:	681b      	ldr	r3, [r3, #0]
 8001c6c:	f042 0204 	orr.w	r2, r2, #4
 8001c70:	601a      	str	r2, [r3, #0]
 8001c72:	e007      	b.n	8001c84 <HAL_CAN_Init+0x1b8>
  }
  else
  {
    CLEAR_BIT(hcan->Instance->MCR, CAN_MCR_TXFP);
 8001c74:	687b      	ldr	r3, [r7, #4]
 8001c76:	681b      	ldr	r3, [r3, #0]
 8001c78:	681a      	ldr	r2, [r3, #0]
 8001c7a:	687b      	ldr	r3, [r7, #4]
 8001c7c:	681b      	ldr	r3, [r3, #0]
 8001c7e:	f022 0204 	bic.w	r2, r2, #4
 8001c82:	601a      	str	r2, [r3, #0]
  }

  /* Set the bit timing register */
  WRITE_REG(hcan->Instance->BTR, (uint32_t)(hcan->Init.Mode           |
 8001c84:	687b      	ldr	r3, [r7, #4]
 8001c86:	689a      	ldr	r2, [r3, #8]
 8001c88:	687b      	ldr	r3, [r7, #4]
 8001c8a:	68db      	ldr	r3, [r3, #12]
 8001c8c:	431a      	orrs	r2, r3
 8001c8e:	687b      	ldr	r3, [r7, #4]
 8001c90:	691b      	ldr	r3, [r3, #16]
 8001c92:	431a      	orrs	r2, r3
 8001c94:	687b      	ldr	r3, [r7, #4]
 8001c96:	695b      	ldr	r3, [r3, #20]
 8001c98:	ea42 0103 	orr.w	r1, r2, r3
 8001c9c:	687b      	ldr	r3, [r7, #4]
 8001c9e:	685b      	ldr	r3, [r3, #4]
 8001ca0:	1e5a      	subs	r2, r3, #1
 8001ca2:	687b      	ldr	r3, [r7, #4]
 8001ca4:	681b      	ldr	r3, [r3, #0]
 8001ca6:	430a      	orrs	r2, r1
 8001ca8:	61da      	str	r2, [r3, #28]
                                            hcan->Init.TimeSeg1       |
                                            hcan->Init.TimeSeg2       |
                                            (hcan->Init.Prescaler - 1U)));

  /* Initialize the error code */
  hcan->ErrorCode = HAL_CAN_ERROR_NONE;
 8001caa:	687b      	ldr	r3, [r7, #4]
 8001cac:	2200      	movs	r2, #0
 8001cae:	625a      	str	r2, [r3, #36]	; 0x24

  /* Initialize the CAN state */
  hcan->State = HAL_CAN_STATE_READY;
 8001cb0:	687b      	ldr	r3, [r7, #4]
 8001cb2:	2201      	movs	r2, #1
 8001cb4:	f883 2020 	strb.w	r2, [r3, #32]

  /* Return function status */
  return HAL_OK;
 8001cb8:	2300      	movs	r3, #0
}
 8001cba:	4618      	mov	r0, r3
 8001cbc:	3710      	adds	r7, #16
 8001cbe:	46bd      	mov	sp, r7
 8001cc0:	bd80      	pop	{r7, pc}
	...

08001cc4 <HAL_CAN_ConfigFilter>:
  * @param  sFilterConfig pointer to a CAN_FilterTypeDef structure that
  *         contains the filter configuration information.
  * @retval None
  */
HAL_StatusTypeDef HAL_CAN_ConfigFilter(CAN_HandleTypeDef *hcan, CAN_FilterTypeDef *sFilterConfig)
{
 8001cc4:	b480      	push	{r7}
 8001cc6:	b087      	sub	sp, #28
 8001cc8:	af00      	add	r7, sp, #0
 8001cca:	6078      	str	r0, [r7, #4]
 8001ccc:	6039      	str	r1, [r7, #0]
  uint32_t filternbrbitpos;
  CAN_TypeDef *can_ip = hcan->Instance;
 8001cce:	687b      	ldr	r3, [r7, #4]
 8001cd0:	681b      	ldr	r3, [r3, #0]
 8001cd2:	617b      	str	r3, [r7, #20]
  HAL_CAN_StateTypeDef state = hcan->State;
 8001cd4:	687b      	ldr	r3, [r7, #4]
 8001cd6:	f893 3020 	ldrb.w	r3, [r3, #32]
 8001cda:	74fb      	strb	r3, [r7, #19]

  if ((state == HAL_CAN_STATE_READY) ||
 8001cdc:	7cfb      	ldrb	r3, [r7, #19]
 8001cde:	2b01      	cmp	r3, #1
 8001ce0:	d003      	beq.n	8001cea <HAL_CAN_ConfigFilter+0x26>
 8001ce2:	7cfb      	ldrb	r3, [r7, #19]
 8001ce4:	2b02      	cmp	r3, #2
 8001ce6:	f040 80be 	bne.w	8001e66 <HAL_CAN_ConfigFilter+0x1a2>
      assert_param(IS_CAN_FILTER_BANK_DUAL(sFilterConfig->SlaveStartFilterBank));
    }
#elif defined(CAN2)
    /* CAN1 and CAN2 are dual instances with 28 common filters banks */
    /* Select master instance to access the filter banks */
    can_ip = CAN1;
 8001cea:	4b65      	ldr	r3, [pc, #404]	; (8001e80 <HAL_CAN_ConfigFilter+0x1bc>)
 8001cec:	617b      	str	r3, [r7, #20]
    /* Check the parameters */
    assert_param(IS_CAN_FILTER_BANK_SINGLE(sFilterConfig->FilterBank));
#endif

    /* Initialisation mode for the filter */
    SET_BIT(can_ip->FMR, CAN_FMR_FINIT);
 8001cee:	697b      	ldr	r3, [r7, #20]
 8001cf0:	f8d3 3200 	ldr.w	r3, [r3, #512]	; 0x200
 8001cf4:	f043 0201 	orr.w	r2, r3, #1
 8001cf8:	697b      	ldr	r3, [r7, #20]
 8001cfa:	f8c3 2200 	str.w	r2, [r3, #512]	; 0x200
      SET_BIT(can_ip->FMR, sFilterConfig->SlaveStartFilterBank << CAN_FMR_CAN2SB_Pos);
    }

#elif defined(CAN2)
    /* Select the start filter number of CAN2 slave instance */
    CLEAR_BIT(can_ip->FMR, CAN_FMR_CAN2SB);
 8001cfe:	697b      	ldr	r3, [r7, #20]
 8001d00:	f8d3 3200 	ldr.w	r3, [r3, #512]	; 0x200
 8001d04:	f423 527c 	bic.w	r2, r3, #16128	; 0x3f00
 8001d08:	697b      	ldr	r3, [r7, #20]
 8001d0a:	f8c3 2200 	str.w	r2, [r3, #512]	; 0x200
    SET_BIT(can_ip->FMR, sFilterConfig->SlaveStartFilterBank << CAN_FMR_CAN2SB_Pos);
 8001d0e:	697b      	ldr	r3, [r7, #20]
 8001d10:	f8d3 2200 	ldr.w	r2, [r3, #512]	; 0x200
 8001d14:	683b      	ldr	r3, [r7, #0]
 8001d16:	6a5b      	ldr	r3, [r3, #36]	; 0x24
 8001d18:	021b      	lsls	r3, r3, #8
 8001d1a:	431a      	orrs	r2, r3
 8001d1c:	697b      	ldr	r3, [r7, #20]
 8001d1e:	f8c3 2200 	str.w	r2, [r3, #512]	; 0x200

#endif
    /* Convert filter number into bit position */
    filternbrbitpos = (uint32_t)1 << (sFilterConfig->FilterBank & 0x1FU);
 8001d22:	683b      	ldr	r3, [r7, #0]
 8001d24:	695b      	ldr	r3, [r3, #20]
 8001d26:	f003 031f 	and.w	r3, r3, #31
 8001d2a:	2201      	movs	r2, #1
 8001d2c:	fa02 f303 	lsl.w	r3, r2, r3
 8001d30:	60fb      	str	r3, [r7, #12]

    /* Filter Deactivation */
    CLEAR_BIT(can_ip->FA1R, filternbrbitpos);
 8001d32:	697b      	ldr	r3, [r7, #20]
 8001d34:	f8d3 221c 	ldr.w	r2, [r3, #540]	; 0x21c
 8001d38:	68fb      	ldr	r3, [r7, #12]
 8001d3a:	43db      	mvns	r3, r3
 8001d3c:	401a      	ands	r2, r3
 8001d3e:	697b      	ldr	r3, [r7, #20]
 8001d40:	f8c3 221c 	str.w	r2, [r3, #540]	; 0x21c

    /* Filter Scale */
    if (sFilterConfig->FilterScale == CAN_FILTERSCALE_16BIT)
 8001d44:	683b      	ldr	r3, [r7, #0]
 8001d46:	69db      	ldr	r3, [r3, #28]
 8001d48:	2b00      	cmp	r3, #0
 8001d4a:	d123      	bne.n	8001d94 <HAL_CAN_ConfigFilter+0xd0>
    {
      /* 16-bit scale for the filter */
      CLEAR_BIT(can_ip->FS1R, filternbrbitpos);
 8001d4c:	697b      	ldr	r3, [r7, #20]
 8001d4e:	f8d3 220c 	ldr.w	r2, [r3, #524]	; 0x20c
 8001d52:	68fb      	ldr	r3, [r7, #12]
 8001d54:	43db      	mvns	r3, r3
 8001d56:	401a      	ands	r2, r3
 8001d58:	697b      	ldr	r3, [r7, #20]
 8001d5a:	f8c3 220c 	str.w	r2, [r3, #524]	; 0x20c

      /* First 16-bit identifier and First 16-bit mask */
      /* Or First 16-bit identifier and Second 16-bit identifier */
      can_ip->sFilterRegister[sFilterConfig->FilterBank].FR1 =
        ((0x0000FFFFU & (uint32_t)sFilterConfig->FilterMaskIdLow) << 16U) |
 8001d5e:	683b      	ldr	r3, [r7, #0]
 8001d60:	68db      	ldr	r3, [r3, #12]
 8001d62:	0419      	lsls	r1, r3, #16
        (0x0000FFFFU & (uint32_t)sFilterConfig->FilterIdLow);
 8001d64:	683b      	ldr	r3, [r7, #0]
 8001d66:	685b      	ldr	r3, [r3, #4]
 8001d68:	b29b      	uxth	r3, r3
      can_ip->sFilterRegister[sFilterConfig->FilterBank].FR1 =
 8001d6a:	683a      	ldr	r2, [r7, #0]
 8001d6c:	6952      	ldr	r2, [r2, #20]
        ((0x0000FFFFU & (uint32_t)sFilterConfig->FilterMaskIdLow) << 16U) |
 8001d6e:	4319      	orrs	r1, r3
      can_ip->sFilterRegister[sFilterConfig->FilterBank].FR1 =
 8001d70:	697b      	ldr	r3, [r7, #20]
 8001d72:	3248      	adds	r2, #72	; 0x48
 8001d74:	f843 1032 	str.w	r1, [r3, r2, lsl #3]

      /* Second 16-bit identifier and Second 16-bit mask */
      /* Or Third 16-bit identifier and Fourth 16-bit identifier */
      can_ip->sFilterRegister[sFilterConfig->FilterBank].FR2 =
        ((0x0000FFFFU & (uint32_t)sFilterConfig->FilterMaskIdHigh) << 16U) |
 8001d78:	683b      	ldr	r3, [r7, #0]
 8001d7a:	689b      	ldr	r3, [r3, #8]
 8001d7c:	0419      	lsls	r1, r3, #16
        (0x0000FFFFU & (uint32_t)sFilterConfig->FilterIdHigh);
 8001d7e:	683b      	ldr	r3, [r7, #0]
 8001d80:	681b      	ldr	r3, [r3, #0]
 8001d82:	b29a      	uxth	r2, r3
      can_ip->sFilterRegister[sFilterConfig->FilterBank].FR2 =
 8001d84:	683b      	ldr	r3, [r7, #0]
 8001d86:	695b      	ldr	r3, [r3, #20]
        ((0x0000FFFFU & (uint32_t)sFilterConfig->FilterMaskIdHigh) << 16U) |
 8001d88:	430a      	orrs	r2, r1
      can_ip->sFilterRegister[sFilterConfig->FilterBank].FR2 =
 8001d8a:	6979      	ldr	r1, [r7, #20]
 8001d8c:	3348      	adds	r3, #72	; 0x48
 8001d8e:	00db      	lsls	r3, r3, #3
 8001d90:	440b      	add	r3, r1
 8001d92:	605a      	str	r2, [r3, #4]
    }

    if (sFilterConfig->FilterScale == CAN_FILTERSCALE_32BIT)
 8001d94:	683b      	ldr	r3, [r7, #0]
 8001d96:	69db      	ldr	r3, [r3, #28]
 8001d98:	2b01      	cmp	r3, #1
 8001d9a:	d122      	bne.n	8001de2 <HAL_CAN_ConfigFilter+0x11e>
    {
      /* 32-bit scale for the filter */
      SET_BIT(can_ip->FS1R, filternbrbitpos);
 8001d9c:	697b      	ldr	r3, [r7, #20]
 8001d9e:	f8d3 220c 	ldr.w	r2, [r3, #524]	; 0x20c
 8001da2:	68fb      	ldr	r3, [r7, #12]
 8001da4:	431a      	orrs	r2, r3
 8001da6:	697b      	ldr	r3, [r7, #20]
 8001da8:	f8c3 220c 	str.w	r2, [r3, #524]	; 0x20c

      /* 32-bit identifier or First 32-bit identifier */
      can_ip->sFilterRegister[sFilterConfig->FilterBank].FR1 =
        ((0x0000FFFFU & (uint32_t)sFilterConfig->FilterIdHigh) << 16U) |
 8001dac:	683b      	ldr	r3, [r7, #0]
 8001dae:	681b      	ldr	r3, [r3, #0]
 8001db0:	0419      	lsls	r1, r3, #16
        (0x0000FFFFU & (uint32_t)sFilterConfig->FilterIdLow);
 8001db2:	683b      	ldr	r3, [r7, #0]
 8001db4:	685b      	ldr	r3, [r3, #4]
 8001db6:	b29b      	uxth	r3, r3
      can_ip->sFilterRegister[sFilterConfig->FilterBank].FR1 =
 8001db8:	683a      	ldr	r2, [r7, #0]
 8001dba:	6952      	ldr	r2, [r2, #20]
        ((0x0000FFFFU & (uint32_t)sFilterConfig->FilterIdHigh) << 16U) |
 8001dbc:	4319      	orrs	r1, r3
      can_ip->sFilterRegister[sFilterConfig->FilterBank].FR1 =
 8001dbe:	697b      	ldr	r3, [r7, #20]
 8001dc0:	3248      	adds	r2, #72	; 0x48
 8001dc2:	f843 1032 	str.w	r1, [r3, r2, lsl #3]

      /* 32-bit mask or Second 32-bit identifier */
      can_ip->sFilterRegister[sFilterConfig->FilterBank].FR2 =
        ((0x0000FFFFU & (uint32_t)sFilterConfig->FilterMaskIdHigh) << 16U) |
 8001dc6:	683b      	ldr	r3, [r7, #0]
 8001dc8:	689b      	ldr	r3, [r3, #8]
 8001dca:	0419      	lsls	r1, r3, #16
        (0x0000FFFFU & (uint32_t)sFilterConfig->FilterMaskIdLow);
 8001dcc:	683b      	ldr	r3, [r7, #0]
 8001dce:	68db      	ldr	r3, [r3, #12]
 8001dd0:	b29a      	uxth	r2, r3
      can_ip->sFilterRegister[sFilterConfig->FilterBank].FR2 =
 8001dd2:	683b      	ldr	r3, [r7, #0]
 8001dd4:	695b      	ldr	r3, [r3, #20]
        ((0x0000FFFFU & (uint32_t)sFilterConfig->FilterMaskIdHigh) << 16U) |
 8001dd6:	430a      	orrs	r2, r1
      can_ip->sFilterRegister[sFilterConfig->FilterBank].FR2 =
 8001dd8:	6979      	ldr	r1, [r7, #20]
 8001dda:	3348      	adds	r3, #72	; 0x48
 8001ddc:	00db      	lsls	r3, r3, #3
 8001dde:	440b      	add	r3, r1
 8001de0:	605a      	str	r2, [r3, #4]
    }

    /* Filter Mode */
    if (sFilterConfig->FilterMode == CAN_FILTERMODE_IDMASK)
 8001de2:	683b      	ldr	r3, [r7, #0]
 8001de4:	699b      	ldr	r3, [r3, #24]
 8001de6:	2b00      	cmp	r3, #0
 8001de8:	d109      	bne.n	8001dfe <HAL_CAN_ConfigFilter+0x13a>
    {
      /* Id/Mask mode for the filter*/
      CLEAR_BIT(can_ip->FM1R, filternbrbitpos);
 8001dea:	697b      	ldr	r3, [r7, #20]
 8001dec:	f8d3 2204 	ldr.w	r2, [r3, #516]	; 0x204
 8001df0:	68fb      	ldr	r3, [r7, #12]
 8001df2:	43db      	mvns	r3, r3
 8001df4:	401a      	ands	r2, r3
 8001df6:	697b      	ldr	r3, [r7, #20]
 8001df8:	f8c3 2204 	str.w	r2, [r3, #516]	; 0x204
 8001dfc:	e007      	b.n	8001e0e <HAL_CAN_ConfigFilter+0x14a>
    }
    else /* CAN_FilterInitStruct->CAN_FilterMode == CAN_FilterMode_IdList */
    {
      /* Identifier list mode for the filter*/
      SET_BIT(can_ip->FM1R, filternbrbitpos);
 8001dfe:	697b      	ldr	r3, [r7, #20]
 8001e00:	f8d3 2204 	ldr.w	r2, [r3, #516]	; 0x204
 8001e04:	68fb      	ldr	r3, [r7, #12]
 8001e06:	431a      	orrs	r2, r3
 8001e08:	697b      	ldr	r3, [r7, #20]
 8001e0a:	f8c3 2204 	str.w	r2, [r3, #516]	; 0x204
    }

    /* Filter FIFO assignment */
    if (sFilterConfig->FilterFIFOAssignment == CAN_FILTER_FIFO0)
 8001e0e:	683b      	ldr	r3, [r7, #0]
 8001e10:	691b      	ldr	r3, [r3, #16]
 8001e12:	2b00      	cmp	r3, #0
 8001e14:	d109      	bne.n	8001e2a <HAL_CAN_ConfigFilter+0x166>
    {
      /* FIFO 0 assignation for the filter */
      CLEAR_BIT(can_ip->FFA1R, filternbrbitpos);
 8001e16:	697b      	ldr	r3, [r7, #20]
 8001e18:	f8d3 2214 	ldr.w	r2, [r3, #532]	; 0x214
 8001e1c:	68fb      	ldr	r3, [r7, #12]
 8001e1e:	43db      	mvns	r3, r3
 8001e20:	401a      	ands	r2, r3
 8001e22:	697b      	ldr	r3, [r7, #20]
 8001e24:	f8c3 2214 	str.w	r2, [r3, #532]	; 0x214
 8001e28:	e007      	b.n	8001e3a <HAL_CAN_ConfigFilter+0x176>
    }
    else
    {
      /* FIFO 1 assignation for the filter */
      SET_BIT(can_ip->FFA1R, filternbrbitpos);
 8001e2a:	697b      	ldr	r3, [r7, #20]
 8001e2c:	f8d3 2214 	ldr.w	r2, [r3, #532]	; 0x214
 8001e30:	68fb      	ldr	r3, [r7, #12]
 8001e32:	431a      	orrs	r2, r3
 8001e34:	697b      	ldr	r3, [r7, #20]
 8001e36:	f8c3 2214 	str.w	r2, [r3, #532]	; 0x214
    }

    /* Filter activation */
    if (sFilterConfig->FilterActivation == CAN_FILTER_ENABLE)
 8001e3a:	683b      	ldr	r3, [r7, #0]
 8001e3c:	6a1b      	ldr	r3, [r3, #32]
 8001e3e:	2b01      	cmp	r3, #1
 8001e40:	d107      	bne.n	8001e52 <HAL_CAN_ConfigFilter+0x18e>
    {
      SET_BIT(can_ip->FA1R, filternbrbitpos);
 8001e42:	697b      	ldr	r3, [r7, #20]
 8001e44:	f8d3 221c 	ldr.w	r2, [r3, #540]	; 0x21c
 8001e48:	68fb      	ldr	r3, [r7, #12]
 8001e4a:	431a      	orrs	r2, r3
 8001e4c:	697b      	ldr	r3, [r7, #20]
 8001e4e:	f8c3 221c 	str.w	r2, [r3, #540]	; 0x21c
    }

    /* Leave the initialisation mode for the filter */
    CLEAR_BIT(can_ip->FMR, CAN_FMR_FINIT);
 8001e52:	697b      	ldr	r3, [r7, #20]
 8001e54:	f8d3 3200 	ldr.w	r3, [r3, #512]	; 0x200
 8001e58:	f023 0201 	bic.w	r2, r3, #1
 8001e5c:	697b      	ldr	r3, [r7, #20]
 8001e5e:	f8c3 2200 	str.w	r2, [r3, #512]	; 0x200

    /* Return function status */
    return HAL_OK;
 8001e62:	2300      	movs	r3, #0
 8001e64:	e006      	b.n	8001e74 <HAL_CAN_ConfigFilter+0x1b0>
  }
  else
  {
    /* Update error code */
    hcan->ErrorCode |= HAL_CAN_ERROR_NOT_INITIALIZED;
 8001e66:	687b      	ldr	r3, [r7, #4]
 8001e68:	6a5b      	ldr	r3, [r3, #36]	; 0x24
 8001e6a:	f443 2280 	orr.w	r2, r3, #262144	; 0x40000
 8001e6e:	687b      	ldr	r3, [r7, #4]
 8001e70:	625a      	str	r2, [r3, #36]	; 0x24

    return HAL_ERROR;
 8001e72:	2301      	movs	r3, #1
  }
}
 8001e74:	4618      	mov	r0, r3
 8001e76:	371c      	adds	r7, #28
 8001e78:	46bd      	mov	sp, r7
 8001e7a:	f85d 7b04 	ldr.w	r7, [sp], #4
 8001e7e:	4770      	bx	lr
 8001e80:	40006400 	.word	0x40006400

08001e84 <HAL_CAN_Start>:
  * @param  hcan pointer to an CAN_HandleTypeDef structure that contains
  *         the configuration information for the specified CAN.
  * @retval HAL status
  */
HAL_StatusTypeDef HAL_CAN_Start(CAN_HandleTypeDef *hcan)
{
 8001e84:	b580      	push	{r7, lr}
 8001e86:	b084      	sub	sp, #16
 8001e88:	af00      	add	r7, sp, #0
 8001e8a:	6078      	str	r0, [r7, #4]
  uint32_t tickstart;

  if (hcan->State == HAL_CAN_STATE_READY)
 8001e8c:	687b      	ldr	r3, [r7, #4]
 8001e8e:	f893 3020 	ldrb.w	r3, [r3, #32]
 8001e92:	b2db      	uxtb	r3, r3
 8001e94:	2b01      	cmp	r3, #1
 8001e96:	d12e      	bne.n	8001ef6 <HAL_CAN_Start+0x72>
  {
    /* Change CAN peripheral state */
    hcan->State = HAL_CAN_STATE_LISTENING;
 8001e98:	687b      	ldr	r3, [r7, #4]
 8001e9a:	2202      	movs	r2, #2
 8001e9c:	f883 2020 	strb.w	r2, [r3, #32]

    /* Request leave initialisation */
    CLEAR_BIT(hcan->Instance->MCR, CAN_MCR_INRQ);
 8001ea0:	687b      	ldr	r3, [r7, #4]
 8001ea2:	681b      	ldr	r3, [r3, #0]
 8001ea4:	681a      	ldr	r2, [r3, #0]
 8001ea6:	687b      	ldr	r3, [r7, #4]
 8001ea8:	681b      	ldr	r3, [r3, #0]
 8001eaa:	f022 0201 	bic.w	r2, r2, #1
 8001eae:	601a      	str	r2, [r3, #0]

    /* Get tick */
    tickstart = HAL_GetTick();
 8001eb0:	f7ff f92e 	bl	8001110 <HAL_GetTick>
 8001eb4:	60f8      	str	r0, [r7, #12]

    /* Wait the acknowledge */
    while ((hcan->Instance->MSR & CAN_MSR_INAK) != 0U)
 8001eb6:	e012      	b.n	8001ede <HAL_CAN_Start+0x5a>
    {
      /* Check for the Timeout */
      if ((HAL_GetTick() - tickstart) > CAN_TIMEOUT_VALUE)
 8001eb8:	f7ff f92a 	bl	8001110 <HAL_GetTick>
 8001ebc:	4602      	mov	r2, r0
 8001ebe:	68fb      	ldr	r3, [r7, #12]
 8001ec0:	1ad3      	subs	r3, r2, r3
 8001ec2:	2b0a      	cmp	r3, #10
 8001ec4:	d90b      	bls.n	8001ede <HAL_CAN_Start+0x5a>
      {
        /* Update error code */
        hcan->ErrorCode |= HAL_CAN_ERROR_TIMEOUT;
 8001ec6:	687b      	ldr	r3, [r7, #4]
 8001ec8:	6a5b      	ldr	r3, [r3, #36]	; 0x24
 8001eca:	f443 3200 	orr.w	r2, r3, #131072	; 0x20000
 8001ece:	687b      	ldr	r3, [r7, #4]
 8001ed0:	625a      	str	r2, [r3, #36]	; 0x24

        /* Change CAN state */
        hcan->State = HAL_CAN_STATE_ERROR;
 8001ed2:	687b      	ldr	r3, [r7, #4]
 8001ed4:	2205      	movs	r2, #5
 8001ed6:	f883 2020 	strb.w	r2, [r3, #32]

        return HAL_ERROR;
 8001eda:	2301      	movs	r3, #1
 8001edc:	e012      	b.n	8001f04 <HAL_CAN_Start+0x80>
    while ((hcan->Instance->MSR & CAN_MSR_INAK) != 0U)
 8001ede:	687b      	ldr	r3, [r7, #4]
 8001ee0:	681b      	ldr	r3, [r3, #0]
 8001ee2:	685b      	ldr	r3, [r3, #4]
 8001ee4:	f003 0301 	and.w	r3, r3, #1
 8001ee8:	2b00      	cmp	r3, #0
 8001eea:	d1e5      	bne.n	8001eb8 <HAL_CAN_Start+0x34>
      }
    }

    /* Reset the CAN ErrorCode */
    hcan->ErrorCode = HAL_CAN_ERROR_NONE;
 8001eec:	687b      	ldr	r3, [r7, #4]
 8001eee:	2200      	movs	r2, #0
 8001ef0:	625a      	str	r2, [r3, #36]	; 0x24

    /* Return function status */
    return HAL_OK;
 8001ef2:	2300      	movs	r3, #0
 8001ef4:	e006      	b.n	8001f04 <HAL_CAN_Start+0x80>
  }
  else
  {
    /* Update error code */
    hcan->ErrorCode |= HAL_CAN_ERROR_NOT_READY;
 8001ef6:	687b      	ldr	r3, [r7, #4]
 8001ef8:	6a5b      	ldr	r3, [r3, #36]	; 0x24
 8001efa:	f443 2200 	orr.w	r2, r3, #524288	; 0x80000
 8001efe:	687b      	ldr	r3, [r7, #4]
 8001f00:	625a      	str	r2, [r3, #36]	; 0x24

    return HAL_ERROR;
 8001f02:	2301      	movs	r3, #1
  }
}
 8001f04:	4618      	mov	r0, r3
 8001f06:	3710      	adds	r7, #16
 8001f08:	46bd      	mov	sp, r7
 8001f0a:	bd80      	pop	{r7, pc}

08001f0c <HAL_CAN_AddTxMessage>:
  *         the TxMailbox used to store the Tx message.
  *         This parameter can be a value of @arg CAN_Tx_Mailboxes.
  * @retval HAL status
  */
HAL_StatusTypeDef HAL_CAN_AddTxMessage(CAN_HandleTypeDef *hcan, CAN_TxHeaderTypeDef *pHeader, uint8_t aData[], uint32_t *pTxMailbox)
{
 8001f0c:	b480      	push	{r7}
 8001f0e:	b089      	sub	sp, #36	; 0x24
 8001f10:	af00      	add	r7, sp, #0
 8001f12:	60f8      	str	r0, [r7, #12]
 8001f14:	60b9      	str	r1, [r7, #8]
 8001f16:	607a      	str	r2, [r7, #4]
 8001f18:	603b      	str	r3, [r7, #0]
  uint32_t transmitmailbox;
  HAL_CAN_StateTypeDef state = hcan->State;
 8001f1a:	68fb      	ldr	r3, [r7, #12]
 8001f1c:	f893 3020 	ldrb.w	r3, [r3, #32]
 8001f20:	77fb      	strb	r3, [r7, #31]
  uint32_t tsr = READ_REG(hcan->Instance->TSR);
 8001f22:	68fb      	ldr	r3, [r7, #12]
 8001f24:	681b      	ldr	r3, [r3, #0]
 8001f26:	689b      	ldr	r3, [r3, #8]
 8001f28:	61bb      	str	r3, [r7, #24]
  {
    assert_param(IS_CAN_EXTID(pHeader->ExtId));
  }
  assert_param(IS_FUNCTIONAL_STATE(pHeader->TransmitGlobalTime));

  if ((state == HAL_CAN_STATE_READY) ||
 8001f2a:	7ffb      	ldrb	r3, [r7, #31]
 8001f2c:	2b01      	cmp	r3, #1
 8001f2e:	d003      	beq.n	8001f38 <HAL_CAN_AddTxMessage+0x2c>
 8001f30:	7ffb      	ldrb	r3, [r7, #31]
 8001f32:	2b02      	cmp	r3, #2
 8001f34:	f040 80b8 	bne.w	80020a8 <HAL_CAN_AddTxMessage+0x19c>
      (state == HAL_CAN_STATE_LISTENING))
  {
    /* Check that all the Tx mailboxes are not full */
    if (((tsr & CAN_TSR_TME0) != 0U) ||
 8001f38:	69bb      	ldr	r3, [r7, #24]
 8001f3a:	f003 6380 	and.w	r3, r3, #67108864	; 0x4000000
 8001f3e:	2b00      	cmp	r3, #0
 8001f40:	d10a      	bne.n	8001f58 <HAL_CAN_AddTxMessage+0x4c>
        ((tsr & CAN_TSR_TME1) != 0U) ||
 8001f42:	69bb      	ldr	r3, [r7, #24]
 8001f44:	f003 6300 	and.w	r3, r3, #134217728	; 0x8000000
    if (((tsr & CAN_TSR_TME0) != 0U) ||
 8001f48:	2b00      	cmp	r3, #0
 8001f4a:	d105      	bne.n	8001f58 <HAL_CAN_AddTxMessage+0x4c>
        ((tsr & CAN_TSR_TME2) != 0U))
 8001f4c:	69bb      	ldr	r3, [r7, #24]
 8001f4e:	f003 5380 	and.w	r3, r3, #268435456	; 0x10000000
        ((tsr & CAN_TSR_TME1) != 0U) ||
 8001f52:	2b00      	cmp	r3, #0
 8001f54:	f000 80a0 	beq.w	8002098 <HAL_CAN_AddTxMessage+0x18c>
    {
      /* Select an empty transmit mailbox */
      transmitmailbox = (tsr & CAN_TSR_CODE) >> CAN_TSR_CODE_Pos;
 8001f58:	69bb      	ldr	r3, [r7, #24]
 8001f5a:	0e1b      	lsrs	r3, r3, #24
 8001f5c:	f003 0303 	and.w	r3, r3, #3
 8001f60:	617b      	str	r3, [r7, #20]

      /* Check transmit mailbox value */
      if (transmitmailbox > 2U)
 8001f62:	697b      	ldr	r3, [r7, #20]
 8001f64:	2b02      	cmp	r3, #2
 8001f66:	d907      	bls.n	8001f78 <HAL_CAN_AddTxMessage+0x6c>
      {
        /* Update error code */
        hcan->ErrorCode |= HAL_CAN_ERROR_INTERNAL;
 8001f68:	68fb      	ldr	r3, [r7, #12]
 8001f6a:	6a5b      	ldr	r3, [r3, #36]	; 0x24
 8001f6c:	f443 0200 	orr.w	r2, r3, #8388608	; 0x800000
 8001f70:	68fb      	ldr	r3, [r7, #12]
 8001f72:	625a      	str	r2, [r3, #36]	; 0x24

        return HAL_ERROR;
 8001f74:	2301      	movs	r3, #1
 8001f76:	e09e      	b.n	80020b6 <HAL_CAN_AddTxMessage+0x1aa>
      }

      /* Store the Tx mailbox */
      *pTxMailbox = (uint32_t)1 << transmitmailbox;
 8001f78:	2201      	movs	r2, #1
 8001f7a:	697b      	ldr	r3, [r7, #20]
 8001f7c:	409a      	lsls	r2, r3
 8001f7e:	683b      	ldr	r3, [r7, #0]
 8001f80:	601a      	str	r2, [r3, #0]

      /* Set up the Id */
      if (pHeader->IDE == CAN_ID_STD)
 8001f82:	68bb      	ldr	r3, [r7, #8]
 8001f84:	689b      	ldr	r3, [r3, #8]
 8001f86:	2b00      	cmp	r3, #0
 8001f88:	d10d      	bne.n	8001fa6 <HAL_CAN_AddTxMessage+0x9a>
      {
        hcan->Instance->sTxMailBox[transmitmailbox].TIR = ((pHeader->StdId << CAN_TI0R_STID_Pos) |
 8001f8a:	68bb      	ldr	r3, [r7, #8]
 8001f8c:	681b      	ldr	r3, [r3, #0]
 8001f8e:	055a      	lsls	r2, r3, #21
                                                           pHeader->RTR);
 8001f90:	68bb      	ldr	r3, [r7, #8]
 8001f92:	68db      	ldr	r3, [r3, #12]
        hcan->Instance->sTxMailBox[transmitmailbox].TIR = ((pHeader->StdId << CAN_TI0R_STID_Pos) |
 8001f94:	68f9      	ldr	r1, [r7, #12]
 8001f96:	6809      	ldr	r1, [r1, #0]
 8001f98:	431a      	orrs	r2, r3
 8001f9a:	697b      	ldr	r3, [r7, #20]
 8001f9c:	3318      	adds	r3, #24
 8001f9e:	011b      	lsls	r3, r3, #4
 8001fa0:	440b      	add	r3, r1
 8001fa2:	601a      	str	r2, [r3, #0]
 8001fa4:	e00f      	b.n	8001fc6 <HAL_CAN_AddTxMessage+0xba>
      }
      else
      {
        hcan->Instance->sTxMailBox[transmitmailbox].TIR = ((pHeader->ExtId << CAN_TI0R_EXID_Pos) |
 8001fa6:	68bb      	ldr	r3, [r7, #8]
 8001fa8:	685b      	ldr	r3, [r3, #4]
 8001faa:	00da      	lsls	r2, r3, #3
                                                           pHeader->IDE |
 8001fac:	68bb      	ldr	r3, [r7, #8]
 8001fae:	689b      	ldr	r3, [r3, #8]
        hcan->Instance->sTxMailBox[transmitmailbox].TIR = ((pHeader->ExtId << CAN_TI0R_EXID_Pos) |
 8001fb0:	431a      	orrs	r2, r3
                                                           pHeader->RTR);
 8001fb2:	68bb      	ldr	r3, [r7, #8]
 8001fb4:	68db      	ldr	r3, [r3, #12]
        hcan->Instance->sTxMailBox[transmitmailbox].TIR = ((pHeader->ExtId << CAN_TI0R_EXID_Pos) |
 8001fb6:	68f9      	ldr	r1, [r7, #12]
 8001fb8:	6809      	ldr	r1, [r1, #0]
                                                           pHeader->IDE |
 8001fba:	431a      	orrs	r2, r3
        hcan->Instance->sTxMailBox[transmitmailbox].TIR = ((pHeader->ExtId << CAN_TI0R_EXID_Pos) |
 8001fbc:	697b      	ldr	r3, [r7, #20]
 8001fbe:	3318      	adds	r3, #24
 8001fc0:	011b      	lsls	r3, r3, #4
 8001fc2:	440b      	add	r3, r1
 8001fc4:	601a      	str	r2, [r3, #0]
      }

      /* Set up the DLC */
      hcan->Instance->sTxMailBox[transmitmailbox].TDTR = (pHeader->DLC);
 8001fc6:	68fb      	ldr	r3, [r7, #12]
 8001fc8:	6819      	ldr	r1, [r3, #0]
 8001fca:	68bb      	ldr	r3, [r7, #8]
 8001fcc:	691a      	ldr	r2, [r3, #16]
 8001fce:	697b      	ldr	r3, [r7, #20]
 8001fd0:	3318      	adds	r3, #24
 8001fd2:	011b      	lsls	r3, r3, #4
 8001fd4:	440b      	add	r3, r1
 8001fd6:	3304      	adds	r3, #4
 8001fd8:	601a      	str	r2, [r3, #0]

      /* Set up the Transmit Global Time mode */
      if (pHeader->TransmitGlobalTime == ENABLE)
 8001fda:	68bb      	ldr	r3, [r7, #8]
 8001fdc:	7d1b      	ldrb	r3, [r3, #20]
 8001fde:	2b01      	cmp	r3, #1
 8001fe0:	d111      	bne.n	8002006 <HAL_CAN_AddTxMessage+0xfa>
      {
        SET_BIT(hcan->Instance->sTxMailBox[transmitmailbox].TDTR, CAN_TDT0R_TGT);
 8001fe2:	68fb      	ldr	r3, [r7, #12]
 8001fe4:	681a      	ldr	r2, [r3, #0]
